:020000041000EA
:10100000501500201D100010000000009D10001061
:101010000018040000010000000000801149124A7D
:10102000124B00F018F8124880471249124A134B2D
:1010300000F011F81249134A134B00F00CF8134951
:10104000134A0020521A02DD043A8850FCDC114891
:101050008047114880479B1A03DD043BC858D05095
:10106000FBDC704704E600100C000020500100205B
:101070007995001048E700105015002090280020B6
:1010800088FA001090280020902800209028002046
:10109000683A0020DDC000109DAF0010FEE70000A0
:1010A00000207047F0B5B1B01D1C36AB1C8838ABC2
:1010B0001F8805A83AAB1E880091039206F056F8E7
:1010C000009B002B01D1012481E0002DFBD0379B38
:1010D000002BF8D0399B002BF5D0231C2033019333
:1010E000DB19802B01DD042471E0062006F02EF8C8
:1010F000291C0290221C18A80BF02FF810AA944665
:10110000019B379963443A1C181C0BF026F805A87C
:101110000299012206F04CF80028E4D105A80099B4
:10112000039A06F06BF80028CDD1E519ADB205A8F9
:1011300018A92A1C06F0C0F80028C4D105A810A9D7
:1011400006F0CCF8041EBED1B4423BD205A806F08E
:10115000F9F8002838D12A1C05A810A9203206F079
:10116000ABF8002830D108AF05A8391C06F0B6F856
:10117000002829D105A806F0E5F8002824D105A803
:1011800010A9202206F098F800281DD105A810A962
:1011900006F0A4F8002817D1211C20232031009349
:1011A000B14202DD1F22324000920023009A98B221
:1011B000904205D239980219F85CD0540133F5E712
:1011C0008CB2C1E7002402E0B442A441644205A805
:1011D00005F0D2FF10A8002180220AF0C7FF08A85E
:1011E000002120220AF0C2FF201C31B0F0BDF0B572
:1011F0009DB01F1C22AB20CB0EA81B880E1C089391
:1012000025AB1B88141C099326AB1B78079305F0AC
:1012100023FE279B002B01D1012529E0002EFBD0C6
:10122000002DF9D0249B002BF6D0002FF4D00EA86F
:1012300002213A1C802305F015FE0028ECD1249BE6
:1012400002960093099B0AAE0193279B2A1C0393E5
:10125000079B049605930EA8211C089B05F046FEEB
:10126000051ED9D1279B311C1819079A0AF075FF62
:101270000EA805F018FE281C1DB0F0BDF0B599B001
:101280001F1C1EAB20CB0AA81B880C1C089321AB8B
:101290001B880792099322AB1E7805F0DDFD239B86
:1012A000002B01D1012424E0002CFBD0002DF9D02B
:1012B000209B002BF6D0002FF4D00AA802213A1C64
:1012C000802305F0CFFD0028ECD1079B0294991BE9
:1012D000209B64180093099B04940193239B05961B
:1012E00003930AA82A1C089B05F046FE441EA04151
:1012F00084B20AA805F0D7FD201C19B0F0BD002863
:1013000007D00368002B04D0197B1A6801238B4097
:1013100053607047002808D00368002B05D0197B64
:101320001A6880235B028B4053607047064B012094
:101330001A68002A07D11A6812181A60186801384A
:10134000431E984180B270479428002008B5C368B6
:10135000806898470022014B1A6008BD942800203D
:1013600008B5034B00211868FFF7F0FF08BDC04621
:101370009028002008B5034B00211868FFF7E6FF0E
:1013800008BDC04690280020134A38B51368151CC4
:101390001C68A3680733DB7F002B05D1A3680833E3
:1013A000DB7F002B12D008E0201C09F057FCA2685C
:1013B000D31DDB7F002BFBD1F0E7201C09F07CFC68
:1013C000A268131C0833DB7F002BFAD128680121A7
:1013D000FFF7BCFF38BDC0469028002008B5FFF7D6
:1013E000D3FF08BD08B5FFF7CFFF08BD08B5024819
:1013F00009F0F1F8002008BDF02600200020704719
:10140000F7B5051C0F1C161CFFF790FF041E15D125
:101410000E4B28681D60009601262A79019652001D
:10142000311C3B1C09F027F900280CD0EB68A86898
:10143000311C9847064B1C60341C04E0EB68A8681C
:10144000022198470224201CFEBDC046902800209F
:1014500094280020F0B585B0051C0F1C161CFFF762
:1014600065FF041E16D10F4B28681D6000960126EB
:101470002A79019652000296311C3B1C09F02CFA85
:1014800000280CD0EB68A868311C9847064B1C60FC
:10149000341C04E0EB68A868022198470224201C51
:1014A00005B0F0BD902800209428002070B5051CE0
:1014B0000E1CFFF73BFF0224002810D1C8232A6826
:1014C000311C5B009E4200D9191CFA2389B29B0093
:1014D0005943106808F038FA441EA04184B2EB6802
:1014E000002B02D0A868211C9847022C02D00022B1
:1014F000014B1A60201C70BD942800200022014B73
:101500001A7170476415002008B5024808F092FD72
:10151000002008BD582600200023F7B50E4C0768B0
:101520000E1C019322600D1C9F4212D02268AB1B3F
:1015300093420ED2002329783868019308F0C8FB43
:101540000135019B5A1C0192FA2252009342F8D9AC
:10155000ECE700200190FEBDA0280020002337B555
:1015600001930368002B01D1002519E0041C012020
:101570002071181C08F0BAFD051E11D1094B1A780C
:101580002379002BF0D0002AFAD1019B013301937B
:101590000199054B9942F3D92271206808F050FD5A
:1015A000A8B23EBD9C280020FFFF1F0008B52228DE
:1015B00008D033280BD011280BD11038402A09D875
:1015C000054800E005480AF0C8FD002002E0044894
:1015D000F9E7012008BDC046A4280020183A0020E1
:1015E0005A3A002038B5031C141C081C222B0ED0BC
:1015F000332B12D0112B13D11288103B3F2A10D954
:10160000402509492A1C0AF0A8FD258003E012881C
:1016100006490AF0A2FD002303E012880449F8E716
:101620000123181C38BDC046A4280020183A002009
:101630005A3A0020002303707047000010B5084C90
:10164000201C08F048FE201C08F030FE201C08F08A
:101650004BFE044A5368002B01D09068984710BD98
:101660008C260020E428002010B5826064225A43B2
:10167000044C4160111C201C08F050FE201C08F096
:10168000FBFD10BD8C26002008B50378002B05D18A
:1016900001330370FA239B00FFF7E6FF08BD00004B
:1016A00010B5064C002806D0002904D00A1C011CE5
:1016B000201CFFF7E9FF201C10BDC046E4280020D5
:1016C000704770477047000010B5064C201C08F0AA
:1016D00002FE201C08F008FE034A13680133136061
:1016E00010BDC04664260020F4280020024B186874
:1016F000421C1A607047C046F8280020014B186849
:101700007047C046F42800200023044A1168834231
:1017100002D813685B1AFAE77047C046F428002025
:1017200010B5041C8069E36998470023238410BD29
:10173000002802D000230330C3777047F0B585B08E
:1017400002930AAB40CB041C1B880191151C039328
:10175000002839D04769002F36D0002E34D0038CB2
:10176000012B33D001230021038414220AF0FEFC54
:101770000023022D03D13278A360A27301E0A3738A
:10178000A6606B469B88002623806B461B89657389
:1017900063806B469B892673A380E680E31CD97F18
:1017A000381C321C04F0A4F9231DD97F6069012282
:1017B00004F09EF9291C6069221C04F055FA051EEC
:1017C000B54204D0268402E0044D00E0044D201C04
:1017D000FFF7AEFF281C05B0F0BDC04603030000B4
:1017E00005030000012903D0022903D1043000E0E1
:1017F0000330C27770470000F8B5002901D10024FA
:101800001DE00F1C051C24210120161C0AF054FCAD
:10181000041EF4D000220121031D0284C7618661E9
:10182000D977C31CDA77281C0649221C04F06CF90E
:10183000051E606103D1201C0AF076FC2C1C201CC4
:10184000F8BDC0462117001038B500280BD0038C16
:10185000012B0AD0041C406904F0B0F9051C201CBF
:101860000AF062FC02E0024D00E0024D281C38BD87
:10187000030300000503000070B5041C0D1C0028C4
:1018800024D04069002821D0238C012B20D00126B0
:10189000E31C2684D97F002204F02AF9231DD97F76
:1018A0006069321C04F024F960693321002D00D0F6
:1018B0001121022204F01CF9291C6069002204F0A5
:1018C000A3F9051E05D00023238402E0034D00E0A8
:1018D000034D201CFFF72CFF281C70BD03030000E4
:1018E0000503000070B5041C0D1C002824D04069BD
:1018F000002821D0238C012B20D00126E31C268434
:10190000D97F002204F0F4F8231DD97F6069321CCE
:1019100004F0EEF860693321002D00D0222102226C
:1019200004F0E6F8291C6069002204F07DF9051E28
:1019300005D00023238402E0034D00E0034D201C6A
:10194000FFF7F6FE281C70BD03030000050300002E
:10195000F7B5041C0D1C01920093002835D047698F
:10196000002F32D0002B30D0089B002B2DD0038CC1
:10197000012B2CD001260021068414220AF0F6FB4C
:101980006B46258000259B88A5726380009B381CD0
:101990002361089B2A1C1B88E580A380089B258166
:1019A000E360E31CD97F04F0A3F8231DD97F321C28
:1019B000606904F09DF8A17A6069221C04F044F982
:1019C000061EAE4204D0258402E0044E00E0044E20
:1019D000201CFFF7ADFE301CFEBDC0460303000017
:1019E00005030000F7B5041C0D1C01921F1C002804
:1019F00031D043690093002B2DD0002A2BD0002F2B
:101A000029D0038C012B28D0012600210684142222
:101A10000AF0ACFB25800025019BA672658023613E
:101A20003B88E760A380E580E31C2581D97F00988F
:101A30002A1C04F05DF8231DD97F321C606904F074
:101A400057F8A17A6069221C04F0FEF8061EAE4227
:101A500004D0258402E0044E00E0044E201CFFF771
:101A600067FE301CFEBDC0460303000005030000F6
:101A7000F7B54026171C08AC20CCB7432488002FAC
:101A800004D100950194FFF759FE00E00048FEBD27
:101A900003030000F7B5041C0D1C171C019300285C
:101AA0002ED043690093002B2AD0002A28D0038C23
:101AB000012B27D001260021068414220AF056FBB0
:101AC0006B46258000259B882673A3806673E31CE4
:101AD0006580A760E580D97F00982A1C04F008F88B
:101AE000231DD97F321C606904F002F8617B6069B4
:101AF000221C04F0B9F8061EAE4204D0258402E090
:101B0000034E00E0034E201CFFF712FE301CFEBD0A
:101B10000303000005030000F7B5041C0091151C29
:101B2000019300282CD04769002F29D0002A27D004
:101B3000038C012B26D001260021068414220AF0F2
:101B400015FB6B461B78381CE371E31CD97F002220
:101B500003F0CEFF231DD97F321C606903F0C8FF5C
:101B60006B4600269B882560A380A671E179606999
:101B7000221C04F06DF9051EB54204D0268402E053
:101B8000034D00E0034D201CFFF7D2FD281CFEBDD5
:101B9000030300000503000010B5041E16D04069C1
:101BA000002813D0002911D0238C012B10D0012341
:101BB0002384DB182160A280A371E179221C04F048
:101BC00047F9002805D00023238402E0014800E003
:101BD000014810BD030300000503000010B5041EFA
:101BE00013D04069002810D0238C012B0FD0012383
:101BF0002160A2802384A371E179221C04F028F9DA
:101C0000002805D00023238402E0024800E00248B7
:101C100010BDC04603030000050300001FB503AB61
:101C20001A7000930123022201930023FFF786FD1F
:101C300005B000BD10B5041C406AA36A9847002394
:101C4000A38510BD002802D000232E3003707047FA
:101C5000F7B5009308AB171C04CB041C1B880E1CA3
:101C60000193838D012B26D001250021858520221B
:101C70000AF07CFA089B6760A3606B469B88206A29
:101C800063806B461B8800222380231C2E33197827
:101C900003F02EFF231C2F3319782A1C206A03F02F
:101CA00027FF206A311C221C03F0EEFF051E03D023
:101CB0000023A38500E0034D201CFFF7C3FF281C71
:101CC000FEBDC04605040000F7B5041C009101925A
:101CD0001D1C00283AD0076A002F37D0099B002B23
:101CE00034D0089B002B31D00A9B002B2ED0838D43
:101CF000012B2DD001260021202286850AF036FAFC
:101D00006B461B79657023700A9B381C2361231C6A
:101D10002E331978002203F0EBFE231C2F331978A1
:101D2000206A321C03F0E4FE089B002D01D06360A2
:101D300001E01B886380099B206AE3600A9B00998D
:101D40002361221C04F022F8051C02E0034D00E090
:101D5000034D201CFFF776FF281CFEBD0304000086
:101D600005040000F0B585B002930AAB1B88041C83
:101D70000191171C0393002836D0056A002D33D03B
:101D8000002A31D00B9B002B2ED00C9B002B2BD08C
:101D9000838D012B2AD001260021202286850AF07E
:101DA000E5F96B461B7A2760A3736B469B89281C59
:101DB000A3810B9B002263600C9BA360231C2E332A
:101DC000197803F095FE231C2F331978206A321CF2
:101DD00003F08EFE206A0199221C03F069FF051EA4
:101DE00005D00023A38502E0044D00E0044D201C33
:101DF000FFF728FF281C05B0F0BDC0460304000013
:101E000005040000F0B585B002930AAB009204CB44
:101E1000041C1B88019103930CAB1D7800283DD056
:101E2000076A002F3AD0009B002B37D0002A35D00C
:101E30000D9B002B32D0838D012B31D00126002148
:101E4000202286850AF092F9231C2E331978381C3B
:101E5000002203F04DFE231C2F331978206A321C18
:101E600003F046FE009BA57323606B461B7A23712B
:101E70000A9BA3606B469B89A3810D9B002D02D119
:101E80001B88A38200E02361206A0199221C03F0D1
:101E90002BFF051E05D00023A38502E0044D00E0C2
:101EA000044D201CFFF7CEFE281C05B0F0BDC04637
:101EB0000304000005040000F0B585B002930AABEE
:101EC0001B78019203930EAB1E78838D041C0D1CAE
:101ED000012B39D001270021202287850AF046F9FD
:101EE000019B206AA3606B461B89002223800C9B08
:101EF00063610D9B6360231C2E33197803F0F8FD9A
:101F0000231C2F331978206A3A1C03F0F1FD0B9B38
:101F1000002E09D023616B461B7B206A2373291C8A
:101F2000221C03F04DFF0AE01B88206A2383231C38
:101F3000183323612673291C221C03F05FFF051E42
:101F400003D00023A38500E0034D201CFFF77AFE99
:101F5000281C05B0F0BDC04605040000012903D0CF
:101F6000022903D12F3000E02E30027070470000AC
:101F7000F8B5002901D100241EE00F1C051C3021FA
:101F80000120161C0AF098F8041EF4D0031C00224D
:101F900001212F33828587624662013B5970281CDC
:101FA0001A700649221C03F0AFFD051E206203D102
:101FB000201C0AF0B9F82C1C201CF8BD351C0010A0
:101FC00038B500280BD0838D012B0AD0041C006A81
:101FD00003F0F4FD051C201C0AF0A6F802E0024DF7
:101FE00000E0024D281C38BD030400000504000079
:101FF00013B500280AD0046A002C07D0002A05D0A7
:10200000002400940194FFF723FE00E0004816BD71
:1020100003040000F8B5041C0D1C00282BD0076A2F
:10202000002F28D0002926D0838D012B25D0012612
:102030000021868520220AF099F8231C2E33197876
:10204000381C002203F054FD231C321C00262F33C1
:102050001978206A03F04CFDA5602673E66166607E
:102060002660A979206A221C03F0E0FE051EB54215
:1020700004D0A68502E0044D00E0044D201CFFF7CB
:10208000E1FD281CF8BDC046030400000504000063
:10209000F7B5041C0D1C01921E1C00283AD0076ADB
:1020A000002F37D0002935D0002B33D0838D012B62
:1020B00032D001230021838520220AF057F8231C07
:1020C0002E331978381C002203F012FD231C2F3305
:1020D0001978206A012203F00BFD6B461B79A5607D
:1020E000637302232373AB88E3610023636023607F
:1020F000019B002B01D0666002E01223266023734F
:10210000A979206A221C03F091FE051E05D0002348
:10211000A38502E0034D00E0034D201CFFF792FD74
:10212000281CFEBD0304000005040000F7B5041CD4
:102130000D1C0192002831D0076A002F2ED00029F3
:102140002CD0002A2AD0838D012B29D001260021F2
:10215000868520220AF00AF8231C2E331978381CB1
:10216000002203F0C5FC231C2F331978321C206A8F
:1021700003F0BEFC019B002663610323A56023736B
:10218000AB886660E3612660A979206A221C03F0AF
:102190004DFE051EB54204D0A68502E0034D00E0C9
:1021A000034D201CFFF74EFD281CFEBD030400005C
:1021B000050400001FB5069C0094079C0194089C30
:1021C0000294FFF781FD04B010BD30B50D1C141C46
:1021D00085B00093089B11210193099B2A1C02934F
:1021E000231CFFF7BFFD05B030BD30B50D1C141C1E
:1021F00085B008AA118809AA127800930A9B019158
:102200000292039311212A1C231CFFF7FBFD05B04A
:1022100030BD0000F7B5041C0191161C0093002886
:1022200038D0076A002F35D0002A33D01368002B2E
:1022300030D0009B012B02D1089B002B2AD0A38D0C
:10224000012B29D001250021A5852022201C09F081
:102250008DFF6B469B88266023816B461B78381C5C
:10226000A372089B00226360231C2E33197803F0AD
:102270003FFC231C2F3319782A1C206A03F038FCFA
:10228000291C206A221C03F03FFD051E05D00023F7
:10229000A38502E0034D00E0034D201CFFF7D2FCB4
:1022A000281CFEBD0304000005040000F0B587B043
:1022B00003930CAB029204CB041C1B880191049382
:1022C0000EAB1B8805930FAB1E78002841D0076A20
:1022D000002F3ED0002A3CD0012E02D1109B002BB3
:1022E00037D0A38D012B36D0012500212022A585D2
:1022F000201C09F03BFF6B469B88381C2380029B07
:102300000022E3606B469B8963800C9BA3606B4655
:102310001B8AA380231C2E3319782943197003F0DC
:10232000E7FB231C2F331978206A2A1C03F0E0FBFB
:102330006B469B8AE380002E01D0109B2361206AAC
:102340000121221C03F000FD051E05D00023A385FA
:1023500002E0044D00E0044D201CFFF773FC281C34
:1023600007B0F0BD03040000050400001FB5069C83
:102370000094079C0194089C0294FFF7A5FC04B00C
:1023800010BD1FB506AC24880094079C0194089CDE
:102390000294FFF7E7FC04B010BD7FB508AC40CC59
:1023A00025880AAC2478009602940B9C019503942E
:1023B000FFF728FD04B070BDF0B587B00EAC2778EC
:1023C0009C460F9E109D119C002814D0036A002B80
:1023D00011D0002A0FD0002E0DD0002D0BD0002CD4
:1023E00009D0039401246346009701960295049452
:1023F000FFF762FD00E0014807B0F0BD03040000F4
:10240000F0B587B00CAB1C780D9E0E9D00281AD03D
:10241000036A002B17D0002D15D00F9B002B12D074
:10242000002E10D0071C01222E373B7813433B703F
:10243000049200220F9B0094039301960295131CB3
:10244000FFF73AFD00E0014807B0F0BD03040000CB
:10245000F0B589B010AC278800281ED0046A002C83
:102460001BD0119C002C18D0129C002C15D0002AD7
:1024700013D0061C02252E3634782C4334701E24CB
:1024800000266C4427800194119C00960294129CB3
:1024900004960394FFF710FD00E0014809B0F0BD79
:1024A0000304000030B589B00EAC2488002810D099
:1024B000056A002D0DD0002A0BD01E256D442C80FE
:1024C000002401950094029403940494FFF7F4FC13
:1024D00000E0014809B030BD0304000013B5002836
:1024E00010D0046A002C0DD0D41D9C420ADA282A90
:1024F00008D89B1A009101929BB204210022FFF799
:10250000A7FB00E0004816BD0304000038B583694E
:10251000041C0D1C002B01D0C0699847231C042209
:102520002933A5851A7028342378012B03D1002D77
:1025300001D10133237038BD38B5031C2E331B780D
:102540000222191C041C91432ED1051C2A352A781D
:10255000B22A15D0B32A2BD0B12A2ED1002B02D10A
:102560008068FEF7D7FEE068FEF7D4FEB2232B703A
:102570009A23DB00E058FA231149221CDB000FE00C
:10258000002B02D18068FEF7BAFEE068FEF7B7FEC6
:10259000B3232B709A23221CDB00E0580849094B17
:1025A000FFF762F800200AE0AE230122FF33C25495
:1025B000201C054901F084FB01E08120400038BD6A
:1025C00039250010E02E00000D25001038B5031C41
:1025D000042229331A70013B1B78041C0D1C012BAB
:1025E00008D10069FEF70AFFA068FEF793FEE068D5
:1025F000FEF790FEA369002B02D0E069291C9847E2
:1026000038BD10B5041C29342378032B15D0036979
:1026100000229860031C2E331A70043BB1321A70EA
:10262000021C01232F321370073A1370FFF784FF47
:10263000002804D10323237001E08120400010BD55
:1026400073B5041C28342478069E022C12D1051C74
:1026500029352C78032C0DD0036246620096041CA9
:1026600001F08CFB002807D1A38D002B04D103338C
:102670002B7001E08120400076BD0000F8B5071CFA
:10268000812629373B787600351C032B16D0031C96
:102690000122283386850A491A70041C01F044FB84
:1026A000051EB5420AD12069FEF7A8FEA068FEF714
:1026B00031FEE068FEF72EFE04233B70281CF8BDB7
:1026C000CD25001070B5051C041C0020631B9BB2B7
:1026D0008B4213D20F2322780134424013401E1C38
:1026E000D2B21B0153401A09000A5B0050405A4005
:1026F000331C12015340DB005840E7E770BD70B552
:102700000D1C011C6231061C0978012A02D103202C
:1027100001310140346F022A02D1746F002107E0B9
:10272000002A05D1301C60300078092800D1746F70
:1027300052010A43D2B22270002D15D0311C321C36
:1027400066316132002B02D00B78002B04D00320BD
:102750001378013303401370137822789B001343DE
:10276000237000230B7003E080235B421A43227026
:102770002B0AE91C6370A57089B2201CFFF7A2FF29
:102780006319020A0535DA701871AAB2301C211CCF
:1027900000F08CFC70BD0000F0B50025041C2F1C5F
:1027A00089B00491039201930595009506950295D1
:1027B000261C8323049A60365B009A4204D1337846
:1027C000012B01D008233370307801380A2800D952
:1027D00075E109F00BFA0B0012002900F200180154
:1027E0000F0174014E01EA006200AA0004994B1E19
:1027F00099410223591A89B263E1261C8123049A64
:1028000060365B009A4201D1FD3B0BE0FEF776FF9C
:102810000323A0673370201C00F060FC002800D167
:1028200054E106233370C3E7231C603307938123ED
:10283000049A5B009A4201D1FD3B03E0019B042B0B
:1028400003D80623079A1370B2E7039B039A1E78F6
:10285000927873069B0F009303233340069333074C
:102860009B0F0293039B03985B78F6091B021A43A4
:102870000592039B019A0A369B189A1E1278013B17
:102880001B78120213431F1C019B991E89B2FFF78C
:1028900019FF079B051C1E708AE7AF420AD1059BF2
:1028A000002B07D0019A05339A4203D1009B023BCB
:1028B000012B03D8231C0622603386E0211C03224F
:1028C000251C62310B78603501331340029A9A421D
:1028D00006D0092300212B70201C0A1C0B1C8FE042
:1028E000231C61331B78069A934201D0092303E02D
:1028F000009B012B02D104332B704DE06B461B7AF9
:10290000019A0B70606F039909F027FC6A46231C3B
:1029100092886E331A80221C0023643213700422C2
:10292000201C2A70191C1A1C6AE0009B9A1E504237
:102930005041231C633319780922033B814244D15F
:102940000522AF4241D1019A052A1ED8059A002AD4
:102950001BD100290DD009221A70231C083A6633B6
:102960001A70053B02321A705A7002233D1C009304
:102970001EE7029A002A08D1009A032A05D0221CD9
:102980006132127806998A4201D0092203E0009A46
:10299000012A03D104321A703D1C09E70122E56FB8
:1029A0001A70201C0221029A8EE0231C032260333D
:1029B0001A70201C00F092FB88E0231C81220499ED
:1029C00060335200914202D1FD3A1A70F0E60122C2
:1029D0001A70231C633319780B331B88626F053B15
:1029E000E56F03329BB2201C002901D004216CE06A
:1029F00006216AE0022300213370201C01220B1CF7
:102A0000FFF77DFE62E0FEF779FEE36CC01A304B03
:102A1000984224D8211C64310A78032A0FD100235C
:102A20000339CB700A704A70221C01216632117082
:102A30000431063A1170201C191C022209E00132EF
:102A4000231C0A70022260331A709989201C00220C
:102A50000123FFF754FE0622002801D103E00822DB
:102A6000231C60331A70231C60331B78082B2DD174
:102A70009EE6221C251C663213786535002B01D199
:102A800001332B702B78002B05D10121E56F3170BC
:102A9000201C1A1C19E0211C032361310B704B70A0
:102AA0000021023B137004333370201C0B1C0222E4
:102AB000FFF725FE0823337000232B7006E0012169
:102AC0003170201C0022E56F131CA84709B0F0BD2F
:102AD0001FBF020070B5051C002360350E1C2B7053
:102AE0000E49041C00F0ACFA002814D10123221C6A
:102AF000E66761322B70023313705370231C663308
:102B00001870013B1870A9239B00E3182367044B3E
:102B1000E318636701E08120400070BD9927001031
:102B2000BA03000008B5031C60331A78012A11D1DA
:102B300000290FD001321A70021C00236432137076
:102B4000013A1370093211800A2282661A1CFFF7BB
:102B5000D6FD01E08120400008BD0000021C10B538
:102B6000041C8120603213784000012B0DD1032119
:102B700011700021033251701370FEF7BFFD034B3B
:102B8000A067A366201C00F0A9FA10BD20BF0200B8
:102B90000B1C011C10B58031CB240B700123640089
:102BA000035302340253CD2252008354D03C0232EC
:102BB00084529C22FF3283541A1C0069FEF720FCC9
:102BC00010BD08B582210422FFF7E2FF08BD70B5F1
:102BD000061C8036051C3170141C191C813009F04C
:102BE000BCFACB2302210134A2B25B00EA520433C7
:102BF000E954C6310233E9529C23C739FF33E95403
:102C00002869311CFEF7FCFB70BD08B59C23FF331F
:102C1000C35C012B08D1011C9633FF33C25A8031AB
:102C20000069FEF7EDFB09E0022B07D1011C973389
:102C3000FF33C25A80310069FEF70CFC08BD00006A
:102C400038B50023041C0069C568C360FEF72EFC7C
:102C50002369DD60002812D0CE225200A35A591EEB
:102C6000A152002B09D09A23DB00E0580449221C12
:102C7000E83BFEF7F9FC012001E08120400038BD6F
:102C8000852C001073B5041C0221838801AE1A0A3A
:102C900032707370D6256D00635D552B64D012D8E9
:102CA000222B00D18AE009D8112B00D0ABE02223DF
:102CB000201C635581210222331C7CE0332B29D058
:102CC000442B29D09FE0882B00D17DE004D8662BCF
:102CD00052D0772B5FD096E0AA2B00D185E0BB2B9A
:102CE00000D090E06421201CFFF7AAFF011E01D153
:102CF000332357E081235B00984200D083E0583BA8
:102D000063559A23DB00E0583F49221C3F4BFEF7F6
:102D1000ABFC78E0442328E0231C221C82331B7880
:102D2000833212781B026846134380220270608847
:102D30001132FF32904206D9934210D804236A46DA
:102D40005370513305E0934209D903236A46537007
:102D500052336355201C892102226B462BE0D62377
:102D600066225B00E25495E76623201C842104223E
:102D70006355FFF70DFF46E0231C221C823383328C
:102D80001B78107862881B0203439A4201D9AA2358
:102D900008E0772306E06188201CFFF751FF011E41
:102DA00002D11123635575E781235B0098422AD134
:102DB000583B635527E0FFF70AFF24E08823201CD7
:102DC000635581210222D4E7AA236355231C221CC8
:102DD00080331B78813212781B021343A2889A42F7
:102DE00000D257E7A380002154E7A0230222FF333B
:102DF000002900D00022E254D42300225B00E558D1
:102E0000201C131CA84773BD852C0010E02E000069
:102E100038B5A025041C0B1CFF35002905D0022263
:102E20004255A732FF3285585DE0405D01380428E5
:102E300069D808F0D1FE070B165B0300201C00F0D8
:102E400071F86AE0201CFFF71DFF66E0032363555D
:102E50009C33FF33E35C022B03D1201C822104222C
:102E600018E0CF235B00E35C022B16D1231C8033D8
:102E70001B785B061FD5231C82331A7801331B781D
:102E800012021A4317D0A388934214D30423201CA0
:102E900080216355FFF77CFE3FE0012B0BD103330C
:102EA0006355A133FF33E25A043B201C8021E358D1
:102EB000FFF78DFE31E0FEF721FCA36FC01AA36E71
:102EC000984208D29A23DB00E0581449221C144B84
:102ED000FEF7CAFB21E002238121201C6355A733A2
:102EE000FF33E55849000022131C15E00223D421CA
:102EF000221C635597334900FF3365588032E35AEB
:102F0000201C002108E001226255A832FF328121F5
:102F1000A558201C1A1C4900A84738BDC32B001017
:102F20008813000037B50022AE2101AB1A80FF31B3
:102F3000445C993C0A2C3BD8021C201C08F04CFE37
:102F40000638383838383838300E2600A223101C9E
:102F5000535482210422FFF71BFE29E0141C082091
:102F60008034257828402070082807D19B305054A1
:102F7000101C88210222FFF72AFE19E0A02300215D
:102F8000FF33D1540331101CFF310FE0A123535400
:102F90009A23DB00D0580749074BFEF765FB07E093
:102FA000A0230121FF33D154101C0021FFF730FF73
:102FB00037BDC046252F0010E02E000008B5021CCA
:102FC000002914D0022919D8CE214900435A581E8D
:102FD0005052002B05D09A23DB00D0580849E83B1B
:102FE0000AE08321101C4900FFF712FF06E09A2334
:102FF000DB00C05832230349FEF736FB08BDC0464C
:103000000B2C00100930001008B5CD235B00C35C09
:10301000012B0FD19C22FF32835C012B0AD1011CB2
:10302000013383549733FF33C25A80310069FEF76E
:1030300011FA04E0022B02D10021FFF7E9FE08BDDE
:1030400038B5D423A0255B00C1500023BB22FF3537
:103050004355AD33FF33C25403780269041C137126
:103060000069114BC822C360CE235B00E252231CCF
:103070002F331B78012B08D0AE23FF33E25C012AEB
:103080000AD19922E254052307E0FEF7AFF90028A0
:10309000F2D08120400006E00123201C635500216E
:1030A000FFF7B6FE002038BDBD2F0010A02310B5DD
:1030B0008124FF33C35C6400013B012B0CD8CF2378
:1030C000023CFF3C5B00C4540233C1500433C25283
:1030D0000021FFF79DFE0024201C10BD08B5A02391
:1030E0008122FF33C35C5200013B012B08D8CF2360
:1030F000013AFF3A5B00C2540021FFF789FE00222B
:10310000101C08BDF0B58DB01F1C12AB151C04CBF4
:10311000041C1B780791089314AB1B78391C099386
:1031200015AB1A7896239B00C2541B4B0AAEC018ED
:1031300001F0C6F8231C31331A78184B291CE254CD
:10314000174B0835E01801F0B7F8099B0422E11885
:10315000D531FF31301C09F000F80BA8391C01F003
:10316000AFF808219620089B8000E3180191039195
:10317000049112992418D5330591AAB2FF33009611
:10318000029400200799FEF779F8002801D08120E9
:1031900040000DB0F0BDC046590200005D020000C5
:1031A0005E020000F0B589B01F1C0EAB151C1A782A
:1031B0009623041C9B00C254194B0E1CC018391CCA
:1031C00001F07EF8231C31331A78164B291CE25487
:1031D000154BE01801F070F8211CF5310422FF3185
:1031E00006A808F0BAFF07A8391C01F069F8962173
:1031F000231C06AA0092082289006418D533019284
:1032000003920492FF33029405960020311C2A1C7D
:10321000FDF7EDFF002801D08120400009B0F0BD8E
:10322000590200005D0200005E020000F0B5AFB080
:10323000089383235B00041C079219421FD0FF22CE
:10324000CC33C254223BC25CB433052A03D10822DA
:10325000FF32C2520FE0D9225200805C012809D10E
:103260000430FF30814205D084214900E15200231F
:1032700000F0D6FCE1520722D8235B00E254D823A9
:103280005B00E05C0138072801D900F006FD08F07A
:10329000ADFC08007101E503140391018E04CA041A
:1032A000100099239B00E15A3833E558201C00F0A8
:1032B000FCFCB425FF35635D012B03D0022B00D14C
:1032C00088E031E1221C303212787F2A01D90222B3
:1032D000D2E7221C32321278222A08D16021FB3236
:1032E000FF32A1544432A352D84AA3525FE0112ABC
:1032F00052D16369988800281ED0982323329B00FE
:10330000E2520833E118083BE218FEF76BF9012896
:1033100000D11EE1CE4BE25CE03BE254CD4BE35CDE
:10332000002B11D1D82302225B00E2540022023389
:10333000E2540132C84BA1E7C64BE35C002BF1D04D
:10334000C34BE25CE03BE254872368229B00E254DB
:10335000C24BE0187B33E15800F0B2FF0523002197
:10336000BA4A04A8A352C43AFF3A1218117098221C
:103370009200A352B74B6669E154B3888B4216D0D2
:1033800034221EA808F0F2FEB0881EA93422FEF7EF
:103390000DF901280BD1DCE0E923FF225B00E254A8
:1033A000F83A223BE254FB32B433E252D1E0A74B6D
:1033B000201CE25A0A33E318009387239B00E3188A
:1033C000191C00F0B9FE002800D0BFE002236355AD
:1033D00000F06EFC0322079B1B7893439A22920015
:1033E000A5186C2B2BD1231C32331B78112B00D04A
:1033F0008CE0089B052B00D088E0201CD5302822CB
:10340000FF30291C08F0A9FEA5239B00E258E03BF1
:10341000E250E433E258DC3BE250D433E25C904BC0
:10342000E254904BE25C904BE254894BE25CE03B0F
:10343000E2540122884BE2540332B63B61E0642B34
:1034400064D1231C32331B78222B5FD1089B012BC4
:103450005CD120216A46261C52187E4B1278D53644
:10346000FF36E254281C2822311C08F076FEDA23AD
:10347000D9275B00E258E033E250D83BE258DC3316
:10348000E250774B7F00E25C2E33E254764BE25CF5
:10349000744BE254E25D6E4BE254636998880028F5
:1034A00019D0982334229B00E252291CFEF77EF8A3
:1034B000002810D0E923FF225B00E254F83A223BB7
:1034C000E25484219922002392004900E355A1523D
:1034D0003C32A3543AE02822301C002108F046FE7A
:1034E000DA2200235200A3500432A3500432A35026
:1034F0005B4AA3545C4AA3543D32A3540122B13326
:10350000FF33E254992300229B0085E0281C002110
:10351000342208F02BFE63699888002819D0291CF2
:103520003422FEF743F814E0E923FF225B00E25463
:10353000F83A223BE25484210023AC32FF32A354F8
:103540004900B232A1523C32A35402E0002800D11B
:1035500095E6E923FF225B00E254F83A223BE2546D
:1035600084210023AC32FF32A3544900B232A1526D
:103570003C3240E3231C30331B785AB2002A06DB6E
:10358000002B15D0D9235B00E35C002B10D1D8238E
:1035900005225B00E254B2230C32FF33E2540022D6
:1035A00001336BE6D9235B00E35C012B00D07FE3A2
:1035B000042261E69A239B00E0180021282208F0EB
:1035C000D5FDA52300259B00E550214B11A8E5540E
:1035D0000633E550083BE554224B291CE5541D4BAE
:1035E0003422E55408F0C2FD63699888A84215D0DA
:1035F00011A93422FDF7DAFFA8420FD0E923FF22F8
:103600005B00E254F83A223BE25408220233E554CC
:10361000EE33E554FF323C3BE25230E60023812595
:1036200009936D00B223FF33E35C332B00D1A6E096
:1036300004D8112B1AD0222B43D02FE1442B00D1D8
:10364000DBE0552B00D122E128E1C0465602000004
:103650009202000093020000660200001D020000BA
:10366000620200009102000063020000E8220023D1
:103670005200A3544C32A354231C31331A78D74B35
:10368000201CE25426224333E252E318009387239E
:103690009B00E318191C243A00F04EFD8123051C01
:1036A0005B00984208D1B22255238125FF32A354F2
:1036B0006D0001230993B5E7B2222223FF32A35400
:1036C000ECE098224421079B92001B780B4203D028
:1036D000A15A012900D1DAE0A25A262A00D095E0A9
:1036E000002B00D092E0079B5B78012B00D08DE08F
:1036F0000798271C223000F0D3FDDC235B00E0504C
:103700000433E050FD37079BFF37991C2022381CFB
:1037100008F023FDB24911220CA808F01EFD6269D1
:103720001EA950880632FDF75DFF0826051CFF36EE
:10373000002819D110230093DB180293231CD533E2
:10374000FF3303932823019704931EA940220CAB57
:10375000FDF7A8FC002800D0351C63691EA8DA8894
:10376000002108F003FD00E0351C3323B5424ED1A3
:10377000B22255230825FF32A354FF3599E7E827E5
:103780000823211CDC267F00E355964BFD31E5180C
:103790002022FF31281C08F0E0FC934B7600E01853
:1037A000A15900F08DFDE35D201C0093291CA35955
:1037B0002422FFF7F7FC81235B00984200D172E7D7
:1037C000E25D1B33FF33E254844BA159E01800F053
:1037D00077FD982331229B00E252E3180093872360
:1037E0009B00E318201C191C00F0A6FC051E0DD13F
:1037F000B2224423FF32A35454E0079B1B78082BCA
:1038000004D198239B00E35A312B04D05523B222D4
:10381000FF32A3544DE7079BDA27581C00F040FD08
:1038200087227F009200031CE051A618E820079A27
:103830004000511D1022205C01921432039000962A
:103840000292201CFFF75EFC8123051C5B0098425E
:1038500000D128E70BA8E15900F032FD201CFD3013
:10386000FF30311C202208F069FC002800D07FE7DF
:103870008F239B000BA8E118042208F05FFC0028AE
:1038800000D075E7D92301225B00E25406E0E9236A
:10389000FF2208255B00E254FF3503E0099B012B62
:1038A00000D106E70823FF339D4200D07AE65E335D
:1038B000FF33E5520722B43BE0E4221C03233032FD
:1038C0001178E8200B40202140001943023B21548D
:1038D000012B1BD8DE235B00E358013310330FD9D3
:1038E000A8239B00E35C002B0AD1D92300225B00B4
:1038F000E2540532023BE254B2230C32FF33BDE402
:10390000E6235B00E1580B880D330B80E823D227B8
:103910005B00E05CFF37E05513780122134265D06D
:10392000DA235B00E3589A18103204D9A8229200D7
:10393000A25C002AD9D0E9225200A25C042A19D143
:103940000025BD32FF32A1580195053104322035E2
:103950000390A25A00910295201CFFF7D3FB81230C
:103960005B00984200D1F4E55F33FF33E25A943BA9
:10397000E3581A80DA267600A359D422E025591C90
:103980000523FF326D00A151A3546359581C00F068
:1039900097FC6359201C591DE2235B00E25AE35D4A
:1039A0000093A359FFF7FEFB81235B00984200D1EF
:1039B000CFE5CE33E35C6259201C1370E2235B0039
:1039C000E25AD423FF33E35C08329A18E6235B0003
:1039D000E35892B2009361591BE0C0461D020000FB
:1039E000E0C900102102000041020000D423FF338F
:1039F000E254E0225200A1580871A158E25C0F3B4A
:103A0000E35A201CD218E6235B00E358043192B23B
:103A10000093E4235B00E35800F08EFBD82381225F
:103A20005B005200904210D1FF21D032A154CC3A19
:103A3000FF3AE2540023AC32FF32A354EE32A354D7
:103A400099239B00E052FFF71AFCE6225200A2588D
:103A5000118898229200A15203221CE1E4267600EC
:103A6000A359581C00F01CFCDC225200A050089AFC
:103A7000031C002A00D16CE54025079A11780D40FF
:103A800031D00423994340290BD1089B012B04D04A
:103A9000D9235B00E35C012B03D0864BE35C032B53
:103AA00008D18422992352009B00E2520022B23BAB
:103AB000E25412E0804BE25C023B012A0AD1221C54
:103AC00032321278112A05D10021A232FF32A154DC
:103AD000AA3A01E081225200E252D82306225B007A
:103AE000E254F93234E0D220FF30275C8F4200D01C
:103AF0002FE503223A40023A012A32D8089A0D2AC9
:103B000000D826E5DE225200A158CF1CBB4200D9C6
:103B10001FE58B4200D81CE5A3501032A1580A883B
:103B20000D3A92B20A80A1591026205C0531019607
:103B30001436039000910296201CFFF7E3FAD82375
:103B400081225B005200904205D1FC3AE254023AD5
:103B50002233FFF793FB99229200A5520122FFF72F
:103B60008DFBD822089B5200012B15D80723A354A4
:103B7000CC33B13AFF33E254203BE15C6632FF3292
:103B8000002903D1B03BA352FFF779FB8421490000
:103B9000A152E554FFF773FBE6235B00E1580B8865
:103BA000013B0B8099239B00E552012323E0079BF7
:103BB0001B78442B22D1089B012B00D0C9E43D493E
:103BC000635C022B00D9C4E4221C0220303212783C
:103BD0008243012A01D0FFF74EFB013363546A464A
:103BE0002021A823521812789B00E254E9220423D2
:103BF0005200A354223AA354FFF741FB2F4BE35C3E
:103C0000032B01D0FFF737FBFF22D033FF33E25401
:103C100084210023B332A3544900B232A1523C3272
:103C2000A354FFF728FBE9225200A05CD23AFF3AE6
:103C3000FF2801D1FFF722FB9921E25489000428D3
:103C400020D11E48235C9B182354D82303205B00FB
:103C5000E054002363524433943963544C31635429
:103C600098239B00E31800930B1C543BE358201C43
:103C7000611800F061FA98239B00E25A943BE358E4
:103C80001A8005E0842300225B006352AA33E254C9
:103C9000E923FF225B00E2540AE00122E254A72359
:103CA0008121201C9B00E55849000022131CA847D5
:103CB0002FB0F0BD63020000660200006202000047
:103CC00038B5031C002234330D1C1A701449041C2F
:103CD00000F016FA002820D1A7239B00E550231CF2
:103CE00032331A780F4B112A01D1E05401E001223E
:103CF000E254D82201235200A354221C0020313266
:103D00001370B233FF33E054B222B233E0521123C6
:103D1000FF32A3542132A35401E08120400038BD7A
:103D20002D32001066020000D82238B55200835CA4
:103D3000012B02D0812040001FE0A7239B00C1502F
:103D4000031C32331C780D1C332C04D100210A1CB7
:103D50000B1CA84710E0D9235B00C35C012BE9D101
:103D6000222CE7D108218154B422FF3283546932D6
:103D700082180021FFF75AFA002038BDF8B50E1C52
:103D8000151C002941D0002A3FD0D8225200815C66
:103D9000141C012939D1071C32373F78112F0AD161
:103DA0001B4FC75D002F06D1A93CFF3C8454B422B1
:103DB000FF32815401E002220255E0225200865077
:103DC00004328552021C3032117803220A40E42169
:103DD000023A4900012A00D904334350E623002463
:103DE000069A5B00C25011220A4B211CC4543D3379
:103DF000C454094BC4540233C452923BC254321CC3
:103E00002B1CFFF713FA201C01E081204000F8BDB5
:103E1000660200006302000062020000F8B5871C21
:103E2000C28FFE8F031D921B051CDC8F91B2002EEA
:103E300003D18C429B415B4203E00423A14200D9A1
:103E4000023BA24200DA0C1C08221343084AAB547E
:103E5000AA239B00E818AB6B221C9919A619013400
:103E600008F07BF9FE87281CA1B2FEF75BFEF8BDC7
:103E7000A7020000F0B50027041C1D1C85B00291AC
:103E800000920197009B002B04D01B78019307231D
:103E9000019F1F400123029A134005D0221C0621D6
:103EA00034321170FC311184002D0ED0221C583296
:103EB0001278002A09D1019907321140012904D84A
:103EC00001999143082900D0D4E0221C0021261C2E
:103ED00058321170343630780138072800D9BEE0E6
:103EE00007F07AFE0409BD345EB9A38B0021E56DAD
:103EF000201C0A1CBBE0029B9B0709D5A31CDA8F80
:103F0000E38F9A420AD20823072F5DD0002D01D0FB
:103F10000622B7E0201CFFF781FFEBE0211C002305
:103F2000042252313270A3870B70231C01215333BA
:103F30001970029B1342A5D1201CFEF70FFE00282A
:103F400000D1D7E0062334342370D3E00422029B4F
:103F50001342DDD0002DDBD0231C54331A8882237A
:103F60005B009A4209D1042FD2D0201CFEF7F6FD47
:103F70000028CDD104233370BCE0231C52331A78BF
:103F8000072F03D0022F01D9042F7AD15A497B0081
:103F9000585C90427AD0CB185B78934271D175E02F
:103FA000231DDA8F531C9D4201D007230CE0A08F04
:103FB000A16C43190988013B8B4207DD8222231C37
:103FC000520054331A80042333705BE7009B002BAC
:103FD0009ED0636C00991818013108F0BEF8A38FC9
:103FE000019A013BED1807231A40131C221C523280
:103FF000A5871370042333709EE7012D04D9231C79
:1040000053331B78012BD0D0221C50321378591C0B
:104010001170002B00D07BE7A21CD387A38702334B
:104020003370201CFFF7FAFE11E00223221C3370CC
:1040300051321378591C1170002B00D068E707210A
:104040002E4A201CA154A3870639FEF76BFD0028D9
:1040500000D05DE74EE0002B01D1002D01D00123FF
:104060003370231C201C002254331988E56D131C67
:10407000A8473FE0221C062134321170FC31118424
:1040800023E70822231C34331A70FBE6231C523327
:104090001F70009B002B00D13AE704233A1C261C1A
:1040A0009A4303923436002A22D1A08FA26C43197E
:1040B0001288013B934206DD8222231C52005433B6
:1040C0001A80062380E7636C00996A1E1818013174
:1040D00008F043F80122A38F201C013BEB189BB290
:1040E000A3873270A26CE56D13800399626CBFE701
:1040F000052369E705B0F0BDF1C90010A702000073
:1041000070B5051C002334350E1C2B700949041CA6
:10411000FEF7E0FC00280AD1221C0123583213705C
:10412000E6652B70A3880434063BE38701E0812019
:10413000400070BD753E0010F7B5041C0F1C161C26
:104140000193002924D0002A22D0031C8125343376
:104150001A786D00012A1DD101321A70FDF7CEFACE
:104160000023A21CE064A763E687D387019AA38794
:104170006264089A201CA264221C5032137053708F
:10418000D370231C54331D80FFF748FE051C01E04B
:1041900081256D00281CFEBD10B5041C4068A36875
:1041A00098470023637310BD10B5054B021C1C7BA0
:1041B000181C002C03D19A6059600123037310BDB1
:1041C000481A0020416000207047000038B50028E0
:1041D00002D1812040001AE0437B012BF9D001235A
:1041E0004373041CFCF75CFF051EF2D12368084AE8
:1041F000DC619A61227C32331A709A2320686269EA
:10420000DB00C250FEF7FDF9002800D0657338BD11
:104210009941001037B500281ED0447B012C1BD0DB
:10422000041C01200E4D60732068C4618561A57B6C
:10423000303005702068E57B313005702068257CC2
:1042400032300570069800902068FEF7F9F90028D2
:1042500004D00023637301E0812040003EBDC046CE
:104260009941001010B5002814D0437B012B11D0C8
:1042700001230A4A43730368041CD8619A61027CD3
:1042800032331A700068FEF7F9F9002804D00023D1
:10429000637301E08120400010BDC04699410010C9
:1042A000021C0378180653781B040343D078184384
:1042B00093781B02184370470B0A037041707047D4
:1042C0000B0E03700B0C43700B0A8370C1707047A8
:1042D00003781B020B80427813430B80704782B037
:1042E0006B4658703023000A0B7048334B7003093B
:1042F0001A1C3732092B01D830331A1C0F231840EF
:10430000031C8A703733092800D8073BCB706B46F3
:1043100058780209131C3033092A00D907330B716E
:104320000F2303401A1C3032092B01D937331A1CD2
:104330004A7102B07047000010B5002807D0041C75
:1043400008F01BF8211C021C0148FDF7E5F810BD20
:104350006415002037B5041C0A4901A8022207F0A1
:10436000FCFE002C0DD0201C08F007F8064D021CA6
:10437000211C281CFDF7D0F8281C01A90222FDF7FA
:10438000CBF837BD01CA00106415002070B5E8B045
:10439000061C0C1C151C03A81149022207F0DDFEA7
:1043A000002E1AD0002C18D0002D16D00D4B0E491F
:1043B0002A1C01930096231C04A807F09DFF04A863
:1043C00007F0DBFF094C021C04A9201CFDF7A4F830
:1043D000201C03A90222FDF79FF868B070BDC046FB
:1043E00001CA00100CCA001003CA00106415002096
:1043F000F0B5284C051CA5440E1C171C26490222AA
:1044000002A807F0AAFE06AC00210A2203A807F0C2
:10441000ADFE00211422201C07F0A8FE0BA80021ED
:10442000642207F0A3FE002D2FD0002E2DD00BA864
:10443000291C002F04D107F081FF0BA817490BE0BE
:1044400007F07CFF16490BA807F078FF381C03A97A
:10445000FFF745FF201C03A907F070FF114B12491D
:10446000321C0094019324A80BAB07F045FF24A84D
:1044700007F083FF0D4C021C24A9201CFDF74CF80B
:10448000201C02A90222FDF747F889239B009D44C6
:10449000F0BDC046DCFDFFFF01CA001011CA0010CC
:1044A00018CA00100CCA001003CA001064150020BE
:1044B00030B51C880D0A1055601C80B21554A01C24
:1044C00080B2033411541C8030BDF7B50C22131C8C
:1044D0000D1CC721477F06687B43C900F3185B1892
:1044E0001B78041C0192232B01D1232D08D0FDF74A
:1044F000FDF8019B7B43F618C623DB00F6187060BD
:104500000C23C620627F21685A43C0008A18121803
:1045100014601A1CC726607FF60042438A1892195D
:104520001678232E04D1232D02D1043B537006E0CC
:10453000C7224343D200CB189B1802225A700C2288
:10454000637F21685343C722CB18D2009B181D708C
:10455000F7BD000038B50C23C621427F04685A43DA
:10456000C900A2185218012149425160C6220025F3
:10457000417FD2005943611889180D60C721427FDD
:10458000C9005A43A21852181570427F534302685B
:10459000D31801225B185A70CF230268DB00D05871
:1045A0000149FDF771F838BDF1580010F0B54368C6
:1045B00085B0041C02910393076800291BD0037E79
:1045C000002B13D0C37E222B10D1D023DB00F81890
:1045D0000021082207F0CAFD208C332806D1D02202
:1045E0002368D20099180822FCF7E0FF0B23A3757B
:1045F0006B461B89E3830126A37D0C2B00D986E142
:10460000181C07F0F3FA0D0015003A00440077007B
:104610008500850091009800C800010179017F01A3
:10462000201C2121FFF751FF0023E383013379E0B0
:10463000CF212368627E1B68C9009A732368A27E1B
:104640001B68DA732368E27E1B681A742368386873
:104650001A685B58211C5361FFF7B4FD2368186882
:10466000FFF7B4FDE083002805D00B23A375AA4B08
:10467000E3830026C0E7022354E0CF232268DB0057
:10468000D058A649221C3223FCF7EEFF49E0E37E16
:10469000222B01D00423A3752368627E1B689A73C2
:1046A0002368A27E1B68DA73D1232268DB00D15C09
:1046B0001268002901D0E17E00E03321117400224C
:1046C00021680425CA54CF212368C9001A685B58A1
:1046D000A575211C53613868FFF774FD23681868BD
:1046E000FFF7C0FDE0830028BFD1E37E222B09D174
:1046F000A5750FE12369E06802999847E37E222BB4
:1047000000D004E1201CFFF725FF0023E383FEE037
:104710000025201C2221052B00D02121FFF7D5FEEA
:10472000E5830823A375F2E0201C2321FFF7CDFECB
:104730000023E383F5E7201C039B9847E0830028D0
:1047400001D00B23DCE02368754ADA80627E1B68A7
:104750009A732368A27E1B68DA73D1222168D20083
:104760008B5C607E03438B543868211CFFF72AFD65
:10477000BB1DBA88009307333868191CFFF74AFD40
:10478000E083002800D070E70923227FA375893BCE
:1047900013432377BEE0237F7F2BD2D9201C039BBA
:1047A0009847E083002821D1E07D002803D1A37D34
:1047B0000C2BC6D15DE7CF232268DB0057490128C7
:1047C0000BD1D058FA23221C9B00FCF74DFF03238A
:1047D000627E13406376082306E0D058FA23221C39
:1047E0009B00FCF741FF0323A37593E081239B000B
:1047F0009842A6D00322FB3BFF3BA375237F934344
:10480000023A1343237734E70323267F25681E40AB
:10481000022E2CD09E4248D0012E5BD1281C41494B
:104820001630FFF749FD206800211830FFF744FDDE
:104830002068311C1A30FFF73FFD00222368032156
:10484000DA741A7506329E745A750A2322689380A8
:10485000237F8B4301390B432377CF23DB00D058D1
:10486000FA232E49221C9B00FCF7FEFE32E02C4B63
:104870002A68EB80637E211C93732368A27E1B68E9
:10488000DA732868FFF79EFC2B1CA91D0D33AA883C
:1048900000912868191CFFF7BDFC061E18D10322E1
:1048A000237F93431343237716E0AB7CFF2B11D078
:1048B0008023AE7D1B021E430923A375CF23DB009B
:1048C000E858FA231549221C9B00FCF7CDFE03E0B3
:1048D000114E01E08026360233B2E683002B00DD64
:1048E0002FE780231B029E4214D10323227F134013
:1048F000032B00D125E70DE0201CFFF72BFE0C2336
:10490000A375B6E6E18B2369E068984702E0002EC4
:1049100000D1AEE605B0F0BD02020000294900104A
:1049200022060000C2F1000008B50021FFF73EFE9C
:1049300008BD0000F8B5837D061C8468082B02D0F2
:10494000092B32D074E0006821881630FFF7B4FCE0
:10495000E188A588374B6D1A9D4200DD1D1CA27AA7
:10496000ADB20B23002A0CD163883068C918183007
:1049700089B2FFF7A1FC3068291C1A30FFF79CFCB4
:104980000F2320882C4A8121904200D1803932683F
:10499000307E9174191CD07400200939107551753E
:1049A0003268053B9380258143E000230168C3758D
:1049B0008D7C9D420ED0017FE2887F330B40002A20
:1049C00004D0802252421343037731E00377E36837
:1049D0001A802DE0C28B194B9A4203D1E288E3681A
:1049E0001A8023E0CF88A388043FBFB2BB4204D221
:1049F0008120E36880001D801BE02369E0883A1C69
:104A00001818163107F0A9FBE3882289FB189BB21E
:104A1000E380BA4202D8A2889A4205D10020E26817
:104A20001380E080208104E00123F375281C00E05E
:104A30000348F8BD11060000C2F100000880000024
:104A400002020000F7B5837D8568082B02D0092B90
:104A500049D050E00023041CC37500682988163033
:104A6000FFF72AFC6B88E9882068C918183089B2DA
:104A7000FFF722FCEB88AA88D21A214B9A4200DD6C
:104A80001A1C97B23E1C1F4B0836B6B29E4234D851
:104A90008220237E391D0193236889B29874684669
:104AA00000795975D874080A1875237E2068022B7E
:104AB00002D1AB7B837606E0E988AB681A3092B20C
:104AC000591807F04AFBEB882268FB189BB2EB8071
:104AD0009680AA889A4201D1002010E0012300208C
:104AE000E37520760BE003689B7C002BF4D07F23DA
:104AF000027F13400377044801E081208000FEBD5F
:104B00000D060000150600000202000073B56B469A
:104B10009D1D09232B80837D041C8668082B02D0F1
:104B2000092B4AD05CE0027E0023042A02D173885C
:104B300005339BB206332D4A9BB2934252D820686C
:104B400031881630FFF7B8FB2888023080B2288001
:104B5000237E042B20D12368A18A18180D30FFF77B
:104B6000ABFB2B88B16802332B80002900D0718801
:104B7000226841200D322B1CFFF79AFCB1680029F6
:104B80000AD023682888728818180D3007F0E5FAD3
:104B900072882B88D3182B802B888C25191C207E9B
:104BA0002268093989B2D074080A95741075517554
:104BB0002268053B9380002416E001688B7C002B63
:104BC00004D07F23027F1340037709E0027E1C1C80
:104BD000042A09D070683288163107F0BEFA03E063
:104BE000034C01E08124A400201C76BD15060000C2
:104BF0000202000073B56B469D1D09232B80837D47
:104C0000041C8668082B02D0092B35D050E00268BE
:104C1000B17B0D3201202B1CFFF74AFC236828884A
:104C2000B27B181831680D3007F097FAB27B2B88E9
:104C30000221D31822682B800D322B1C0320FFF792
:104C400037FCB389A18A002B00D0191C288823685F
:104C500018180D30FFF730FB2B88B125207E226815
:104C6000D91F89B2D074080A9574107551752268DD
:104C7000033B938000201CE001688D7C002D10D147
:104C8000B368CA881888043A904203DA81201D80EC
:104C900080000EE092B21A807068163107F05DFA5B
:104CA000E8E77F23027F134000220377B3681A806E
:104CB000004876BD0202000073B56B469C1D0923B7
:104CC0002380837D051C8668082B03D0092B00D127
:104CD00082E08AE0B289B07B0A32317992B2052350
:104CE000002803D033699B8809339BB252189B1864
:104CF000404A9BB2934200D979E02A6801200D32E4
:104D0000231CFFF7D5FB2B682088327918183168EF
:104D10000D3007F022FA327923880220D3182A684E
:104D20002380B1890D32231CFFF7C2FB2B6820883A
:104D3000B28918180D30B16807F00FFAB2892388CC
:104D4000D31823802A68B37B0D32002B0ED10420A8
:104D50000221231CFFF7ACFB2B682088B18A1818AE
:104D60000D30FFF7A9FA2388023321E00520012145
:104D7000231CFFF79DFB238829685A1C2280326977
:104D8000CB18927906205A7333692A6899880D32B4
:104D9000231CFFF78DFB2A682088336910181968D7
:104DA0009A880D3007F0D9F933699A882388D31887
:104DB00023802388B224191C287E2A68093989B2E5
:104DC000D074080A1075947451752A68053B938055
:104DD00009230020AB750CE0036800209B7CFF2BAF
:104DE00007D12A7F803B13402B77034801E08120C5
:104DF000800076BD150600000202000073B56B4608
:104E00009D1D09232B80837D041C8668082B03D0FD
:104E1000092B00D172E085E03368B17A9B880322C8
:104E2000012900D002321033D318414A9BB2934279
:104E300000D979E0226802210D3201202B1CFFF7F6
:104E400037FB3189002900D1A18A236828881818E6
:104E50000D30FFF731FA2B88226802332B800D3298
:104E6000052001212B1CFFF723FB2B8821685A1CEE
:104E70002A803268CB18927906205A7333682268E8
:104E800099880D322B1CFFF713FB226828883368A2
:104E9000101819689A880D3007F05FF933689A88FE
:104EA0002B88D3182B802268B37A0D32002B0FD1B8
:104EB000082002212B1CFFF7FBFA23682888A18A0F
:104EC00018180D30FFF7F8F92B8802332B8004E017
:104ED000072000212B1CFFF7EBFA2B88B325191CA8
:104EE000207E2268093989B2D074080A9574107539
:104EF00051752268053B9380002417E001688B7C84
:104F0000002B04D07F23027F134003770AE0B27A9C
:104F10001C1C002A0AD0CA887068043A163107F0AF
:104F20001CF903E0034C01E08124A400201C76BDA1
:104F30001506000002020000F7B56B469D1D09230F
:104F40002B80837D041C8668082B03D0092B00D19D
:104F50009DE0ADE032691423002A00D10233F268EB
:104F6000002A04D07288002A01D09B189BB2B26834
:104F7000002A04D0B288002A01D09B189BB24F4A65
:104F8000934200D996E0226802210D3201202B1CA9
:104F9000FFF78EFA3188002900D1A18A236828887A
:104FA00018180D30FFF788F92B88226802332B8000
:104FB00002212B1C0D320320FFF77AFAF1884B1ED9
:104FC0000E2B00D810212368288818180D30FFF701
:104FD00073F928882268831C9BB2D31802225A7363
:104FE0000530F16880B228800F1E09D00027728832
:104FF000BA4205D0236818180D3007F0AEF877884C
:10500000B16800290CD0B288002A09D0288823680A
:10501000381818180D3007F0A0F8B388FF18BFB281
:1050200023682888391C18180B30FFF745F92B889E
:105030002268FF1833692F800D32002B0FD1082012
:1050400002212B1CFFF734FA23682888A18A18183C
:105050000D30FFF731F92B8802332B8004E0072055
:1050600000212B1CFFF724FA2B88B425191C207E65
:105070002268093989B2D074080A9574107551757F
:105080002268053B93800923A375002314E001687F
:105090008D7C002D04D07F23027F1340037707E02F
:1050A0003069031E08D0F288163107F056F8ECE795
:1050B000034B01E081239B00181CFEBD1506000078
:1050C00002020000F7B56B469F1D09233B80837DDC
:1050D000051C8668082B02D0092B2BD043E0002446
:1050E000C475B188224ACB1D9BB293423DD8302073
:1050F000B3792A6818430D323B1CFFF7D9F92B68A6
:105100003888B288181831680D3007F026F8B28850
:105110003B888326D3189BB2191C287E2A6809393C
:1051200089B2D074080A9674107551752A68053BC7
:10513000938016E00268947C002C04D07F23027FC9
:10514000134003770FE0B379012B02D10A33837543
:1051500007E00C238375CF23DB00D0580549FCF70B
:1051600093FA201C03E0044801E081208000FEBD8A
:1051700015060000F158001002020000F7B56B465A
:105180009D1C09232B80837D041C8668082B02D07C
:10519000092B3ED088E0026873780D32002B20D1B5
:1051A000012002212B1CFFF783F9288823687188CE
:1051B00018180D30002900D1A18AFFF77DF82B883F
:1051C000226802332B800D3201212B1C0220FFF7B5
:1051D0006FF92B8821685A1C2A803278CB185A73B1
:1051E00004E0072000212B1CFFF762F92B88B8256B
:1051F000191C207E2268093989B2D074080A1075FA
:10520000957451752268053B938009230020A3758E
:105210004BE00068837CFF2B07D1002233691A80A2
:105220007F23227F134023773EE00025143001A91D
:10523000FFF74EF81D486B469B88AB4235D9236873
:105240005A19927D022A19D158196B469F1D391C93
:105250001730FFF73DF833693A881988914204D234
:10526000002281201A8080001FE01A802368F068E5
:105270005919193106F071FF33690FE0012A14D171
:10528000581917306946FFF723F86B461A882368C8
:1052900070685919193106F060FF6B461B880020B1
:1052A0000333ED18ADB2C6E70048FEBD02020000B0
:1052B0000923F7B501AC2380837D061C8568082B84
:1052C00003D0092B00D187E0AAE0A8680E230028AC
:1052D00002D02B880C339BB22A7B002A04D02A6987
:1052E000928802329B189BB24E4A934203D9002205
:1052F0006B681A8088E0326829880D32002810D146
:1053000000290ED10230011C231CFFF7D1F83368AD
:105310002088B18A18180D30FEF7CEFF238802339B
:105320000EE06120231CFFF7C3F8336820882A8829
:1053300018180D30A96806F010FF2A882388D318A2
:10534000238032682B7B0D32002B22D005200121D7
:10535000231CFFF7ADF8238831685A1C22802A6984
:10536000CB18927906205A732B69326899880D32CE
:10537000231CFFF79DF8326820882B6910181968E4
:105380009A880D3006F0E9FE2B699A882388D31895
:105390000EE004200221231CFFF78AF833682088DE
:1053A00018182B690D301988FEF786FF2388023301
:1053B000238023889E24191C307E3268093989B2E3
:1053C000D074080A9474107551753268053B938047
:1053D0000923B375002024E00068847C002C07D0EA
:1053E00000226B681A807F23327F1340337717E0E7
:1053F0006B469F1D391C1730FEF76AFF6B683A88B1
:105400001988914203D21C808120800009E0316814
:105410006869193106F0A1FE3A886B681A80D9E7ED
:105420000148FEBD1506000002020000092373B505
:1054300001AE3380837D051C8468082B02D0092BC4
:1054400060D08CE0636921880520002B04D062685D
:1054500053425A41524210400B1C0C33C318424A6B
:105460009BB2934203D96368002B6BD179E02A6821
:1054700061200D32331CFFF71BF82B68308822881F
:105480001818A1680D3006F068FE228833880320C2
:10549000D3182A6833800D320221331CFFF708F835
:1054A0002B683088181823690D301988FEF704FF1F
:1054B0003388023333806369002B13D16368002B78
:1054C00010D102202A68011C0D32331CFEF7F0FFB8
:1054D0002B683088A98A18180D30FEF7EDFE338846
:1054E0000233338033889F24191C287E2A680939A7
:1054F00089B2D074080A9474107551752A68053BF6
:1055000093802AE003689A7CFF2A09D16368002B04
:1055100001D000221A807F232A7F13402B771EE0C0
:10552000606900281FD0606800281CD01733181C41
:105530006B469E1D311CFEF7CBFE636832881988CE
:10554000914202D200221A800BE029686069193169
:1055500006F003FE328863681A80002003E00348E7
:1055600001E08120800076BD1506000002020000E7
:105570000923F0B585B003AE3380837D051C8468B4
:10558000082B03D0092B00D1AEE0E5E00023C37562
:10559000237663680268002B32D00A233380237B92
:1055A000714F9375636822695B689B1AE269BF1A41
:1055B0009F4200D91F1C2868BBB2191C17300193E9
:1055C000FEF77AFE30882B68023080B230801818DF
:1055D0006368BFB2196823693A1CC9180D3006F018
:1055E000BCFD3388019AD31833802369FF186368A0
:1055F00027615B689F4231D00123EB7523762DE054
:105600002168207B0D32002925D00621331CFEF7AE
:105610004FFF2B683088181823680D301988FEF763
:105620004BFE30882B68023080B230801818236817
:105630000D305988FEF740FE30882B68023080B26A
:105640003080181823680D309988FEF735FE3388AE
:105650000233338002E0331CFEF72AFFA368002BDD
:1056600024D0E369002B21D033882A68581CD31832
:10567000062280B230805A732B681818A3680D3048
:105680009988FEF719FE30882A680230A36880B234
:105690003080101819689A880D3006F05EFDA368F6
:1056A0009A883388D31833800023E361237B032B4C
:1056B00008D0E97D002905D12A6807200D32331C66
:1056C000FEF7F6FE3388B024191C287E2A680939B3
:1056D00089B2D074080A9474107551752A68053B14
:1056E00093800923AB751AE00068837CFF2B04D1FB
:1056F0002A7F803B13402B772EE0237B032B10D196
:10570000837D012B28D102AB9E1D1730311CFEF783
:10571000DFFD296860693288193106F01EFD002618
:105720001EE00026237EB3421AD1837D062B13D1BF
:1057300002AB9F1D391C1730FEF7CAFDA3683A88DB
:10574000998891420AD329681868193106F005FD35
:10575000A3683A889A8003E0044E01E08126B600EF
:10576000301C05B0F0BDC046020600000202000079
:1057700038B5837D082B02D0092B0CD037E0037E8F
:105780000268F121D3740023917413755375026874
:10579000ED39918021E001688D7C002D04D07F23BC
:1057A000027F1340037722E0037E041C002B12D0FB
:1057B000D023DB00C8180822163106F0CEFC208C5E
:1057C000002808D0D0222368D20099180822FBF7BD
:1057D000EDFE002803D10223E375002008E0D0236A
:1057E0002068DB00C018291C082206F0BFFC014815
:1057F00038BDC0460202000037B5837D082B02D0B9
:10580000092B5FD06BE0027E041C002A05D1217EAB
:105810001022002921D018221FE0008C002808D176
:10582000D0222368D2009818FEF73AFD0028EED166
:105830000BE06A46D021063213802368C90059184C
:10584000FBF7D0FE0028EBD049E02368254A9818E2
:10585000FEF726FD002842D0D9E72368F020D9744E
:1058600000215A751975987420681F491630102246
:1058700006F073FC237E002B08D02168D023081C7F
:10588000DB002630C918082206F067FC227E20685B
:105890001423002A00D008338380D0230025DB00A6
:1058A000C0180021082206F061FC208CA84217D005
:1058B000D0232168DB00C9180822FBF777FEA84235
:1058C0000DD10DE003689D7C002D04D07F23027F65
:1058D0001340037703E033221B681A7400E0034D82
:1058E000281C3EBD8406000054CA001002020000BD
:1058F000CF23F0B5DB00C3588BB00493744B041C6A
:10590000C718744B3A1CC31803930023117802295B
:1059100001D10133DBB203990C328A42F6D13A1C31
:10592000002B0CD11178082901D10133DBB2039986
:105930000C328A42F6D1002B00D1A0E03A1C0023A1
:105940001178042901D10133DBB203990C328A4268
:10595000F6D1012B10D1C723DB00E2184833E11840
:1059600000231078232801D10133DBB20C328A42A4
:10597000F7D1002B00D082E00498FBF75BFE0123F7
:105980005B420293C623DB00E5180026FF23069640
:105990000193F3B207933A1C00231178082901D12F
:1059A0000133DBB203990C328A42F6D1012B0ED1BE
:1059B000C6220B337343D200E3189B181A89464B57
:1059C0009A4210D16B680293079B01930BE06A7AAD
:1059D000022A08D16B680593404B0599E358994218
:1059E00055D20123069301360C35062ED1D1019BE9
:1059F000FF2B06D1069B012B41D10022374BE250F1
:105A0000C0E70C23019A5343C722E318D2009A1827
:105A10001278222A1AD1C622D2009B181868838ACB
:105A2000002B13D103681D1C0C330835191C2B1CCB
:105A30001E785A1BD2B2102E05D029490A43828201
:105A400010221A7002E001338B42F1D10C25019B28
:105A50005D43C6236519DB00EB181A68CF23116874
:105A6000DB00C85832231F49FBF7FEFDC723DB00CC
:105A7000ED180423029A6B70184BE25026E0FA23CB
:105A800004981949221C9B00FBF7EEFD1EE0059BC4
:105A900002998B42A7D82B7A222B13D1211C0422E6
:105AA00009A8083106F059FB104B099A9A4204D80C
:105AB000079B0193059B029395E72B689B8A002B1C
:105AC000F6D190E79343212B8DD1F1E70BB0F0BDD8
:105AD0003906000081060000230800007C06000053
:105AE00000E1FFFF29490010F15800100F101010BD
:105AF000012A07D0002A03D0022A04D1C17602E08D
:105B0000417600E081767047F8B5161C0F1CFBF754
:105B1000D7FD0022131C2549254D5118695C002929
:105B200001D10133DBB20C32482AF4D1002B01D170
:105B3000002436E00120242106F0BEFA041EF7D02E
:105B400033230761C660056003842B7B002B12D1D1
:105B50000133291C1748CF262B73FBF7A1FDF60054
:105B6000A851211C14482568FEF71EFB23682860F5
:105B70001A689B5953610D4B2168CA180023157888
:105B8000D8B2002D09D10C225343C722CB18D20022
:105B90009B18012260775A7003E001330C32062B08
:105BA000EDD1FBF78EFD201CF8BDC0463906000084
:105BB000FC280020F1580010AD45001010B5002859
:105BC0001DD0838A0468002B05D00F2200211340CA
:105BD000E318818219720C23427F01685A438A18A4
:105BE000C7210024C90052185470427F53430268F1
:105BF000D3185B181C7006F097FA201C00E00148CF
:105C000010BDC0460202000010B50024054B8260A2
:105C100084754360C4750176211CFEF7C7FC201C07
:105C200010BDC046F9570010062310B50024837537
:105C3000044B82604360C4750176211CFEF7B6FCFC
:105C4000201C10BD71570010062310B50024837569
:105C5000044B82604360C4750176211CFEF7A6FCEC
:105C6000201C10BD35490010062310B50024837593
:105C7000044B82604360C4750176211CFEF796FCDC
:105C8000201C10BD454A00100B1F10B55C1EA3411F
:105C9000002405338375054B82604360C47501762B
:105CA000211CFEF783FC201C10BDC0460D4B0010CC
:105CB000938910B5002B04D1838A002B0ED00523C5
:105CC00000E0062300248375054B01768260436063
:105CD000C475211CFEF76AFC201C00E0014810BDC1
:105CE000F54B001003020000062310B50024837555
:105CF000044B82604360C4750176211CFEF756FC9C
:105D0000201C10BDB94C0010138910B5002B04D114
:105D1000838A002B12D0052304E0937A5C4263410E
:105D20000624E31A00248375054B017682604360E4
:105D3000C475211CFEF73AFC201C00E0014810BD90
:105D4000FD4D00100302000008B51388002B02D19E
:105D5000838A002B14D000230176C37511690533A3
:105D6000002904D011884B424B410621CB1A837580
:105D7000044B826043600021FEF718FC002000E025
:105D8000014808BD394F001003020000FF2310B581
:105D9000146882609C43231E084C03D10522446092
:105DA000827503E00623837500234460C375017682
:105DB000191CFEF7FBFB002010BDC0467D510010F2
:105DC000936810B5002B05D11388002B0FD1838A5F
:105DD000002B0CD0062300248375064B01768260CD
:105DE0004360C475211CFEF7E1FB201C00E0024863
:105DF00010BDC046B15200100302000010B5546936
:105E00000623002C03D153685C1EA34105330024F4
:105E10008375054B82604360C4750176211CFEF7D3
:105E2000C5FB201C10BDC0462D54001010B5062324
:105E3000002414618375054B82604360C47501764C
:105E4000211CFEF7B3FB201C10BDC046715500108D
:105E500038B59479631E012B0DD80C23457F6B4315
:105E60000568EB18C725ED005B191D78232D15D1AA
:105E70005B78042B12D115680723002D02D1012C69
:105E800000D1043300248375054B017682604360A2
:105E9000C475211CFEF78AFB201C00E0014838BDB8
:105EA000C55000100302000001210020F0B5634C32
:105EB000A544830006AA9950FFAA8B001C32985073
:105EC0008022131C4C000B4000D01B2361404B4030
:105ED000D9B2802301305B009842EAD10021FF3B18
:105EE000574A58008B508022134000D01B23434058
:105EF0000431DBB22829F3D16322524B01251A70F9
:105F00000022514B63331A70FF23FFA9AA001C31F2
:105F1000525806A89A1A920087587A00FC11144326
:105F20001C406200E01110431840C6114200324389
:105F30001A40D611B44600925600624616436322B8
:105F400057407C40009A60404240334053403D4AB5
:105F5000AB543D4AD554802301355B009D42D3D1DB
:105F600000258B6B02934B6A03934B6B0493CB6AB4
:105F700005931B21FF26334BEB5CD80940420140BF
:105F80005A004A40A90032400191180419024140C8
:105F9000534051401B064B402C4A01998B502A4BD1
:105FA0005C5D002C1AD0FFAA1C32A3009B58311C48
:105FB0000093009A029B981803F03AFE039A890016
:105FC000944606ABCF58009B311C6344181C03F069
:105FD0002FFE06AB8900CB581B0201E0271C231CB7
:105FE0005F4000239C420CD0FFAAA3001C329858AB
:105FF000049BFF21181803F01BFE06AB8900CB5849
:106000001B045F4000239C420CD0FFAB1C33A40058
:10601000E058059BFF21181803F00AFE06AB890023
:10602000CB581B065F40019A094B0135D75080239E
:106030005B009D429DD1074B9D44F0BDE4F7FFFFFF
:1060400088330020B4330020B4380020882F00208B
:10605000B43400201C0800008C2208B50021520036
:1060600006F084F808BD08B5002803D08C2149004B
:1060700001F0BAF908BD0000F7B5C02A08D08023A6
:106080005B009A4206D0F63B802A00D0D0E002E0C6
:106090000C2300E00E23694F03603B68151C0E1CA7
:1060A000041C002B03D1FFF7FFFE01233B60231CE0
:1060B000002008336A0963600192019A904210D06F
:1060C0008700F1194A7801301202944665468A78B1
:1060D000C97812042A43F55D09062A430A43DA51B6
:1060E000EBE722680C2A2DD00E2A5AD00A2A00D0BB
:1060F000A1E00025524ADC68A9581A68514F514066
:10610000FF22200A10403E5C200E71403E5C0435A8
:1061100036047140081C211C1140795C090641407D
:10612000200C0240B85C5A68000241404A401961A4
:1061300099685A614A409A616240DA611033282DA9
:10614000D8D178E00025FF203D4A5C69A9581A683B
:106150003C4F5140220A0240BE5C220E7140BE5CA0
:106160000A1C211C0140795C36047240090651402A
:10617000220C1040385C5A68000241404A40996144
:106180009968DA614A40D9681A624A4019695A62C4
:106190004A409A6204356240DA621833202DD2D127
:1061A00049E00026FF20264ADD69B2581968254CCF
:1061B0004A40290A0140675C290E7A40675C043630
:1061C0003F047A40111C2A1C0240A25C12064A407D
:1061D000290C0140615C09024A4059681A624A4030
:1061E00099685A624A40D9689A624A40111CDA6238
:1061F0000140675C19694F40110E615C09067940E6
:10620000170A0740E75D3F024F40110C0A1C02408D
:10621000A25C596912047A401A634A4099695A6328
:106220004A409A636A40DA6320331C2EBAD102E0F6
:106230002020404200E00020FEBDC046B0330020D8
:1062400088330020B4330020F0B5051CCBB004A87F
:106250000E1C141CFFF700FF2B1C08336B6004A8F6
:10626000311C221CFFF708FF0290002848D1049936
:10627000059A0B01D3181A682960AA605A68EA6067
:106280009A682A612A1CD86818326861013901911C
:106290000199103B00292BDD002019581B4F0D0ED2
:1062A0007D5D1B4EAD00AC590825EC41251CFF243B
:1062B0000C403C5DA400A4596C400394FF240D0ADB
:1062C00025407D5DE73CAD00AD59090CE541039CDF
:1062D0006540FF242140795C890089591026F141ED
:1062E0004D4015500430B042D7D192190199CDE7F5
:1062F000196811605968516099689160DB68D360D2
:1063000004A8FFF7B0FE02984BB0F0BDB4330020F4
:10631000B4340020F0B589B04E7800928A78360205
:10632000120416430D78CA78436812062E431643AA
:106330001A680F79724001924E798A7936021204F6
:106340001643CA793E43120616435A6872400292B7
:106350004A7A14028A7A120422430C7A2243CC7AB3
:10636000240622439C68544003948A7B4C7B12048D
:10637000240214430A7B1443CA7B12061443DA68CE
:106380001033191C544002685210013A07920798C2
:10639000EC4AFF23002800DCE5E008250198AC4624
:1063A00018408000165808684640200E800010589B
:1063B000E841029D70402D0A1D40AD005659182538
:1063C000EE4146400398000C1840800017581020FA
:1063D000C7417E400496029E60461E40B600975913
:1063E0004E687740019EEE40B6009659C64103982C
:1063F0007740060A1E40B60096591020EE417E40B6
:10640000270C1F40BF00D759C7417E400596039E09
:1064100088681E40B600975947400298060E6046AD
:10642000B6009659C6417740260A1E40B6009659D6
:106430000198EE417E40070C10201F40BF00D75945
:106440001C40C7410398A4007E401759040E6046C3
:10645000A40014590696C441CE6801987E40664057
:10646000371C060A1E40B60094590298EC41060CEF
:1064700010201E40B60096597C40C6417440049ED0
:1064800008691E40B6009759260E47406046B60080
:106490009659C64105987740060A1E40B60096599F
:1064A0000698EE417E40070C10201F40BF00D759D0
:1064B000C7417E400196059E48691E40B600975927
:1064C00047400498060E6046B6009659C6410698A5
:1064D0007740060A1E40B60096591020EE417E40D5
:1064E000270C1F40BF00D759C7417E400296069E29
:1064F00088691E40B600975947400598060E6046C9
:10650000B6009659C6417740260A1E40B6009659F5
:106510000498EE417E40070C10201F40BF00D75961
:106520001C40C741A400C86914597E4044400698E5
:106530000396060E6046B60096592031C64104986F
:106540007440070A1F400598BF00D659070C1F402A
:10655000BF00D3591022EE41D34174405C40079BE9
:10656000013B079313E701980E6818408000155807
:10657000200E6E40082580001058AC46E841351CBE
:106580001827454002981026000A1840800010582D
:10659000F8416840039D2D0C1D40AD005559F54153
:1065A000684004900298184080001558486845409B
:1065B00001980595F840654680001058E841059D12
:1065C00045400398000A184080001058F841684080
:1065D000250C1D40AD005559F541684005900398C4
:1065E0001840800015588868454002980695F84084
:1065F000654680001058E841069D6840250A1D4008
:10660000AD0055591C40FD4145400198A400F040A3
:106610001840800010581459F04168400690C8682E
:1066200044400398050E6046AD005559C541019898
:106630006C40050A1D40AD0002985559FD41070CFC
:106640001F40BF00D2596C40F241049D54403E4A65
:106650001D40565D0F69250E77403E1C555D05981F
:106660002D066E40050A1D40575D351C06983F02F9
:10667000060C1E407D40975D04983F046F40059DC9
:106680004E691D40555D6E40050E555D06982D0600
:106690007540060A1E40965D36027540260C1E4067
:1066A000965D36046E40051C1D40555D8869C969BC
:1066B000684084460598050E6046555D2D064540A8
:1066C000200A1840105C1C40000268408446049870
:1066D000145D050C60461D40555D4C4006992D0427
:1066E0004540080E115C09064C400499080A184000
:1066F000115C09024C400599080C03400020D15C54
:10670000009B009A1F703B0A53703B0C9370330A36
:106710005371330C937109042B0A614053722B0C93
:1067200093720B0A3F0E16711572360E2D0E1173F1
:1067300053730B0C090ED770D671D5729373D17346
:1067400009B0F0BD882F0020B4330020F0B589B027
:10675000031C009242684878CC78070288782406A7
:10676000000438430F781B683843204314685B10DB
:1067700044404879019407028879CC790004384371
:106780000F792406384320435468013B4440487A3B
:1067900002940402887A0793000420430C7A204371
:1067A000CC7A24062043946844400394887B4C7B35
:1067B000000424020443087BC97B044309060C43FC
:1067C000D16810324C40111C0798EB4AFF23002877
:1067D00000DCE5E001980E6818408000155802982A
:1067E0006E400825000E80001058AC46E841351C6C
:1067F00018264540200A184080001058F041684093
:10680000039D2D0C1D40AD0057591025EF417840D8
:106810000490029865461840800017584868474021
:106820000398F04080001058E84147400198E84044
:106830001840800010586D19F0417840270C1F4017
:10684000BF00D759EF41654678400590039818403E
:106850008000175888684740200E800010581C4060
:10686000E84147400298A400E840184080001058D2
:10687000019DF04178402F0C10251F40BF00D759D3
:106880001459EF4178400690C86865464440019825
:10689000F04080001058E8416040039CEC401C40F0
:1068A000A40014596D19F44144400298000C18409A
:1068B00080001058E8414440049865461840800024
:1068C0001758086947400598F04080001058E84183
:1068D0007840270A1F40BF00D7596D19F74147403C
:1068E0000698000C184080001058E8414740059871
:1068F0000197184080001758486965464740069838
:10690000F04080001058E84147400498E8401840A3
:10691000800010586D19F0417840270C1F40BF00CF
:10692000D759EF416546784002900698184080009C
:10693000175888694740200E800010581C40E841D5
:1069400047400598A400E840184080001058049D76
:10695000F04178402F0C10251F40BF00D759145923
:10696000EF4178400390C86965464440049820315F
:10697000F04080001058E84144400698070A1F4044
:10698000BF00D059F04144400598070C1F40BF009C
:10699000D3591022D3415C40079B013B079313E777
:1069A00001980E6818408000155802986E4008251E
:1069B000000E80001058AC46E841351C18274540B1
:1069C000200A1840800010581026F8416840039DA6
:1069D0002D0C1D40AD005559F541684004900298BA
:1069E0001840800015584868454003980595F840C0
:1069F000654680001058E841059D45400198000A11
:106A0000184080001058F8416840250C1D40AD002A
:106A10005559F5416840059003988D6818408000ED
:106A20001058454006956546200E800010581C40C1
:106A3000E841069DA4006840029D14592D0A1D409E
:106A4000AD005559FD416840019DF5401D40AD0028
:106A50005559F5414540C86806954440019865463A
:106A6000F84080001058E8416040039CEC401C4016
:106A7000A4001459FC4144400298F04018408000A2
:106A800010583E4AF0416040049C1C40165D0C6961
:106A90006640059CFC40175D3C066640040A1C40AD
:106AA000145D4F69AC406640069C069D240C1C405A
:106AB000145D24047440059E1E40965D77402E0EA2
:106AC000965D049D36067E402F0A1F40D75D8D6976
:106AD0003F027E40070C1F40D75DC9693F047740E5
