:020000041000EA
:10100000501500201D100010000000009D10001061
:101010000018040000010000000000801149124A7D
:10102000124B00F018F8124880471249124A134B2D
:1010300000F011F81249134A134B00F00CF8134951
:10104000134A0020521A02DD043A8850FCDC114891
:101050008047114880479B1A03DD043BC858D05095
:10106000FBDC7047000801100C000020500100203C
:101070004994001044090110501500209C280020BC
:10108000901C01109C2800209C2800209C280020F7
:101090005C300020B1C100106DB00010FEE7000010
:1010A00000207047F0B5B1B01D1C36AB1C8838ABC2
:1010B0001F8805A83AAB1E880091039205F0B6FF81
:1010C000009B002B01D1012481E0002DFBD0379B38
:1010D000002BF8D0399B002BF5D0231C2033019333
:1010E000DB19802B01DD042471E0062005F08EFF62
:1010F000291C0290221C18A80BF099F810AA9446FB
:10110000019B379963443A1C181C0BF090F805A812
:101110000299012205F0ACFF0028E4D105A800994E
:10112000039A05F0CBFF0028CDD1E519ADB205A893
:1011300018A92A1C06F020F80028C4D105A810A977
:1011400006F02CF8041EBED1B4423BD205A806F02E
:1011500059F8002838D12A1C05A810A9203206F019
:101160000BF8002830D108AF05A8391C06F016F896
:10117000002829D105A806F045F8002824D105A8A3
:1011800010A9202205F0F8FF00281DD105A810A9FC
:1011900006F004F8002817D1211C202320310093E9
:1011A000B14202DD1F22324000920023009A98B221
:1011B000904205D239980219F85CD0540133F5E712
:1011C0008CB2C1E7002402E0B442A441644205A805
:1011D00005F032FF10A8002180220BF031F808A89A
:1011E000002120220BF02CF8201C31B0F0BDF0B50E
:1011F0009DB01F1C22AB20CB0EA81B880E1C089391
:1012000025AB1B88141C099326AB1B78079305F0AC
:1012100083FD279B002B01D1012529E0002EFBD067
:10122000002DF9D0249B002BF6D0002FF4D00EA86F
:1012300002213A1C802305F075FD0028ECD1249B87
:1012400002960093099B0AAE0193279B2A1C0393E5
:10125000079B049605930EA8211C089B05F0A6FD8C
:10126000051ED9D1279B311C1819079A0AF0DFFFF8
:101270000EA805F078FD281C1DB0F0BDF0B599B0A2
:101280001F1C1EAB20CB0AA81B880C1C089321AB8B
:101290001B880792099322AB1E7805F03DFD239B26
:1012A000002B01D1012424E0002CFBD0002DF9D02B
:1012B000209B002BF6D0002FF4D00AA802213A1C64
:1012C000802305F02FFD0028ECD1079B0294991B89
:1012D000209B64180093099B04940193239B05961B
:1012E00003930AA82A1C089B05F0A6FD441EA041F2
:1012F00084B20AA805F037FD201C19B0F0BD002803
:1013000007D00368002B04D0197B1A6801238B4097
:1013100053607047002808D00368002B05D0197B64
:101320001A6880235B028B4053607047064B012094
:101330001A68002A07D11A6812181A60186801384A
:10134000431E984180B27047A028002008B5C368AA
:10135000806898470022014B1A6008BDA028002031
:1013600008B5034B00211868FFF7F0FF08BDC04621
:101370009C28002008B5034B00211868FFF7E6FF02
:1013800008BDC0469C280020134A38B51368151CB8
:101390001C68A3680733DB7F002B05D1A3680833E3
:1013A000DB7F002B12D008E0201C09F0B7FCA268FC
:1013B000D31DDB7F002BFBD1F0E7201C09F0DCFC08
:1013C000A268131C0833DB7F002BFAD128680121A7
:1013D000FFF7BCFF38BDC0469C28002008B5FFF7CA
:1013E000D3FF08BD08B5FFF7CFFF08BD08B5024819
:1013F00009F051F9002008BDFC26002000207047AC
:10140000F7B5051C0F1C161CFFF790FF041E15D125
:101410000E4B28681D60009601262A79019652001D
:10142000311C3B1C09F087F900280CD0EB68A86838
:10143000311C9847064B1C60341C04E0EB68A8681C
:10144000022198470224201CFEBDC0469C28002093
:10145000A0280020F0B585B0051C0F1C161CFFF756
:1014600065FF041E16D10F4B28681D6000960126EB
:101470002A79019652000296311C3B1C09F08CFA25
:1014800000280CD0EB68A868311C9847064B1C60FC
:10149000341C04E0EB68A868022198470224201C51
:1014A00005B0F0BD9C280020A028002070B5051CC8
:1014B0000E1CFFF73BFF0224002810D1C8232A6826
:1014C000311C5B009E4200D9191CFA2389B29B0093
:1014D0005943106808F0A0F9441EA04184B2EB689B
:1014E000002B02D0A868211C9847022C02D00022B1
:1014F000014B1A60201C70BDA02800200022014B67
:101500005A717047641500200022014B1A71704710
:101510006415002008B5024808F0D8FC002008BD7A
:1015200064260020036810B5002B01D100200BE0D9
:10153000041C01206071181C08F004FD002803D170
:101540006379002BFCD1F1E780B210BD036810B5C0
:10155000002B01D100200BE0041C01202071181C7D
:1015600008F030FD002803D12379002BFCD1F1E7EE
:1015700080B210BD08B5222808D033280BD011281E
:101580000BD11038402A09D8054800E005480AF078
:101590004EFE002002E00448F9E7012008BDC046E5
:1015A000A82800200C3000204E30002038B5031C45
:1015B000141C081C222B0ED0332B12D0112B13D14C
:1015C0001288103B3F2A10D9402509492A1C0AF0ED
:1015D0002EFE258003E0128806490AF028FE00232B
:1015E00003E012880449F8E70123181C38BDC046FF
:1015F000A82800200C3000204E300020002303706B
:101600007047000010B5084C201C08F0C4FE201CD8
:1016100008F0ACFE201C08F0C7FE044A5368002BFB
:1016200001D09068984710BD98260020E828002037
:1016300010B5826064225A43044C4160111C201C86
:1016400008F0CCFE201C08F077FE10BD9826002084
:1016500008B50378002B05D101330370FA239B00F2
:10166000FFF7E6FF08BD000010B5064C002806D0C5
:10167000002904D00A1C011C201CFFF7E9FF201CD4
:1016800010BDC046E82800207047704710B5064CD2
:10169000201C08F080FE201C08F086FE034A136818
:1016A0000133136010BDC04670260020F8280020CA
:1016B000024B1868421C1A607047C046FC28002084
:1016C000014B18687047C046F82800200023044AE0
:1016D0001168834202D813685B1AFAE77047C04664
:1016E000F828002010B5041C8069E369984700239E
:1016F000238410BD002802D000230330C377704735
:10170000F0B585B002930AAB40CB041C1B88019155
:10171000151C0393002839D04769002F36D0002EBE
:1017200034D0038C012B33D00123002103841422F5
:101730000AF086FD0023022D03D13278A360A27344
:1017400001E0A373A6606B469B88002623806B464E
:101750001B89657363806B469B892673A380E68033
:10176000E31CD97F381C321C04F036FA231DD97FC4
:101770006069012204F030FA291C6069221C04F01F
:10178000E7FA051EB54204D0268402E0044D00E0CD
:10179000044D201CFFF7AEFF281C05B0F0BDC0466D
:1017A0000303000005030000012903D0022903D12F
:1017B000043000E00330C27770470000F8B500291C
:1017C00001D100241DE00F1C051C24210120161C42
:1017D0000AF0DCFC041EF4D000220121031D028467
:1017E000C7618661D977C31CDA77281C0649221C99
:1017F00004F0FEF9051E606103D1201C0AF0FEFC16
:101800002C1C201CF8BDC046E516001038B5002879
:101810000BD0038C012B0AD0041C406904F042FA5F
:10182000051C201C0AF0EAFC02E0024D00E0024D1B
:10183000281C38BD030300000503000070B5041C1C
:101840000D1C002824D04069002821D0238C012BB6
:1018500020D00126E31C2684D97F002204F0BCF9A5
:10186000231DD97F6069321C04F0B6F96069332109
:10187000002D00D01121022204F0AEF9291C60696C
:10188000002204F035FA051E05D00023238402E06F
:10189000034D00E0034D201CFFF72CFF281C70BDFA
:1018A000030300000503000070B5041C0D1C002894
:1018B00024D04069002821D0238C012B20D0012680
:1018C000E31C2684D97F002204F086F9231DD97FEA
:1018D0006069321C04F080F960693321002D00D06A
:1018E0002221022204F078F9291C6069002204F008
:1018F0000FFA051E05D00023238402E0034D00E00B
:10190000034D201CFFF7F6FE281C70BD03030000EA
:1019100005030000F7B5041C0D1C0192009300287C
:1019200035D04769002F32D0002B30D0089B002BD8
:101930002DD0038C012B2CD00126002106841422EB
:101940000AF07EFC6B46258000259B88A57263808B
:10195000009B381C2361089B2A1C1B88E580A38000
:10196000089B2581E360E31CD97F04F035F9231D32
:10197000D97F321C606904F02FF9A17A6069221CBA
:1019800004F0D6F9061EAE4204D0258402E0044ECF
:1019900000E0044E201CFFF7ADFE301CFEBDC0462B
:1019A0000303000005030000F7B5041C0D1C0192A1
:1019B0001F1C002831D043690093002B2DD0002A32
:1019C0002BD0002F29D0038C012B28D001260021F9
:1019D000068414220AF034FC25800025019BA6729F
:1019E000658023613B88E760A380E580E31C258157
:1019F000D97F00982A1C04F0EFF8231DD97F321CF0
:101A0000606904F0E9F8A17A6069221C04F090F999
:101A1000061EAE4204D0258402E0044E00E0044ECF
:101A2000201CFFF767FE301CFEBDC046030300000C
:101A300005030000F7B54026171C08AC20CCB743BF
:101A40002488002F04D100950194FFF759FE00E08F
:101A50000048FEBD03030000F7B5041C0D1C171C55
:101A6000019300282ED043690093002B2AD0002A2E
:101A700028D0038C012B27D00126002106841422B4
:101A80000AF0DEFB6B46258000259B882673A38029
:101A90006673E31C6580A760E580D97F00982A1CE7
:101AA00004F09AF8231DD97F321C606904F094F881
:101AB000617B6069221C04F04BF9061EAE4204D023
:101AC000258402E0034E00E0034E201CFFF712FEC7
:101AD000301CFEBD0303000005030000F7B5041C25
:101AE0000091151C019300282CD04769002F29D0A4
:101AF000002A27D0038C012B26D001260021068442
:101B000014220AF09DFB6B461B78381CE371E31C22
:101B1000D97F002204F060F8231DD97F321C606950
:101B200004F05AF86B4600269B882560A380A671B6
:101B3000E1796069221C04F0FFF9051EB54204D06A
:101B4000268402E0034D00E0034D201CFFF7D2FD88
:101B5000281CFEBD030300000503000010B5041E91
:101B600016D04069002813D0002911D0238C012BF6
:101B700010D001232384DB182160A280A371E179B6
:101B8000221C04F0D9F9002805D00023238402E0A8
:101B9000014800E0014810BD0303000005030000F8
:101BA00010B5041E13D04069002810D0238C012BDF
:101BB0000FD001232160A2802384A371E179221C2C
:101BC00004F0BAF9002805D00023238402E002487B
:101BD00000E0024810BDC0460303000005030000FA
:101BE0001FB503AB1A700093012302220193002357
:101BF000FFF786FD05B000BD10B5041C406AA36A5E
:101C000098470023A38510BD002802D000232E3062
:101C100003707047F7B5009308AB171C04CB041C86
:101C20001B880E1C0193838D012B26D001250021DA
:101C3000858520220AF004FB089B6760A3606B4641
:101C40009B88206A63806B461B8800222380231CAC
:101C50002E33197803F0C0FF231C2F3319782A1C68
:101C6000206A03F0B9FF206A311C221C04F080F8BE
:101C7000051E03D00023A38500E0034D201CFFF7C1
:101C8000C3FF281CFEBDC04605040000F7B5041CB8
:101C9000009101921D1C00283AD0076A002F37D00E
:101CA000099B002B34D0089B002B31D00A9B002BC2
:101CB0002ED0838D012B2DD0012600212022868558
:101CC0000AF0BEFA6B461B79657023700A9B381CBC
:101CD0002361231C2E331978002203F07DFF231C7F
:101CE0002F331978206A321C03F076FF089B002DF1
:101CF00001D0636001E01B886380099B206AE36078
:101D00000A9B00992361221C04F0B4F8051C02E030
:101D1000034D00E0034D201CFFF776FF281CFEBD9D
:101D20000304000005040000F0B585B002930AAB7F
:101D30001B88041C0191171C0393002836D0056AE8
:101D4000002D33D0002A31D00B9B002B2ED00C9BC2
:101D5000002B2BD0838D012B2AD00126002120229D
:101D600086850AF06DFA6B461B7A2760A3736B4673
:101D70009B89281CA3810B9B002263600C9BA360A2
:101D8000231C2E33197803F027FF231C2F331978D7
:101D9000206A321C03F020FF206A0199221C03F004
:101DA000FBFF051E05D00023A38502E0044D00E0E3
:101DB000044D201CFFF728FF281C05B0F0BDC046CD
:101DC0000304000005040000F0B585B002930AABDF
:101DD000009204CB041C1B88019103930CAB1D786B
:101DE00000283DD0076A002F3AD0009B002B37D047
:101DF000002A35D00D9B002B32D0838D012B31D0A2
:101E000001260021202286850AF01AFA231C2E338F
:101E10001978381C002203F0DFFE231C2F331978B9
:101E2000206A321C03F0D8FE009BA57323606B462A
:101E30001B7A23710A9BA3606B469B89A3810D9B30
:101E4000002D02D11B88A38200E02361206A019942
:101E5000221C03F0BDFF051E05D00023A38502E070
:101E6000044D00E0044D201CFFF7CEFE281C05B0F9
:101E7000F0BDC0460304000005040000F0B585B0C5
:101E800002930AAB1B78019203930EAB1E78838DED
:101E9000041C0D1C012B39D001270021202287852D
:101EA0000AF0CEF9019B206AA3606B461B890022D1
:101EB00023800C9B63610D9B6360231C2E33197878
:101EC00003F08AFE231C2F331978206A3A1C03F092
:101ED00083FE0B9B002E09D023616B461B7B206A7F
:101EE0002373291C221C03F0DFFF0AE01B88206AF1
:101EF0002383231C183323612673291C221C03F01F
:101F0000F1FF051E03D00023A38500E0034D201C34
:101F1000FFF77AFE281C05B0F0BDC046050400009E
:101F2000012903D0022903D12F3000E02E300270A6
:101F300070470000F8B5002901D100241EE00F1CF5
:101F4000051C30210120161C0AF020F9041EF4D0D3
:101F5000031C002201212F33828587624662013BE8
:101F60005970281C1A700649221C03F041FE051EF8
:101F7000206203D1201C0AF041F92C1C201CF8BD62
:101F8000F91B001038B500280BD0838D012B0AD027
:101F9000041C006A03F086FE051C201C0AF02EF9C2
:101FA00002E0024D00E0024D281C38BD0304000091
:101FB0000504000013B500280AD0046A002C07D0DD
:101FC000002A05D0002400940194FFF723FE00E0CE
:101FD000004816BD03040000F8B5041C0D1C0028C1
:101FE0002BD0076A002F28D0002926D0838D012B03
:101FF00025D001260021868520220AF021F9231C04
:102000002E331978381C002203F0E6FD231C321C05
:1020100000262F331978206A03F0DEFDA5602673B1
:10202000E66166602660A979206A221C03F072FFCF
:10203000051EB54204D0A68502E0044D00E0044D23
:10204000201CFFF7E1FD281CF8BDC046030400007A
:1020500005040000F7B5041C0D1C01921E1C00288D
:102060003AD0076A002F37D0002935D0002B33D063
:10207000838D012B32D001230021838520220AF099
:10208000DFF8231C2E331978381C002203F0A4FD3E
:10209000231C2F331978206A012203F09DFD6B4623
:1020A0001B79A560637302232373AB88E36100236C
:1020B00063602360019B002B01D0666002E0122365
:1020C00026602373A979206A221C03F023FF051ED2
:1020D00005D00023A38502E0034D00E0034D201C42
:1020E000FFF792FD281CFEBD03040000050400005C
:1020F000F7B5041C0D1C0192002831D0076A002F8F
:102100002ED000292CD0002A2AD0838D012B29D053
:1021100001260021868520220AF092F8231C2E3306
:102120001978381C002203F057FD231C2F3319782F
:10213000321C206A03F050FD019B002663610323DB
:10214000A5602373AB886660E3612660A979206A85
:10215000221C03F0DFFE051EB54204D0A68502E076
:10216000034D00E0034D201CFFF74EFD281CFEBD73
:1021700003040000050400001FB5069C0094079CA2
:102180000194089C0294FFF781FD04B010BD30B5A6
:102190000D1C141C85B00093089B11210193099B11
:1021A0002A1C0293231CFFF7BFFD05B030BD30B5DC
:1021B0000D1C141C85B008AA118809AA1278009376
:1021C0000A9B01910292039311212A1C231CFFF701
:1021D000FBFD05B030BD0000F7B5041C0191161CD5
:1021E0000093002838D0076A002F35D0002A33D05A
:1021F0001368002B30D0009B012B02D1089B002BD1
:102200002AD0A38D012B29D001250021A5852022CC
:10221000201C0AF015F86B469B88266023816B46CC
:102220001B78381CA372089B00226360231C2E338A
:10223000197803F0D1FC231C2F3319782A1C206A4B
:1022400003F0CAFC291C206A221C03F0D1FD051EE4
:1022500005D00023A38502E0034D00E0034D201CC0
:10226000FFF7D2FC281CFEBD03040000050400009B
:10227000F0B587B003930CAB029204CB041C1B880F
:10228000019104930EAB1B8805930FAB1E780028B9
:1022900041D0076A002F3ED0002A3CD0012E02D147
:1022A000109B002B37D0A38D012B36D001250021A8
:1022B0002022A585201C09F0C3FF6B469B88381C93
:1022C0002380029B0022E3606B469B8963800C9B0A
:1022D000A3606B461B8AA380231C2E3319782943E5
:1022E000197003F079FC231C2F331978206A2A1CFB
:1022F00003F072FC6B469B8AE380002E01D0109B9A
:102300002361206A0121221C03F092FD051E05D0E5
:102310000023A38502E0044D00E0044D201CFFF7DC
:1023200073FC281C07B0F0BD030400000504000086
:102330001FB5069C0094079C0194089C0294FFF72B
:10234000A5FC04B010BD1FB506AC24880094079C02
:102350000194089C0294FFF7E7FC04B010BD7FB520
:1023600008AC40CC25880AAC2478009602940B9CDB
:1023700001950394FFF728FD04B070BDF0B587B058
:102380000EAC27789C460F9E109D119C002814D0FF
:10239000036A002B11D0002A0FD0002E0DD0002D83
:1023A0000BD0002C09D003940124634600970196BA
:1023B00002950494FFF762FD00E0014807B0F0BD0C
:1023C00003040000F0B587B00CAB1C780D9E0E9D89
:1023D00000281AD0036A002B17D0002D15D00F9BB0
:1023E000002B12D0002E10D0071C01222E373B7874
:1023F00013433B70049200220F9B009403930196B9
:102400000295131CFFF73AFD00E0014807B0F0BD4C
:1024100003040000F0B589B010AC278800281ED056
:10242000046A002C1BD0119C002C18D0129C002C8C
:1024300015D0002A13D0061C02252E3634782C43E2
:1024400034701E2400266C4427800194119C009651
:102450000294129C04960394FFF710FD00E00148DB
:1024600009B0F0BD0304000030B589B00EAC24887B
:10247000002810D0056A002D0DD0002A0BD01E2593
:102480006D442C80002401950094029403940494DC
:10249000FFF7F4FC00E0014809B030BD0304000080
:1024A00013B5002810D0046A002C0DD0D41D9C4216
:1024B0000ADA282A08D89B1A009101929BB20421BB
:1024C0000022FFF7A7FB00E0004816BD0304000050
:1024D00038B58369041C0D1C002B01D0C0699847D6
:1024E000231C04222933A5851A7028342378012B54
:1024F00003D1002D01D10133237038BD38B5031C41
:102500002E331B780222191C041C91432ED1051C6A
:102510002A352A78B22A15D0B32A2BD0B12A2ED147
:10252000002B02D18068FEF7F5FEE068FEF7F2FEB0
:10253000B2232B709A23DB00E058FA231149221CA6
:10254000DB000FE0002B02D18068FEF7D8FEE068C8
:10255000FEF7D5FEB3232B709A23221CDB00E05834
:102560000849094BFFF764F800200AE0AE23012276
:10257000FF33C254201C054901F084FB01E0812097
:10258000400038BDFD240010E02E0000D1240010D2
:1025900038B5031C042229331A70013B1B78041C34
:1025A0000D1C012B08D10069FEF728FFA068FEF77B
:1025B000B1FEE068FEF7AEFEA369002B02D0E06931
:1025C000291C984738BD10B5041C29342378032BE7
:1025D00015D0036900229860031C2E331A70043B47
:1025E000B1321A70021C01232F321370073A137094
:1025F000FFF784FF002804D10323237001E081202A
:10260000400010BD73B5041C28342478069E022CAB
:1026100012D1051C29352C78032C0DD0036246629B
:102620000096041C01F08CFB002807D1A38D002B21
:1026300004D103332B7001E08120400076BD0000FF
:10264000F8B5071C812629373B787600351C032B0B
:1026500016D0031C0122283386850A491A70041CEF
:1026600001F044FB051EB5420AD12069FEF7C6FE03
:10267000A068FEF74FFEE068FEF74CFE04233B70B7
:10268000281CF8BD9125001070B5051C041C002005
:10269000631B9BB28B4213D20F232278013442403A
:1026A00013401E1CD2B21B0153401A09000A5B00E2
:1026B00050405A40331C12015340DB005840E7E7BA
:1026C00070BD70B50D1C011C6231061C0978012A11
:1026D00002D1032001310140346F022A02D1746F0C
:1026E000002107E0002A05D1301C6030007809285D
:1026F00000D1746F52010A43D2B22270002D15D05E
:10270000311C321C66316132002B02D00B78002B59
:1027100004D0032013780133034013701378227818
:102720009B001343237000230B7003E080235B4264
:102730001A4322702B0AE91C6370A57089B2201C11
:10274000FFF7A2FF6319020A0535DA701871AAB201
:10275000301C211C00F08CFC70BD0000F0B5002581
:10276000041C2F1C89B004910392019305950095D8
:1027700006950295261C8323049A60365B009A42D4
:1027800004D13378012B01D008233370307801381D
:102790000A2800D975E109F093FA0B00120029000C
:1027A000F20018010F0174014E01EA006200AA0054
:1027B00004994B1E99410223591A89B263E1261CE0
:1027C0008123049A60365B009A4201D1FD3B0BE005
:1027D000FEF776FF0323A0673370201C00F060FC37
:1027E000002800D154E106233370C3E7231C603373
:1027F00007938123049A5B009A4201D1FD3B03E0D9
:10280000019B042B03D80623079A1370B2E7039B9E
:10281000039A1E78927873069B0F0093032333402C
:10282000069333079B0F0293039B03985B78F6098B
:102830001B021A430592039B019A0A369B189A1EA3
:102840001278013B1B78120213431F1C019B991E37
:1028500089B2FFF719FF079B051C1E708AE7AF427C
:102860000AD1059B002B07D0019A05339A4203D168
:10287000009B023B012B03D8231C0622603386E019
:10288000211C0322251C62310B7860350133134073
:10289000029A9A4206D0092300212B70201C0A1CA0
:1028A0000B1C8FE0231C61331B78069A934201D0E6
:1028B000092303E0009B012B02D104332B704DE070
:1028C0006B461B7A019A0B70606F039909F0AFFC9D
:1028D0006A46231C92886E331A80221C00236432BD
:1028E00013700422201C2A70191C1A1C6AE0009B19
:1028F0009A1E50425041231C633319780922033B2E
:10290000814244D10522AF4241D1019A052A1ED805
:10291000059A002A1BD100290DD009221A70231C08
:10292000083A66331A70053B02321A705A70022355
:102930003D1C00931EE7029A002A08D1009A032A40
:1029400005D0221C6132127806998A4201D00922F0
:1029500003E0009A012A03D104321A703D1C09E7F2
:102960000122E56F1A70201C0221029A8EE0231CBE
:10297000032260331A70201C00F092FB88E0231CB5
:102980008122049960335200914202D1FD3A1A70BB
:10299000F0E601221A70231C633319780B331B886D
:1029A000626F053BE56F03329BB2201C002901D00A
:1029B00004216CE006216AE0022300213370201C10
:1029C00001220B1CFFF77DFE62E0FEF779FEE36C4F
:1029D000C01A304B984224D8211C64310A78032A4B
:1029E0000FD100230339CB700A704A70221C0121D9
:1029F000663211700431063A1170201C191C022233
:102A000009E00132231C0A70022260331A7099898E
:102A1000201C00220123FFF754FE0622002801D1CA
:102A200003E00822231C60331A70231C60331B78D8
:102A3000082B2DD19EE6221C251C663213786535A5
:102A4000002B01D101332B702B78002B05D10121F4
:102A5000E56F3170201C1A1C19E0211C0323613121
:102A60000B704B700021023B137004333370201C39
:102A70000B1C0222FFF725FE0823337000232B7066
:102A800006E001213170201C0022E56F131CA847CD
:102A900009B0F0BD1FBF020070B5051C00236035F2
:102AA0000E1C2B700E49041C00F0ACFA002814D147
:102AB0000123221CE66761322B70023313705370BE
:102AC000231C66331870013B1870A9239B00E31880
:102AD0002367044BE318636701E08120400070BD69
:102AE0005D270010BA03000008B5031C60331A7894
:102AF000012A11D100290FD001321A70021C0023C3
:102B000064321370013A1370093211800A2282660E
:102B10001A1CFFF7D6FD01E08120400008BD00002F
:102B2000021C10B5041C8120603213784000012B78
:102B30000DD1032111700021033251701370FEF783
:102B4000BFFD034BA067A366201C00F0A9FA10BDCF
:102B500020BF02000B1C011C10B58031CB240B7070
:102B600001236400035302340253CD2252008354E4
:102B7000D03C023284529C22FF3283541A1C0069DA
:102B8000FEF73EFC10BD08B582210422FFF7E2FFEC
:102B900008BD70B5061C8036051C3170141C191C4C
:102BA000813009F044FBCB2302210134A2B25B0047
:102BB000EA520433E954C6310233E9529C23C7393F
:102BC000FF33E9542869311CFEF71AFC70BD08B5C3
:102BD0009C23FF33C35C012B08D1011C9633FF33C8
:102BE000C25A80310069FEF70BFC09E0022B07D1C5
:102BF000011C9733FF33C25A80310069FEF72AFC6B
:102C000008BD000038B50023041C0069C568C36016
:102C1000FEF74CFC2369DD60002812D0CE22520062
:102C2000A35A591EA152002B09D09A23DB00E05869
:102C30000449221CE83BFEF7FBFC012001E0812057
:102C4000400038BD492C001073B5041C0221838854
:102C500001AE1A0A32707370D6256D00635D552B74
:102C600064D012D8222B00D18AE009D8112B00D0D1
:102C7000ABE02223201C635581210222331C7CE01F
:102C8000332B29D0442B29D09FE0882B00D17DE025
:102C900004D8662B52D0772B5FD096E0AA2B00D1B8
:102CA00085E0BB2B00D090E06421201CFFF7AAFF39
:102CB000011E01D1332357E081235B00984200D0ED
:102CC00083E0583B63559A23DB00E0583F49221CC0
:102CD0003F4BFEF7ADFC78E0442328E0231C221C88
:102CE00082331B78833212781B026846134380229A
:102CF000027060881132FF32904206D9934210D898
:102D000004236A465370513305E0934209D90323E3
:102D10006A46537052336355201C892102226B4648
:102D20002BE0D62366225B00E25495E76623201C45
:102D3000842104226355FFF70DFF46E0231C221C6B
:102D4000823383321B78107862881B0203439A42D5
:102D500001D9AA2308E0772306E06188201CFFF749
:102D600051FF011E02D11123635575E781235B00DA
:102D700098422AD1583B635527E0FFF70AFF24E029
:102D80008823201C635581210222D4E7AA2363559E
:102D9000231C221C80331B78813212781B021343C0
:102DA000A2889A4200D257E7A380002154E7A023CB
:102DB0000222FF33002900D00022E254D423002253
:102DC0005B00E558201C131CA84773BD492C00105C
:102DD000E02E000038B5A025041C0B1CFF3500298F
:102DE00005D002224255A732FF3285585DE0405D92
:102DF0000138042869D808F059FF070B165B030057
:102E0000201C00F071F86AE0201CFFF71DFF66E04F
:102E1000032363559C33FF33E35C022B03D1201C57
:102E20008221042218E0CF235B00E35C022B16D141
:102E3000231C80331B785B061FD5231C82331A7832
:102E400001331B7812021A4317D0A388934214D37C
:102E50000423201C80216355FFF77CFE3FE0012BFB
:102E60000BD103336355A133FF33E25A043B201CDB
:102E70008021E358FFF78DFE31E0FEF721FCA36FC0
:102E8000C01AA36E984208D29A23DB00E058144976
:102E9000221C144BFEF7CCFB21E002238121201CD5
:102EA0006355A733FF33E55849000022131C15E092
:102EB0000223D421221C635597334900FF33655800
:102EC0008032E35A201C002108E001226255A8321A
:102ED000FF328121A558201C1A1C4900A84738BD83
:102EE000872B00108813000037B50022AE2101ABFC
:102EF0001A80FF31445C993C0A2C3BD8021C201CF0
:102F000008F0D4FE0638383838383838300E260005
:102F1000A223101C535482210422FFF71BFE29E038
:102F2000141C08208034257828402070082807D1F8
:102F30009B305054101C88210222FFF72AFE19E012
:102F4000A0230021FF33D1540331101CFF310FE0C7
:102F5000A12353549A23DB00D0580749074BFEF7AF
:102F600067FB07E0A0230121FF33D154101C00218F
:102F7000FFF730FF37BDC046E92E0010E02E0000FD
:102F800008B5021C002914D0022919D8CE21490005
:102F9000435A581E5052002B05D09A23DB00D058BC
:102FA0000849E83B0AE08321101C4900FFF712FFA3
:102FB00006E09A23DB00C05832230349FEF738FBB2
:102FC00008BDC046CF2B0010CD2F001008B5CD2373
:102FD0005B00C35C012B0FD19C22FF32835C012B71
:102FE0000AD1011C013383549733FF33C25A803115
:102FF0000069FEF72FFA04E0022B02D10021FFF74F
:10300000E9FE08BD38B5D423A0255B00C1500023DC
:10301000BB22FF354355AD33FF33C25403780269F9
:10302000041C13710069114BC822C360CE235B00DE
:10303000E252231C2F331B78012B08D0AE23FF3321
:10304000E25C012A0AD19922E254052307E0FEF747
:10305000CDF90028F2D08120400006E00123201C99
:1030600063550021FFF7B6FE002038BD812F001008
:10307000A02310B58124FF33C35C6400013B012B06
:103080000CD8CF23023CFF3C5B00C4540233C15038
:103090000433C2520021FFF79DFE0024201C10BD06
:1030A00008B5A0238122FF33C35C5200013B012BF2
:1030B00008D8CF23013AFF3A5B00C2540021FFF742
:1030C00089FE0022101C08BDF0B58DB01F1C12AB8C
:1030D000151C04CB041C1B780791089314AB1B78B8
:1030E000391C099315AB1A7896239B00C2541B4BCD
:1030F0000AAEC01801F0C6F8231C31331A78184BF9
:10310000291CE254174B0835E01801F0B7F8099B69
:103110000422E118D531FF31301C09F088F80BA8E2
:10312000391C01F0AFF808219620089B8000E318B5
:1031300001910391049112992418D5330591AAB2F3
:10314000FF330096029400200799FEF797F80028B5
:1031500001D0812040000DB0F0BDC04659020000F2
:103160005D0200005E020000F0B589B01F1C0EABCE
:10317000151C1A789623041C9B00C254194B0E1C74
:10318000C018391C01F07EF8231C31331A78164B15
:10319000291CE254154BE01801F070F8211CF531A0
:1031A0000422FF3106A809F042F807A8391C01F0F3
:1031B00069F89621231C06AA009208228900641847
:1031C000D533019203920492FF33029405960020B6
:1031D000311C2A1CFEF70BF8002801D0812040008A
:1031E00009B0F0BD590200005D0200005E0200005F
:1031F000F0B5AFB0089383235B00041C079219421B
:103200001FD0FF22CC33C254223BC25CB433052A08
:1032100003D10822FF32C2520FE0D9225200805C53
:10322000012809D10430FF30814205D084214900B2
:10323000E152002300F0D6FCE1520722D8235B00C4
:10324000E254D8235B00E05C0138072801D900F084
:1032500006FD08F035FD08007101E5031403910136
:103260008E04CA04100099239B00E15A3833E558B4
:10327000201C00F0FCFCB425FF35635D012B03D05E
:10328000022B00D188E031E1221C303212787F2AF3
:1032900001D90222D2E7221C32321278222A08D126
:1032A0006021FB32FF32A1544432A352D84AA352C8
:1032B0005FE0112A52D16369988800281ED09823B4
:1032C00023329B00E2520833E118083BE218FEF774
:1032D0006DF9012800D11EE1CE4BE25CE03BE254E7
:1032E000CD4BE35C002B11D1D82302225B00E254CA
:1032F00000220233E2540132C84BA1E7C64BE35C23
:10330000002BF1D0C34BE25CE03BE2548723682200
:103310009B00E254C24BE0187B33E15800F0B2FF4F
:1033200005230021BA4A04A8A352C43AFF3A12184E
:10333000117098229200A352B74B6669E154B3888A
:103340008B4216D034221EA808F07AFFB0881EA93E
:103350003422FEF70FF901280BD1DCE0E923FF222C
:103360005B00E254F83A223BE254FB32B433E252BF
:10337000D1E0A74B201CE25A0A33E31800938723BD
:103380009B00E318191C00F0B9FE002800D0BFE034
:103390000223635500F06EFC0322079B1B789343C6
:1033A0009A229200A5186C2B2BD1231C32331B7848
:1033B000112B00D08CE0089B052B00D088E0201C4E
:1033C000D5302822FF30291C08F031FFA5239B00AF
:1033D000E258E03BE250E433E258DC3BE250D433C5
:1033E000E25C904BE254904BE25C904BE254894B90
:1033F000E25CE03BE2540122884BE2540332B63BEC
:1034000061E0642B64D1231C32331B78222B5FD103
:10341000089B012B5CD120216A46261C52187E4B4A
:103420001278D536FF36E254281C2822311C08F0C9
:10343000FEFEDA23D9275B00E258E033E250D83BA6
:10344000E258DC33E250774B7F00E25C2E33E254EB
:10345000764BE25C744BE254E25D6E4BE25463697E
:103460009888002819D0982334229B00E252291C06
:10347000FEF780F8002810D0E923FF225B00E25419
:10348000F83A223BE2548421992200239200490019
:10349000E355A1523C32A3543AE02822301C0021CB
:1034A00008F0CEFEDA2200235200A3500432A350CB
:1034B0000432A3505B4AA3545C4AA3543D32A35444
:1034C0000122B133FF33E254992300229B0085E0AF
:1034D000281C0021342208F0B3FE63699888002874
:1034E00019D0291C3422FEF745F814E0E923FF2205
:1034F0005B00E254F83A223BE25484210023AC32D0
:10350000FF32A3544900B232A1523C32A35402E02C
:10351000002800D195E6E923FF225B00E254F83A47
:10352000223BE25484210023AC32FF32A3544900F1
:10353000B232A1523C3240E3231C30331B785AB2E2
:10354000002A06DB002B15D0D9235B00E35C002B9F
:1035500010D1D82305225B00E254B2230C32FF3392
:10356000E254002201336BE6D9235B00E35C012BBC
:1035700000D07FE3042261E69A239B00E01800213B
:10358000282208F05DFEA52300259B00E550214B75
:1035900011A8E5540633E550083BE554224B291C9D
:1035A000E5541D4B3422E55408F04AFE63699888BF
:1035B000A84215D011A93422FDF7DCFFA8420FD094
:1035C000E923FF225B00E254F83A223BE25408224E
:1035D0000233E554EE33E554FF323C3BE25230E631
:1035E0000023812509936D00B223FF33E35C332B65
:1035F00000D1A6E004D8112B1AD0222B43D02FE102
:10360000442B00D1DBE0552B00D122E128E1C0465C
:1036100056020000920200009302000066020000C1
:103620001D0200006202000091020000630200001F
:10363000E82200235200A3544C32A354231C3133FC
:103640001A78D74B201CE25426224333E252E31867
:10365000009387239B00E318191C243A00F04EFDC9
:103660008123051C5B00984208D1B2225523812595
:10367000FF32A3546D0001230993B5E7B222222340
:10368000FF32A354ECE098224421079B92001B7860
:103690000B4203D0A15A012900D1DAE0A25A262A0E
:1036A00000D095E0002B00D092E0079B5B78012BC7
:1036B00000D08DE00798271C223000F0D3FDDC23DA
:1036C0005B00E0500433E050FD37079BFF37991C47
:1036D0002022381C08F0ABFDB24911220CA808F0DA
:1036E000A6FD62691EA950880632FDF75FFF082615
:1036F000051CFF36002819D110230093DB18029314
:10370000231CD533FF3303932823019704931EA969
:1037100040220CABFDF7C6FC002800D0351C6369C5
:103720001EA8DA88002108F08BFD00E0351C332349
:10373000B5424ED1B22255230825FF32A354FF359E
:1037400099E7E8270823211CDC267F00E355964BE8
:10375000FD31E5182022FF31281C08F068FD934B4D
:103760007600E018A15900F08DFDE35D201C009368
:10377000291CA3592422FFF7F7FC81235B00984200
:1037800000D172E7E25D1B33FF33E254844BA15951
:10379000E01800F077FD982331229B00E252E318F5
:1037A000009387239B00E318201C191C00F0A6FC43
:1037B000051E0DD1B2224423FF32A35454E0079BCF
:1037C0001B78082B04D198239B00E35A312B04D09B
:1037D0005523B222FF32A3544DE7079BDA27581C2A
:1037E00000F040FD87227F009200031CE051A618E4
:1037F000E820079A4000511D1022205C01921432EB
:10380000039000960292201CFFF75EFC8123051CAA
:103810005B00984200D128E70BA8E15900F032FD87
:10382000201CFD30FF30311C202208F0F1FC002864
:1038300000D07FE78F239B000BA8E118042208F03B
:10384000E7FC002800D075E7D92301225B00E25491
:1038500006E0E923FF2208255B00E254FF3503E080
:10386000099B012B00D106E70823FF339D4200D0BE
:103870007AE65E33FF33E5520722B43BE0E4221CD4
:10388000032330321178E8200B40202140001943F7
:10389000023B2154012B1BD8DE235B00E35801338C
:1038A00010330FD9A8239B00E35C002B0AD1D92346
:1038B00000225B00E2540532023BE254B2230C3298
:1038C000FF33BDE4E6235B00E1580B880D330B802A
:1038D000E823D2275B00E05CFF37E0551378012234
:1038E000134265D0DA235B00E3589A18103204D9EA
:1038F000A8229200A25C002AD9D0E9225200A25C40
:10390000042A19D10025BD32FF32A1580195053195
:10391000043220350390A25A00910295201CFFF733
:10392000D3FB81235B00984200D1F4E55F33FF3382
:10393000E25A943BE3581A80DA267600A359D4223F
:10394000E025591C0523FF326D00A151A354635992
:10395000581C00F097FC6359201C591DE2235B00A2
:10396000E25AE35D0093A359FFF7FEFB81235B005E
:10397000984200D1CFE5CE33E35C6259201C13702E
:10398000E2235B00E25AD423FF33E35C08329A1847
:10399000E6235B00E35892B2009361591BE0C046F6
:1039A0001D020000B4CA0010210200004102000004
:1039B000D423FF33E254E0225200A1580871A158E9
:1039C000E25C0F3BE35A201CD218E6235B00E3586D
:1039D000043192B20093E4235B00E35800F08EFBC5
:1039E000D82381225B005200904210D1FF21D032B7
:1039F000A154CC3AFF3AE2540023AC32FF32A35434
:103A0000EE32A35499239B00E052FFF71AFCE62202
:103A10005200A258118898229200A15203221CE160
:103A2000E4267600A359581C00F01CFCDC2252004E
:103A3000A050089A031C002A00D16CE54025079A83
:103A400011780D4031D00423994340290BD1089BB4
:103A5000012B04D0D9235B00E35C012B03D0864B00
:103A6000E35C032B08D18422992352009B00E2528D
:103A70000022B23BE25412E0804BE25C023B012A9E
:103A80000AD1221C32321278112A05D10021A23229
:103A9000FF32A154AA3A01E081225200E252D82317
:103AA00006225B00E254F93234E0D220FF30275C7A
:103AB0008F4200D02FE503223A40023A012A32D841
:103AC000089A0D2A00D826E5DE225200A158CF1C04
:103AD000BB4200D91FE58B4200D81CE5A350103231
:103AE000A1580A880D3A92B20A80A1591026205C8A
:103AF000053101961436039000910296201CFFF7C1
:103B0000E3FAD82381225B005200904205D1FC3AAF
:103B1000E254023A2233FFF793FB99229200A55216
:103B20000122FFF78DFBD822089B5200012B15D8EC
:103B30000723A354CC33B13AFF33E254203BE15C7A
:103B40006632FF32002903D1B03BA352FFF779FB65
:103B500084214900A152E554FFF773FBE6235B0083
:103B6000E1580B88013B0B8099239B00E552012310
:103B700023E0079B1B78442B22D1089B012B00D00C
:103B8000C9E43D49635C022B00D9C4E4221C022035
:103B9000303212788243012A01D0FFF74EFB013305
:103BA00063546A462021A823521812789B00E254DD
:103BB000E92204235200A354223AA354FFF741FB05
:103BC0002F4BE35C032B01D0FFF737FBFF22D033F1
:103BD000FF33E25484210023B332A3544900B232AC
:103BE000A1523C32A354FFF728FBE9225200A05C0B
:103BF000D23AFF3AFF2801D1FFF722FB9921E25484
:103C00008900042820D11E48235C9B182354D82304
:103C100003205B00E054002363524433943963541F
:103C20004C31635498239B00E31800930B1C543BC6
:103C3000E358201C611800F061FA98239B00E25AB7
:103C4000943BE3581A8005E0842300225B00635212
:103C5000AA33E254E923FF225B00E2540AE0012286
:103C6000E254A7238121201C9B00E5584900002233
:103C7000131CA8472FB0F0BD6302000066020000CD
:103C80006202000038B5031C002234330D1C1A7088
:103C90001449041C00F016FA002820D1A7239B0029
:103CA000E550231C32331A780F4B112A01D1E0540E
:103CB00001E00122E254D82201235200A354221C25
:103CC000002031321370B233FF33E054B222B233EA
:103CD000E0521123FF32A3542132A35401E081208A
:103CE000400038BDF131001066020000D82238B51E
:103CF0005200835C012B02D0812040001FE0A723EB
:103D00009B00C150031C32331C780D1C332C04D192
:103D100000210A1C0B1CA84710E0D9235B00C35CE0
:103D2000012BE9D1222CE7D108218154B422FF32A2
:103D30008354693282180021FFF75AFA002038BDF7
:103D4000F8B50E1C151C002941D0002A3FD0D822FE
:103D50005200815C141C012939D1071C32373F788D
:103D6000112F0AD11B4FC75D002F06D1A93CFF3C84
:103D70008454B422FF32815401E002220255E02231
:103D80005200865004328552021C303211780322D0
:103D90000A40E421023A4900012A00D90433435081
:103DA000E6230024069A5B00C25011220A4B211C14
:103DB000C4543D33C454094BC4540233C452923BDF
:103DC000C254321C2B1CFFF713FA201C01E0812087
:103DD0004000F8BD660200006302000062020000BD
:103DE000F8B5871CC28FFE8F031D921B051CDC8F4C
:103DF00091B2002E03D18C429B415B4203E004232D
:103E0000A14200D9023BA24200DA0C1C0822134353
:103E1000084AAB54AA239B00E818AB6B221C9919E3
:103E2000A619013408F003FAFE87281CA1B2FEF798
:103E30005BFEF8BDA7020000F0B50027041C1D1CA6
:103E400085B0029100920197009B002B04D01B7853
:103E500001930723019F1F400123029A134005D0BD
:103E6000221C062134321170FC311184002D0ED039
:103E7000221C58321278002A09D1019907321140C8
:103E8000012904D801999143082900D0D4E0221CCB
:103E90000021261C5832117034363078013807283A
:103EA00000D9BEE007F002FF0409BD345EB9A38B60
:103EB0000021E56D201C0A1CBBE0029B9B0709D575
:103EC000A31CDA8FE38F9A420AD20823072F5DD012
:103ED000002D01D00622B7E0201CFFF781FFEBE0A8
:103EE000211C0023042252313270A3870B70231C43
:103EF000012153331970029B1342A5D1201CFEF7F8
:103F00000FFE002800D1D7E0062334342370D3E01D
:103F10000422029B1342DDD0002DDBD0231C54333E
:103F20001A8882235B009A4209D1042FD2D0201C28
:103F3000FEF7F6FD0028CDD104233370BCE0231C2E
:103F400052331A78072F03D0022F01D9042F7AD1C8
:103F50005A497B00585C90427AD0CB185B789342E8
:103F600071D175E0231DDA8F531C9D4201D00723C8
:103F70000CE0A08FA16C43190988013B8B4207DD3F
:103F80008222231C520054331A80042333705BE7CF
:103F9000009B002B9ED0636C00991818013108F02B
:103FA00046F9A38F019A013BED1807231A40131C11
:103FB000221C5232A5871370042333709EE7012D13
:103FC00004D9231C53331B78012BD0D0221C503230
:103FD0001378591C1170002B00D07BE7A21CD387EB
:103FE000A38702333370201CFFF7FAFE11E002238F
:103FF000221C337051321378591C1170002B00D0E1
:1040000068E707212E4A201CA154A3870639FEF732
:104010006BFD002800D05DE74EE0002B01D1002DA4
:1040200001D001233370231C201C00225433198833
:10403000E56D131CA8473FE0221C062134321170A5
:10404000FC31118423E70822231C34331A70FBE669
:10405000231C52331F70009B002B00D13AE704232E
:104060003A1C261C9A4303923436002A22D1A08F90
:10407000A26C43191288013B934206DD8222231C65
:10408000520054331A80062380E7636C00996A1E3D
:104090001818013108F0CBF80122A38F201C013B36
:1040A000EB189BB2A3873270A26CE56D1380039965
:1040B000626CBFE7052369E705B0F0BDC5CA001013
:1040C000A702000070B5051C002334350E1C2B70B0
:1040D0000949041CFEF7E0FC00280AD1221C012338
:1040E00058321370E6652B70A3880434063BE387CF
:1040F00001E08120400070BD393E0010F7B5041C7E
:104100000F1C161C0193002924D0002A22D0031C66
:10411000812534331A786D00012A1DD101321A70BD
:10412000FDF7CEFA0023A21CE064A763E687D387DD
:10413000019AA3876264089A201CA264221C503250
:1041400013705370D370231C54331D80FFF748FE47
:10415000051C01E081256D00281CFEBD10B5041C66
:104160004068A36898470023637310BD10B5054BE2
:10417000021C1C7B181C002C03D19A60596001237F
:10418000037310BD481A00204160002070470000F2
:1041900038B5002802D1812040001AE0437B012B72
:1041A000F9D001234373041CFCF77AFF051EF2D1FA
:1041B0002368084ADC619A61227C32331A709A23A0
:1041C00020686269DB00C250FEF7FDF9002800D0CC
:1041D000657338BD5D41001037B500281ED0447BA3
:1041E000012C1BD0041C01200E4D60732068C4619B
:1041F0008561A57B303005702068E57B3130057026
:104200002068257C32300570069800902068FEF703
:10421000F9F9002804D00023637301E081204000F5
:104220003EBDC0465D41001010B5002814D0437B50
:10423000012B11D001230A4A43730368041CD8617F
:104240009A61027C32331A700068FEF7F9F900288F
:1042500004D00023637301E08120400010BDC046FC
:104260005D410010021C0378180653781B040343B9
:10427000D078184393781B02184370470B0A0370D9
:10428000417070470B0E03700B0C43700B0A837068
:10429000C170704703781B020B80427813430B8078
:1042A000704782B06B4658703023000A0B70483359
:1042B0004B7003091A1C3732092B01D830331A1CF2
:1042C0000F231840031C8A703733092800D8073B96
:1042D000CB706B4658780209131C3033092A00D979
:1042E00007330B710F2303401A1C3032092B01D9FD
:1042F00037331A1C4A7102B07047000010B500280D
:1043000007D0041C08F0A3F8211C021C0148FDF78B
:1043100009F910BD6415002037B5041C0A4901A82D
:10432000022207F084FF002C0DD0201C08F08FF82B
:10433000064D021C211C281CFDF7F4F8281C01A9BD
:104340000222FDF7EFF837BDD5CA00106415002032
:1043500070B5E8B0061C0C1C151C03A811490222FC
:1043600007F065FF002E1AD0002C18D0002D16D0B3
:104370000D4B0E492A1C01930096231C04A808F03B
:1043800025F804A808F063F8094C021C04A9201CB5
:10439000FDF7C8F8201C03A90222FDF7C3F868B096
:1043A00070BDC046D5CA0010E0CA0010D7CA0010C0
:1043B00064150020F0B5284C051CA5440E1C171CE4
:1043C0002649022202A807F032FF06AC00210A2289
:1043D00003A807F035FF00211422201C07F030FF4E
:1043E0000BA80021642207F02BFF002D2FD0002EF8
:1043F0002DD00BA8291C002F04D108F009F80BA818
:1044000017490BE008F004F816490BA808F000F86B
:10441000381C03A9FFF745FF201C03A907F0F8FF8C
:10442000114B1249321C0094019324A80BAB07F0E6
:10443000CDFF24A808F00BF80D4C021C24A9201C69
:10444000FDF770F8201C02A90222FDF76BF8892302
:104450009B009D44F0BDC046DCFDFFFFD5CA0010A7
:10446000E5CA0010ECCA0010E0CA0010D7CA00105C
:1044700064150020F0B5414CA544002879D0002AED
:1044800077D00D1C0592049000210A2206A807F09F
:10449000D7FE3B4A3B495EA807F098FF281C06A9B7
:1044A000FFF7FFFE06A95EA807F0B2FF5EA8FFF7C0
:1044B00033FF0024AC425CD22B1B20261F2B00DCD8
:1044C0009EB2AF220021520006A807F0B9FEAF222B
:1044D0005EA80021520007F0B3FE049B1B19039352
:1044E000002B27D0092304AA9B180022B24219D21C
:1044F0003020844603998F5C39098C44092901D9FD
:1045000037318C466046591E08700F210F40391C08
:104510003031092F00D9073119702021013259702B
:104520000333E3E703235E43B6AB9E19164BF6183D
:1045300000233370154B5EAE1549059A0093301C6D
:1045400006AB07F043FF301C07F081FF0D23335407
:10455000301C07F07CFF0A2330184370301C07F032
:1045600076FF2034821C311C0A48FCF7DBFFA4B222
:10457000A0E7B7239B009D44F0BDC04624FDFFFF8C
:104580000DCB001008CB001040FDFFFFE0CA00106B
:104590001FCB00106415002030B51C880D0A105583
:1045A000601C80B21554A01C80B2033411541C80CE
:1045B00030BDF7B50C22131C0D1CC721477F0668C0
:1045C0007B43C900F3185B181B78041C0192232B52
:1045D00001D1232D08D0FDF76BF8019B7B43F61822
:1045E000C623DB00F61870600C23C620627F2168AA
:1045F0005A43C0008A18121814601A1CC726607F1C
:10460000F60042438A1892191678232E04D1232DDE
:1046100002D1043B537006E0C7224343D200CB18BB
:104620009B1802225A700C22637F21685343C722D1
:10463000CB18D2009B181D70F7BD000038B50C23B5
:10464000C621427F04685A43C900A21852180121AA
:1046500049425160C6220025417FD200594361186A
:1046600089180D60C721427FC9005A43A218521809
:104670001570427F53430268D31801225B185A70A9
:10468000CF230268DB00D0580149FCF7E1FF38BDB9
:10469000D9590010F0B5436885B0041C029103930A
:1046A000076800291BD0037E002B13D0C37E222B6A
:1046B00010D1D023DB00F8180021082207F0C0FD3C
:1046C000208C332806D1D0222368D20099180822E2
:1046D000FCF750FF0B23A3756B461B89E383012670
:1046E000A37D0C2B00D986E1181C07F0E9FA0D0018
:1046F00015003A004400770085008500910098007D
:10470000C800010179017F01201C2121FFF751FF21
:104710000023E383013379E0CF212368627E1B68A5
:10472000C9009A732368A27E1B68DA732368E27E4D
:104730001B681A74236838681A685B58211C536117
:10474000FFF722FD23681868FFF722FDE0830028A9
:1047500005D00B23A375AA4BE3830026C0E70223F1
:1047600054E0CF232268DB00D058A649221C322314
:10477000FCF75EFF49E0E37E222B01D00423A37502
:104780002368627E1B689A732368A27E1B68DA73B3
:10479000D1232268DB00D15C1268002901D0E17EC0
:1047A00000E033211174002221680425CA54CF216E
:1047B0002368C9001A685B58A575211C53613868C5
:1047C000FFF7E2FC23681868FFF72EFDE08300285E
:1047D000BFD1E37E222B09D1A5750FE12369E068E3
:1047E00002999847E37E222B00D004E1201CFFF7BA
:1047F00025FF0023E383FEE00025201C2221052B5A
:1048000000D02121FFF7D5FEE5830823A375F2E050
:10481000201C2321FFF7CDFE0023E383F5E7201CB6
:10482000039B9847E083002801D00B23DCE023683A
:10483000754ADA80627E1B689A732368A27E1B68C1
:10484000DA73D1222168D2008B5C607E03438B54E3
:104850003868211CFFF798FCBB1DBA88009307330A
:104860003868191CFFF7B8FCE083002800D070E717
:104870000923227FA375893B13432377BEE0237F5F
:104880007F2BD2D9201C039B9847E083002821D19D
:10489000E07D002803D1A37D0C2BC6D15DE7CF239B
:1048A0002268DB00574901280BD1D058FA23221C7B
:1048B0009B00FCF7BDFE0323627E13406376082352
:1048C00006E0D058FA23221C9B00FCF7B1FE03231C
:1048D000A37593E081239B009842A6D00322FB3B63
:1048E000FF3BA375237F9343023A1343237734E7B7
:1048F0000323267F25681E40022E2CD09E4248D0DE
:10490000012E5BD1281C41491630FFF7B7FC206807
:1049100000211830FFF7B2FC2068311C1A30FFF775
:10492000ADFC002223680321DA741A7506329E74E6
:104930005A750A2322689380237F8B4301390B43E6
:104940002377CF23DB00D058FA232E49221C9B006B
:10495000FCF76EFE32E02C4B2A68EB80637E211C54
:1049600093732368A27E1B68DA732868FFF70CFC38
:104970002B1CA91D0D33AA8800912868191CFFF76C
:104980002BFC061E18D10322237F93431343237766
:1049900016E0AB7CFF2B11D08023AE7D1B021E43A3
:1049A0000923A375CF23DB00E858FA231549221CFD
:1049B0009B00FCF73DFE03E0114E01E0802636022D
:1049C00033B2E683002B00DD2FE780231B029E42DB
:1049D00014D10323227F1340032B00D125E70DE0E0
:1049E000201CFFF72BFE0C23A375B6E6E18B236991
:1049F000E068984702E0002E00D1AEE605B0F0BDB9
:104A000002020000114A001022060000C2F100005C
:104A100008B50021FFF73EFE08BD0000F8B5837D14
:104A2000061C8468082B02D0092B32D074E0006881
:104A300021881630FFF722FCE188A588374B6D1AD4
:104A40009D4200DD1D1CA27AADB20B23002A0CD1C1
:104A500063883068C918183089B2FFF70FFC3068D6
:104A6000291C1A30FFF70AFC0F2320882C4A8121C9
:104A7000904200D180393268307E9174191CD07414
:104A800000200939107551753268053B93802581E6
:104A900043E000230168C3758D7C9D420ED0017FE9
:104AA000E2887F330B40002A04D080225242134315
:104AB000037731E00377E3681A802DE0C28B194B4E
:104AC0009A4203D1E288E3681A8023E0CF88A38862
:104AD000043FBFB2BB4204D28120E36880001D8046
:104AE0001BE02369E0883A1C1818163107F09FFB79
:104AF000E3882289FB189BB2E380BA4202D8A288DD
:104B00009A4205D10020E2681380E080208104E011
:104B10000123F375281C00E00348F8BD11060000CE
:104B2000C2F100000880000002020000F7B5837D9A
:104B30008568082B02D0092B49D050E00023041CC3
:104B4000C375006829881630FFF798FB6B88E988E1
:104B50002068C918183089B2FFF790FBEB88AA8843
:104B6000D21A214B9A4200DD1A1C97B23E1C1F4BF1
:104B70000836B6B29E4234D88220237E391D019376
:104B8000236889B29874684600795975D874080A00
:104B90001875237E2068022B02D1AB7B837606E05A
:104BA000E988AB681A3092B2591807F040FBEB88DD
:104BB0002268FB189BB2EB809680AA889A4201D1AA
:104BC000002010E001230020E37520760BE003684D
:104BD0009B7C002BF4D07F23027F13400377044893
:104BE00001E081208000FEBD0D06000015060000DA
:104BF0000202000073B56B469D1D09232B80837D47
:104C0000041C8668082B02D0092B4AD05CE0027E87
:104C10000023042A02D1738805339BB206332D4A40
:104C20009BB2934252D8206831881630FFF726FB9A
:104C30002888023080B22880237E042B20D123686C
:104C4000A18A18180D30FFF719FB2B88B1680233C1
:104C50002B80002900D07188226841200D322B1C46
:104C6000FFF79AFCB16800290AD023682888728867
:104C700018180D3007F0DBFA72882B88D3182B80B8
:104C80002B888C25191C207E2268093989B2D074A2
:104C9000080A9574107551752268053B93800024AD
:104CA00016E001688B7C002B04D07F23027F134029
:104CB000037709E0027E1C1C042A09D07068328840
:104CC000163107F0B4FA03E0034C01E08124A4009C
:104CD000201C76BD150600000202000073B56B466D
:104CE0009D1D09232B80837D041C8668082B02D020
:104CF000092B35D050E00268B17B0D3201202B1C0E
:104D0000FFF74AFC23682888B27B181831680D30F9
:104D100007F08DFAB27B2B880221D31822682B80F2
:104D20000D322B1C0320FFF737FCB389A18A002B1F
:104D300000D0191C2888236818180D30FFF79EFA38
:104D40002B88B125207E2268D91F89B2D074080A29
:104D50009574107551752268033B938000201CE008
:104D600001688D7C002D10D1B368CA881888043A78
:104D7000904203DA81201D8080000EE092B21A80FA
:104D80007068163107F053FAE8E77F23027F13407B
:104D900000220377B3681A80004876BD0202000043
:104DA00073B56B469C1D09232380837D051C866893
:104DB000082B03D0092B00D182E08AE0B289B07BB6
:104DC0000A32317992B20523002803D033699B88D7
:104DD00009339BB252189B18404A9BB2934200D9A8
:104DE00079E02A6801200D32231CFFF7D5FB2B68E0
:104DF00020883279181831680D3007F018FA3279A6
:104E000023880220D3182A682380B1890D32231CFD
:104E1000FFF7C2FB2B682088B28918180D30B168E3
:104E200007F005FAB2892388D31823802A68B37B58
:104E30000D32002B0ED104200221231CFFF7ACFB06
:104E40002B682088B18A18180D30FFF717FA2388CD
:104E5000023321E005200121231CFFF79DFB23885D
:104E600029685A1C22803269CB18927906205A731D
:104E700033692A6899880D32231CFFF78DFB2A6855
:104E800020883369101819689A880D3007F0CFF917
:104E900033699A882388D31823802388B224191C65
:104EA000287E2A68093989B2D074080A107594746A
:104EB00051752A68053B938009230020AB750CE0EF
:104EC000036800209B7CFF2B07D12A7F803B134087
:104ED0002B77034801E08120800076BD1506000095
:104EE0000202000073B56B469D1D09232B80837D54
:104EF000041C8668082B03D0092B00D172E085E0E2
:104F00003368B17A9B880322012900D00232103322
:104F1000D318414A9BB2934200D979E0226802211A
:104F20000D3201202B1CFFF737FB3189002900D1FE
:104F3000A18A2368288818180D30FFF79FF92B885D
:104F4000226802332B800D32052001212B1CFFF734
:104F500023FB2B8821685A1C2A803268CB1892794F
:104F600006205A733368226899880D322B1CFFF78C
:104F700013FB226828883368101819689A880D3046
:104F800007F055F933689A882B88D3182B8022684C
:104F9000B37A0D32002B0FD1082002212B1CFFF712
:104FA000FBFA23682888A18A18180D30FFF766F9E4
:104FB0002B8802332B8004E0072000212B1CFFF7F5
:104FC000EBFA2B88B325191C207E2268093989B297
:104FD000D074080A9574107551752268053B93804A
:104FE000002417E001688B7C002B04D07F23027F14
:104FF000134003770AE0B27A1C1C002A0AD0CA8840
:105000007068043A163107F012F903E0034C01E02E
:105010008124A400201C76BD1506000002020000B9
:10502000F7B56B469D1D09232B80837D041C866884
:10503000082B03D0092B00D19DE0ADE03269142389
:10504000002A00D10233F268002A04D07288002AB4
:1050500001D09B189BB2B268002A04D0B288002A03
:1050600001D09B189BB24F4A934200D996E0226828
:1050700002210D3201202B1CFFF78EFA3188002906
:1050800000D1A18A2368288818180D30FFF7F6F898
:105090002B88226802332B8002212B1C0D32032027
:1050A000FFF77AFAF1884B1E0E2B00D810212368E7
:1050B000288818180D30FFF7E1F828882268831C2B
:1050C0009BB2D31802225A730530F16880B228804F
:1050D0000F1E09D000277288BA4205D0236818181D
:1050E0000D3007F0A4F87788B16800290CD0B28899
:1050F000002A09D028882368381818180D3007F0BE
:1051000096F8B388FF18BFB223682888391C18188E
:105110000B30FFF7B3F82B882268FF1833692F8014
:105120000D32002B0FD1082002212B1CFFF734FA7F
:1051300023682888A18A18180D30FFF79FF82B885C
:1051400002332B8004E0072000212B1CFFF724FAF8
:105150002B88B425191C207E2268093989B2D074A5
:10516000080A9574107551752268053B93800923D0
:10517000A375002314E001688D7C002D04D07F23EB
:10518000027F1340037707E03069031E08D0F288DE
:10519000163107F04CF8ECE7034B01E081239B004C
:1051A000181CFEBD1506000002020000F7B56B4694
:1051B0009F1D09233B80837D051C8668082B02D038
:1051C000092B2BD043E00024C475B188224ACB1DA3
:1051D0009BB293423DD83020B3792A6818430D32F0
:1051E0003B1CFFF7D9F92B683888B288181831684A
:1051F0000D3007F01CF8B2883B888326D3189BB289
:10520000191C287E2A68093989B2D074080A967454
:10521000107551752A68053B938016E00268947CEE
:10522000002C04D07F23027F134003770FE0B37973
:10523000012B02D10A33837507E00C238375CF233A
:10524000DB00D0580549FCF703FA201C03E00448B2
:1052500001E081208000FEBD15060000D959001034
:1052600002020000F7B56B469D1C09232B80837D4D
:10527000041C8668082B02D0092B3ED088E0026807
:1052800073780D32002B20D1012002212B1CFFF757
:1052900083F928882368718818180D30002900D1F7
:1052A000A18AFEF7EBFF2B88226802332B800D3298
:1052B00001212B1C0220FFF76FF92B8821685A1C53
:1052C0002A803278CB185A7304E0072000212B1C67
:1052D000FFF762F92B88B825191C207E226809394E
:1052E00089B2D074080A1075957451752268053B0F
:1052F000938009230020A3754BE00068837CFF2B7B
:1053000007D1002233691A807F23227F134023773D
:105310003EE00025143001A9FEF7BCFF1D486B4696
:105320009B88AB4235D923685A19927D022A19D13C
:1053300058196B469F1D391C1730FEF7ABFF3369B8
:105340003A881988914204D2002281201A80800074
:105350001FE01A802368F0685919193106F067FFB9
:1053600033690FE0012A14D1581917306946FEF746
:1053700091FF6B461A88236870685919193106F035
:1053800056FF6B461B8800200333ED18ADB2C6E70D
:105390000048FEBD020200000923F7B501AC2380DE
:1053A000837D061C8568082B03D0092B00D187E07C
:1053B000AAE0A8680E23002802D02B880C339BB2E9
:1053C0002A7B002A04D02A69928802329B189BB259
:1053D0004E4A934203D900226B681A8088E03268F3
:1053E00029880D32002810D100290ED10230011C6D
:1053F000231CFFF7D1F833682088B18A18180D30C4
:10540000FEF73CFF238802330EE06120231CFFF7E8
:10541000C3F8336820882A8818180D30A96806F068
:1054200006FF2A882388D318238032682B7B0D320D
:10543000002B22D005200121231CFFF7ADF8238883
:1054400031685A1C22802A69CB18927906205A7337
:105450002B69326899880D32231CFFF79DF832685A
:1054600020882B69101819689A880D3006F0DFFE25
:105470002B699A882388D3180EE004200221231C6C
:10548000FFF78AF83368208818182B690D301988BF
:10549000FEF7F4FE23880233238023889E24191C00
:1054A000307E3268093989B2D074080A9474107554
:1054B00051753268053B93800923B375002024E0C1
:1054C0000068847C002C07D000226B681A807F2340
:1054D000327F1340337717E06B469F1D391C17301E
:1054E000FEF7D8FE6B683A881988914203D21C8077
:1054F0008120800009E031686869193106F097FE63
:105500003A886B681A80D9E70148FEBD150600008D
:1055100002020000092373B501AE3380837D051CB0
:105520008468082B02D0092B60D08CE06369218845
:105530000520002B04D0626853425A415242104069
:105540000B1C0C33C318424A9BB2934203D96368C5
:10555000002B6BD179E02A6861200D32331CFFF7F4
:105560001BF82B68308822881818A1680D3006F0C7
:105570005EFE228833880320D3182A6833800D32D8
:105580000221331CFFF708F82B68308818182369AC
:105590000D301988FEF772FE338802333380636959
:1055A000002B13D16368002B10D102202A68011C44
:1055B0000D32331CFEF7F0FF2B683088A98A1818CB
:1055C0000D30FEF75BFE33880233338033889F242F
:1055D000191C287E2A68093989B2D074080A947483
:1055E000107551752A68053B93802AE003689A7C00
:1055F000FF2A09D16368002B01D000221A807F2383
:105600002A7F13402B771EE0606900281FD0606856
:1056100000281CD01733181C6B469E1D311CFEF74A
:1056200039FE636832881988914202D200221A80BA
:105630000BE029686069193106F0F9FD328863686A
:105640001A80002003E0034801E08120800076BD3D
:1056500015060000020200000923F0B585B003AE74
:105660003380837D051C8468082B03D0092B00D16F
:10567000AEE0E5E00023C375237663680268002B83
:1056800032D00A233380237B714F9375636822697C
:105690005B689B1AE269BF1A9F4200D91F1C2868E9
:1056A000BBB2191C17300193FEF7E8FD30882B6858
:1056B000023080B2308018186368BFB2196823695D
:1056C0003A1CC9180D3006F0B2FD3388019AD31880
:1056D00033802369FF18636827615B689F4231D07C
:1056E0000123EB7523762DE02168207B0D32002904
:1056F00025D00621331CFEF74FFF2B683088181881
:1057000023680D301988FEF7B9FD30882B68023008
:1057100080B23080181823680D305988FEF7AEFD2E
:1057200030882B68023080B23080181823680D3022
:105730009988FEF7A3FD33880233338002E0331CDF
:10574000FEF72AFFA368002B24D0E369002B21D0A9
:1057500033882A68581CD318062280B230805A73C6
:105760002B681818A3680D309988FEF787FD3088DC
:105770002A680230A36880B23080101819689A88AD
:105780000D3006F054FDA3689A883388D31833800F
:105790000023E361237B032B08D0E97D002905D199
:1057A0002A6807200D32331CFEF7F6FE3388B0243A
:1057B000191C287E2A68093989B2D074080A9474A1
:1057C000107551752A68053B93800923AB751AE063
:1057D0000068837CFF2B04D12A7F803B13402B770A
:1057E0002EE0237B032B10D1837D012B28D102AB2C
:1057F0009E1D1730311CFEF74DFD29686069328807
:10580000193106F014FD00261EE00026237EB34267
:105810001AD1837D062B13D102AB9F1D391C173083
:10582000FEF738FDA3683A88998891420AD329681F
:105830001868193106F0FBFCA3683A889A8003E0E7
:10584000044E01E08126B600301C05B0F0BDC04614
:10585000020600000202000038B5837D082B02D04A
:10586000092B0CD037E0037E0268F121D3740023AA
:105870009174137553750268ED39918021E00168C8
:105880008D7C002D04D07F23027F1340037722E01C
:10589000037E041C002B12D0D023DB00C818082282
:1058A000163106F0C4FC208C002808D0D0222368D2
:1058B000D20099180822FBF75DFE002803D10223CD
:1058C000E375002008E0D0232068DB00C018291C05
:1058D000082206F0B5FC014838BDC04602020000AF
:1058E00037B5837D082B02D0092B5FD06BE0027E99
:1058F000041C002A05D1217E1022002921D0182263
:105900001FE0008C002808D1D0222368D20098180C
:10591000FEF7A8FC0028EED10BE06A46D021063243
:1059200013802368C9005918FBF740FE0028EBD00C
:1059300049E02368254A9818FEF794FC002842D0D5
:10594000D9E72368F020D97400215A751975987425
:1059500020681F491630102206F069FC237E002BB8
:1059600008D02168D023081CDB002630C918082283
:1059700006F05DFC227E20681423002A00D0083344
:105980008380D0230025DB00C0180021082206F008
:1059900057FC208CA84217D0D0232168DB00C918FF
:1059A0000822FBF7E7FDA8420DD10DE003689D7CBE
:1059B000002D04D07F23027F1340037703E03322BE
:1059C0001B681A7400E0034D281C3EBD84060000CD
:1059D00028CB001002020000CF23F0B5DB00C35833
:1059E0008BB00493744B041CC718744B3A1CC31837
:1059F000039300231178022901D10133DBB203990B
:105A00000C328A42F6D13A1C002B0CD111780829AD
:105A100001D10133DBB203990C328A42F6D1002B5B
:105A200000D1A0E03A1C00231178042901D10133F0
:105A3000DBB203990C328A42F6D1012B10D1C72375
:105A4000DB00E2184833E11800231078232801D145
:105A50000133DBB20C328A42F7D1002B00D082E056
:105A60000498FBF7CBFD01235B420293C623DB00C6
:105A7000E5180026FF2306960193F3B207933A1C1C
:105A800000231178082901D10133DBB203990C32CC
:105A90008A42F6D1012B0ED1C6220B337343D200BA
:105AA000E3189B181A89464B9A4210D16B680293EF
:105AB000079B01930BE06A7A022A08D16B68059371
:105AC000404B0599E358994255D20123069301367C
:105AD0000C35062ED1D1019BFF2B06D1069B012B45
:105AE00041D10022374BE250C0E70C23019A5343C7
:105AF000C722E318D2009A181278222A1AD1C62295
:105B0000D2009B181868838A002B13D103681D1CD0
:105B10000C330835191C2B1C1E785A1BD2B2102EC0
:105B200005D029490A43828210221A7002E001330B
:105B30008B42F1D10C25019B5D43C6236519DB0027
:105B4000EB181A68CF231168DB00C85832231F49AD
:105B5000FBF76EFDC723DB00ED180423029A6B7080
:105B6000184BE25026E0FA2304981949221C9B00A6
:105B7000FBF75EFD1EE0059B02998B42A7D82B7AAE
:105B8000222B13D1211C042209A8083106F04FFB57
:105B9000104B099A9A4204D8079B0193059B0293E4
:105BA00095E72B689B8A002BF6D190E79343212B36
:105BB0008DD1F1E70BB0F0BD390600008106000081
:105BC000230800007C06000000E1FFFF114A0010DE
:105BD000D95900100F101010012A07D0002A03D045
:105BE000022A04D1C17602E0417600E08176704756
:105BF000F8B5161C0F1CFBF747FD0022131C2549A6
:105C0000254D5118695C002901D10133DBB20C32FA
:105C1000482AF4D1002B01D1002436E001202421B0
:105C200006F0B4FA041EF7D033230761C66005609E
:105C300003842B7B002B12D10133291C1748CF265C
:105C40002B73FBF711FDF600A851211C14482568A1
:105C5000FEF78CFA236828601A689B5953610D4B34
:105C60002168CA1800231578D8B2002D09D10C225A
:105C70005343C722CB18D2009B18012260775A7079
:105C800003E001330C32062BEDD1FBF7FEFC201CA8
:105C9000F8BDC0463906000000290020D95900107F
:105CA0009546001010B500281DD0838A0468002B8B
:105CB00005D00F2200211340E318818219720C23B2
:105CC000427F01685A438A18C7210024C90052182C
:105CD0005470427F53430268D3185B181C7006F05F
:105CE0008DFA201C00E0014810BDC04602020000F1
:105CF00010B50024054B826084754360C47501763D
:105D0000211CFEF7C7FC201C10BDC046E158001046
:105D1000062310B500248375044B82604360C4756C
:105D20000176211CFEF7B6FC201C10BD595800104E
:105D3000062310B500248375044B82604360C4754C
:105D40000176211CFEF7A6FC201C10BD1D4A001088
:105D5000062310B500248375044B82604360C4752C
:105D60000176211CFEF796FC201C10BD2D4B001067
:105D70000B1F10B55C1EA341002405338375054B32
:105D800082604360C4750176211CFEF783FC201CF1
:105D900010BDC046F54B0010938910B5002B04D1FF
:105DA000838A002B0ED0052300E006230024837590
:105DB000054B017682604360C475211CFEF76AFCC6
:105DC000201C00E0014810BDDD4C00100302000063
:105DD000062310B500248375044B82604360C475AC
:105DE0000176211CFEF756FC201C10BDA14D0010B1
:105DF000138910B5002B04D1838A002B12D0052300
:105E000004E0937A5C4263410624E31A002483751C
:105E1000054B017682604360C475211CFEF73AFC95
:105E2000201C00E0014810BDE54E001003020000F8
:105E300008B51388002B02D1838A002B14D00023CD
:105E40000176C37511690533002904D011884B42CE
:105E50004B410621CB1A8375044B826043600021BD
:105E6000FEF718FC002000E0014808BD215000109A
:105E700003020000FF2310B5146882609C43231EB8
:105E8000084C03D105224460827503E00623837524
:105E900000234460C3750176191CFEF7FBFB00204C
:105EA00010BDC04665520010936810B5002B05D197
:105EB0001388002B0FD1838A002B0CD006230024DB
:105EC0008375064B017682604360C475211CFEF722
:105ED000E1FB201C00E0024810BDC04699530010B1
:105EE0000302000010B554690623002C03D1536847
:105EF0005C1EA341053300248375054B826043601B
:105F0000C4750176211CFEF7C5FB201C10BDC046E0
:105F10001555001010B50623002414618375054B38
:105F200082604360C4750176211CFEF7B3FB201C20
:105F300010BDC0465956001038B59479631E012B28
:105F40000DD80C23457F6B430568EB18C725ED0082
:105F50005B191D78232D15D15B78042B12D11568A0
:105F60000723002D02D1012C00D1043300248375B6
:105F7000054B017682604360C475211CFEF78AFBE5
:105F8000201C00E0014838BDAD51001003020000A4
:105F90008C2208B50021520006F052F908BD08B560
:105FA000002803D08C21490001F07EF908BD0000D3
:105FB000F7B5C02A08D080235B009A4206D0F63B92
:105FC000802A00D0C5E002E00C2300E00E2303602D
:105FD000031C00260833520943600192019A96423D
:105FE00010D0B700CD196C7801362402A446624661
:105FF000AC78ED7824041443CA5D2D0614432C4379
:10600000DC51EBE702680C2A2DD00E2A5AD00A2A5E
:1060100000D0A1E00024514918686158DA68414075
:10602000FF204F4F150A05407E5D150E71407E5DC5
:106030000434360471400D1C111C0140795C0906C2
:106040006940150C2840385C0002414058681961CD
:1060500041409868596141404A409961DA61103382
:10606000282CD8D178E000243C49186861585A6936
:106070004140FF203A4F150A05407E5D150E7140E4
:106080007E5D0434360471400D1C111C0140795CA6
:1060900009066940150C2840385C000241405868E8
:1060A000996141409868D9614140D868196241407E
:1060B0001869596241404A409962DA621833202CCB
:1060C000D2D149E00026FF20244ADD691968B25880
:1060D000234C4A40290A0140675C290E7A40675CDC
:1060E00004363F047A40111C2A1C0240A25C1206AE
:1060F0004A40290C0140615C09024A4059681A6211
:106100004A4099685A624A40D9689A624A40111CCA
:106110000140675C1969DA624F40110E615C090643
:106120007940170A0740E75D3F024F40110C0A1CF7
:106130000240A25C596912047A401A634A40996984
:106140005A634A409A636A40DA6320331C2EBAD1FC
:1061500002E02020404200E00020FEBD38DC0010BC
:1061600038CB0010F0B5051CC9B002A80E1C141CD9
:10617000FFF70EFF2B1C08336B6002A8311C221C9A
:10618000FFF716FF0190002842D10299039A0B01F4
:10619000D3181A682960AA605A68EA609A682A6166
:1061A0002A1CD86818326861013900910099103BA7
:1061B000002925DD0020FF271958184D0E0EAE5D71
:1061C0000F40174CEF5DB6003659164CBF003F59D3
:1061D000FF247E400F0A2740EF5D134CBF003F595C
:1061E000FF24090C2140695C104D89007E404F5905
:1061F0007E40165004301028DDD110320099D3E7CC
:10620000196811605968516099689160DB68D360C2
:1062100002A8FFF7C4FE019849B0F0BD38CB0010CA
:1062200038D8001038CC001038D0001038D4001006
:10623000F0B54C788B7824021B0487B00E781C4391
:10624000CB780092426834431B061C4313684E7996
:10625000634001938B7936021B040C791E43CB7982
:1062600026431B061E4353684C7A734002938B7A75
:1062700024021B041C430B7A4D7B1C43CB7A2D025A
:106280001B061C4393685C408B7B1B041D430B7BEC
:10629000C97B1D430B06291C1943D3681032594092
:1062A00003685B10013B05930598FF23002800DC81
:1062B000CDE00198D74D184080002F581068D64D7A
:1062C0004740080E800040594740D44884466646FF
:1062D0000298000A184080008059260C47401E4052
:1062E000CF48B600365860467740029E03971E405E
:1062F000C84FB600BF5956687740019E360EB600AB
:1063000076597740260A1E40B6003658C448774072
:106310000E0C1E40B6003658BE487740261C1E4064
:10632000B600049787599068240E47400298A4004D
:10633000060E6046B600765977400E0A1E40B6003B
:10634000365801987740060C1E40B548B6003658BE
:106350001940B04889004158D068774041400198C1
:106360006459060A60461E40B600614034580298DF
:106370006140060C1E40AA48B6003458039E614096
:10638000A4481E400C0EB600A4006459865910693A
:10639000664046400498040A60461C40A400245805
:1063A0009F4866403C0C1C40A4002458039866405B
:1063B0000196049E040E1E409648B600A40064593F
:1063C000865950696640464060463C0A1C40A4001D
:1063D0002458934866400C0C1C40A4002458049890
:1063E000664002963E1C040E1E408A48B600A40079
:1063F0008659645990697440444060460E0A1E40B4
:10640000B600365803987440060C1E408448B60007
:10641000365819407F483F0EBF0089007D594158CA
:10642000D0696940414003987440070A60461F40A4
:10643000BF003D5804986940070C1F40784BBF00CF
:10644000FB5820325940059B013B05932CE77248CD
:10645000019D84461D406F4EAD0076596546080E7D
:10646000800040596D4F464010686D4D464002987F
:10647000000A18408000C0594640200C1840800097
:106480004059644D46400396029E01981E40B60056
:10649000AE596546000E80004059614D4640506837
:1064A0004640200A18408000C0594640080C184059
:1064B00080004059574D46400496261C1E40B600A9
:1064C000AE5965460298240E000E80004059544D86
:1064D00046409068A4004640080A18408000C05911
:1064E0001940464001988900000C1840800040592E
:1064F000464048484158604620584140D068414095
:106500000198040A1C400298A400E759040C1C409E
:10651000A4007940675903984F40424918400C5CE9
:106520001569380E65402C1C085C00064440049830
:10653000000A18400D5C201C340C1C402D026840E1
:106540000D5D54692D04454004981840085C444092
:106550000398000E085C00066040340A1C400C5D85
:10656000240260403C0C1C400C5D24044440301C60
:106570001840085C01949469D26944400498360E2E
:10658000000E085C000660403C0A1F40CF5D1C40C6
:106590000C5D57408A5D2402120644405740039820
:1065A000039A000C160A1E401840085C8A5D00041D
:1065B00012025740049A6040160C3340CA5C009B9C
:1065C00000991D702B0A4B702B0C2D0E8B70CD700B
:1065D0000B1C6946097912041971019B00991B0A69
:1065E0004B71019B08721B0C8B71019B7A401C0E36
:1065F000030A4B72030C000EC87200208B72130A40
:106600000A734B73130C120ECC718B73CA7307B0E1
:10661000F0BDC04660DC001060E8001060E00010D3
:1066200060E4001038CB0010F0B589B04E780292CB
:106630008A783602120443681643CC780A78240616
:1066400016431A682643724003924A79CC7916029F
:106650008A792406120432430E79324322435C685D
:1066600054404A7A049414028A7A120422430C7A1F
:106670002243CC7A240622439C6862404C7B25024C
:106680008C7B24042C430D7BC97B2C4309060C43D3
:10669000D96810334C4001684910013907910799B6
:1066A0000193FF23002900DCCDE00398DF49184067
:1066B00080000F580199DE4D0968160C4F4004996F
:1066C0001E40080EDB4980008C464059B60047400A
:1066D000200A184080004058D4494740D6483658D0
:1066E0007740049E05971E40B6008F590199160EFB
:1066F0004968B60076594F40039977400E0A6146C3
:106700001E40B6007658C9497740260C1E40B60098
:1067100036587740161C1E40B60006978F590199CF
:10672000260E8968B60076594F40049977400E0AC4
:1067300061461E40B6007658039977400E0C1E4005
:106740001C40BA49B600A40036580C59019977404C
:10675000C968120A4C4003991A400E0E6146B600F1
:106760007659920066405458B0497440059E049A88
:106770001E40B6008E596146120C1A409200125803
:106780005440069A120E920052595640019A1269CC
:106790005640220A1A4092005258A44956403A0CD8
:1067A0001A409200125856400396069E3A0E1E401A
:1067B000B6008E596146920052595640019A52696C
:1067C0005640059A120A1A4092005258974956406C
:1067D000220C1A4092001258564004963E1C1E404D
:1067E000220EB6008E599200019952598969724061
:1067F0004A4006991C400E0A61461E40B600765873
:10680000059972400E0C1E40B6003658A400724026
:106810000E0E8649B6000C5901997559C9696C402C
:106820004C4061463E0A1E40B600755806996C40C1
:106830000F0C1F40BF003B585C40079B013B079378
:10684000019B20332BE70499039D794F1D40080ECF
:106850007649AD008000C0594D5901994540200A44
:10686000744E18400968800080594D404540AC4640
:106870006146100C704D184080004059414004980A
:106880000591184081008C46100E810060460691EB
:10689000664909588C460699C8596146484001998D
:1068A000496841408C460399080A614618408000B7
:1068B00080594140200C1840800040594140101C34
:1068C0001840069181008C46200E81006046079199
:1068D00056491C400958A4008C460799120AC85909
:1068E0006146484001991A408968920041408C46AF
:1068F0000499080A614618408000805941408C463E
:106900000399080C6146184080004059484003999B
:10691000090E89008C4645490C596146CF590199A9
:106920007C409759049AC968120C1A409200525937
:106930004C406740059C57400199404A1C40155DFA
:106940000E6906996E40351C0C0E145D24066540D8
:106950003C0A1C40165D2C1C050C1D403602744080
:10696000565D360466400C1C01991C40145D4D694F
:1069700005996540040E145D24066C400D0A1D4007
:10698000555D01992D026C403D0C1D40555D896996
:106990002D046540041C1C40145D000A61403C0E3F
:1069A000145D1F4024064C4006991840090A1940FE
:1069B000515CD75D090261408C4605990C0C61461B
:1069C0001C40145D24044C400199C9694F4005994D
:1069D000090E515C09064F40115C09024F400699AF
:1069E000080C03400020D15C029B029A1E70330AFF
:1069F0005370330C93702B0A53712B0C0904937151
:106A0000230A4F405372230C93723B0A360E1571C2
:106A100014722D0E240E177353733B0C3F0ED67059
:106A2000D571D4729373D77309B0F0BD38CC001010
:106A300038D8001038D0001038D4001060EC0010A6
:106A400008B5012904D1111C1A1CFFF7F1FB03E062
:106A5000111C1A1CFFF7E8FD08BDF0B597B00693AE
:106A6000229B061C039102921E9D022B02D10D2037
:106A700040424FE1229B102BF9D8DB07F7D41C9B37
:106A8000073B062BF3D8FF231B029D42EFD81C9B2C
:106A90000E27DAB20F239B1ADBB207932B1C591E69
:106AA0008B411120BA1A9901D3B20493229B049A04
:106AB000023B5B08DB000B430AAC1343237006ABBD
:106AC000C0181C9A069905F0B2FB1F2206ABD2181B
:106AD000049BFB1A0593E318029C1470013A240AE4
