:020000041000EA
:10100000501500201D100010000000009D10001061
:101010000018040000010000000000801149124A7D
:10102000124B00F018F8124880471249124A134B2D
:1010300000F011F81249134A134B00F00CF8134951
:10104000134A0020521A02DD043A8850FCDC114891
:101050008047114880479B1A03DD043BC858D05095
:10106000FBDC7047B81D01100C000020500100206F
:10107000059E0010FC1E011050150020982800202D
:101080004432011098280020982800209828002039
:10109000443000202DC90010A9B70010FEE7000061
:1010A00000207047F0B5B1B01D1C36AB1C8838ABC2
:1010B0001F8805A83AAB1E880091039206F094FCA5
:1010C000009B002B01D1012481E0002DFBD0379B38
:1010D000002BF8D0399B002BF5D0231C2033019333
:1010E000DB19802B01DD042471E0062006F06CFC86
:1010F000291C0290221C18A80BF057FC10AA944639
:10110000019B379963443A1C181C0BF04EFC05A850
:101110000299012206F08AFC0028E4D105A8009972
:10112000039A06F0A9FC0028CDD1E519ADB205A8B7
:1011300018A92A1C06F0FEFC0028C4D105A810A995
:1011400006F00AFD041EBED1B4423BD205A806F04B
:1011500037FD002838D12A1C05A810A9203206F036
:10116000E9FC002830D108AF05A8391C06F0F4FCD2
:10117000002829D105A806F023FD002824D105A8C0
:1011800010A9202206F0D6FC00281DD105A810A920
:1011900006F0E2FC002817D1211C20232031009307
:1011A000B14202DD1F22324000920023009A98B221
:1011B000904205D239980219F85CD0540133F5E712
:1011C0008CB2C1E7002402E0B442A441644205A805
:1011D00006F010FC10A8002180220BF0EFFB08A8FD
:1011E000002120220BF0EAFB201C31B0F0BDF0B54D
:1011F0009DB01F1C22AB20CB0EA81B880E1C089391
:1012000025AB1B88141C099326AB1B78079306F0AB
:1012100061FA279B002B01D1012529E0002EFBD08C
:10122000002DF9D0249B002BF6D0002FF4D00EA86F
:1012300002213A1C802306F053FA0028ECD1249BAB
:1012400002960093099B0AAE0193279B2A1C0393E5
:10125000079B049605930EA8211C089B06F084FAB0
:10126000051ED9D1279B311C1819079A0BF09DFB3D
:101270000EA806F056FA281C1DB0F0BDF0B599B0C6
:101280001F1C1EAB20CB0AA81B880C1C089321AB8B
:101290001B880792099322AB1E7806F01BFA239B4A
:1012A000002B01D1012424E0002CFBD0002DF9D02B
:1012B000209B002BF6D0002FF4D00AA802213A1C64
:1012C000802306F00DFA0028ECD1079B0294991BAD
:1012D000209B64180093099B04940193239B05961B
:1012E00003930AA82A1C089B06F084FA441EA04116
:1012F00084B20AA806F015FA201C19B0F0BD002827
:1013000007D00368002B04D0197B1A6801238B4097
:1013100053607047002808D00368002B05D0197B64
:101320001A6880235B028B4053607047064B012094
:101330001A68002A07D11A6812181A60186801384A
:10134000431E984180B270479C28002008B5C368AE
:10135000806898470022014B1A6008BD9C28002035
:1013600008B5034B00211868FFF7F0FF08BDC04621
:101370009828002008B5034B00211868FFF7E6FF06
:1013800008BDC04698280020134A38B51368151CBC
:101390001C68A3680733DB7F002B05D1A3680833E3
:1013A000DB7F002B12D008E0201C0AF05DF8A26859
:1013B000D31DDB7F002BFBD1F0E7201C0AF082F865
:1013C000A268131C0833DB7F002BFAD128680121A7
:1013D000FFF7BCFF38BDC0469828002008B5FFF7CE
:1013E000D3FF08BD08B5FFF7CFFF08BD08B5024819
:1013F00009F0F7FC002008BDF82600200020704707
:10140000F7B5051C0F1C161CFFF790FF041E15D125
:101410000E4B28681D60009601262A79019652001D
:10142000311C3B1C09F02DFD00280CD0EB68A8688E
:10143000311C9847064B1C60341C04E0EB68A8681C
:10144000022198470224201CFEBDC0469828002097
:101450009C280020F0B585B0051C0F1C161CFFF75A
:1014600065FF041E16D10F4B28681D6000960126EB
:101470002A79019652000296311C3B1C09F032FE7B
:1014800000280CD0EB68A868311C9847064B1C60FC
:10149000341C04E0EB68A868022198470224201C51
:1014A00005B0F0BD982800209C28002070B5051CD0
:1014B0000E1CFFF73BFF0224002810D1C8232A6826
:1014C000311C5B009E4200D9191CFA2389B29B0093
:1014D0005943106808F07EFE441EA04184B2EB68B8
:1014E000002B02D0A868211C9847022C02D00022B1
:1014F000014B1A60201C70BD9C2800200022014B6B
:101500001A7170476C15002008B5024809F0BCF943
:10151000002008BD602600200023F7B50E4C0768A8
:101520000E1C019322600D1C9F4212D02268AB1B3F
:1015300093420ED2002329783868019308F0FEFF09
:101540000135019B5A1C0192FA2252009342F8D9AC
:10155000ECE700200190FEBDA4280020036810B530
:10156000002B01D100200BE0041C01202071181C6D
:1015700009F0C3F9002803D12379002BFCD1F1E74E
:1015800080B210BD08B5222808D033280BD011280E
:101590000BD11038402A09D8054800E005480BF067
:1015A00004FA002002E00448F9E7012008BDC04623
:1015B000A8280020F42F00203630002038B5031C66
:1015C000141C081C222B0ED0332B12D0112B13D13C
:1015D0001288103B3F2A10D9402509492A1C0BF0DC
:1015E000E4F9258003E0128806490BF0DEF90023B8
:1015F00003E012880449F8E70123181C38BDC046EF
:10160000A8280020F42F002036300020002303708B
:101610007047000010B5084C201C09F062FA201C2D
:1016200009F04AFA201C09F065FA044A5368002BB5
:1016300001D09068984710BD94260020E82800202B
:1016400010B5826064225A43044C4160111C201C76
:1016500009F06AFA201C09F015FA10BD9426002042
:1016600008B50378002B05D101330370FA239B00E2
:10167000FFF7E6FF08BD000010B5064C002806D0B5
:10168000002904D00A1C011C201CFFF7E9FF201CC4
:1016900010BDC046E828002070477047024A136812
:1016A000013313607047C0460029002010B5064C76
:1016B000201C09F016FA201C09F01CFA034A1368D2
:1016C0000133136010BDC0466C260020F8280020AE
:1016D000024B1868421C1A607047C046FC28002064
:1016E000014B18687047C046F82800200023044AC0
:1016F0001168834202D813685B1AFAE77047C04644
:10170000F828002010B5041C8069E369984700237D
:10171000238410BD002802D000230330C377704714
:10172000F0B585B002930AAB40CB041C1B88019135
:10173000151C0393002839D04769002F36D0002E9E
:1017400034D0038C012B33D00123002103841422D5
:101750000BF034F90023022D03D13278A360A27379
:1017600001E0A373A6606B469B88002623806B462E
:101770001B89657363806B469B892673A380E68013
:10178000E31CD97F381C321C04F032FE231DD97FA4
:101790006069012204F02CFE291C6069221C04F0FF
:1017A00011FF051EB54204D0268402E0044D00E07E
:1017B000044D201CFFF7AEFF281C05B0F0BDC0464D
:1017C0000303000005030000012903D0022903D10F
:1017D000043000E00330C27770470000F8B50029FC
:1017E00001D100241DE00F1C051C24210120161C22
:1017F0000BF08AF8041EF4D000220121031D02849C
:10180000C7618661D977C31CDA77281C0649221C78
:1018100004F0FAFD051E606103D1201C0BF0ACF84A
:101820002C1C201CF8BDC0460517001038B5002838
:101830000BD0038C012B0AD0041C406904F03EFE3F
:10184000051C201C0BF098F802E0024D00E0024D50
:10185000281C38BD030300000503000070B51B4AB7
:10186000041C0D1C1A481B4902F066FF002C24D0F2
:101870006069002821D0238C012B20D00126E31C95
:101880002684D97F002204F0B3FD231DD97F60692F
:10189000321C04F0ADFD60693321002D00D0112110
:1018A000022204F0A5FD291C6069002204F02CFE30
:1018B000051E05D00023238402E0074D00E0074DFC
:1018C000201CFFF727FF281C70BDC046DCD200108B
:1018D0004FD30010C7D2001003030000050300001F
:1018E00070B51B4A041C0D1C1A481B4902F024FF4A
:1018F000002C24D06069002821D0238C012B20D01B
:101900000126E31C2684D97F002204F071FD231DEB
:10191000D97F6069321C04F06BFD60693321002DB2
:1019200000D02221022204F063FD291C60690022FC
:1019300004F008FE051E05D00023238402E0074DB5
:1019400000E0074D201CFFF7E5FE281C70BDC046D7
:10195000DCD2001030D20010C7D200100303000008
:1019600005030000F7B5041C0D1C0192234824490F
:10197000244A009302F0E0FE002C37D06769002F64
:1019800034D0009B002B31D0089B002B2ED0238C11
:10199000012B2DD00126002126841422201C0BF0BF
:1019A0000DF86B46258000259B88A5726380009BFF
:1019B000381C2361089B2A1C1B88E580A380089B98
:1019C0002581E360E31CD97F04F012FD231DD97F3C
:1019D000321C606904F00CFDA17A6069221C04F0DD
:1019E000D1FD061EAE4204D0258402E0064E00E082
:1019F000064E201CFFF78EFE301CFEBD71D200107B
:101A0000C7D20010DCD20010030300000503000061
:101A1000F7B5041C0D1C019221482249224A1F1CC3
:101A200002F08AFE002C33D063690093002B2FD084
:101A3000019B002B2CD0002F2AD0238C012B29D0E6
:101A40000126002126841422201C0AF0B7FF2580DD
:101A50000025019BA672658023613B88E760A38017
:101A6000E580E31C2581D97F00982A1C04F0C0FC86
:101A7000231DD97F321C606904F0BAFCA17A606929
:101A8000221C04F07FFD061EAE4204D0258402E035
:101A9000064E00E0064E201CFFF73CFE301CFEBD4B
:101AA000ADD20010C7D20010DCD20010030300003A
:101AB00005030000F0B5141C85B002930AAB80CB7F
:101AC0000C4A1B88061C0D1C0B480C49039302F0A2
:101AD00033FE4023221C9A4309D1039B00970193B4
:101AE000301C291C221C029BFFF71AFE00E0044850
:101AF00005B0F0BDDCD2001004D30010C7D2001036
:101B000003030000F7B5041C0D1C171C1F482049D7
:101B1000204A019302F010FE002C2FD0636900933D
:101B2000002B2BD0002F29D0238C012B28D001266D
:101B3000002126841422201C0AF040FF6B462580D9
:101B400000259B882673A3806673E31C6580A760CD
:101B5000E580D97F00982A1C04F04AFC231DD97F18
:101B6000321C606904F044FC617B6069221C04F053
:101B700029FD061EAE4204D0258402E0064E00E098
:101B8000064E201CFFF7C6FD301CFEBD34D30010EE
:101B9000C7D20010DCD200100303000005030000D0
:101BA000F7B5041C0091151C1E481F491F4A0193DC
:101BB00002F0C2FD002C2DD06769002F2AD0002D25
:101BC00028D0238C012B27D0012600212684142223
:101BD000201C0AF0F3FE6B461B78381CE371E31CF3
:101BE000D97F002204F004FC231DD97F321C6069D8
:101BF00004F0FEFB6B4600269B882560A380A6713F
:101C0000E1796069221C04F065FE051EB54204D02E
:101C1000268402E0064D00E0064D201CFFF77AFD09
:101C2000281CFEBD4ED20010C7D20010DCD200101E
:101C3000030300000503000070B5041C0D1C161CF6
:101C400010481149114A02F077FD002C16D0606946
:101C5000002813D0002D11D0238C012B10D001238C
:101C60002384DB182560A680A371E179221C04F08F
:101C700031FE002805D00023238402E0044800E060
:101C8000044870BD87D20010C7D20010DCD200100B
:101C9000030300000503000070B5041C0E1C151C96
:101CA0000F481049104A02F047FD002C13D060691C
:101CB000002810D0238C012B0FD001232660238411
:101CC000A580A371E179221C04F004FE002805D050
:101CD0000023238402E0054800E0054870BDC046AB
:101CE000E1D20010C7D20010DCD2001003030000C4
:101CF000050300007FB503AC061C0D1C22700848CC
:101D00000849094A02F018FD012300940193301C90
:101D1000291C02220023FFF703FD04B070BDC0465A
:101D20001BD30010C7D20010DCD2001010B5041C69
:101D3000406AA36A98470023A38510BD002802D0FB
:101D400000232E3003707047F7B5009308AB171CC3
:101D500004CB041C1B880E1C0193838D012B26D001
:101D600001250021858520220AF028FE089B676056
:101D7000A3606B469B88206A63806B461B880022A9
:101D80002380231C2E33197804F032FB231C2F33BD
:101D900019782A1C206A04F02BFB206A311C221CB3
:101DA00004F030FC051E03D00023A38500E0034DA2
:101DB000201CFFF7C3FF281CFEBDC0460504000021
:101DC000F7B5041C009101921D1C00283AD0076A47
:101DD000002F37D0099B002B34D0089B002B31D02B
:101DE0000A9B002B2ED0838D012B2DD001260021A4
:101DF000202286850AF0E2FD6B461B796570237010
:101E00000A9B381C2361231C2E331978002204F00E
:101E1000EFFA231C2F331978206A321C04F0E8FAF9
:101E2000089B002D01D0636001E01B886380099B43
:101E3000206AE3600A9B00992361221C04F0B2FC33
:101E4000051C02E0034D00E0034D201CFFF776FF68
:101E5000281CFEBD0304000005040000F0B585B099
:101E600002930AAB1B88041C0191171C03930028E2
:101E700036D0056A002D33D0002A31D00B9B002BC1
:101E80002ED00C9B002B2BD0838D012B2AD001262A
:101E90000021202286850AF091FD6B461B7A27607F
:101EA000A3736B469B89281CA3810B9B0022636054
:101EB0000C9BA360231C2E33197804F099FA231C81
:101EC0002F331978206A321C04F092FA206A0199A3
:101ED000221C04F0B9FB051E05D00023A38502E0F7
:101EE000044D00E0044D201CFFF728FF281C05B01E
:101EF000F0BDC0460304000005040000F0B585B045
:101F000002930AAB009204CB041C1B88019103933B
:101F10000CAB1D7800283DD0076A002F3AD0009BFB
:101F2000002B37D0002A35D00D9B002B32D0838D6B
:101F3000012B31D001260021202286850AF03EFDAA
:101F4000231C2E331978381C002204F051FA231C6C
:101F50002F331978206A321C04F04AFA009BA573CB
:101F600023606B461B7A23710A9BA3606B469B8997
:101F7000A3810D9B002D02D11B88A38200E0236169
:101F8000206A0199221C04F08BFB051E05D000235A
:101F9000A38502E0044D00E0044D201CFFF7CEFEB7
:101FA000281C05B0F0BDC046030400000504000075
:101FB000F0B585B002930AAB1B78019203930EAB88
:101FC0001E78838D041C0D1C012B39D001270021A4
:101FD000202287850AF0F2FC019B206AA3606B46F1
:101FE0001B89002223800C9B63610D9B6360231C73
:101FF0002E33197804F0FCF9231C2F331978206A4A
:102000003A1C04F0F5F90B9B002E09D023616B46B6
:102010001B7B206A2373291C221C04F0E9FB0AE0C5
:102020001B88206A2383231C183323612673291CF1
:10203000221C04F009FC051E03D00023A38500E048
:10204000034D201CFFF77AFE281C05B0F0BDC046EA
:1020500005040000012903D0022903D12F3000E03C
:102060002E30027070470000F8B5002901D100241D
:102070001EE00F1C051C30210120161C0AF044FC38
:10208000041EF4D0031C002201212F3382858762B5
:102090004662013B5970281C1A700649221C04F044
:1020A000B3F9051E206203D1201C0AF065FC2C1C2C
:1020B000201CF8BD2D1D001038B500280BD0838DD5
:1020C000012B0AD0041C006A04F0F8F9051C201C3E
:1020D0000AF052FC02E0024D00E0024D281C38BD1F
:1020E0000304000005040000F7B5041C0F1C151CB8
:1020F0000C480D490D4A1E1C02F01EFB002C0ED090
:10210000236A002B0BD0002D09D00023201C009344
:102110000193391C2A1C331CFFF716FE00E004480B
:10212000FEBDC0463ED4001052D40010DCD20010D8
:1021300003040000F8B51F4A041C0D1C1E481F496B
:1021400002F0FAFA002C2CD0276A002F29D0002D9B
:1021500027D0A38D012B26D001260021A685202281
:10216000201C0AF02BFC231C2E331978381C00226B
:1021700004F03EF9231C321C00262F331978206A04
:1021800004F036F9A5602673E66166602660A979D9
:10219000206A221C04F07EFB051EB54204D0A685F1
:1021A00002E0074D00E0074D201CFFF7C7FD281C8B
:1021B000F8BDC046DCD20010CED4001052D40010BE
:1021C0000304000005040000F7B5041C0D1C019277
:1021D00025482649264A1E1C02F0AEFA002C3BD0A8
:1021E000276A002F38D0002D36D0002E34D0A38D92
:1021F000012B33D001230021A3852022201C0AF0CB
:10220000DDFB231C2E331978381C002204F0F0F873
:10221000231C2F331978206A012204F0E9F86B4659
:102220001B79A560637302232373AB88E3610023EA
:1022300063602360019B002B01D0666002E01223E3
:1022400026602373A979206A221C04F023FB051E53
:1022500005D00023A38502E0064D00E0064D201CBA
:10226000FFF76CFD281CFEBDE6D4001052D4001010
:10227000DCD200100304000005040000F7B5041CC4
:102280000D1C019221482249224A02F055FA002CE5
:1022900033D0276A002F30D0002D2ED0019B002B89
:1022A0002BD0A38D012B2AD001260021A685202228
:1022B000201C0AF083FB231C2E331978381C0022C3
:1022C00004F096F8231C2F331978321C206A04F08E
:1022D0008FF8019B002663610323A5602373AB88FD
:1022E0006660E3612660A979206A221C04F0D2FAB4
:1022F000051EB54204D0A68502E0074D00E0074D5B
:10230000201CFFF71BFD281CFEBDC0466CD300102F
:1023100052D40010DCD200100304000005040000B9
:10232000F0B51C1C071C0E1C151C85B009480A4979
:102330000A4A02F001FA0A9B381C00930B9B311CDD
:1023400001930C9B2A1C0293231CFFF739FD05B057
:10235000F0BDC046CAD3001052D40010DCD2001029
:10236000F0B51F1C061C0D1C141C85B0084809493B
:10237000094A02F0E1F90A9B009701930B9B301C7C
:10238000029311212A1C231CFFF768FD05B0F0BD44
:1023900010D4001052D40010DCD20010F0B5061C8E
:1023A0000D1C141C87B004930CAB1B880B480593C1
:1023B0000B490DAB0B4A1F7802F0BEF9049B029744
:1023C0000093059B301C01930E9B112103932A1C43
:1023D000231CFFF793FD07B0F0BDC04667D4001083
:1023E00052D40010DCD20010F7B5041C0191161C69
:1023F00024482549254A009302F09EF9002C38D044
:10240000276A002F35D0002E33D03368002B30D010
:10241000009B012B02D1089B002B2AD0A38D012BFE
:1024200029D001250021A5852022201C0AF0C6FA0A
:102430006B469B88266023816B461B78381CA372F1
:10244000089B00226360231C2E33197803F0D0FF11
:10245000231C2F3319782A1C206A03F0C9FF291C7A
:10246000206A221C04F03CF9051E05D00023A38538
:1024700002E0074D00E0074D201CFFF75FFC281C21
:10248000FEBDC046BCD4001052D40010DCD20010F7
:102490000304000005040000F0B587B003930CAB03
:1024A000029204CB041C1B88019104930EAB1B8881
:1024B0002A4805932A490FAB2A4A1E7802F03CF9B4
:1024C000002C42D0276A002F3FD00C9B002B3CD021
:1024D000012E02D1109B002B37D0A38D012B36D0BB
:1024E000012500212022A585201C0AF067FA6B46F1
:1024F0009B88381C2380029B0022E3606B469B89EB
:1025000063800C9BA3606B461B8AA380231C2E3325
:1025100019782943197003F06BFF231C2F331978A6
:10252000206A2A1C03F064FF6B469B8AE380002E1E
:1025300001D0109B2361206A0121221C04F000F9C4
:10254000051E05D00023A38502E0074D00E0074DDE
:10255000201CFFF7F3FB281C07B0F0BD4CD5001082
:1025600052D40010DCD20010030400000504000067
:10257000F0B51C1C071C0E1C151C85B009480A4927
:102580000A4A02F0D9F80A9B381C00930B9B311CB5
:1025900001930C9B2A1C0293231CFFF711FC05B02E
:1025A000F0BDC046A8D3001052D40010DCD20010F9
:1025B000F0B5061C0D1C141C87B0059309480CAB24
:1025C00009490A4A1F8802F0B7F80D9B009701934A
:1025D0000E9B301C0293291C221C059BFFF73EFC1E
:1025E00007B0F0BD28D4001052D40010DCD2001087
:1025F000F0B5061C0D1C141C87B004930CAB04CB67
:102600000B481B880B4905930B4A0EAB1F7802F051
:1026100093F80C9B02970093059B301C01930F9B32
:10262000291C0393221C049BFFF768FC07B0F0BD34
:10263000A4D4001052D40010DCD20010F0B589B040
:10264000041C0E1C151C0793144810AB1449154AA2
:102650001F7802F071F8002C1DD0236A002B1AD0CD
:10266000002D18D0119B002B15D0129B002B12D0DF
:10267000139B002B0FD0119B00970193129B201CE2
:102680000293139B311C039301232A1C0493079B81
:10269000FFF78EFC00E0044809B0F0BDFFD4001045
:1026A00052D40010DCD2001003040000F0B587B053
:1026B000041C0D1C0CAB15481549164A1E780D9FBD
:1026C00002F03AF8002C1ED0236A002B1BD00E9B80
:1026D000002B18D00F9B002B15D0002F13D0211CDE
:1026E00001222E310B78201C13430B700492002220
:1026F0000E9B009602930F9B01970393291C131CBA
:10270000FFF756FC00E0044807B0F0BD87D3001087
:1027100052D40010DCD2001003040000F0B58BB0DE
:10272000041C0E1C151C0793174812AB1749184AB6
:102730001F8802F001F8002C23D0236A002B20D040
:10274000139B002B1DD0149B002B1AD0002D18D0EA
:10275000221C02212E321378201C0B4313701E22E0
:1027600002ABD218002317800192139A00930292B1
:10277000149A04930392311C2A1C079BFFF718FC40
:1027800000E004480BB0F0BDECD3001052D40010B0
:10279000DCD2001003040000F0B58BB0041C0E1C4A
:1027A000151C0793104812AB1049114A1F8801F0FD
:1027B000C3FF002C15D0236A002B12D0002D10D09F
:1027C0001E2202ABD21800231780201C0093019216
:1027D000029303930493311C2A1C079BFFF7E8FB29
:1027E00000E004480BB0F0BD81D4001052D40010BA
:1027F000DCD2001003040000F7B5061C0F1C151CEA
:102800000D480E490E4A1C1C01F096FF002E11D0F7
:10281000336A002B0ED0EB1DA3420BDA282D09D80A
:10282000631B9BB200970195301C04210022FFF727
:102830008BFA00E00348FEBD20D5001052D40010F2
:10284000DCD200100304000038B58369041C0D1CA1
:10285000002B01D0C0699847231C04222933A58589
:102860001A7028342378012B03D1002D01D10133B4
:10287000237038BD38B5031C2E331B780222191C77
:10288000041C91432ED1051C2A352A78B22A15D072
:10289000B32A2BD0B12A2ED1002B02D18068FEF7AB
:1028A00039FDE068FEF736FDB2232B709A23DB007A
:1028B000E058FA231149221CDB000FE0002B02D163
:1028C0008068FEF71CFDE068FEF719FDB3232B704E
:1028D0009A23221CDB00E0580849094BFEF7B0FEA2
:1028E00000200AE0AE230122FF33C254201C054918
:1028F00001F0BCFB01E08120400038BD75280010CC
:10290000E02E00004928001038B5031C04222933AA
:102910001A70013B1B78041C0D1C012B08D10069A7
:10292000FEF76CFDA068FEF7F5FCE068FEF7F2FC30
:10293000A369002B02D0E069291C984738BD10B567
:10294000041C29342378032B15D0036900229860D6
:10295000031C2E331A70043BB1321A70021C01237F
:102960002F321370073A1370FFF784FF002804D149
:102970000323237001E08120400010BD73B5041CC7
:1029800028342478069E022C12D1051C29352C7877
:10299000032C0DD0036246620096041C01F0C4FBB8
:1029A000002807D1A38D002B04D103332B7001E045
:1029B0008120400076BD0000F8B5071C812629372C
:1029C0003B787600351C032B16D0031C01222833DC
:1029D00086850A491A70041C01F07CFB051EB5426D
:1029E0000AD12069FEF70AFDA068FEF793FCE068B3
:1029F000FEF790FC04233B70281CF8BD0929001049
:102A000070B5051C041C0020631B9BB28B4213D2C3
:102A10000F2322780134424013401E1CD2B21B0106
:102A200053401A09000A5B0050405A40331C1201FF
:102A30005340DB005840E7E770BD0000F8B50E1CBE
:102A4000011C6231051C0978012A02D103200131E1
:102A500001402C6F022A02D16C6F002107E0002A8E
:102A600005D1281C60300078092800D16C6F520114
:102A70000A43D2B22270002E1AD0291C2A1C6631B9
:102A80006132002B02D00B78002B04D00320137886
:102A9000013303401370137822789B001343237093
:102AA000002316480B70164A164901F045FE03E054
:102AB00080235B421A432270330AF11C6370A670B4
:102AC00089B2201CFFF79CFFA319020ADA70187163
:102AD000771D002E0CD02B1C30331A780D23B9B281
:102AE0001340201C084A012B00D0084A01F0B6FE12
:102AF000BAB2281C211C00F0AFFCF8BD68D500104C
:102B0000DCD200106DD5001082D5001088D50010E1
:102B1000F0B50025041C2F1C89B00491019200938C
:102B20000595029506950395261C8323049A603625
:102B30005B009A4204D13378012B01D00823337013
:102B4000307801380A2800D984E109F077FC0B00BD
:102B500012002900010127011E0183015D01F90016
:102B60006200B90004994B1E99410223591A89B297
:102B700072E1261C8123049A60365B009A4201D1DF
:102B8000FD3B0BE0FEF7ACFD0323A0673370201C78
:102B900000F07AFC002800D163E106233370C3E71C
:102BA000231C603307938123049A5B009A4201D16E
:102BB000FD3B03E0009B042B03D80623079A137008
:102BC000B2E7019B019A1E78927873069B0F0293DD
:102BD00003233340069333079B0F0393019B019814
:102BE0005B78F6091B021A430592019B009A0A368C
:102BF0009B189A1E1278013B1B78120213431F1C6C
:102C0000009B991E89B2FFF7FBFE079B051C1E70F7
:102C10008AE7AF420AD1059B002B07D0009A053303
:102C20009A4203D1029B023B012B03D8231C0622AC
:102C3000603395E0211C0322251C62310B7860353E
:102C400001331340039A9A4202D009232B7032E0D9
:102C5000231C61331B78069A934201D0092303E0B9
:102C6000029B012B02D104332B7060E06B461B7B6F
:102C7000009A0B70606F019909F097FE6A46231C59
:102C800012886E331A8000220A3B1A700423764899
:102C90002B707649764A01F04FFD231C30331A78A9
:102CA0000F231340023B01980099724A012B00D96F
:102CB000714A01F0D3FD0021201C0A1C0B1C6AE0A4
:102CC000029B9A1E50425041231C633319780922FB
:102CD000033B814244D10522AF4241D1009A052AEB
:102CE0001ED8059A002A1BD100290DD009221A707E
:102CF000231C083A66331A70053B02321A705A7068
:102D000002233D1C02930FE7039A002A08D1029A7E
:102D1000032A05D0221C6132127806998A4201D01A
:102D2000092203E0029A012A03D104321A703D1CE1
:102D3000FAE60122E56F1A70201C0221039A8EE048
:102D4000231C032260331A70201C00F09DFB88E0D6
:102D5000231C8122049960335200914202D1FD3A32
:102D60001A70E1E601221A70231C633319780B33C1
:102D70001B88626F053BE56F03329BB2201C002964
:102D800001D004216CE006216AE0022300213370A7
:102D9000201C01220B1CFFF751FE62E0FEF7A0FC95
:102DA000E36CC01A354B984224D8211C64310A7850
:102DB000032A0FD100230339CB700A704A70221CFA
:102DC0000121663211700431063A1170201C191C61
:102DD000022209E00132231C0A70022260331A70B9
:102DE0009989201C00220123FFF728FE06220028D3
:102DF00001D103E00822231C60331A70231C6033C6
:102E00001B78082B2DD18FE6221C251C66321378E7
:102E10006535002B01D101332B702B78002B05D1A8
:102E20000121E56F3170201C1A1C19E0211C0323BD
:102E300061310B704B700021023B1370043333700F
:102E4000201C0B1C0222FFF7F9FD0823337000231E
:102E50002B7006E001213170201C0022E56F131C4D
:102E6000A84709B0F0BDC0468ED500106DD5001042
:102E7000DCD2001082D5001088D500101FBF0200E0
:102E800070B5051C002360350E1C2B700E49041C08
:102E900000F0ACFA002814D10123221CE66761324D
:102EA0002B70023313705370231C66331870013B70
:102EB0001870A9239B00E3182367044BE31863678A
:102EC00001E08120400070BD112B0010BA0300000A
:102ED00008B5031C60331A78012A11D100290FD0DC
:102EE00001321A70021C002364321370013A13700D
:102EF000093211800A2282661A1CFFF79FFD01E049
:102F00008120400008BD0000021C10B5041C812077
:102F1000603213784000012B0DD103211170002184
:102F2000033251701370FEF7DBFB034BA067A366FF
:102F3000201C00F0A9FA10BD20BF02000B1C011CD0
:102F400010B58031CB240B7001236400035302348D
:102F50000253CD2252008354D03C023284529C2230
:102F6000FF3283541A1C0069FEF74AFA10BD08B5F7
:102F700082210422FFF7E2FF08BD70B5061C8036EF
:102F8000051C3170141C191C813009F00EFDCB2377
:102F900002210134A2B25B00EA520433E954C63183
:102FA0000233E9529C23C739FF33E9542869311CA5
:102FB000FEF726FA70BD08B59C23FF33C35C012BD6
:102FC00008D1011C9633FF33C25A80310069FEF7E5
:102FD00017FA09E0022B07D1011C9733FF33C25ABD
:102FE00080310069FEF736FA08BD000038B50023CD
:102FF000041C0069C568C360FEF758FA2369DD60E8
:10300000002812D0CE225200A35A591EA152002BE2
:1030100009D09A23DB00E0580449221CE83BFEF764
:103020000FFB012001E08120400038BD313000104D
:1030300073B5041C0221838801AE1A0A32707370C2
:10304000D6256D00635D552B64D012D8222B00D19C
:103050008AE009D8112B00D0ABE02223201C635555
:1030600081210222331C7CE0332B29D0442B29D030
:103070009FE0882B00D17DE004D8662B52D0772BBF
:103080005FD096E0AA2B00D185E0BB2B00D090E06A
:103090006421201CFFF7AAFF011E01D1332357E052
:1030A00081235B00984200D083E0583B63559A230C
:1030B000DB00E0583F49221C3F4BFEF7C1FA78E0A5
:1030C000442328E0231C221C82331B78833212788D
:1030D0001B02684613438022027060881132FF325F
:1030E000904206D9934210D804236A465370513354
:1030F00005E0934209D903236A465370523363555E
:10310000201C892102226B462BE0D62366225B001D
:10311000E25495E76623201C842104226355FFF7BF
:103120000DFF46E0231C221C823383321B7810786B
:1031300062881B0203439A4201D9AA2308E077233D
:1031400006E06188201CFFF751FF011E02D1112308
:10315000635575E781235B0098422AD1583B63553C
:1031600027E0FFF70AFF24E08823201C6355812114
:103170000222D4E7AA236355231C221C80331B7828
:10318000813212781B021343A2889A4200D257E779
:10319000A380002154E7A0230222FF33002900D09E
:1031A0000022E254D42300225B00E558201C131CAB
:1031B000A84773BD31300010E02E000038B5A025BF
:1031C000041C0B1CFF35002905D002224255A732F2
:1031D000FF3285585DE0405D0138042869D809F068
:1031E00023F9070B165B0300201C00F071F86AE05E
:1031F000201CFFF71DFF66E0032363559C33FF335C
:10320000E35C022B03D1201C8221042218E0CF238F
:103210005B00E35C022B16D1231C80331B785B061A
:103220001FD5231C82331A7801331B7812021A43EC
:1032300017D0A388934214D30423201C8021635504
:10324000FFF77CFE3FE0012B0BD103336355A13325
:10325000FF33E25A043B201C8021E358FFF78DFE28
:1032600031E0FEF73DFAA36FC01AA36E984208D270
:103270009A23DB00E0581449221C144BFEF7E0F9B6
:1032800021E002238121201C6355A733FF33E55839
:1032900049000022131C15E00223D421221C63558F
:1032A00097334900FF3365588032E35A201C0021D0
:1032B00008E001226255A832FF328121A558201C66
:1032C0001A1C4900A84738BD6F2F00108813000052
:1032D00037B50022AE2101AB1A80FF31445C993C26
:1032E0000A2C3BD8021C201C09F09EF806383838FE
:1032F00038383838300E2600A223101C535482214F
:103300000422FFF71BFE29E0141C082080342578D6
:1033100028402070082807D19B305054101C882169
:103320000222FFF72AFE19E0A0230021FF33D15427
:103330000331101CFF310FE0A12353549A23DB000B
:10334000D0580749074BFEF77BF907E0A02301217E
:10335000FF33D154101C0021FFF730FF37BDC046AA
:10336000D1320010E02E000008B5021C002914D054
:10337000022919D8CE214900435A581E5052002B19
:1033800005D09A23DB00D0580849E83B0AE08321A6
:10339000101C4900FFF712FF06E09A23DB00C0581B
:1033A00032230349FEF74CF908BDC046B72F001081
:1033B000B533001008B5CD235B00C35C012B0FD1E2
:1033C0009C22FF32835C012B0AD1011C0133835400
:1033D0009733FF33C25A80310069FEF73BF804E0AF
:1033E000022B02D10021FFF7E9FE08BD38B5D42336
:1033F000A0255B00C1500023BB22FF354355AD33F0
:10340000FF33C25403780269041C13710069114B25
:10341000C822C360CE235B00E252231C2F331B78EB
:10342000012B08D0AE23FF33E25C012A0AD1992296
:10343000E254052307E0FDF7D9FF0028F2D08120F0
:10344000400006E00123201C63550021FFF7B6FE73
:10345000002038BD69330010A02310B58124FF334C
:10346000C35C6400013B012B0CD8CF23023CFF3C22
:103470005B00C4540233C1500433C2520021FFF731
:103480009DFE0024201C10BD08B5A0238122FF331F
:10349000C35C5200013B012B08D8CF23013AFF3A0D
:1034A0005B00C2540021FFF789FE0022101C08BDFA
:1034B000F0B58DB01F1C12AB151C04CB041C1B787F
:1034C0000791089314AB1B78391C099315AB1A7834
:1034D00096239B00C2541B4B0AAEC01801F0C6F8DD
:1034E000231C31331A78184B291CE254174B08352A
:1034F000E01801F0B7F8099B0422E118D531FF313B
:10350000301C09F052FA0BA8391C01F0AFF8082161
:103510009620089B8000E318019103910491129971
:103520002418D5330591AAB2FF33009602940020E7
:103530000799FDF7A3FE002801D0812040000DB0BF
:10354000F0BDC046590200005D0200005E020000AE
:10355000F0B589B01F1C0EAB151C1A789623041CFD
:103560009B00C254194B0E1CC018391C01F07EF888
:10357000231C31331A78164B291CE254154BE018E2
:1035800001F070F8211CF5310422FF3106A809F082
:103590000CFA07A8391C01F069F89621231C06AA29
:1035A0000092082289006418D53301920392049294
:1035B000FF33029405960020311C2A1CFDF717FEEC
:1035C000002801D08120400009B0F0BD5902000060
:1035D0005D0200005E020000F0B5AFB008938323E7
:1035E0005B00041C079219421FD0FF22CC33C25447
:1035F000223BC25CB433052A03D10822FF32C252F7
:103600000FE0D9225200805C012809D10430FF303C
:10361000814205D084214900E152002300F0D6FC0C
:10362000E1520722D8235B00E254D8235B00E05C20
:103630000138072801D900F006FD08F0FFFE080058
:103640007101E503140391018E04CA04100099234B
:103650009B00E15A3833E558201C00F0FCFCB425EF
:10366000FF35635D012B03D0022B00D188E031E1EF
:10367000221C303212787F2A01D90222D2E7221C82
:1036800032321278222A08D16021FB32FF32A15453
:103690004432A352D84AA3525FE0112A52D163693F
:1036A000988800281ED0982323329B00E2520833CA
:1036B000E118083BE218FDF781FF012800D11EE167
:1036C000CE4BE25CE03BE254CD4BE35C002B11D1EE
:1036D000D82302225B00E25400220233E25401327A
:1036E000C84BA1E7C64BE35C002BF1D0C34BE25CB7
:1036F000E03BE254872368229B00E254C24BE0186F
:103700007B33E15800F0B2FF05230021BA4A04A838
:10371000A352C43AFF3A1218117098229200A35291
:10372000B74B6669E154B3888B4216D034221EA889
:1037300009F044F9B0881EA93422FDF723FF0128BF
:103740000BD1DCE0E923FF225B00E254F83A223B94
:10375000E254FB32B433E252D1E0A74B201CE25AD0
:103760000A33E318009387239B00E318191C00F029
:10377000B9FE002800D0BFE00223635500F06EFCC4
:103780000322079B1B7893439A229200A5186C2B67
:103790002BD1231C32331B78112B00D08CE0089BDB
:1037A000052B00D088E0201CD5302822FF30291CB2
:1037B00009F0FBF8A5239B00E258E03BE250E4331C
:1037C000E258DC3BE250D433E25C904BE254904B45
:1037D000E25C904BE254894BE25CE03BE254012214
:1037E000884BE2540332B63B61E0642B64D1231C66
:1037F00032331B78222B5FD1089B012B5CD1202117
:103800006A46261C52187E4B1278D536FF36E25493
:10381000281C2822311C09F0C8F8DA23D9275B00BC
:10382000E258E033E250D83BE258DC33E250774BC9
:103830007F00E25C2E33E254764BE25C744BE25440
:10384000E25D6E4BE25463699888002819D0982392
:1038500034229B00E252291CFDF794FE002810D070
:10386000E923FF225B00E254F83A223BE254842130
:103870009922002392004900E355A1523C32A354FF
:103880003AE02822301C002109F098F8DA220023BF
:103890005200A3500432A3500432A3505B4AA354F5
:1038A0005C4AA3543D32A3540122B133FF33E254A6
:1038B000992300229B0085E0281C0021342209F076
:1038C0007DF863699888002819D0291C3422FDF7F7
:1038D00059FE14E0E923FF225B00E254F83A223B50
:1038E000E25484210023AC32FF32A3544900B232A7
:1038F000A1523C32A35402E0002800D195E6E9230E
:10390000FF225B00E254F83A223BE2548421002378
:10391000AC32FF32A3544900B232A1523C3240E3F0
:10392000231C30331B785AB2002A06DB002B15D03B
:10393000D9235B00E35C002B10D1D82305225B0068
:10394000E254B2230C32FF33E254002201336BE61F
:10395000D9235B00E35C012B00D07FE3042261E606
:103960009A239B00E0180021282209F027F8A523BC
:1039700000259B00E550214B11A8E5540633E55086
:10398000083BE554224B291CE5541D4B3422E554D9
:1039900009F014F863699888A84215D011A9342257
:1039A000FDF7F0FDA8420FD0E923FF225B00E254AF
:1039B000F83A223BE25408220233E554EE33E55450
:1039C000FF323C3BE25230E60023812509936D0033
:1039D000B223FF33E35C332B00D1A6E004D8112BD4
:1039E0001AD0222B43D02FE1442B00D1DBE0552B02
:1039F00000D122E128E1C0465602000092020000F8
:103A000093020000660200001D0200006202000036
:103A10009102000063020000E82200235200A35438
:103A20004C32A354231C31331A78D74B201CE25458
:103A300026224333E252E318009387239B00E318C6
:103A4000191C243A00F04EFD8123051C5B009842AE
:103A500008D1B22255238125FF32A3546D000123E2
:103A60000993B5E7B2222223FF32A354ECE0982257
:103A70004421079B92001B780B4203D0A15A0129D5
:103A800000D1DAE0A25A262A00D095E0002B00D01F
:103A900092E0079B5B78012B00D08DE00798271CF4
:103AA000223000F0D3FDDC235B00E0500433E05013
:103AB000FD37079BFF37991C2022381C08F075FF43
:103AC000B24911220CA808F070FF62691EA9508843
:103AD0000632FDF773FD0826051CFF36002819D1B4
:103AE00010230093DB180293231CD533FF33039379
:103AF0002823019704931EA940220CABFDF7D2FAAC
:103B0000002800D0351C63691EA8DA88002108F05F
:103B100055FF00E0351C3323B5424ED1B222552368
:103B20000825FF32A354FF3599E7E8270823211C15
:103B3000DC267F00E355964BFD31E5182022FF314E
:103B4000281C08F032FF934B7600E018A15900F0D2
:103B50008DFDE35D201C0093291CA3592422FFF74F
:103B6000F7FC81235B00984200D172E7E25D1B33D2
:103B7000FF33E254844BA159E01800F077FD9823FD
:103B800031229B00E252E318009387239B00E31845
:103B9000201C191C00F0A6FC051E0DD1B2224423E6
:103BA000FF32A35454E0079B1B78082B04D19823C1
:103BB0009B00E35A312B04D05523B222FF32A35489
:103BC0004DE7079BDA27581C00F040FD87227F0055
:103BD0009200031CE051A618E820079A4000511DEE
:103BE0001022205C01921432039000960292201C55
:103BF000FFF75EFC8123051C5B00984200D128E79B
:103C00000BA8E15900F032FD201CFD30FF30311CC3
:103C1000202208F0BBFE002800D07FE78F239B0006
:103C20000BA8E118042208F0B1FE002800D075E7C7
:103C3000D92301225B00E25406E0E923FF22082594
:103C40005B00E254FF3503E0099B012B00D106E73E
:103C50000823FF339D4200D07AE65E33FF33E552FE
:103C60000722B43BE0E4221C032330321178E82021
:103C70000B40202140001943023B2154012B1BD84B
:103C8000DE235B00E358013310330FD9A8239B00D8
:103C9000E35C002B0AD1D92300225B00E2540532F9
:103CA000023BE254B2230C32FF33BDE4E6235B0057
:103CB000E1580B880D330B80E823D2275B00E05CD2
:103CC000FF37E05513780122134265D0DA235B00F9
:103CD000E3589A18103204D9A8229200A25C002A54
:103CE000D9D0E9225200A25C042A19D10025BD32A4
:103CF000FF32A15801950531043220350390A25AB4
:103D000000910295201CFFF7D3FB81235B009842B2
:103D100000D1F4E55F33FF33E25A943BE3581A8055
:103D2000DA267600A359D422E025591C0523FF3258
:103D30006D00A151A3546359581C00F097FC6359BE
:103D4000201C591DE2235B00E25AE35D0093A35956
:103D5000FFF7FEFB81235B00984200D1CFE5CE3315
:103D6000E35C6259201C1370E2235B00E25AD42307
:103D7000FF33E35C08329A18E6235B00E35892B203
:103D8000009361591BE0C0461D02000093D500104E
:103D90002102000041020000D423FF33E254E0225C
:103DA0005200A1580871A158E25C0F3BE35A201C55
:103DB000D218E6235B00E358043192B20093E42367
:103DC0005B00E35800F08EFBD82381225B00520099
:103DD000904210D1FF21D032A154CC3AFF3AE254A4
:103DE0000023AC32FF32A354EE32A35499239B003C
:103DF000E052FFF71AFCE6225200A25811889822DE
:103E00009200A15203221CE1E4267600A359581C1B
:103E100000F01CFCDC225200A050089A031C002A6F
:103E200000D16CE54025079A11780D4031D004236C
:103E3000994340290BD1089B012B04D0D9235B0067
:103E4000E35C012B03D0864BE35C032B08D1842277
:103E5000992352009B00E2520022B23BE25412E04E
:103E6000804BE25C023B012A0AD1221C32321278DA
:103E7000112A05D10021A232FF32A154AA3A01E051
:103E800081225200E252D82306225B00E254F9322A
:103E900034E0D220FF30275C8F4200D02FE5032290
:103EA0003A40023A012A32D8089A0D2A00D826E56B
:103EB000DE225200A158CF1CBB4200D91FE58B4225
:103EC00000D81CE5A3501032A1580A880D3A92B2CE
:103ED0000A80A1591026205C053101961436039002
:103EE00000910296201CFFF7E3FAD82381225B00A1
:103EF0005200904205D1FC3AE254023A2233FFF7D5
:103F000093FB99229200A5520122FFF78DFBD82244
:103F1000089B5200012B15D80723A354CC33B13A88
:103F2000FF33E254203BE15C6632FF32002903D1CB
:103F3000B03BA352FFF779FB84214900A152E5541D
:103F4000FFF773FBE6235B00E1580B88013B0B8016
:103F500099239B00E552012323E0079B1B78442B08
:103F600022D1089B012B00D0C9E43D49635C022BA0
:103F700000D9C4E4221C0220303212788243012A84
:103F800001D0FFF74EFB013363546A462021A8237A
:103F9000521812789B00E254E92204235200A354E1
:103FA000223AA354FFF741FB2F4BE35C032B01D0D4
:103FB000FFF737FBFF22D033FF33E2548421002385
:103FC000B332A3544900B232A1523C32A354FFF79A
:103FD00028FBE9225200A05CD23AFF3AFF2801D127
:103FE000FFF722FB9921E2548900042820D11E48C2
:103FF000235C9B182354D82303205B00E054002348
:1040000063524433943963544C31635498239B0076
:10401000E31800930B1C543BE358201C611800F07C
:1040200061FA98239B00E25A943BE3581A8005E01A
:10403000842300225B006352AA33E254E923FF2267
:104040005B00E2540AE00122E254A7238121201CF4
:104050009B00E55849000022131CA8472FB0F0BD73
:1040600063020000660200006202000038B5031C13
:10407000002234330D1C1A701449041C00F016FA87
:10408000002820D1A7239B00E550231C32331A7847
:104090000F4B112A01D1E05401E00122E254D82251
:1040A00001235200A354221C002031321370B2337A
:1040B000FF33E054B222B233E0521123FF32A35453
:1040C0002132A35401E08120400038BDD9350010D1
:1040D00066020000D82238B55200835C012B02D062
:1040E000812040001FE0A7239B00C150031C3233F6
:1040F0001C780D1C332C04D100210A1C0B1CA84772
:1041000010E0D9235B00C35C012BE9D1222CE7D15D
:1041100008218154B422FF3283546932821800216D
:10412000FFF75AFA002038BDF8B50E1C151C0029FF
:1041300041D0002A3FD0D8225200815C141C0129B2
:1041400039D1071C32373F78112F0AD11B4FC75D79
:10415000002F06D1A93CFF3C8454B422FF32815485
:1041600001E002220255E0225200865004328552BC
:10417000021C3032117803220A40E421023A49003D
:10418000012A00D904334350E6230024069A5B0039
:10419000C25011220A4B211CC4543D33C454094B54
:1041A000C4540233C452923BC254321C2B1CFFF73E
:1041B00013FA201C01E081204000F8BD66020000D7
:1041C0006302000062020000F8B5871CC28FFE8FF8
:1041D000031D921B051CDC8F91B2002E03D18C4273
:1041E0009B415B4203E00423A14200D9023BA2426F
:1041F00000DA0C1C08221343084AAB54AA239B0084
:10420000E818AB6B221C9919A619013408F0CDFBF4
:10421000FE87281CA1B2FEF75BFEF8BDA7020000D6
:10422000F0B50027041C1D1C85B002910092019777
:10423000009B002B04D01B7801930723019F1F4094
:104240000123029A134005D0221C0621343211703A
:10425000FC311184002D0ED0221C58321278002A15
:1042600009D1019907321140012904D801999143DC
:10427000082900D0D4E0221C0021261C58321170DD
:10428000343630780138072800D9BEE008F0CCF881
:104290000409BD345EB9A38B0021E56D201C0A1C06
:1042A000BBE0029B9B0709D5A31CDA8FE38F9A42E0
:1042B0000AD20823072F5DD0002D01D00622B7E0D7
:1042C000201CFFF781FFEBE0211C00230422523168
:1042D0003270A3870B70231C012153331970029B8A
:1042E0001342A5D1201CFEF70FFE002800D1D7E015
:1042F000062334342370D3E00422029B1342DDD022
:10430000002DDBD0231C54331A8882235B009A4291
:1043100009D1042FD2D0201CFEF7F6FD0028CDD104
:1043200004233370BCE0231C52331A78072F03D0C8
:10433000022F01D9042F7AD15A497B00585C904250
:104340007AD0CB185B78934271D175E0231DDA8F58
:10435000531C9D4201D007230CE0A08FA16C431990
:104360000988013B8B4207DD8222231C5200543313
:104370001A80042333705BE7009B002B9ED0636C94
:1043800000991818013108F010FBA38F019A013B26
:10439000ED1807231A40131C221C5232A5871370F4
:1043A000042333709EE7012D04D9231C53331B785B
:1043B000012BD0D0221C50321378591C1170002BC5
:1043C00000D07BE7A21CD387A38702333370201C65
:1043D000FFF7FAFE11E00223221C337051321378EA
:1043E000591C1170002B00D068E707212E4A201CB1
:1043F000A154A3870639FEF76BFD002800D05DE7C6
:104400004EE0002B01D1002D01D001233370231C7D
:10441000201C002254331988E56D131CA8473FE087
:10442000221C062134321170FC31118423E708224A
:10443000231C34331A70FBE6231C52331F70009B7D
:10444000002B00D13AE704233A1C261C9A4303921E
:104450003436002A22D1A08FA26C43191288013B66
:10446000934206DD8222231C520054331A80062315
:1044700080E7636C00996A1E1818013108F095FAFC
:104480000122A38F201C013BEB189BB2A387327043
:10449000A26CE56D13800399626CBFE7052369E7A1
:1044A00005B0F0BDA4D50010A702000070B5051C32
:1044B000002334350E1C2B700949041CFEF7E0FC68
:1044C00000280AD1221C012358321370E6652B7094
:1044D000A3880434063BE38701E08120400070BDDF
:1044E00021420010F7B5041C0F1C161C0193002973
:1044F00024D0002A22D0031C812534331A786D0081
:10450000012A1DD101321A70FDF7EAF80023A21C1E
:10451000E064A763E687D387019AA3876264089A59
:10452000201CA264221C503213705370D370231CC1
:1045300054331D80FFF748FE051C01E081256D0006
:10454000281CFEBD10B5041C4068A36898470023D2
:10455000637310BD10B5054B021C1C7B181C002C8E
:1045600003D19A6059600123037310BD501A0020D3
:10457000416000207047000038B5002802D181203A
:1045800040001AE0437B012BF9D001234373041C44
:10459000FCF786FD051EF2D12368084ADC619A61AA
:1045A000227C32331A709A2320686269DB00C25081
:1045B000FEF7C5F9002800D0657338BD45450010E9
:1045C00037B500281ED0447B012C1BD0041C0120D1
:1045D0000E4D60732068C4618561A57B3030057025
:1045E0002068E57B313005702068257C323005700D
:1045F000069800902068FEF7C1F9002804D0002337
:10460000637301E0812040003EBDC0464545001077
:1046100010B5002814D0437B012B11D001230A4A86
:1046200043730368041CD8619A61027C32331A70A8
:104630000068FEF7C1F9002804D00023637301E08D
:104640008120400010BDC04645450010021C037883
:10465000180653781B040343D078184393781B0241
:10466000184370470B0A0370417070470B0E0370BC
:104670000B0C43700B0A8370C170704703781B02E8
:104680000B80427813430B80704782B06B465870A2
:104690003023000A0B7048334B7003091A1C373261
:1046A000092B01D830331A1C0F231840031C8A70C1
:1046B0003733092800D8073BCB706B46587802097E
:1046C000131C3033092A00D907330B710F23034021
:1046D0001A1C3032092B01D937331A1C4A7102B027
:1046E0007047000010B5002807D0041C08F06DFAD0
:1046F000211C021C0148FCF70FFF10BD6C150020A7
:1047000037B5041C0A4901A8022208F04EF9002C12
:104710000DD0201C08F059FA064D021C211C281C43
:10472000FCF7FAFE281C01A90222FCF7F5FE37BDB2
:10473000B4D500106C15002070B5E8B0061C0C1C38
:10474000151C03A81149022208F02FF9002E1AD0D7
:10475000002C18D0002D16D00D4B0E492A1C0193A9
:104760000096231C04A808F0EFF904A808F02DFA1D
:10477000094C021C04A9201CFCF7CEFE201C03A936
:104780000222FCF7C9FE68B070BDC046B4D5001067
:10479000DCD20010B6D500106C150020F0B5284C06
:1047A000051CA5440E1C171C2649022202A808F06D
:1047B000FCF806AC00210A2203A808F0FFF800214B
:1047C0001422201C08F0FAF80BA80021642208F03B
:1047D000F5F8002D2FD0002E2DD00BA8291C002F6E
:1047E00004D108F0D3F90BA817490BE008F0CEF973
:1047F00016490BA808F0CAF9381C03A9FFF745FFB2
:10480000201C03A908F0C2F9114B1249321C009474
:10481000019324A80BAB08F097F924A808F0D5F968
:104820000D4C021C24A9201CFCF776FE201C02A9BA
:104830000222FCF771FE89239B009D44F0BDC04617
:10484000DCFDFFFFB4D50010BFD50010C6D50010A9
:10485000DCD20010B6D500106C150020F0B5414C2C
:10486000A544002879D0002A77D00D1C0592049029
:1048700000210A2206A808F0A1F83B4A3B495EA89D
:1048800008F062F9281C06A9FFF7FFFE06A95EA83A
:1048900008F07CF95EA8FFF733FF0024AC425CD23D
:1048A0002B1B20261F2B00DC9EB2AF2200215200C2
:1048B00006A808F083F8AF225EA80021520008F095
:1048C0007DF8049B1B190393002B27D0092304AA0E
:1048D0009B180022B24219D23020844603998F5C83
:1048E00039098C44092901D937318C466046591E53
:1048F00008700F210F40391C3031092F00D90731C2
:1049000019702021013259700333E3E703235E431A
:10491000B6AB9E19164BF61800233370154B5EAEDE
:104920001549059A0093301C06AB08F00DF9301CB0
:1049300008F04BF90D233354301C08F046F90A23D4
:1049400030184370301C08F040F92034821C311CB0
:104950000A48FCF7E1FDA4B2A0E7B7239B009D4401
:10496000F0BDC04624FDFFFFE7D50010E2D50010E2
:1049700040FDFFFFDCD20010F9D500106C150020BF
:1049800030B51C880D0A1055601C80B21554A01C4F
:1049900080B2033411541C8030BDF7B50C22131CB7
:1049A0000D1CC721477F06687B43C900F3185B18BD
:1049B0001B78041C0192232B01D1232D08D0FCF776
:1049C00087FE019B7B43F618C623DB00F618706058
:1049D0000C23C620627F21685A43C0008A1812182F
:1049E00014601A1CC726607FF60042438A18921989
:1049F0001678232E04D1232D02D1043B537006E0F8
:104A0000C7224343D200CB189B1802225A700C22B3
:104A1000637F21685343C722CB18D2009B181D70B7
:104A2000F7BD000038B50C23C621427F04685A4305
:104A3000C900A2185218012149425160C62200251E
:104A4000417FD2005943611889180D60C721427F08
:104A5000C9005A43A21852181570427F5343026886
:104A6000D31801225B185A70CF230268DB00D0589C
:104A70000149FCF7F5FD38BDF1610010F0B5436860
:104A800085B0041C02910393076800291BD0037EA4
:104A9000002B13D0C37E222B10D1D023DB00F818BB
:104AA0000021082207F08AFF208C332806D1D0226B
:104AB0002368D20099180822FCF764FD0B23A37524
:104AC0006B461B89E3830126A37D0C2B00D986E16D
:104AD000181C07F0B3FC0D0015003A0044007700E5
:104AE0008500850091009800C800010179017F01CF
:104AF000201C2121FFF751FF0023E383013379E0DC
:104B0000CF212368627E1B68C9009A732368A27E46
:104B10001B68DA732368E27E1B681A74236838689E
:104B20001A685B58211C5361FFF722FD236818683F
:104B3000FFF722FDE083002805D00B23A375AA4BC5
:104B4000E3830026C0E7022354E0CF232268DB0082
:104B5000D058A649221C3223FCF772FD49E0E37EBF
:104B6000222B01D00423A3752368627E1B689A73ED
:104B70002368A27E1B68DA73D1232268DB00D15C34
:104B80001268002901D0E17E00E033211174002277
:104B900021680425CA54CF212368C9001A685B58CC
:104BA000A575211C53613868FFF7E2FC236818687B
:104BB000FFF72EFDE0830028BFD1E37E222B09D131
:104BC000A5750FE12369E06802999847E37E222BDF
:104BD00000D004E1201CFFF725FF0023E383FEE063
:104BE0000025201C2221052B00D02121FFF7D5FE16
:104BF000E5830823A375F2E0201C2321FFF7CDFEF7
:104C00000023E383F5E7201C039B9847E0830028FB
:104C100001D00B23DCE02368754ADA80627E1B68D2
:104C20009A732368A27E1B68DA73D1222168D200AE
:104C30008B5C607E03438B543868211CFFF798FC23
:104C4000BB1DBA88009307333868191CFFF7B8FCFE
:104C5000E083002800D070E70923227FA375893BF9
:104C600013432377BEE0237F7F2BD2D9201C039BE5
:104C70009847E083002821D1E07D002803D1A37D5F
:104C80000C2BC6D15DE7CF232268DB0057490128F2
:104C90000BD1D058FA23221C9B00FCF7D1FC032334
:104CA000627E13406376082306E0D058FA23221C64
:104CB0009B00FCF7C5FC0323A37593E081239B00B5
:104CC0009842A6D00322FB3BFF3BA375237F93436F
:104CD000023A1343237734E70323267F25681E40D7
:104CE000022E2CD09E4248D0012E5BD1281C414977
:104CF0001630FFF7B7FC206800211830FFF7B2FC30
:104D00002068311C1A30FFF7ADFC00222368032114
:104D1000DA741A7506329E745A750A2322689380D3
:104D2000237F8B4301390B432377CF23DB00D058FC
:104D3000FA232E49221C9B00FCF782FC32E02C4B0C
:104D40002A68EB80637E211C93732368A27E1B6814
:104D5000DA732868FFF70CFC2B1CA91D0D33AA88F9
:104D600000912868191CFFF72BFC061E18D103229E
:104D7000237F93431343237716E0AB7CFF2B11D0A3
:104D80008023AE7D1B021E430923A375CF23DB00C6
:104D9000E858FA231549221C9B00FCF751FC03E05C
:104DA000114E01E08026360233B2E683002B00DD8F
:104DB0002FE780231B029E4214D10323227F13403E
:104DC000032B00D125E70DE0201CFFF72BFE0C2361
:104DD000A375B6E6E18B2369E068984702E0002EF0
:104DE00000D1AEE605B0F0BD02020000F94D0010A2
:104DF00022060000C2F1000008B50021FFF73EFEC8
:104E000008BD0000F7B5837D051C8468082B02D01F
:104E1000092B37D091E04A484A494B4AFFF78CFCAE
:104E2000286821881630FFF71DFCE188A688474BCB
:104E3000761A9E4200DD1E1CA27AB6B20B23002A0F
:104E40000CD163882868C918183089B2FFF70AFCAA
:104E50002868311C1A30FFF705FC0F2320883C4AD4
:104E60008121904200D180392A68287E9174191CD2
:104E7000D07400200939107551752A68053B93805C
:104E800026815BE02F4F3348391C2F4AFFF754FC33
:104E900000232968EB758B7C0193002B13D0391C00
:104EA000294A2D48FFF748FC7F23297FE2880B40E1
:104EB000002A04D08022524213432B773DE02B7707
:104EC000E3681A8039E0EA8B244B9A4203D1E288E6
:104ED000E3681A802FE0CE88A388043EB6B2B342BE
:104EE0000BD21D48184A391CFFF726FC6A46812060
:104EF000E368928880001A8020E02369E088321CF1
:104F00001818163107F051FDE3882289F3189BB277
:104F1000E380B24202D8A2889A4205D1E2681380A7
:104F20000023E380238101E00123EB750C48054950
:104F3000054AFFF701FC002000E00A48FEBDC0461C
:104F4000AFD60010CCD60010DCD200101106000045
:104F5000C2F10000E1D600100ED70010088000005A
:104F600038D7001002020000F7B5837D041C856865
:104F7000082B02D0092B4CD067E0364A3648374917
:104F8000FFF7DAFB00232068E37516302988FFF766
:104F900069FB6B88E9882068C918183089B2FFF767
:104FA00061FBEB88AA88D21A2D4B9A4200DD1A1CAD
:104FB00097B23E1C2B4B0836B6B29E4247D8822091
:104FC000237E391D0193236889B29874684600795D
:104FD0005975D874080A1875237E2068022B02D1EF
:104FE000AB7B837606E0E988AB681A3092B2591839
:104FF00007F0DBFCEB882268FB189BB2EB80968005
:105000000022A988101C994223D001232276E3753F
:105010001FE0124F0F4E1448391C321CFFF78CFB57
:1050200023689D7C002D09D0321C1048391CFFF7E5
:1050300083FB7F23227F1340237706E00C48391C33
:10504000321CFFF779FB281C03E00A4801E08120AD
:105050008000FEBDDCD2001066D70010CCD6001058
:105060000D0600001506000082D70010AED7001014
:10507000D7D7001002020000F7B56B469E1D09232A
:105080003380837D041C8568082B02D0092B50D007
:1050900073E03C4A3C483D49FFF74EFB227E00232B
:1050A000042A02D16B8805339BB20633384A9BB27F
:1050B000934264D823683088298818180D30FFF788
:1050C000D1FA3088023080B23080237E042B20D188
:1050D0002368A18A18180D30FFF7C4FA3388A9682D
:1050E00002333380002900D06988226841200D32C4
:1050F000331CFFF745FCA96800290AD023683088D3
:105100006A8818180D3007F050FC6A883388D31865
:10511000338033888C25191C207E2268093989B296
:10512000D074080A9574107551752268053B9380F8
:1051300021E0164F134E391C1648321CFFF7FCFABB
:1051400021688B7C002B09D0321C1348391CFFF7D7
:10515000F3FA7F23227F134023770EE0237E042B74
:1051600004D068682A88163107F01FFC0B480749ED
:10517000044AFFF7E1FA002003E0094801E081203A
:105180008000FEBDDCD2001004D80010CCD6001088
:105190001506000022D8001050D800107BD800104F
:1051A00002020000F0B585B002AB9E1D09233380DA
:1051B000837D041C8568082B02D0092B3AD06FE050
:1051C00039483A493A4AFFF7B7FA2268A97B0D32C3
:1051D0000120331CFFF7D4FB23683088AA7B181802
:1051E00029680D3007F0E1FBAA7B33880221D31830
:1051F000226833800D32331C0320FFF7C1FBAB89DB
:10520000A18A002B00D0191CB125236830881818FA
:105210000D30FFF727FA3388207E2268D91F89B224
:10522000D074080A9574107551752268033B9380F9
:10523000002036E01D4F1E4E391C1E48321CFFF761
:105240007BFA21688B7C0193002B1DD1AB68CA8847
:105250001888043A90420BDA1748321C391CFFF7C1
:105260006BFA6A468120AB68928880001A8018E049
:1052700092B21A806868163107F097FB0F48391C04
:10528000321CFFF759FAD3E7321C0B48391CFFF7E1
:1052900053FA7F23227F134000222377AB681A80C2
:1052A000074805B0F0BDC046AAD80010CCD6001003
:1052B000DCD20010CBD80010FDD800102CD9001083
:1052C0000202000073B56B469C1D09232380837D79
:1052D000051C8668082B03D0092B00D186E0A1E0CD
:1052E00053485449544AFFF727FAB289B07B0A322F
:1052F000317992B20523002803D033699B880933A2
:105300009BB252189B184D4A9BB2934200D98BE036
:105310002A6801200D32231CFFF732FB2B682088FE
:105320003279181831680D3007F03FFB3279238845
:105330000220D3182A682380B1890D32231CFFF77D
:105340001FFB2B682088B28918180D30B16807F050
:105350002CFBB2892388D31823802A68B37B0D32B3
:10536000002B0ED104200221231CFFF709FB2B6820
:105370002088B18A18180D30FFF774F9238802339A
:1053800021E005200121231CFFF7FAFA2388296870
:105390005A1C22803269CB18927906205A733369DD
:1053A0002A6899880D32231CFFF7EAFA2A682088B8
:1053B0003369101819689A880D3007F0F6FA3369C6
:1053C0009A882388D31823802388B224191C287E26
:1053D0002A68093989B2D074080A94741075517515
:1053E0002A68053B93800923AB7519E0114E124CD6
:1053F0001348311C221CFFF79FF92B689B7CFF2B65
:1054000009D1221C0F48311CFFF796F97F232A7F10
:1054100013402B7706E00C48311C221CFFF78CF957
:10542000002003E0094801E08120800076BDC046ED
:105430005FD90010CCD60010DCD200101506000099
:105440007DD90010ACD90010D8D90010020200009C
:10545000F7B56B469E1D09233380837D041C856848
:10546000082B03D0092B00D176E09AE04F49504A2F
:105470005048FFF761F92B68A97A9B88032201291C
:1054800000D002321033D3184B4A9BB2934200D95A
:1054900089E0226802210D320120331CFFF770FAE7
:1054A0002989002900D1A18A2368308818180D3075
:1054B000FFF7D8F833882268023333800D32052095
:1054C0000121331CFFF75CFA338821685A1C3280B3
:1054D0002A68CB18927906205A732B68226899881B
:1054E0000D32331CFFF74CFA226830882B681018F5
:1054F00019689A880D3007F058FA2B689A88338813
:10550000D31833802268AB7A0D32002B0FD10820DC
:105510000221331CFFF734FA23683088A18A181857
:105520000D30FFF79FF833880233338004E0072003
:105530000021331CFFF724FA3388B325191C207E81
:105540002268093989B2D074080A957410755175AA
:105550002268053B938022E0144F154E391C1748F2
:10556000321CFFF7E9F821688B7C002B09D0321C34
:105570001348391CFFF7E0F87F23227F134023777D
:105580000FE0AB7A002B05D0CA886868043A163160
:1055900007F00BFA0B480549054AFFF7CDF8002044
:1055A00003E0094801E081208000FEBDCCD6001058
:1055B000DCD2001007DA00101506000031DA001006
:1055C0006CDA0010A4DA001002020000F0B585B019
:1055D00002AB9E1D09233380837D041C8568082B44
:1055E00003D0092B00D1A2E0C5E0664A66486749AE
:1055F000FFF7A2F82A691423002A00D10233EA68CF
:10560000002A04D06A88002A01D09B189BB2AA689D
:10561000002A04D0AA88002A01D09B189BB25C4AB9
:10562000934200D9A9E0226802210D320120331CE7
:10563000FFF7A6F92988002900D1A18A23683088BC
:1056400018180D30FFF70EF83388226802333380C4
:105650000221331C0D320320FFF792F9E9884B1E1B
:105660000E2B00D810212368308818180D30FEF753
:10567000F9FF30882268831C9BB2D31802225A7328
:105680000530E96880B230800F1E09D000276A8893
:10569000BA4205D0236818180D3007F086F96F88D4
:1056A000A96800290CD0AA88002A09D0308823686C
:1056B000381818180D3007F078F9AB88FF18BFB20A
:1056C00023683088391C18180B30FEF7CBFF33885D
:1056D0002268FF182B6937800D32002B0FD108206C
:1056E0000221331CFFF74CF923683088A18A18186F
:1056F0000D30FEF7B7FF33880233338004E0072014
:105700000021331CFFF73CF93388B425191C207E97
:105710002268093989B2D074080A957410755175D8
:105720002268053B93800923A375002327E0174FC8
:10573000144E1848391C321CFEF7FEFF23689B7C70
:105740000193002B09D0321C1348391CFEF7F4FFDB
:105750007F23227F134023770DE01048391C321C31
:10576000FEF7EAFF2869031E09D02168EA8816318E
:1057700007F01BF9D9E70A4B01E081239B00181CB5
:1057800005B0F0BDDCD20010E0DA0010CCD600107D
:1057900015060000FDDA00102BDB001056DB0010B0
:1057A00002020000F7B56B469F1D09233B80837DF5
:1057B000041C8568082B02D0092B30D059E0002644
:1057C0002E492F4A2F48FEF7B7FFE675A9882E4AC3
:1057D000CB1D9BB293424ED83020AB792268184340
:1057E0000D323B1CFFF7CCF823683888AA881818BC
:1057F00029680D3007F0D9F8AA883B888325D3188B
:105800009BB2191C207E2268093989B2D074080A1B
:105810009574107551752268053B938027E0174FEA
:10582000174E1A48321C391CFEF786FF2268937CFB
:10583000002B09D0321C1648391CFEF77DFF7F2350
:10584000227F1340237714E0AB79012B02D10A3376
:10585000A37507E00C23A375CF23DB00D0580D49B7
:10586000FBF7FEFE0C480549054AFEF765FF0020E0
:1058700003E00A4801E081208000FEBDCCD6001084
:10588000DCD2001085DB001015060000A7DB00103D
:10589000DFDB0010F16100100FDC001002020000DD
:1058A000F7B56B469D1C09232B80837D041C8668FD
:1058B000082B02D0092B43D0A5E0544A544855493F
:1058C000FEF73AFF226873780D32002B20D10120B9
:1058D00002212B1CFFF754F82888236871881818B8
:1058E0000D30002900D1A18AFEF7BCFE2B8822686A
:1058F00002332B800D3201212B1C0220FFF740F8D0
:105900002B8821685A1C2A803278CB185A7304E0FD
:10591000072000212B1CFFF733F82B88B825191C12
:10592000207E2268093989B2D074080A95741075EE
:1059300051752268053B938009230027A37563E016
:10594000344D324F3448291C3A1CFEF7F5FE2068CE
:10595000837CFF2B0CD13A1C3048291CFEF7ECFE4F
:10596000002233691A807F23227F134023774AE085
:10597000143001A9FEF782FE0025294F01AB1B88D8
:10598000AB423AD9206843199B7D022B1FD16B464D
:1059900040199F1D391C1730FEF770FE33693A8895
:1059A000198891420AD2194A1C481A49FEF7C4FEC6
:1059B000812700223369BF001A801EE01A80236805
:1059C000F0685919193106F0F0FF33690FE0012B27
:1059D00013D1401917306946FEF750FE6B461A88FE
:1059E000236870685919193106F0DFFF6B461B8870
:1059F00000270333ED18ADB2C0E70A480549034A52
:105A0000FEF79AFE00E0064F381CFEBDDCD2001007
:105A100043DC0010CCD6001066DC00109ADC0010CD
:105A200002020000CBDC00100923F0B585B003AE04
:105A30003380837D051C8468082B03D0092B00D19B
:105A40008BE0C9E066486749674AFEF775FEA068C3
:105A50000E23002802D023880C339BB2227B002A1D
:105A600004D02269928802329B189BB25F4A93420B
:105A700002D9636800229CE02A6821880D32002840
:105A800010D100290ED10230011C331CFEF778FF23
:105A90002B683088A98A18180D30FEF7E3FD33888B
:105AA00002330EE06120331CFEF76AFF2B6830885A
:105AB000228818180D30A16806F077FF22883388F5
:105AC000D31833802A68237B0D32002B22D0052087
:105AD0000121331CFEF754FF338829685A1C328099
:105AE0002269CB18927906205A7323692A6899880B
:105AF0000D32331CFEF744FF2A68308823691018E2
:105B000019689A880D3006F050FF23699A88338807
:105B1000D3180EE004200221331CFEF731FF2B685E
:105B20003088181823690D301988FEF79BFD3388DB
:105B30000233338033889E24191C287E2A68093951
:105B400089B2D074080A9474107551752A68053B9F
:105B500093800923AB7500203FE0224E224F24485A
:105B6000311C3A1CFEF7E8FD2868837C0193002B6A
:105B70000CD03A1C1F48311CFEF7DEFD0022636882
:105B80001A807F232A7F13402B7725E002AB991DD3
:105B90001730FEF773FD02ABDA8863681B88934207
:105BA0000BD23A1C1348311CFEF7C6FD6A466368E7
:105BB000928881201A8080000FE02968606919317D
:105BC00006F0F3FE02ABDA8863680B481A80311CDA
:105BD0003A1CFEF7B1FDBEE7084805B0F0BDC0466F
:105BE00000DD0010CCD60010DCD20010150600003D
:105BF00028DD001061DD001097DD001002020000BA
:105C00000923F7B501AE3380837D051C8468082B1A
:105C100002D0092B66D0A7E056485749574AFEF7ED
:105C20008BFD636921880520002B04D062685342F4
:105C30005A41524210400B1C0C33C318504A9BB2BD
:105C4000934204D96368002B00D07BE08EE02A6881
:105C500061200D32331CFEF793FE2B6830882288BA
:105C60001818A1680D3006F0A0FE228833880320A2
:105C7000D3182A6833800D320221331CFEF780FED0
:105C80002B683088181823690D301988FEF7EAFC54
:105C90003388023333806369002B13D16368002B90
:105CA00010D102202A68011C0D32331CFEF768FE59
:105CB0002B683088A98A18180D30FEF7D3FC33887A
:105CC0000233338033889F24191C287E2A680939BF
:105CD00089B2D074080A9474107551752A68053B0E
:105CE00093803FE0244F2748391C244AFEF724FDC7
:105CF0002868837CFF2B0ED16368002B01D0002223
:105D00001A801E4A20481C49FEF716FD7F232A7F71
:105D100013402B7728E06369002B1ED06368002BAB
:105D20001BD06B469E1D1730311CFEF7A7FC636825
:105D300032881B88934208D21348391C0F4AFEF759
:105D4000FBFC636800221A8010E029686069193141
:105D500006F02BFE328863681A800C480649074A11
:105D6000FEF7EAFC002003E0094801E08120800002
:105D7000FEBDC046D1DD0010CCD60010DCD2001034
:105D800015060000F9DD001032DE001068DE00109C
:105D9000020200000923F0B585B003AE3380837D95
:105DA000051C8468082B03D0092B00D1B8E008E15A
:105DB000854A86488649FEF7BFFC0023EB752376AB
:105DC00063682A68002B37D03388824F581C80B212
:105DD0003080217BD2185173E3692269FF1A63680E
:105DE0003F1A5B689B1A9F4200D91F1CBBB20193EC
:105DF0002B68019918180D30FEF734FC30882B6899
:105E0000023080B2308018186368BFB21968236905
:105E10003A1CC9180D3006F0C8FD3388019AD31812
:105E200033802369FF18636827615B689F4231D024
:105E30000123EB7523762DE02168207B0D320029AC
:105E400025D00621331CFEF79BFD2B6830881818DF
:105E500023680D301988FEF705FC30882B68023066
:105E600080B23080181823680D305988FEF7FAFB8D
:105E700030882B68023080B23080181823680D30CB
:105E80009988FEF7EFFB33880233338002E0331C3E
:105E9000FEF776FDA368002B24D0E369002B21D008
:105EA00033882A68581CD318062280B230805A736F
:105EB0002B681818A3680D309988FEF7D3FB30883B
:105EC0002A680230A36880B23080101819689A8856
:105ED0000D3006F06AFDA3689A883388D3183380A2
:105EE0000023E361237B032B08D0E97D002905D142
:105EF0002A6807200D32331CFEF742FD3388B02498
:105F0000191C287E2A68093989B2D074080A947449
:105F1000107551752A68053B93800923AB754EE0D7
:105F20002B4E294F2C48311C3A1CFEF705FC2868E3
:105F3000837CFF2B09D13A1C2848311CFEF7FCFB5F
:105F40007F232A7F13402B773BE0237B032B0FD14A
:105F5000837D012B35D102AB9E1D311C1730FEF71E
:105F60008DFB296860693288193106F01EFD21E039
:105F7000237E002B1ED1837D062B22D102AB991DDF
:105F80001730FEF77BFBA36802AAD288998891425A
:105F900007D21248311C3A1CFEF7CEFB812080004C
:105FA00010E029681868193106F0FFFC02AAA368FE
:105FB000D2889A800A480649034AFEF7BDFB0020B2
:105FC00000E0084805B0F0BDDCD20010A2DE0010F1
:105FD000CCD600100C060000C3DE0010F5DE001069
:105FE00024DF001002020000F8B5837D041C082B9A
:105FF00002D0092B11D04CE027482849284AFEF747
:106000009BFB0020F121227E2368DA74042299741C
:106010001875587523689A803CE0204E204D311C3D
:1060200020482A1CFEF788FB21688F7C002F09D0AE
:106030002A1C1D48311CFEF77FFB7F23227F134063
:10604000237726E0237E002B12D0D023DB00C81854
:106050000822163106F0A9FC208C002808D0D02296
:106060002368D20099180822FBF78CFA002808D17F
:106070000E480A490A4AFEF75FFB02230020E37537
:1060800008E0D0232068DB00C018391C082206F085
:1060900095FC0748F8BDC04657DF0010CCD600106D
:1060A000DCD2001073DF0010A0DF0010CADF001088
:1060B00002020000F7B5857D041C082D02D0092DD1
:1060C00063D080E041484249424AFEF735FB237ED7
:1060D000002B05D1217E1022002921D018221FE09B
:1060E000208C002808D1D0222368D2009818FEF70F
:1060F000ADFA0028EED10BE06B46D0219A1D236843
:10610000C90059181580FBF759FA0028EBD05AE05E
:106110002368314A9818FEF799FA002853D0D9E736
:106120002368F020D97400215A7519759874206875
:106130002A491630102206F038FC237E002B08D0A6
:106140002168D023081CDB002630C918082206F07D
:106150002CFC227E20681423002A00D00833838080
:10616000D0230025DB00C0180021082206F026FC01
:10617000208CA84228D0D0232168DB00C91808222F
:10618000FBF700FAA8421ED11EE0114F114E144831
:10619000391C321CFEF7D0FA23689D7C002D09D0F3
:1061A000321C1048391CFEF7C7FA7F23227F1340A8
:1061B000237708E033221B680B481A74391C321C01
:1061C000FEF7BAFA00E0094D281CFEBDF8DF00100A
:1061D000CCD60010DCD2001084060000C1E0001014
:1061E00014E0001040E0001069E00010020200001E
:1061F000CF23F0B5DB00C3588BB00493744B041C61
:10620000C718744B3A1CC318039300231178022952
:1062100001D10133DBB203990C328A42F6D13A1C28
:10622000002B0CD11178082901D10133DBB203997D
:106230000C328A42F6D1002B00D1A0E03A1C002398
:106240001178042901D10133DBB203990C328A425F
:10625000F6D1012B10D1C723DB00E2184833E11837
:1062600000231078232801D10133DBB20C328A429B
:10627000F7D1002B00D082E00498FBF7C7F9012387
:106280005B420293C623DB00E5180026FF23069637
:106290000193F3B207933A1C00231178082901D126
:1062A0000133DBB203990C328A42F6D1012B0ED1B5
:1062B000C6220B337343D200E3189B181A89464B4E
:1062C0009A4210D16B680293079B01930BE06A7AA4
:1062D000022A08D16B680593404B0599E35899420F
:1062E00055D20123069301360C35062ED1D1019BE0
:1062F000FF2B06D1069B012B41D10022374BE250E8
:10630000C0E70C23019A5343C722E318D2009A181E
:106310001278222A1AD1C622D2009B181868838AC2
:10632000002B13D103681D1C0C330835191C2B1CC2
:106330001E785A1BD2B2102E05D029490A438282F8
:1063400010221A7002E001338B42F1D10C25019B1F
:106350005D43C6236519DB00EB181A68CF2311686B
:10636000DB00C85832231F49FBF76AF9C723DB005B
:10637000ED180423029A6B70184BE25026E0FA23C2
:1063800004981949221C9B00FBF75AF91EE0059B53
:1063900002998B42A7D82B7A222B13D1211C0422DD
:1063A00009A8083106F001FB104B099A9A4204D85B
:1063B000079B0193059B029395E72B689B8A002B13
:1063C000F6D190E79343212B8DD1F1E70BB0F0BDCF
:1063D0003906000081060000230800007C0600004A
:1063E00000E1FFFFF94D0010F16100100F101010D7
:1063F000012A07D0002A03D0022A04D1C17602E084
:10640000417600E081767047F8B5161C0F1CFBF74B
:1064100043F90022131C2549254D5118695C0029B8
:1064200001D10133DBB20C32482AF4D1002B01D167
:10643000002436E00120242106F066FA041EF7D07D
:1064400033230761C660056003842B7B002B12D1C8
:106450000133291C1748CF262B73FBF70DF9F600E3
:10646000A851211C14482568FEF774F82368286099
:106470001A689B5953610D4B2168CA18002315787F
:10648000D8B2002D09D10C225343C722CB18D20019
:106490009B18012260775A7003E001330C32062BFF
:1064A000EDD1FBF7FAF8201CF8BDC0463906000014
:1064B00004290020F16100107D4A001010B5002869
:1064C0001DD0838A0468002B05D00F2200211340C1
:1064D000E318818219720C23427F01685A438A189B
:1064E000C7210024C90052185470427F53430268E8
:1064F000D3185B181C7006F03FFA201C00E001481E
:1065000010BDC0460202000070B5041C151C0E1C14
:10651000084A09480949FEF70FF9A5600025084B0C
:10652000A575E5752676201C291C6360FEF7A6FA82
:10653000281C70BDDCD2001035E10010CCD6001054
:10654000B560001070B5041C151C0E1C094A0A48E1
:106550000A49FEF7F1F80623A5600025A375084B4C
:10656000E5752676201C291C6360FEF787FA281C37
:1065700070BDC046DCD200103AD60010CCD6001058
:10658000E95F001070B5041C151C0E1C094A0A486E
:106590000A49FEF7D1F80623A5600025A375084B2C
:1065A000E5752676201C291C6360FEF767FA281C17
:1065B00070BDC046DCD20010E8E00010CCD6001060
:1065C000054E001070B5041C151C0E1C094A0A4823
:1065D0000A49FEF7B1F80623A5600025A375084B0C
:1065E000E5752676201C291C6360FEF747FA281CF7
:1065F00070BDC046DCD2001003E10010CCD6001004
:10660000694F001070B50D1C041C161C0A480B4A7B
:106610000B49FEF791F82B1F5A1E9341A6600026E6
:106620000533A375074BE6752576201C311C636086
:10663000FEF724FA301C70BD96E00010DCD200108A
:10664000CCD600107950001070B5151C041C0E1C1F
:106650000E480F490F4AFEF76FF8AB89002B04D1A3
:10666000A38A002B0FD0052300E00623A560002598
:10667000A375094B201C6360E5752676291CFEF77F
:10668000FDF9281C00E0054870BDC046ACE00010D4
:10669000CCD60010DCD20010A5510010030200007F
:1066A00070B5041C151C0E1C094A0A480A49FEF75D
:1066B00043F80623A5600025A375084BE5752676EB
:1066C000201C291C6360FEF7D9F9281C70BDC04648
:1066D000DCD200101EE10010CCD60010C552001014
:1066E00070B5151C041C0E1C10481149114AFEF708
:1066F00023F82B89002B04D1A38A002B13D0052368
:1067000004E0AB7A5A4253410622D31AA560002511
:10671000A375094B201C6360E5752676291CFEF7DE
:10672000ADF9281C00E0054870BDC04682D60010B7
:10673000CCD60010DCD2001051540010030200002F
:1067400070B5151C041C0E1C11481249124AFDF7A5
:10675000F3FF2B88002B02D1A38A002B15D0002336
:106760002676E3752A690533002A04D02A88534225
:1067700053410622D31AA375084B201CA560636001
:106780000021FEF77BF9002000E0054870BDC046FF
:1067900057D60010CCD60010DCD20010CD5500101A
:1067A0000302000070B5151C041C0E1C0C480D499A
:1067B0000D4AFDF7C1FFFF232968A56099430B4BE4
:1067C00003D105226360A27503E006220021A275B1
:1067D00063602676201CE175FEF750F9002070BD3D
:1067E000D1E00010CCD60010DCD20010A15800106F
:1067F00070B5141C051C0E1C0E480F490F4AFDF7FE
:106800009BFFA368002B05D12388002B10D1AB8AF6
:10681000002B0DD00623AC600024AB75084B281C60
:106820006B60EC752E76211CFEF728F9201C00E029
:10683000044870BD02D60010CCD60010DCD2001087
:10684000295A00100302000070B5151C041C0D4AE3
:106850000E1C0D480D49FDF76FFF6A690623002ADB
:1068600003D16B685A1E93410533A5600025A375BB
:10687000074BE5752676201C291C6360FEF7FEF8A1
:10688000281C70BDDCD2001097D60010CCD60010AA
:10689000015C0010F8B5041C161C0F1C094A0A48BC
:1068A0000A49FDF749FF002506233561A375084B0A
:1068B000A660E5752776201C291C6360FEF7DEF8CC
:1068C000281CF8BDDCD200106DD60010CCD600100C
:1068D000955D001070B5151C041C174A0E1C174856
:1068E0001749FDF729FFAA79531E012B0DD80C2358
:1068F000617F4B432168CB18C721C9005B18197809
:10690000232916D15B78042B13D12968072300298A
:1069100002D1012A00D10433A5600025A375094BDB
:10692000201C6360E5752676291CFEF7A7F8281C55
:1069300000E0054870BDC046DCD200101AD6001039
:10694000CCD60010A5570010030200008C2208B519
:106950000021520006F032F808BD08B5002803D027
:106960008C21490001F07EF908BD0000F7B5C02A6E
:1069700008D080235B009A4206D0F63B802A00D0E4
:10698000C5E002E00C2300E00E230360031C002698
:106990000833520943600192019A964210D0B70021
:1069A000CD196C7801362402A4466246AC78ED78A5
:1069B00024041443CA5D2D0614432C43DC51EBE739
:1069C00002680C2A2DD00E2A5AD00A2A00D0A1E043
:1069D0000024514918686158DA684140FF204F4F40
:1069E000150A05407E5D150E71407E5D0434360447
:1069F00071400D1C111C0140795C09066940150CA1
:106A00002840385C0002414058681961414098684C
:106A1000596141404A409961DA611033282CD8D13C
:106A200078E000243C49186861585A694140FF20C9
:106A30003A4F150A05407E5D150E71407E5D0434A7
:106A4000360471400D1C111C0140795C0906694037
:106A5000150C2840385C000241405868996141405B
:106A60009868D9614140D8681962414018695962F3
:106A700041404A409962DA621833202CD2D149E071
:106A80000026FF20244ADD691968B258234C4A4089
:106A9000290A0140675C290E7A40675C04363F048E
:106AA0007A40111C2A1C0240A25C12064A40290CA2
:106AB0000140615C09024A4059681A624A4099687B
:106AC0005A624A40D9689A624A40111C0140675C88
:106AD0001969DA624F40110E615C09067940170AA4
