:020000041000EA
:1000000000200008EB0000100D0000004D01001062
:1000100000000000000000000000000000000000E0
:100020000000000000000000000000004901001076
:10003000000000000000000049010010490100100C
:100040004901001049010010490100104901001048
:100050004901001049010010490100104901001038
:100060004901001049010010490100104901001028
:100070004901001049010010490100104901001018
:1000800010B5064C2378002B07D1054B002B02D06E
:10009000044800E000BF0123237010BDB003000836
:1000A000000000000C150010044B10B5002B03D00D
:1000B0000349044800E000BF10BDC0460000000036
:1000C000B40300080C1500100230800803D0013082
:1000D0000238FCD1C046C0467047EFF3108072B6BC
:1000E000704780F3108870477047FFF7FDFF72B6C6
:1000F0000F4C104DAC4209DA21686268A368043BDA
:1001000002DBC858D050FAE70C34F3E70A490B4A2F
:100110000020521A02DD043A8850FCDC08480949E4
:100120000860BFF34F8F00F0F9FE00F0A9FEFEE774
:100130001815001030150010B0030008C80500089D
:100140000000000808ED00E0FEE7FEE700B504202F
:100150007146084202D0EFF3098002E0EFF3088015
:10016000043000F08DFCFEE7014B18607047C0467C
:10017000C4050008044B1B681A00BA3212881B6AB7
:100180005043C0187047C046C40500081D4B984234
:100190000FD010D840282FD005D8002830D01028F4
:1001A00028D019481EE0802828D080235B00984280
:1001B000F7D1144816E0154B984214D008D8A02364
:1001C0001B0698421CD0124B9842EAD1A0200BE0AB
:1001D000104B98420AD0104B984209D00F4B9842CE
:1001E000DFD10F487047A420C003FBE70D48F9E7B3
:1001F0000D48F7E70D48F5E70D48F3E70D48F1E73F
:100200000020EFE706005200FF005200010000F05E
:10021000090000A0040000F0050000F0030000F059
:100220000100520002005200030052000100500081
:10023000020050000500520010B50020FFF79AFFA1
:100240000A4B1C682300BC331B68C0180368002BD2
:100250000ADB074B1868FFF799FF012263689A6071
:100260009A68002AFCD110BD0248FCE7C4050008CA
:10027000CC03000802005000064B1B68BC331B680F
:10028000C3181B68002B03DA89B241600020704755
:100290000148FCE7C405000801008A000368002B40
:1002A00004DA89B2C2608160002070470048FCE730
:1002B00001008A00064B1B68BC331B68C3181B680F
:1002C000002B03DAC36800200B6070470148FCE78D
:1002D000C405000801008A00024B1A68002A00D1F8
:1002E00018607047E0030008F0B52C246043154CFB
:1002F0001F0024681D0A2018FF2425402740124CA7
:100300001B0C26680760346A45608360BA363688FD
:1003100077433F1907612F0080376D017F01E7198F
:1003200064190A4D47611F043B436419236000238D
:100330008361059BC2610162002B01D01B88838110
:10034000F0BDC046E0030008C40500080810000026
:10035000F0B5836885B002AD2B800368066A173359
:100360006B804368476A0095826AC16A0400039300
:100370000369C068FFF7B8FF00213B000A00009145
:100380003000FFF7B1FF216B280000F02DFB0022A9
:10039000AB5E002B06DB1F2213401E3A9A4013006F
:1003A000014A136005B0F0BD00E100E0F7B52C256F
:1003B000134C684326686943341825690193711802
:1003C000002D19D08869002818D12E68002E15DA62
:1003D0006768012426004B689E40B44613689EB2AD
:1003E00063461B041E431660EA608C61BC40019B9F
:1003F000A4B24B62AC60FEBD0248FCE70248FAE7DB
:10040000E003000804028A0007028A0073B5002690
:1004100042690400D56801962B0CB34221D01B041D
:1004200013601368194B00691B68BC331B68C31841
:100430001B68B34215DA01A9FFF73CFFB0420CD1AB
:100440000198E26903681E0CDBB29A4205D9226A60
:100450009B009B58002B00D0984731002069FFF784
:100460000BFFADB2002D09D063691D6000251B682C
:10047000636AAB4205D098476562A56163691B68F2
:1004800073BDA36A002BF8D09847F6E7C4050008AF
:100490002C2310B54343034A1068C018FFF7B6FF7A
:1004A00010BDC046E0030008F8B5194B0F001B68EB
:1004B0001A0033321278824227D9002925D01F250D
:1004C0000A68154021D11900BA310C88114E6043D9
:1004D0001C6AD208041929007868346000F07EFF95
:1004E00029002000FFF7C8FE3A0029003068FFF716
:1004F000D5FE041E07D101003068FFF7BDFE0300E2
:100500002000002B00D00448F8BD0448FCE7C0469A
:10051000C4050008E403000801018A0003018A0001
:1005200010B5002A0DD1002914D10B4B1A68130005
:10053000BA331B885843136AC018084B1860080068
:1005400010BD002906D0064B196019005A60FFF74C
:10055000ABFFF5E70348F3E7C4050008E403000830
:100560007803000803018A00F7B5184F04003B68C0
:100570000191DE683368834226D90025A94202D161
:10058000FFF7ABFD050038680368002B1ADA1F225D
:1005900001232240934064097268A4001419226860
:1005A00013420DD09A43226000240021FFF764FE1D
:1005B000019B002B02D12800FFF793FD2000FEBD18
:1005C000034CF2E7034CF3E7034CF7E7E4030008BE
:1005D000020188000301880004018A000A4B1B689D
:1005E000DB681A6882420DD959681F2342091840F6
:1005F0001E3B8340920050581840431E9841034BC5
:10060000C01870470248FCE7E403000800018800B6
:1006100004018A00054B1B681A0088321B681268A7
:100620009B181868000AC0B27047C046C40500088D
:10063000044B1B681A0088321B6812689B181868E4
:10064000000E7047C4050008024B18694007C00F30
:100650007047C04600002740A6220549D2008B58AB
:100660000220DB439B0702D00123885818407047C3
:100670000000264010B5FFF7EFFF0023022801D14C
:10068000014B1B68180010BDEC030008094A8300E9
:100690009B18D0229200985807221040042807D1B6
:1006A000C022920098581F23034080204000184326
:1006B0007047C0460000264010B5FFF7E7FF02284C
:1006C0001CD005D8002824D0012814D0002014E024
:1006D0001223FF33984214D01423FF33984215D0CD
:1006E000033B9842F2D10C4A0C4BD358002BEDDA65
:1006F0008020000201E00A4B186810BDFFF7BAFF26
:10070000FBE7FFF7A1FF0028E0D0F1E7024A054B25
:10071000EBE70548F1E7C046000026400C05000065
:10072000E80300083C05000000127A00B023154AD7
:10073000DB00D35810B59903DB01DB0F890BC371C4
:10074000114B0160D3580F24D904DB01DB0D038169
:10075000B123DB00D358C90C81801900214081727C
:1007600019092140C172D9029B009B0F8373074B6B
:10077000C90CD35881815A05DB01520FDB0D827100
:10078000038210BD00002640840500008C05000097
:1007900010B5104B421E1B683F331B78934216D98D
:1007A0007F221F248030FF300B4B8000C3581A403B
:1007B0000A701A0C2240180A8A701A012040E2407E
:1007C000487000209B009B0FCA700B7110BD03483E
:1007D000FCE7C046C40500080000264001004A00AE
:1007E000F0B589B003AC14220021200000F0F6FD22
:1007F0002000FFF79BFFB0231A4ADB00D2580023EA
:100800009A4203DAA37B023B5A1E9341E579002604
:100810006A1E95410135B34221D0A488B4421ED04E
:10082000039B30000193FFF747FF2A0033000700C6
:100830003100200000F0BCFC0C0005003300019AE0
:100840003100380000F0B4FCE6076A083243630860
:10085000801859412A00230000F08AFC060030006D
:1008600009B0F0BD00002640F0B50026244B85B04D
:100870001B6807003F331B78B3423ED0B0423CD0E8
:1008800083423AD30522310002A800F0A7FD02A955
:100890003800FFF77DFF3B008033FF33194A9B0090
:1008A0009B58B34229DA02AB1B79022B25D002AB4D
:1008B0005C78B44221D09D78B5421ED01B783800B8
:1008C0000193FFF7F9FE2A003300070031002000F2
:1008D00000F06EFC0C0005003300019A3100380076
:1008E00000F066FCE6076A08324363088018594145
:1008F0002A00230000F03CFC0600300005B0F0BDEB
:10090000C40500080000264010B5041E04D1FFF7FE
:1009100067FF002806D008E0064B1B683F331B78B2
:10092000834203D22000FFF7C7FE10BDFFF79CFFF4
:10093000EFE7C046C4050008E02210B50124094BCA
:1009400080009200C018835880589B069B0F9C40E3
:100950000F231840FFF7D8FF63081818210000F094
:100960007BFB10BD00002640144B30B51A680724ED
:1009700013002C331B781F2B15D883081D00A543AB
:100980002C1E0FD103342040A040814012689B00F0
:100990002032D3180A00FF2181401C6862401140B8
:1009A0006140196030BD802320401B06184380231E
:1009B0009B011268C91889008850F3E7C405000834
:1009C000064B9A680300064810339B00824202D10E
:1009D000985899507047034AD058FBE700ED00E063
:1009E0000000000800000010F8B506000D00002807
:1009F0003AD00023C05E002828DB7188FFF7B4FFDF
:100A00000024FF22032794460023F05E716883B21E
:100A10001F40FF006646BA4089013140D243B940C9
:100A2000002815DB114E83089B009B19C026B600D9
:100A30009F593A40114399510D4B9A680D4B9A4278
:100A400002D12900FFF7BCFF2000F8BD0A4CD8E70F
:100A50000F263340083B064E9B089B009B19DE691E
:100A600032401143D961E7E7034CEDE700E100E0D4
:100A700000ED00E00000000801005600FEE7000065
:100A800002680A4B10B51A6042685A6082689A6020
:100A9000C268DA6002691A6142695A6182699A61C0
:100AA000C269DA61FFF7EAFF10BDC0469003000893
:100AB000B0235B055A782120002A01D05878C0B2B3
:100AC0007047B0235B059A89002A02D0988980B2CA
:100AD000704780204000FBE77FB5274B86000D0064
:100AE000F458042901D0012927D100200FE0A36880
:100AF0002B420BD1E36829001A685B6802920193CC
:100B0000039302A8236898471C4B1C606469002C5F
:100B10000BD01B4B9842EAD1012DE8D1174B184856
:100B20001A68184B9A5104B070BD012DFBD1144BBB
:100B30009842F3D0134B9C51F5E7022906D10F4B95
:100B40001B68181EEFD01C6903E01C006369002BB2
:100B5000FBD10020002CE6D0A3682B4209D1E3682A
:100B600029001A685B6802920193039302A8236824
:100B700098472469EEE7C046300400082C040008BA
:100B8000FF004200180400081A4B1B681900883146
:100B90001A68096851180968016219008C310968DE
:100BA0005218126842621A0046321278002A1FD088
:100BB0009A68E0321268D2061AD5F222DB68D201B6
:100BC0009A580260F022D2019A5842600A4A9A5812
:100BD00082600A4A9A58C260094A9A580261094AD0
:100BE0009A584261084A9A588261084A9B58C361E0
:100BF0007047C046C405000804780000087800006B
:100C00000C780000107800001478000018780000BC
:100C10001A4B1B681A008832196812688A18016A10
:100C200011601A008C32196812688A18416A1160C2
:100C30001A0046321278002A1ED09A68E0321268F2
:100C4000D20619D5F0224168DB68D201995081683B
:100C50000B4A9950C1680B4A995001690A4A995048
:100C600041690A4A99508169094A9950C169094AFA
:100C700099500168E83299507047C046C405000891
:100C800004780000087800000C780000107800005C
:100C90001478000018780000F7B50700FFF708FF88
:100CA000664D06006B68002B00D07DE0FFF715FA5B
:100CB0006B680090002B00D089E0614C2268130023
:100CC000BA33198807234B43126A9B181A68002A03
:100CD000FCDADB68DA0021D51B0F1B0759480193AA
:100CE000FFF752FF5849212E00D075E0226890206E
:100CF000130088331C68136800011C1923680B401B
:100D00000343236013008C3312681B68D3181A68DE
:100D10001140084318604B4B019A13438022484E00
:100D20009205316813430A00BA3210880722002462
:100D30004243096A5218D36054605368FFF7C1FEFA
:100D400080235B0098425DD1380000F05DFB326883
:100D50001300BA33198807234B43126A9B181A6889
:100D6000002AFCDADF68FB0003D538010009FFF731
:100D70004FFF364B32681F401300BA3319880723E0
:100D80004B43126A00989B180022DF605A60FFF7FD
:100D9000A8F9002C0FD16B68002B03D0082101208B
:100DA000FFF79AFE2000FEBD01210800FFF794FE28
:100DB000041E00D17AE76B68002B03D002210120CA
:100DC000FFF78AFE224B9C42ECD0224CEAE704213A
:100DD0000120FFF781FE70E720688022030088333E
:100DE0001C68036852001C1923680B4013432360DE
:100DF00003008C3300681B68C318186801400A435D
:100E00001A6088E733681A00BC32196A12685218EF
:100E10001168002910DBBA331B889A181368002B5D
:100E20000ADB04230C4A11690B431361012F01D023
:100E300030BF8CE720BF8AE7054C88E73004000804
:100E4000C4050008F0030008FF00FFFFFFFFFFDFFD
:100E500005004200FF00420000ED00E0C0228020BB
:100E6000064952008B58C0059B009B0803438B50DA
:100E7000802388581B0603438B5070470000264090
:100E800010B562B6034800F0C1F80020FFF704FF78
:100E9000FBE7C0460020001010B50020FFF7F8FA6D
:100EA00010BD704710B50020FFF746FD041E25D089
:100EB000134B1860FFF7BCFB411C200000F0CCF87E
:100EC000104B04001860FFF7A5FB411C200000F048
:100ED000C3F80D4B441E18600C49200000F0BCF80C
:100EE000FA210B4B013018708900200000F0B4F893
:100EF000084B01301860084BC003186010BDC04695
:100F000084000008880000088000000840420F00AC
:100F100094000008900000088C00000810B52048DC
:100F2000FFF722F9B022E02130201E4CD200A35856
:100F300089005B005B08A3506358834363508023A0
:100F40005B04A350184B194AE250A02204339201CB
:100F5000E250FF22164BE250FFF780FFC022012132
:100F60005200A3588B43A350FFF79BFFFFF79AFF54
:100F7000104B03201A681300BA33198807234B4318
:100F8000126A80219B180022DA605A600A4AFFF731
:100F9000C7FA0A48FFF7A0F90948FFF7D9F910BDC9
:100FA0001814001000002640840500000100020013
:100FB0008C050000C40500088003000844040008F4
:100FC000D81400109023034A5B01D0580323184023
:100FD0007047C0460000204010B59024FFF77DF810
:100FE000074B64011A5907491140074A0A431A512D
:100FF000102259681142FCD0FFF773F810BDC046AB
:1010000000002040FCFF00000100FA05F8B5902523
:101010000E4C6D010700FFF760F863590600DB43D3
:101020009B0701D1FFF7D8FF80239B00E75063594E
:10103000074A1A40074B13436351102362681A4250
:10104000FCD03000FFF74DF8F8BDC046000020404E
:10105000FCFF00000300FA05002243088B4274D312
:1010600003098B425FD3030A8B4244D3030B8B42A9
:1010700028D3030C8B420DD3FF22090212BA030CB2
:101080008B4202D31212090265D0030B8B4219D393
:1010900000E0090AC30B8B4201D3CB03C01A5241B3
:1010A000830B8B4201D38B03C01A5241430B8B42FB
:1010B00001D34B03C01A5241030B8B4201D30B03E4
:1010C000C01A5241C30A8B4201D3CB02C01A52410B
:1010D000830A8B4201D38B02C01A5241430A8B42CE
:1010E00001D34B02C01A5241030A8B4201D30B02B7
:1010F000C01A5241CDD2C3098B4201D3CB01C01AD1
:10110000524183098B4201D38B01C01A52414309DA
:101110008B4201D34B01C01A524103098B4201D3C8
:101120000B01C01A5241C3088B4201D3CB00C01A35
:10113000524183088B4201D38B00C01A52414308AD
:101140008B4201D34B00C01A5241411A00D20146D2
:10115000524110467047FFE701B5002000F006F845
:1011600002BDC0460029F7D076E770477047C046F9
:10117000002B11D1002A0FD1002900D1002802D064
:101180000021C943081C07B4024802A1401802907C
:1011900003BDC046D9FFFFFF03B4684601B50298FE
:1011A00000F030F8019B9E4602B00CBC7047C04670
:1011B000F0B5CE46474615042D0C2E0080B5070429
:1011C000140C3F0C9946030C7E435D436743634315
:1011D0007F19340CE4199C46A54203D980235B0295
:1011E0009846C4444B4643435143250C360465445A
:1011F000360C2404A4195B19591820000CBC904625
:101200009946F0BDF0B54F464646D646C0B50400F7
:1012100082B00D00914698468B422FD82CD0414683
:10122000484600F0CFF829000600200000F0CAF878
:10123000331A9C46203B9A4600D576E04B465246F0
:1012400093401F004B46624693401E00AF4228D891
:1012500025D05346A41BBD41002B00DA7BE00022C1
:1012600000230092019301235246934001930123EE
:1012700062469340009318E08242D0D900220023B6
:10128000009201930A9B002B01D01C605D600098C6
:10129000019902B01CBC90469946A246F0BDA342FB
:1012A000D7D900220023009201936346002BE9D096
:1012B000FB079846414672080A437B0866460EE0E3
:1012C000AB4201D1A2420CD8A41A9D41012024199D
:1012D0006D410021013E24184D41002E06D0AB4245
:1012E000EED9013E24196D41002EF8D100980199E4
:1012F000534600196941002B23DB2B005246D34093
:101300002A006446E2401C0053461500002B2DDBEA
:1013100026005746BE40330026006746BE403200D6
:10132000801A994100900191ACE7624620239B1AF4
:101330004A46DA406146130042468A4017001F437E
:1013400080E7624620239B1A2A0066469A402300C3
:10135000F3401343D4E76246202300219B1A002266
:10136000009101920122DA40019280E72023624637
:1013700026009B1ADE402F00B0466646B740464620
:101380003B003343C8E7C0461C2101231B0498429D
:1013900001D3000C10391B0A984201D3000A083906
:1013A0001B09984201D30009043902A2105C4018BD
:1013B0007047C04604030202010101010000000061
:1013C0000000000010B5002903D1FFF7DDFF203039
:1013D00002E0081CFFF7D8FF10BDC046030012183A
:1013E000934200D1704719700133F9E7F8B5C04650
:1013F000F8BC08BC9E467047F8B5C046F8BC08BCAF
:101400009E4670470000000001B40248844601BCBB
:10141000604700BF61020008000020400000244037
:1014200000000040000000000000234000003040A9
:101430000000314000009F400000224000001040AA
:1014400000009D402020202020101010101D1D8025
:1014500017007500FF030602060036041020000086
:101460007FC0000000040000000000000019324BA3
:10147000647D0000000000804000080B10000000A8
:101480000000FF012002001F00800004FF08101868
:10149000001000140018001C4044484C500000008C
:1014A0000810000008000000040000000410000004
:1014B00000120000042100000021000000160000BE
:1014C00040114002C41300138013A013401388136B
:1014D000A81320001C000000030000000100000011
:1014E000010000000000000005036000040000008F
:1014F0000100000000000000010000000604600080
:1015000008000000A4050008990E0010000000006B
:10151000F4FCFF7F01000000000000100000000844
:10152000800000003815001080000008F80200005C
:10153000B00300081802000000093D0000127A0004
:1015400000093D000000D007A00F000004000000CB
:10155000A90000108100001080B230B5C00020D07A
:10156000104B07221C682300BA331B885A43236A96
:10157000D31819680029FCDA3E210B4B06251960A7
:101580000A4B0B491960A3210A4BC9005D500A4957
:1015900058505858206A1218002050605A58002A93
:1015A000FCDA30BDC40500080401264008012640CD
:1015B0001E1F0000000026401C05000010B54378E7
:1015C000FF2B11D100F01CF90400032000F008F9F2
:1015D000C3685A68012311681943116011681942E0
:1015E000FCD1200000F0DCF810BDF7B50090002021
:1015F000019100F0F5F83F4D06002B681A005033BA
:10160000BC3214681B780419002B5AD000F0F0F893
:10161000070003281BD000F0F3F8374A374B0500CA
:10162000D358002B3EDA364A0121300000F0F0F8A2
:10163000002837D10198FFF78FFF009B002B3ED089
:101640002368002BFCDB00F0BBF804002BE0062035
:1016500000F0C6F82B68BC331B68C0180368002B69
:1016600002DA284C2000FEBD002000F0A1F8264B35
:101670009842F6D00023254A19001268012000F094
:10168000A7F80025A842ECD1002000F091F81E4AEE
:101690001F4B904203D09D42E3D00135F4E79D42B9
:1016A000B9D1DEE7174C032F05D10121002000F04E
:1016B000B7F80028F9D1280000F072F8D2E7154CED
:1016C000F1E700F09DF80E4A05000121300000F01E
:1016D0009FF8002809D1009B002B08D02368002B1D
:1016E000FCDB00F06DF80400E5E7064CE3E7094C8D
:1016F000E1E7C046C4050008000026401C050000C4
:10170000CC0300080500520001018800DC0300083A
:10171000F049020001005000184BF7B51B68184A49
:101720005C68042311690B431361012824D030BF86
:101730002300FC331B69002B1DD1A320114B124940
:10174000124AC0000F681E5815680195104D0D60B3
:1017500006251D503E2010600E483E351D501D5878
:10176000002DFCDA0C48FC3420610F60A321C90075
:101770005E50019B1360F7BD20BFD9E7C405000888
:1017800000ED00E00000264008012640040126404C
:101790001E1F00001C050000AAAAAAAA0000000043
:1017A00001B40248844601BC604700BFE30000105A
:1017B00001B40248844601BC604700BFDD0500104B
:1017C00001B40248844601BC604700BF39020010E2
:1017D00001B40248844601BC604700BFAD0300105D
:1017E00001B40248844601BC604700BF7501001087
:1017F00001B40248844601BC604700BFC50F001019
:1018000001B40248844601BC604700BFDB00001001
:1018100001B40248844601BC604700BF9D0200102D
:1018200001B40248844601BC604700BF690500104E
:1018300000000000000000000000000000000000A8
:081840000000000000000000A0
:1020000000F80F08559104100D000000C99104104C
:10201000C9910410C9910410C99104100000000076
:1020200000000000000000000000000071690410C2
:10203000C591041000000000116A04101969041011
:10204000C5910410C5910410C5910410C5910410E8
:10205000C5910410C5910410C5910410C5910410D8
:10206000C5910410C5910410C5910410C5910410C8
:10207000C5910410C5910410C5910410C5910410B8
:1022E0000348044B834202D0034B03B118477047A5
:1022F0006831000868310008000000000548064BFE
:102300001B1AD90F01EBA301491002D0034B03B1F3
:102310001847704768310008683100080000000065
:1023200010B5064C237843B9FFF7DAFF044B13B11D
:102330000448AFF300800123237010BD0832000869
:10234000000000006834161008B5054B1BB10549A4
:102350000548AFF30080BDE80840FFF7CFBF00BFDE
:10236000000000000C3200086834161008B503465F
:102370000A4677280AD8C10806480068806900EB39
:10238000C11003F0070130F0ABFC08BD014909683A
:102390008869F6E7A84E020810B50C460022002313
:1023A000C0E9002300238360C360016103756423D7
:1023B0004375012306221946E0B22AF07DFE00B9DA
:1023C00010BD21460148B6F0ABFBF9E7C0B90B10D0
:1023D00038B504460D46037D8B4204D0007C21B104
:1023E0000021FFF7C3FF257538BD0121F9E7000083
:1023F00008B50022C26082609FED037B80ED007B08
:10240000FFF7E6FF08BD00BF00000000000000006D
:1024100083681BB370B582B00446C36893B1104B98
:1024200019680B68DB6868469847009E019D217D0E
:1024300051B1A068236862681B1842F10002B342E0
:10244000AA4103D302B070BDE068F3E781F0010157
:102450002046FFF7BDFF26606560F3E7704700BFC9
:10246000A82A000808B58160C260FFF7D1FF08BD47
:1024700008B50A46FFF7F6FF08BD08B543F084FC2F
:102480004FF4E1322821292038F0D2FF08BD002086
:1024900070477047704770472D2070472D20704758
:1024A0000020704770476C20704701207047000083
:1024B000024A0260024A0260704700BFF8601510CD
:1024C000D0C00B10044A0260044A0260044A026051
:1024D000044A0260704700BF28B0151070C00B108E
:1024E00018C00B10DCBF0B1008B5034A02211D20D9
:1024F00070F006FB08BD00BFE0B90B1008B5034A39
:1025000002211D2070F0FCFA08BD00BFF0B90B10CD
:1025100010B50C4658B101280DD014B9084B012252
:102520005A71322211460748FFF79CFF10BD06483A
:102530007DF014FDF1E705487DF010FDEDE700BFEB
:10254000F8320008F043000800BA0B1020BA0B1054
:1025500010B50446038843B1022B05D10279816886
:10256000124801F0C1F8E0B110BD4279104911489C
:102570007DF0F4FC6379022B06D00C4801F067F87B
:1025800060B100210A46EBE70B487DF0E7FC4DF017
:10259000F5FC0022012150F02FF9E5E7002101228E
:1025A000DEE706487DF0DAFCDEE700BF0047000802
:1025B00044BA0B105CBA0B106CBA0B1088BA0B1033
:1025C00008B50388012B06D1074B1B791BB1064BBD
:1025D0001B68012B00D008BD034B00221A60034882
:1025E0008EF0DEFFF7E700BFF83200087815030829
:1025F00010B586B0104801F02AF8A0B102244DF0C1
:10260000BDFC00238DF808308DF80C3003AA019230
:1026100002AA00922246012151F010F928B10021AE
:1026200029B906B010BD0124E9E70121F8E7034804
:102630007DF094FCF5E700BF00470008B4BA0B102A
:1026400010B50446104B036003F13402026103F13C
:102650005402026203F16802426203F17C02826268
:102660009033C362443062F087FD084BE362084B4D
:10267000A362084B6362084B2362084B2361084B3B
:102680002360204610BD00BFB84A1510BCC00B1017
:102690005CC00B1004C00B10C8BF0B108CBF0B101C
:1026A000ACBF0B10A0F11000CAE7A0F12000C7E7F3
:1026B000A0F12400C4E7A0F12800C1E7A0F12C009C
:1026C000BEE700BF08B5114B1B68BFF35B8F13F06B
:1026D000010F01D00E4808BD0C4843F013FB002841
:1026E000F8D00B4800234360836041F2A4528281FA
:1026F00041F2AE52C28103610375064A0649B5F044
:102700000FF8024843F024FBE4E700BFB846000896
:10271000BC460008E02200089724001008B50A888B
:1027200048F202039A4200D008BD91F90830012B0B
:1027300003D091F90930012BF6D1FFF7C3FF8DF0DB
:1027400079FEF1E708B50A4601460020FFF7E6FFEB
:1027500008BD38B543680BB1032038BD04460D46AB
:1027600003689B6A984765600020F6E743680BB1F1
:10277000032070470023037243744160C3600374F5
:1027800018467047F0B482B001258DF80050ADF8BE
:102790000210224C04600571C1803126866000243D
:1027A000C4608DF80450ADF806101D4F0761057523
:1027B000C1828661C4611B4901621B4941621B4998
:1027C00081621B49C1621B49016001F13406066147
:1027D00001F15406066201F16806466201F17C06C9
:1027E00086629031C1620563426382634FF0FF31BC
:1027F000C16344648464A0F84C400465446580F877
:10280000584080F85C4080F8844080F8A54080F80B
:10281000A8400264C46302B0F0BC7047ACBF0B10A8
:102820008CBF0B10C8BF0B1004C00B105CC00B108A
:10283000BCC00B10B84A151008B5154B1B68BFF388
:102840005B8F13F0010F01D0124808BD104843F010
:1028500059FA0028F8D00F480F4B03600F4B036064
:102860000F4B03600F4B0360002380F8243080F887
:10287000653080F8863080F8C730C0F8D0300A4A1A
:102880000A49B4F04DFF024843F062FADCE700BFAA
:10289000DC450008E0450008DCBF0B1018C00B1039
:1028A00070C00B1028B01510E0220008C5240010DD
:1028B000012800D070474FF6FF739942FAD170B5E6
:1028C00084B01C4B00200021C3E9000100249C605F
:1028D000DC601C611C755C75174BC3E900019C60D2
:1028E000DC601C611C755C75144D2A461449154842
:1028F000B4F016FFFFF7A0FF0246134E2146304604
:10290000FFF740FF2A4611493046B4F009FF104E48
:1029100003940294019400940E4B0F4A0121304617
:1029200055F00CF82A460D493046B4F0F9FE04B0D3
:1029300070BD00BFE0440008F0430008E02200083A
:10294000B124001020230008403200084126001066
:1029500024320008FD240010E924001079790510C4
:1029600010B50446044B0360044B03600821B4F027
:10297000DCFE204610BD00BFF8601510D0C00B1063
:1029800008B5024855F0B8FB08BD00BF403200084A
:1029900000B585B0002210210A2004F02BF8114B5D
:1029A000186098B1104B0293104B019301230093D0
:1029B00000234FF480620E490E4804F0ABFE0E4B2C
:1029C000186058B1002005B05DF804FB0B487DF09D
:1029D000C5FA40F2017001F059FCE3E740F20270E1
:1029E000F1E700BFD045000800330008E8330008D5
:1029F000F4BA0B10952E0010D4450008D0BA0B1075
:102A000010B588B0FFF7BCFF012170487DF0A6FA31
:102A100000248DF8084002A901204AF0D1FA8DF86F
:102A200007404DF0ABFA0DF1070201214EF09EF97F
:102A3000002800F08A800023ADF804304DF09EFAA3
:102A400001AA01214DF05CFD002800F088800023E0
:102A50008DF803304DF092FA0DF1030201214EF092
:102A6000D7F8002800F0858000238DF802304DF063
:102A700085FA0DF1020201214EF00CF9002800F058
:102A8000828000238DF801304DF078FA0DF10102BB
:102A900001214EF077F900287FD09DF808308DF89D
:102AA0000C301BB19DF809308DF80D3004AB0022BD
:102AB0000492ADF81420BDF80420ADF810209DF864
:102AC00007208DF812209DF803208DF813209DF823
:102AD00002208DF814209DF801208DF8152093E830
:102AE00003000690ADF81C1008AB13E90C0003A915
:102AF000374800F087FC0446002858D1354A36494B
:102B0000334800F0A1FD0D213448FFF745FC592161
:102B10003348FFF741FC9DF80830002B4ED09DF85C
:102B20000930022B4CD001212D48FFF761FC7BF0CE
:102B30000FF803689B6F9847254800F00DFD4FF094
:102B400002008DF047FE08B010BD0123254A19464A
:102B50001D206FF0D5FF05238DF807306BE70123AB
:102B6000214A19461D206FF0CBFF0A23ADF804302F
:102B70006DE701231D4A19461D206FF0C1FF0A238E
:102B80008DF8033070E70123194A19461D206FF0B4
:102B9000B7FF0A238DF8023073E70123154A19465F
:102BA0001D206FF0ADFF0A238DF8013075E7124844
:102BB0007DF0D4F9204601F069FB9FE7B6F028FECE
:102BC00000210748FFF714FCB1E700BFF8BA0B106B
:102BD00000470008A92F001011250010E04400084C
:102BE000F043000818BB0B1090BB0B10FCBB0B1084
:102BF00074BC0B10ECBC0B1064BD0B1010B582B094
:102C0000044600F057FB104B00932346002201219D
:102C10000E4805F063FE0E4B186060B10D4C0022AB
:102C20000D4920467EF0F8FB00220C4920467EF03C
:102C30007FFC02B010BD0A487DF090F940F20470AC
:102C400001F024FBEAE700BF552E00107CBD0B10FD
:102C5000D8450008A0090308452700102D310010B1
:102C600084BD0B1010B582B00446002200921346BA
:102C700003210848006805F04DFE18B100232371B8
:102C800002B010BD04487DF069F940F2067001F011
:102C9000FDFAF3E7D8450008A0BD0B1030B583B0AE
:102CA00004460D46114B186805F0C1FF70B9642346
:102CB000009300232A4604210C48006805F02AFEF0
:102CC00001280AD10123237103B030BD08487DF0EB
:102CD00045F92046FFF7C6FFE9E706487DF03EF9D3
:102CE00040F2057001F0D2FAECE700BFD8450008C9
:102CF000B8BD0B10D4BD0B1038B50379012B0CD126
:102D0000437953B91F4B1B7913B91E4A12682AB174
:102D10001BB11C4B1B68012B21D038BD05211A4863
:102D20007DF01CF9174C41F288312046FFF7B6FFC1
:102D300001232360154D00212846FFF759FB144C51
:102D400000212046FFF754FB4FF4FA712846FFF7A5
:102D50008FFB4FF4FA712046FFF78AFBDDE70D4841
:102D600000F075FC80F00101C9B20948FFF740FB93
:102D7000044C2046FFF776FF0023236006487DF0D1
:102D8000EDF8CAE7F8320008F0BD0B10E044000887
:102D9000F04300080047000834BE0B1000B583B0B4
:102DA000154B1B6823B3EFF3058343B90122124887
:102DB000006803F088FEB8B103B05DF804FB00239F
:102DC000019301AA0C48006803F078FF019B002BD7
:102DD000F1D04FF0E0234FF08052C3F8042DBFF341
:102DE0004F8FBFF36F8FE6E704487DF0B7F8E3E756
:102DF00003487DF0B3F8DFE7D045000854BE0B1060
:102E000084BE0B1001291ED800B585B000230093A5
:102E10000193029303938DF804108DF8052021B1DE
:102E2000012909D005B05DF804FB074B03936946FF
:102E30000648FFF7B3FFF5E7054B039369460348E0
:102E4000FFF7ACFFEEE7704751250010F83200089D
:102E5000F92C001000B585B00123ADF800300190C9
:102E6000044B039369460448FFF798FF05B05DF8EB
:102E700004FB00BFC1250010F832000808B5CB687C
:102E800013B10846984708BD01487DF067F8FAE796
:102E9000ACBE0B1010B584B03248FFF7AFFE32481D
:102EA0007DF05CF831E069462E48FFF7E7FF35E03A
:102EB0002E4C20467BF07AFE2D4B1870637E042B3F
:102EC00014BF002301232B4A137020467BF076FEAB
:102ED000294B187020467BF007FE003818BF0120F0
:102EE000264B187026487EF001FB1CE0234B1B7814
:102EF000002B2FD0642211462248FFF7B3FA214855
:102F0000FFF786FA2048FFF783FA4FF0FF32694651
:102F10001E4B186803F0A9FF0128C4D018487EF0A2
:102F2000DBFA0028C4D10F4B1B68012BE7D0104BF4
:102F30001B78002BDAD0104B1B78002BD6D00D4B12
:102F40001B78002BD2D1322240F2B6310D48FFF768
:102F500089FAD4E740F2B63232210A48FFF782FA02
:102F6000CDE700BFF8320008DCBE0B1040030308B9
:102F7000EA430008E9430008EB430008E84300087F
:102F8000A0090308E0440008F0430008D045000809
:102F900008B50022024903487EF0CAFA08BD00BF06
:102FA000F1250010A009030810B528B101280BD0A5
:102FB0000D4B5B7983B910BD0C487CF0CFFF01212C
:102FC0000B48FFF715FAF3E70A487CF0C7FF00212A
:102FD0000748FFF70DFAEBE7034C2046FFF7D8FF51
:102FE00000236371E7E700BFF8320008F0BE0B1062
:102FF000F043000810BF0B1008B50248B5F090FD73
:1030000008BD00BF34BF0B1010B50446FFF718FB16
:10301000B8212046B4F089FB204610BDA0F1100075
:10302000F2E7A0F12000EFE7A0F12400ECE7A0F127
:103030002800E9E7A0F12C00E6E7000010B50446FF
:10304000064B0360064B0360064B0360064B0360B0
:10305000D821B4F06AFB204610BD00BF28B015107F
:1030600070C00B1018C00B10DCBF0B1008B54FF66A
:10307000FF710120FFF71CFC08BD000038B50446B5
:10308000C3688BB1636BA3B1A36BDBB11E4B23622F
:103090001E4DE168284686F00BF9236A2B6128460D
:1030A00083F0B1F8B8B138BD194B1A4A5A60C36001
:1030B000E8E7E1681848FFF759FB0028F3D1164B01
:1030C0006363E1E7E1681548FFF743FB0028EAD1B5
:1030D000124BA363DAE70D4BE361E36893B1104A47
:1030E000536000200028DED10D4B236176F0F0FA0A
:1030F00060620C4BA3620C4A022121206FF000FD9C
:103100000020D0E72F20EDE7E42A0008040A030896
:10311000002B0008A0030308EC2A0008700C030829
:10312000FC090308E82A00085CBF0B1038B50E4DF7
:103130002846FFF7A3FF0D4C294620468EF0AEFD32
:1031400004F580440A4DD4F8381D284671F00CFE71
:10315000284671F015FE87F029F981F011F805482D
:10316000FFF74EFC38BD00BFE422000878150308C5
:1031700020230008F832000830B585B000240394FD
:10318000064B1D6804F05EFC0246009403AB06216A
:10319000284605F0BFFB05B030BD00BFF44600086F
:1031A00030B585B000240394064B5D6804F04AFCFA
:1031B0000246009403AB0621284605F0ABFB05B0A0
:1031C00030BD00BFF446000808B5014677280DD889
:1031D000C308084A1268906900EBC31001F00701A8
:1031E0002FF076FD003818BF012008BD014B1B6889
:1031F0009869F3E7A84E020810B505F032FD0446C1
:1032000028B10022C1B20A48FFF7FCFD10BD04201E
:10321000FFF7DAFF28B90222E1B20548FFF7F2FD15
:10322000F4E70022E1B20248FFF7ECFDEEE700BF51
:10323000F832000810B5012302220021042029F0F1
:103240003BFF10BB0123022200210C2029F034FF98
:10325000F8B91249124B0B6000244C60042029F08D
:1032600071FF1049104B0B604C600C2029F06AFF75
:10327000012305220221042029F08AFF01230522CF
:1032800002210C2029F084FF10BD0848B6F0A0F8F8
:10329000D8E70748B6F09CF8DBE700BFE446000833
:1032A00079310010D4460008A1310010F8C00B108D
:1032B00028C10B1010B582B0FFF7BCFF00240DE051
:1032C000084B0093234600224FF4FA71064805F09C
:1032D00005FB064B43F824000134E4B2012CEFD97E
:1032E00002B010BDF93100105CC10B10F4460008AB
:1032F00008B54368187928B901221A71DB6803B14F
:10330000984708BD0228FCD103221A710120F5E775
:1033100000B585B005F0A5FC0123ADF800300190A3
:10332000044B039369460448FFF738FD05B05DF888
:1033300004FB00BFF1320010F832000830B585B050
:10334000EC468CE80C0078B1044669B10139029171
:10335000039399420AD802AB1D682A460099204679
:10336000B6F096F90023635505B030BD03ABF3E723
:1033700010B5044600F11003092107E000221A608D
:103380005A609A60DA601A7501391C330029F5DA3F
:1033900004F5947C052009E0002159609960013A08
:1033A0001033002AF8DA01380CF5C86C002802DB6B
:1033B00063466322F5E74FF47A62002104F5BB40CF
:1033C0001430B7F045FF04F5C0430022A3F8342DB4
:1033D00083F8362D83F8372D83F8382D83F8392D6F
:1033E000204610BD012800D0704708B54FF6FF7386
:1033F000994200D008BD0248FFF7BAFFFAE700BFC4
:103400000047000830B585B004460D4602A880E8A4
:103410000C0004F5C04303C8C3F8342DA3F8381DCD
:10342000B3F8343D0A2B20D804F5C04393F8363D59
:103430000A2B24D804F5C04393F8373D0A2B27D82C
:1034400004F5C04393F8383D0A2B2AD804F5C0434D
:1034500093F8393D0A2B2DD90A23264A01211D2034
:103460006FF04EFB40F2077007E00A23224A012169
:103470001D206FF045FB40F2077005B030BD0A23F8
:103480001E4A01211D206FF03BFB40F20770F4E75C
:103490000A23184A01211D206FF032FB40F2077009
:1034A000EBE70A23134A01211D206FF029FB40F2AC
:1034B0000770E2E7124B00932346002201211148D6
:1034C00005F00CFA104B186040B12B7863B16B78A3
:1034D000022B0BD0012323710020CEE70B487CF098
:1034E0003DFD40F20470C8E7B6F092F90323237162
:1034F000F2E700BF48C20B1064C10B10D0C10B1023
:1035000011330010BCC20B10FC460008C4C20B10E3
:1035100009298CBF00200120704722B109298CBFE6
:10352000002001207047B1FA81F040097047052959
:103530008CBF00200120704709298CBF002001208A
:10354000704709298CBF00200120704709298CBFD2
:10355000002001207047000070B584B00446324955
:1035600003AD00954FF48C7300F1100203C97DF098
:103570008BFA2E4900954FF4165304F5947203C943
:103580007DF082FA2A490095642304F539521032FD
:1035900003C97DF079FA2749009542F6E06304F506
:1035A0003A52343203C97DF06FFA04F5C046B6F8DA
:1035B000343D214900954FF4C87202FB03F304F532
:1035C000BB42143203C97DF05FFA96F8373DB6F876
:1035D000342D02FB03F31949009503EB830304F533
:1035E0001A52283203C97DF04FFA96F8383DB6F8E2
:1035F000342D02FB03F312490095DB0004F524523D
:1036000003C97DF041FA96F8393D03EB43030D49B8
:1036100000959B0004F53652303203C97DF034FA30
:10362000012004B070BD00BF04B31510FCB215102A
:10363000F4B21510ECB21510E4B21510DCB215108E
:10364000D4B21510CCB215108160C26070470079F9
:10365000032814BF002001207047000000B583B08C
:1036600000220092134603210748006805F052F932
:1036700010B103B05DF804FB04487CF06FFC40F22D
:10368000067000F003FEF4E7FC460008E4C20B10ED
:1036900030B583B005460C46104B186805F0C7FAE4
:1036A00060B9642300930023224604210B4800687C
:1036B00005F030F9012808D103B030BD08487CF08E
:1036C0004DFC2846FFF7CAFFEBE706487CF046FCB6
:1036D00040F2057000F0DAFDEEE700BFFC4600089E
:1036E000B8BD0B1000C30B10F8B504460E461546C6
:1036F0000379012B03D0032B05D00020F8BD012A4C
:10370000F9D1022701E06DB92F464FF4FA61204646
:10371000FFF7BEFF2771A36833B1314628469847AB
:103720000120EBE70020E9E70120E7E72DE9F04180
:103730008CB0002A69D007460E461D46541EA4B21E
:103740002146FFF7E5FE8046002860D0009433460E
:10375000314A02211D206FF0D3F9C4EBC40307EBFB
:10376000830393F824302B75002B47D0C4EBC4039C
:1037700007EB830319695A690891099208AA92E82C
:10378000030085E803004FF4C87145F6905201FB31
:1037900004223A440432D9690A920B9105F10802D5
:1037A0000CA911E9030082E803001A6A2A6193F860
:1037B0002510697593F826C085F816C00120E875B4
:1037C00093F828302B766876C4EBC40407EB8400AA
:1037D00090F82A00A8766F682C68ED680790069329
:1037E000CDF814C0049103920295019400973346DA
:1037F0000A4A03211D206FF083F908E07B88084AFC
:1038000003211D206FF07CF901E04FF000084046D5
:103810000CB0BDE8F08100BF20C30B1084C30B10B7
:1038200060C30B102DE9F04F95B005460B9114467F
:1038300019460C939DF878B01F9F9DF884A09DF8C1
:1038400088909DF88C80259E3B680996249A089262
:10385000CDF81C80CDF81890CDF814A0209A0492D1
:103860000393CDF808B0019100944388574A022190
:103870001D206FF045F9002C00F0A280013CA4B29D
:1038800021462846FFF744FE0A90002800F09A805F
:103890007B680A2B35D805F5C04393F8363DB34213
:1038A00039D304EB840342F6506202EB4303EB1876
:1038B0000D930EAB97E8030083E803000CCB0A21BD
:1038C0000D98FFF73BFD7B680D9A10921193C4EBA6
:1038D000C40305EB830303F1100210A903C982E8B6
:1038E0000300209A1A6283F824A083F8259083F8B5
:1038F000268083F82AB00C9A83F828200022249985
:1039000020E000946B88324A01211D206FF0F8F806
:1039100000230A9356E0019600940B9B2D4A012147
:103920001D206FF0EDF800230A934BE0642303FBA6
:10393000042303F5BB53043305EB830351F8220042
:1039400058600132B242F1D34FF4C87745F6905334
:1039500007FB04332B44043312931396C4EBC403C4
:1039600005EB8303183314AA12E9030083E803006C
:1039700005F5C046B6F8343DC3EBC30316499B00BA
:1039800005F1100203C97DF037F9B6F8343D13494B
:1039900007FB03F305F5BB42143203C97DF02CF994
:1039A0000F49642305F53952103203C97DF024F91B
:1039B00000940B9B0B4A02211D206FF0A1F801E03F
:1039C00000230A930A9815B0BDE8F08F0CC40B10C1
:1039D000CCC40B100CC50B1004B31510E4B21510B9
:1039E000F4B2151070C50B102DE9F04182B00646F7
:1039F00014461D46089F1946FFF799FD804600288A
:103A00003FD0002D43D12A4621463046FFF785FDA1
:103A100000283AD000942B46254A02211D206FF041
:103A20006FF8642303FB054306EB031393F8283177
:103A30003B7000941F4A03211D206FF061F83B7812
:103A400083B3642303FB054406EB041292F8293187
:103A50007B703D1D02F5967292E8030085E8030035
:103A6000133406EB041672797A73F279FA73012231
:103A70003A73BA73BA6800920F4A03211D206FF09F
:103A80003FF8404602B0BDE8F0818046F9E7013CCE
:103A9000A4B22A4621463046FFF73FFD0028B9D19F
:103AA0008046EEE7054A03211D206FF029F8E8E77C
:103AB000A4C50B10F4C50B1040C60B1020C60B108C
:103AC0002DE9F04F89B00546144605939DF848A0AE
:103AD0009DF84CB09DF85060DDF854803146FFF7FA
:103AE00026FD814600285CD0002E60D1324621465A
:103AF0002846FFF712FD002857D0D8F80430CDF83B
:103B00000CA0059A0292019300965B462D4A022171
:103B10001D206EF0F5FF642303FB064305EB03173E
:103B200087F828B187F82961133305EB0313059A49
:103B30005A7183F807A004EB84044FF4FA6006FB83
:103B400000F000EB840000F53A5030302844041DAA
:103B5000D8F80420D8F800102046B5F099FDD8F820
:103B600004300694079307F5967708AB13E9030032
:103B700087E8030014494FF4165305F5947203C9FE
:103B80007DF03AF8114942F6E06305F53A523432D5
:103B900003C97DF031F833460D4A02211D206EF035
:103BA000AFFF484609B0BDE8F08F8146F9E7013C18
:103BB000A4B2324621462846FFF7AFFC00289CD12C
:103BC0008146EEE770C60B10FCB21510ECB2151072
:103BD000F0C60B1072B370B505466BB3511ECEB272
:103BE000013B9CB23146FFF7A7FC38B3214628467B
:103BF000FFF78EFC20B306EB4602C4EB04139B00D8
:103C000003EB42032B4442F2A8629B5CD3B106EB68
:103C10004601C4EB0414A40004EB4104254405F55B
:103C20001A55D5F82930049A136095F82D30137180
:103C3000002002E001207047012070BD0120FCE758
:103C40000120FAE78B20F8E7002A52D070B505462C
:103C5000002B50D0511ECEB2013B9CB23146FFF733
:103C60006BFC002849D021462846FFF751FC08B9D3
:103C7000012041E006EB4602C4EB04139B0003EB7A
:103C800042032B449DF8141042F2A96299549DF806
:103C9000181042F2AA6299549DF81C1042F2AB62CD
:103CA00099549DF8201042F2AC6299549DF824106A
:103CB00042F2AD62995406EB4606C4EB04139B0036
:103CC00003EB46032B4442F2A8629DF8101099546E
:103CD00005F5C04191F8373DB1F8341D01FB03F300
:103CE000074903EB83032A4403C97CF085FF0020C6
:103CF00002E001207047012070BD0120FCE700BFF9
:103D0000DCB215105AB370B5054653B3511ECEB28E
:103D1000013B9CB23146FFF714FC20B321462846F4
:103D2000FFF7F6FB08B306EB4602C4EB0413DB0017
:103D300003EB82032B4403F524531B78BBB1C4EB84
:103D40000414E40004EB8204254405F524550435ED
:103D500095E80300049B83E80300002002E00120B3
:103D60007047012070BD0120FCE70120FAE78B209D
:103D7000F8E70000002A40D070B50546002B3ED081
:103D8000511ECEB2013B9CB23146FFF7DAFBC0B305
:103D900021462846FFF7BCFB08B9012030E006EBBE
:103DA0004602C4EB0413DB0003EB82032B440599AA
:103DB00042F604129950069942F60812995006EB01
:103DC0004606C4EB0413DB0003EB86032B4403F528
:103DD00024539DF810201A7005F5C04292F8383D22
:103DE000B2F8342D02FB03F30749DB0005F524523A
:103DF00003C97CF001FF002002E001207047012090
:103E000070BD0120FCE700BFD4B21510C2B170B57F
:103E100004461E46551EEDB22946FFF797FB88B1B2
:103E200005F2DB231B01E35C73B105F2DB2504EB38
:103E30000514043494E8070086E80700002070BDEC
:103E4000012070470120FAE78B20F8E75AB370B5DC
:103E500005461E46541EE4B22146FFF777FB08B91B
:103E6000012070BD04F2DB231A0105EB0313049952
:103E700059600599996005EB04149DF8181042F6F5
:103E8000BC53E154AE5405F5C04393F8393D03EB00
:103E9000430306499B0005F53652303203C97CF0D6
:103EA000ABFE0020DDE70120704700BFCCB215104B
:103EB000012906D0022906D009B1044870470448F8
:103EC0007047044870470448704700BF4CC70B1048
:103ED00024C70B1038C70B1040C70B1008B5426839
:103EE0004B689A4201D0002008BD32B109680068D1
:103EF000B7F084F918B10020F6E70120F4E70120BB
:103F0000F2E700002DE9F04784B0814688469246EA
:103F10001F4601238DF80F300DF10F01404649F087
:103F20008AF93D7825B109F5ED6409F6A85624E033
:103F300043462B4A03211D206EF0E2FD9DF80F3011
:103F40009BB951464846FFF7B3FF0346CDF80080C2
:103F5000244A03211D206EF0D3FD4CF00FF8524689
:103F600041464CF019FA012525E043461E4A01213D
:103F70001D206EF0C5FD1EE01034B4421FD0257820
:103F8000002DF9D0391D201DFFF7A8FF0546002898
:103F9000F2D051464846FFF78BFF0346CDF800802C
:103FA000124A03211D206EF0ABFD4BF0E7FF524695
:103FB00041464CF0F1F9284604B0BDE8F08751467F
:103FC0004846FFF775FF0346CDF80080084A0321F5
:103FD0001D206EF095FD0C9B01221A700025EAE76A
:103FE00054C70B1090C70B10D0C70B1020C80B1074
:103FF00084C80B1000B583B0009313460122FFF76D
:1040000081FF03B05DF804FB00B583B00093134655
:104010000222FFF777FF03B05DF804FB08B54FF607
:10402000FF710120FFF7DEF908BD0000F0B583B095
:1040300044688768250CA6B200962B460A4A0221DE
:104040001D206EF05DFD40F201139C4201D003B0D3
:10405000F0BD002FFBD100962B46044A02211D2003
:104060006EF04EFDF3E700BF00C90B1020C90B1026
:104070007047000070B504460D46164603460A4ACE
:1040800002211D206EF03CFD33462A46214607489A
:10409000FFF7B0FF044608B9204670BD0022022198
:1040A0000248FFF721FBF7E740C90B100047000863
:1040B00070B504460D46164603460A4A02211D20E5
:1040C0006EF01EFD33462A4621460748FFF79CFF47
:1040D000044608B9204670BD012202210248FFF7BC
:1040E00003FBF7E768C90B100047000800B583B071
:1040F000009313460A4601460248FFF775FC03B0D9
:104100005DF804FB0047000810B584B0089C0394D8
:104110009DF81C4002949DF81840019400931346AA
:104120000A4601460248FFF7CBFC04B010BD00BFB1
:104130000047000808B513460A4601460148FFF744
:10414000F5FA08BD0047000810B588B0109C079428
:104150000F9C06949DF8384005949DF834400494D3
:104160009DF8304003940B9C02940A9C01940093A8
:1041700013460A4601460248FFF754FB08B010BD3B
:104180000047000800B583B0009313460A46014675
:104190000248FFF71FFD03B05DF804FB004700086D
:1041A00000B583B0009313460A4601460248FFF764
:1041B000A9FD03B05DF804FB0047000810B586B008
:1041C0009DF8304005949DF82C4004949DF82840BB
:1041D00003949DF8244002949DF82040019400939C
:1041E00013460A4601460248FFF72EFD06B010BDF1
:1041F0000047000810B584B0079C0294069C019407
:10420000009313460A4601460248FFF7B3FD04B087
:1042100010BD00BF0047000808B513460A46014616
:104220000148FFF7F3FD08BD0047000810B584B052
:104230009DF81C400294069C0194009313460A4684
:1042400001460248FFF702FE04B010BD0047000817
:1042500003780BB10020704710B504467DF026FBB3
:10426000B0FA80F35B09237010BD000008B5014669
:1042700005487BF073FE4FF03F0383F31188BFF3D3
:104280006F8FBFF34F8FFEE794C90B1008B5FFF790
:10429000EDFF000010B51F487BF08CFDD8B91E481B
:1042A000FFF7D6FF0446E8B91C491D487AF014FC14
:1042B0000446E8B91B487BF051FE1B487DF05AF9D3
:1042C0000446D8B91948FEF763FB0446E0B900205C
:1042D00003F08EFA10BD044615487BF03FFE2046E1
:1042E000FFF7D4FF13487BF039FE2046FFF7CEFFDF
:1042F00011487BF033FE2046FFF7C8FF0F487BF0E4
:104300002DFE2046FFF7C2FF0D487BF027FE20461A
:10431000FFF7BCFFA00303089809030824CA0B1089
:104320004003030858CA0B10A0090308F83200081C
:10433000C4C90B10FCC90B102CCA0B1080CA0B107F
:10434000ACCA0B1000B583B0002108466EF06AFAC3
:1043500000230193022200924FF480520349044843
:1043600003F013FA03B05DF804FB00BFC8CA0B10DA
:104370009542001038B5FEF780F80F4C20467BF0D0
:10438000EDFD01210D487BF0E9FD20467BF0E6FDC7
:1043900003F0F0FA6EF05EFA094C20467DF004F965
:1043A000A4F108007DF072F9002504F8085C0548C6
:1043B0007BF0D4FD284638BDD4CA0B100CCB0B10B3
:1043C000A009030838CB0B1010B582B004460023B7
:1043D0004FF0FF326946204642F06CF90028F6D1D2
:1043E000009B13B101989847F1E741F0F3FF02B049
:1043F00010BD000070B584B004460E4601B100B98E
:1044000001BEB36813B1736803B901BE0023236012
:104410006360A360E360316901B91021082220467E
:1044200042F00CF9054680B90123237304F108001A
:10443000F2686AB173683178029401910093B368AD
:10444000074941F069FF054620B9284604B070BD10
:10445000044AEFE700232373204642F067F9F4E7AC
:10446000C943001058CB0B1070B582B00D461646EC
:10447000044640B34DB344F064FE237B013BDBB202
:10448000012B24D86368013363600223237344F053
:104490005CFE00950196EFF30583003B18BF0123F6
:1044A00000226946204642F0DFF8054644F049FE06
:1044B0006368013B63600BB90123237344F045FE3D
:1044C000284602B070BD01BED4E701BED3E744F078
:1044D0003CFE014DF4E700BF20000E0600B583B09E
:1044E0000190104A0244052A19D80B46002201A95E
:1044F0000D4842F0B9F818B9002003B05DF804FB8C
:1045000001F0DBFB019BC3F30B0301229A40074937
:104510000B7813430B7001F0D2FBC120EDE7B12003
:10452000EBE700BF00102425F0B400083CB40008FD
:1045300010B582B00023019301F092F880B10446D7
:10454000022301934FF0FF3301AA0146042002F039
:104550002DF8014680B1154BDB784BB902B010BD88
:10456000124BDB78002BF9D0114801F06BFCF5E71A
:10457000104801F067FCF1E7637801934FF0FF33D7
:1045800001AAA11C042002F011F8014638B1074B22
:10459000DB78002BE2D0084801F054FCDEE76178BC
:1045A00002312046A0F037FAD8E700BF28230008E0
:1045B00064CB0B1090CB0B10C4CB0B1010B582B09A
:1045C0000023019301F04CF880B1044604230193C9
:1045D0004FF0FF3301AA0146022001F0E7FF014638
:1045E00080B1154BDB784BB902B010BD124BDB78B4
:1045F000002BF9D0114801F025FCF5E7104801F037
:1046000021FCF1E7638801934FF0FF3301AA211DDC
:10461000022001F0CBFF014638B1074BDB78002BBD
:10462000E2D0084801F00EFCDEE761880431204644
:10463000A0F0E4F9D8E700BF28230008F8CB0B105E
:1046400024CC0B1054CC0B1010B582B00023019376
:1046500001F006F880B10446042301934FF0FF33C4
:1046600001AA0146032001F0A1FF014680B1154BCC
:10467000DB784BB902B010BD124BDB78002BF9D0C0
:10468000114801F0DFFBF5E7104801F0DBFBF1E733
:10469000A37801934FF0FF3301AA211D032001F0FD
:1046A00085FF014638B1074BDB78002BE2D0084884
:1046B00001F0C8FBDEE7A17804312046A0F0B6F98E
:1046C000D8E700BF2823000884CC0B10B0CC0B1017
:1046D000E0CC0B1010B584B08DF8070000230393D5
:1046E00000F092FF0378012B2BD004B010BDFFF730
:1046F00065FF0134E4B2092CF7D8012303930023AA
:1047000003AA0DF10701184601F050FF0028ECD173
:10471000039B002BE9D09DF8071003290ED0042934
:1047200009D00229E3D0084BDB78002BE1D0074801
:1047300001F088FBDDE7FFF7FBFEDAE7FFF784FF18
:10474000D7E70024D7E700BF2823000810CD0B10BF
:1047500000B583B000231A4601A9074841F0AAFF1B
:104760000028F7D0044841F0E1FFA0F08FF900F0F5
:10477000DDFC03B05DF804FBF0B4000830B583B095
:1047800000240AE0134BDB780BB903B030BD1248AC
:1047900001F058FBF9E70134E4B2052CF5D80F4BD2
:1047A0001B78234113F0010FF5D00D4B23440193E7
:1047B00000231A4601A90B4841F056FF0146002884
:1047C000E0D10123A340DB435BB204490A781340E4
:1047D0000B70E0E72823000844CD0B103CB4000820
:1047E00000F0DBDAF0B4000800B583B000F0C4FEDE
:1047F00003E0284BDB78012B1ED84FF0FF320192EB
:10480000002301A9244841F055FF01460028F0D1BA
:10481000019BB3F1FF3FECD0204B1B788BB9019982
:104820001F4B994214D01F4B0B44042B2AD8DFE8AE
:1048300003F0162023261D00019A1B4801F002FBFD
:10484000DBE701F03AFAFFF799FF01F038FAE6E703
:10485000FFF77EFF41F0BEFD03B05DF804FB0020D2
:10486000FFF738FF012001F0D7FDC6E7A0F0DFF821
:10487000C3E7FFF7A3FEC0E7FFF7E6FEBDE7FFF7DC
:1048800057FEBAE7034BDB78002BB6D0074801F0A0
:10489000D9FAB2E728230008F0B400083CB40008B5
:1048A00000F0DBDAFF0F242578CD0B10A8CD0B101C
:1048B000014B1878704700BF3DB4000808B50228C6
:1048C00009D843B24BB9074B9B7853B10146064810
:1048D00001F0B8FA05E00428F5D1044B1A7810432A
:1048E000187008BD28230008D0CD0B103DB4000877
:1048F000324B1B780BB90020704730B585B00025CE
:10490000ADF80A500DF10A0001F008F80446012044
:1049100000F0ACFF0395294B1B78C3F34005FF2C37
:1049200010D0FF280ED0322C3AD8322838D8244B59
:104930009B7893B9214B00221A70B5B9A0F0A8F862
:10494000012031E01E4B9B780BB900202CE0024681
:1049500021461C4801F076FAF7E73222009203461E
:104960002146194801F06EFAE4E700F073FE039067
:104970000028E3D0028840F201439A42DED1438806
:10498000002BDBD00E4B9B7833B900231A4603A9CA
:104990000E4841F069FED1E70D4801F053FAF4E703
:1049A000074B9B7813B9002005B030BD322200922E
:1049B00003462146074801F045FAF4E73DB40008F4
:1049C00028230008F8CD0B104CCE0B10F4B40008CF
:1049D000A8CE0B10DCCE0B1010B582B00190A8B1A0
:1049E0000C460B46002201A9094841F03DFE014654
:1049F00010B9002002B010BD14B9064B9B780BB95A
:104A0000C120F7E7044801F01DFAF9E7B120F1E70A
:104A1000F4B400082823000844CF0B1010B578B177
:104A20000446104B9B78042B12D86288211D01206C
:104A300001F068FD014610B10A4B9B7873B910BDB7
:104A4000084B9B78002BFAD0074801F0FBF9F6E7FA
:104A500042880146054801F0F5F9E6E7044801F00F
:104A6000F1F9ECE72823000874CF0B10A0CF0B104E
:104A7000D0CF0B1010B590B10446124B9B78042B8D
:104A800015D86288211D022001F03CFD014610B1BD
:104A90000C4B9B788BB9204600F0E8FD10BD094B0C
:104AA0009B78002BFAD0084801F0CCF9F6E7428851
:104AB0000146064801F0C6F9E3E7054801F0C2F9EE
:104AC000E9E700BF2823000804D00B102CD00B10FE
:104AD00058D00B1010B590B10446124B9B78042BA4
:104AE00015D86288211D032001F00CFD014610B18C
:104AF0000C4B9B788BB9204600F0B8FD10BD094BDC
:104B00009B78002BFAD0084801F09CF9F6E7428820
:104B10000146064801F096F9E3E7054801F092F9ED
:104B2000E9E700BF2823000888D00B10B0D00B1095
:104B3000DCD00B1000B583B0304B9B78042B05D82C
:104B40002F4B00221A7001F081FA27E02D4801F066
:104B500079F9F5E7294B9B78012B1FD92A4801F0F9
:104B600071F91BE000231A4601A9284841F0A2FD73
:104B700030B90198264B9842F4D000F077FDF1E768
:104B8000224841F0D3FD01F0D9FB41F023FC03B0F2
:104B90005DF804FBFFF742FFFFF7AAFE0023019335
:104BA0004FF0FF3201A9194841F084FD0146002869
:104BB000D0D101980028CDD0154B9842D2D0018891
:104BC00040F2024399420ED040F2034399420DD085
:104BD00040F201439942DDD0084B9B784BB90198D4
:104BE00000F044FDD8E7FFF745FFD5E7FFF772FF78
:104BF000D2E7084801F026F9F1E700BF28230008B2
:104C00003DB400080CD10B1024D10B10F4B40008F3
:104C100000F0DBDA48D10B1008B5054B5B7803B91F
:104C200008BD0A460146034801F00CF9F8E700BF49
:104C3000282300086CD10B1008B5042A07D8DFE838
:104C400002F027030C151E00164B1B7A03B908BD92
:104C50000146154801F0F6F8F9E7124B1B7A012BD3
:104C6000F5D90146104801F0EDF8F0E70D4B1B7A3D
:104C7000022BECD901460C4801F0E4F8E7E7094BB8
:104C80001B7A032BE3D90146074801F0DBF8DEE786
:104C9000044B1B7A042BDAD90146034801F0D2F801
:104CA000D5E700BF282300089C33151008B54FF046
:104CB000FF31024841F000FC08BD00BFC0B400084D
:104CC00008B5024841F018FC08BD00BFC0B4000898
:104CD000F0B583B00E4600F097FC0446FFF7E8FD00
:104CE000E0B92178012922D1B3B2581D01339DB218
:104CF00080B200F08FFC074618B31F4B5B78042B83
:104D000034D8384640F2024320F8043B7D802378B3
:104D1000012B10D1781D02233B710CE0164B5B7800
:104D20000BB9002007E0154801F08CF8F9E7124BA9
:104D30005B7813B9002003B0F0BD114801F082F890
:104D4000F8E70023ADF806300DF1060000F0E6FDAF
:104D5000094B5B7823B90120FFF7B0FD3846EAE73D
:104D600002463146074801F06DF8F4E73246014645
:104D7000054801F067F8C4E72823000890D10B101C
:104D8000C0D10B10F4D10B1040D20B10F0B583B092
:104D9000064600F039FC0446FFF78AFDE0B92178A9
:104DA000012922D1B3B2581D01339DB280B200F067
:104DB00031FC074618B31F4B5B78042B34D83846B8
:104DC00040F2034320F8043B7D802378012B10D16F
:104DD000781D03233B710CE0164B5B780BB9002068
:104DE00007E0154801F02EF8F9E7124B5B7813B98C
:104DF000002003B0F0BD114801F024F8F8E70023CB
:104E0000ADF806300DF1060000F088FD094B5B7827
:104E100023B90120FFF752FD3846EAE70246314642
:104E2000074801F00FF8F4E732460146054801F063
:104E300009F8C4E72823000878D20B10A8D20B1079
:104E4000F4D10B10DCD20B10F8B506460C46154613
:104E500000F0DAFB0178012904D0244B5B789BB980
:104E60002820F8BD671FFFF723FD88B91F4B5B782B
:104E7000042B19D8FCB1F5B100213846FFF7ACFD81
:104E8000014618BB0020ECE7194800F0DBFFE7E71C
:104E9000164B5B7823B9384600F0E8FB2820E0E7A2
:104EA000144800F0CFFFF6E72B4622463146124861
:104EB00000F0C8FFDEE70D4B5B780BB92820D0E788
:104EC0002A4621460D4800F0BDFFF7E7074B5B7807
:104ED0003BB90420FFF7F2FC384600F0C7FB28205E
:104EE000BFE7074800F0AEFFF3E700BF2823000844
:104EF00014D30B1040D30B1068D30B10A4D30B109A
:104F0000DCD30B1070B504460D4600F07DFB017834
:104F1000012904D0204B5B789BB9282070BD661F07
:104F2000FFF7C6FC88B91C4B5B78042B19D8F4B189
:104F3000EDB100213046FFF74FFD014610BB0020C8
:104F4000ECE7164800F07EFFE7E7134B5B7823B9E8
:104F5000304600F08BFB2820E0E7114800F072FF9C
:104F6000F6E72A4621460F4800F06CFFDFE70A4BC0
:104F70005B780BB92820D1E72A4621460A4800F081
:104F800061FFF7E7044B5B780BB92820C6E70748B9
:104F900000F058FFF9E700BF2823000814D40B10D5
:104FA00040D40B1068D40B109CD40B10D4D40B102D
:104FB0002DE9F04107460E4600F026FB0178012955
:104FC00005D0244B5B781BBB2820BDE8F08104464C
:104FD000731C1FFA83F800F03DFB0546E0B11D4B42
:104FE0005B78042B21D840F201432B80A5F8028086
:104FF000281D2378012B1ED032463946B4F048FBD9
:1050000000212846FFF7E8FC0146B8B90020DCE79C
:10501000114800F017FFD7E70E4B5B780BB928203B
:10502000D3E70E4800F00EFFF9E7324639460C4848
:1050300000F008FFD7E7681D2B71DDE7054B5B78B3
:1050400023B90220FFF73AFC2820BEE7054800F00C
:10505000F9FEF6E7282300080CD50B1038D50B1005
:1050600064D50B1090D50B1000B595B050220021DF
:105070006846B6F0EDF81B4B00931B4B01931B4B9E
:1050800002931B4B03931B4B04931B4B06931B4B2D
:1050900007931B4B08931B4B09931B4B0B931B4B09
:1050A0000C931B4B0D931B4B0F931B4811908022AD
:1050B00010921A4B12930021B6F0CAF80121184839
:1050C00041F0E2F968469FF094FC18B10146154B97
:1050D0005B7813B915B05DF804FB134800F0B2FE1D
:1050E000F8E700BF194C0010AB5C0010B35C001077
:1050F000E95C0010D55D0010AD4C0010C14C0010F3
:10510000D14C0010494E0010B14F00108D4D0010D1
:10511000054F0010394C001040B4000879530010BE
:10512000C0B4000828230008CCD50B1000B595B0FA
:10513000502200216846B6F08BF868469FF059FC73
:1051400018B10146064B5B782BB9064841F0EEF9E1
:1051500015B05DF804FB044800F074FEF5E700BFED
:1051600028230008C0B4000800D60B1000B583B097
:10517000074B02221A70012300930023054A12688C
:105180000549064800F0DEFC03B05DF804FB00BFF3
:10519000C8B400087C910C1080910C10B55200101E
:1051A00010B50446094B1B78042B09D8642041F044
:1051B00065FB204601F08AF8642041F05FFB10BDDA
:1051C0000146034800F03EFEF0E700BF2823000838
:1051D00034D60B1010B500F017FA0446194B1978A5
:1051E000012908D0042914D0174B1B7863B1174844
:1051F00000F028FE08E0144B1B78042B05D8A068AB
:10520000FFF7CEFFFFF7B2FF10BD114800F01AFE06
:10521000F5E70D4B1B78042B0CD8E068FFF7C0FFB7
:10522000094B1B78042B09D8064B05221A709FF0F6
:1052300007FCE9E7074800F005FEEEE7064800F046
:1052400001FEF1E7C8B400082823000814D70B10AA
:1052500058D60B109CD60B10DCD60B1010B582B0B4
:105260000446114B1B78042B18D800238DF800300E
:105270008DF801308DF80240230A8DF80330230C9D
:105280008DF80430240E8DF80540084B6A4606213F
:105290004FF618409FF0BCFA02B010BD014604481A
:1052A00000F0D0FDE1E700BF28230008D551001031
:1052B00044D70B1038B5044600F0A6F90546274B35
:1052C0001B78042B09D8012C0CD0244B1B78002B05
:1052D0003ED1234B06221A7038BD2146214800F0EA
:1052E000B1FDF0E71E4B03221A70AB68B3F5E13F46
:1052F00007D01A4B1B78042B12D84FF4E130FFF77C
:105300004FFFE968B1F5E13F14D0144B1B78042B33
:105310000CD8134B04221A70E868FFF79FFFDBE7F5
:105320004FF4E131104800F08DFDE6E70F4800F042
:1053300089FDEEE7094B1B78042B05D8084B0522A5
:105340001A709FF07DFBC7E7094800F07BFDF5E789
:105350002146084800F076FDBBE700BF282300087F
:10536000C8B4000868D70B1098D70B10D0D70B1013
:105370000CD80B1048D80B1010B500F045F90446B6
:105380001A4B1B78042B15D8194B00221A70194B95
:105390001B68934221DDA168B1F5E13F12D0134BA8
:1053A0001B78042B0AD8124B01221A70A068FFF751
:1053B00055FF10BD104800F045FDE5E70F4800F02F
:1053C00041FDF0E7094B1B78042B02D8FFF7CEFE16
:1053D000EFE70B4800F036FDF8E7044B1B78002B95
:1053E000E7D0084800F02EFDE3E700BF28230008BF
:1053F000C8B400087C910C1078D80B1090D80B1012
:10540000D0D80B1000D90B100020704708B5034B03
:105410001B680BB1984708BD0020FCE7CCB400081E
:1054200010B504460A4B1B78042B06D863681B781A
:105430004BB9084B01221A7210BD4368197806480F
:1054400000F000FDF2E7034B00221A72F4E700BF00
:1054500028230008CCB4000828D90B1000B585B06B
:10546000204B1B78042B32D801238DF804308DF8A3
:1054700005308DF806301C4A526892F820108DF8DD
:10548000071092F821208DF808208DF809308DF84A
:105490000A3000238DF80B308DF80C308DF80D306C
:1054A0008DF80E308DF80F30104B01AA0C214FF6FD
:1054B00027409FF0ADF941F6A473984210D0094BF4
:1054C0001B78042B07D8002005B05DF804FB0848C2
:1054D00000F0B8FCC8E70146064800F0B3FCF2E76C
:1054E0000120F1E728230008CCB400082154001063
:1054F00050D90B1068D90B1010B5A4B0194B5C68CB
:10550000194B1B78042B12D800238DF80430ADF80A
:105510000430144B1B6813B101A900209847637F26
:10552000012B08D0104B1B78BBB924B010BD0F481D
:1055300000F088FCE8E7A37FFF2BF3D0E37FFF2B8D
:10554000F0D0FFF78BFF0028EFD1074B1B78002B23
:10555000EBD0074800F076FCE7E7064800F072FC65
:10556000E3E700BFCCB400082823000898D90B104B
:10557000B4D90B10ECD90B1008B5034A0349044801
:105580009FF075FA08BD00BF09540010F9540010CF
:105590000D540010F8B505460C460B4B1B78042B38
:1055A0000ED80A4F00263E7200F068FC3D60FFF7FF
:1055B0005BFD20469FF04DFA00F0D0F83046F8BD74
:1055C000034800F03FFCECE728230008CCB40008B7
:1055D00028DA0B1010B50446054B1B78042B02D8B3
:1055E000044B5C6010BD044800F02CFCF8E700BFE1
:1055F00028230008CCB4000840DA0B10014B187ABD
:10560000704700BFCCB40008014B5868704700BF1A
:10561000CCB4000838B50C4B1C6964B1054600F0E9
:105620004CFB2946084B18699FF0AEFA044600F07F
:1056300046FB204638BD054B9B79002BF9D004482A
:1056400000F000FCF5E700BFD8B4000828230008EC
:105650005CDA0B10014B9868704700BFD8B40008A3
:10566000014B1868704700BFD8B4000810B5044655
:1056700000F023FB20469FF0A1FA00F020FB10BDB4
:1056800008B5124B9B79042B1BD8114B186808B135
:1056900000F00FFB0E4B186928B19FF063FA0C4B1A
:1056A000186900F006FB0A4B986808B100F001FB8E
:1056B000074B00221A605A609A60DA601A615A61D8
:1056C00008BD044800F0BEFBDFE700BF2823000848
:1056D000D8B4000884DA0B1030B583B003461B4CF5
:1056E0004FF4826262604FF48470E060A3F5A363BC
:1056F000636100F0DAFAA060606800F0D6FA20601A
:10570000606900F0D2FA01462061A06870B1236898
:1057100063B159B10D4D0024009423466A690C48C9
:105720009FF0F6F92861204603B030BD094B9B7904
:105730001BB9FFF7A5FFB220F6E7044B1B680A462A
:105740000146054800F07EFBF3E700BFD8B400082F
:10575000ECDA0B10282300089CDA0B1010B584B08B
:10576000FFF752FF436A40F62810984238BF1846A8
:10577000FFF7B2FF0446002831D1042220212D4832
:1057800040F05CFF0146002835D1042220212A4840
:1057900040F054FF0146002836D100230293052231
:1057A00001924FF480520092244A2549254840F046
:1057B000B3FD0146002830D1002302930522019257
:1057C0004FF4A0520092204A2049214840F0A4FD05
:1057D000014640B11F4B1B7843BBC02403E01D4B67
:1057E0001B781BB9BE24204604B010BD01461A48E0
:1057F00000F028FBF6E7174B1B780BB9BF24F2E744
:10580000164800F01FFBF9E7124B1B780BB9BF24B9
:10581000E9E7134800F016FBF9E70E4B1B780BB9CC
:10582000C024E0E70F4800F00DFBF9E70E4800F058
:1058300009FBD2E7F4B40008F0B4000894DB0B10C5
:10584000354B0010FCB40008D8DB0B10E947001002
:10585000F8B400082823000800DB0B102CDB0B1029
:1058600060DB0B10A8DB0B10ECDB0B1000B583B07A
:105870000023019301280CD9124B1B781BB9FF2080
:1058800003B05DF804FB01460F4800F0DBFAFF208F
:10589000F6E701A90D4B03EB800040F02FFF014616
:1058A00030B90198642303FB00F0C0F34710E7E729
:1058B000044B1B780BB9FF20E2E7054800F0C2FA61
:1058C000F9E700BF282300081CDC0B10F0B4000827
:1058D00048DC0B1010B586B00023019302930393AC
:1058E0000493ADF81430A0B10C4601A99FF0FCF868
:1058F00088B114B1BDF810302380BDF80E006423C8
:1059000003FB00F0BDF8043090FBF3F0C0B206B02A
:1059100010BDFF20FBE7FF20F9E7000008B50146B6
:10592000024B1869FFF7D6FF08BD00BFD8B40008C6
:1059300000B583B04FF0FF330193054B01AA04215A
:105940004FF64E409EF064FF03B05DF804FB00BFCD
:10595000F159001070B5C2B0234BD9681B7E012BE2
:1059600027D0214B5C68641AFA2C00D9FA241E4D0A
:105970006B695A188DF804201346120A8DF8052019
:105980001A0C8DF806201B0E8DF80730AB682246E6
:10599000194402A8B3F07CFE211D144B01AAC9B220
:1059A0004FF64C409EF034FFEB682344EB6042B06E
:1059B00070BD0D4DAB685A185C5C537804EB032442
:1059C000A4B29678094B0332314620469EF020FF60
:1059D000EB6833440333EB604FF64E439C42E6D111
:1059E00005222A70E3E700BF00B50008F159001056
:1059F00008B543681B7843B94C4B1B78032B35D053
:105A0000052B6DD0012B07D008BD484B1B69002B1F
:105A1000FAD002209847F7E70288444B5B889A4205
:105A200006D0424B1B69002BEED002209847EBE7D3
:105A30003E4B02221A703E4BDB79042B0CD83220ED
:105A400040F01CFF394B5B7853B9384B1B69002B76
:105A5000DAD000209847D7E7364800F0F3F9EEE7B0
:105A6000324B03221A70FFF775FFCDE702884FF61D
:105A70004C439A4206D02D4B1B69002BC4D0022008
:105A80009847C1E7294BDA685B689A4225D3274BD0
:105A900004221A705B786BB1254BDB79934205D8F1
:105AA000224B05221A70FFF743FFADE7224800F0B2
:105AB000C9F9F5E71E4BDB79042B0AD81B4B5A6951
:105AC00059680A445A611B69002B9DD000209847F1
:105AD0009AE71A4800F0B6F9F0E7FFF73BFF93E7C3
:105AE00002884FF64E439A4206D0104B1B69002B9A
:105AF0008AD00220984787E70D4BDB79042B11D819
:105B0000FA2040F0BBFE094B1B690BB101209847FE
:105B1000064B00221A605A609A60DA601A615A6174
:105B20009A6171E7064800F08DF9E9E700B50008D1
:105B3000282300087CDC0B109CDC0B10D8DC0B103D
:105B400008DD0B102DE9F84381460E4617469846AE
:105B50001B4BDB79042B28D81A4C00252560656087
:105B6000A560E56025616561A5614FF62E43638000
:105B700026B1A660676007B301226270114B9DF8E1
:105B800020201A76C3F81090B8F1000F11D0C3F896
:105B900014800D4B002211464FF62E409EF038FE29
:105BA0000120084B1870BDE8F883084800F04AF956
:105BB000D2E7044B064A5A61EBE70020F3E700BF47
:105BC0002823000800B50008F159001020DD0B1053
:105BD000005D080008B503460A4677280AD8C108C0
:105BE00006480068806900EBC11003F007012DF042
:105BF00077F808BD014909688869F6E7A84E0208E8
:105C000008B500230722802103482BF0E9FE01217B
:105C10000248FEF763FC08BD60B5000801F0DBDA5E
:105C200008B50121014840F0D3FC08BD08B60008C2
:105C300008B50121014840F0CBFC08BD0CB60008B6
:105C400008B520290AD0802902D0042903D008BD34
:105C5000FFF7D6FFFBE7FFF7E3FFF8E7FFF7E8FF03
:105C6000F5E7000008B5014677280DD8C308084AB3
:105C70001268906900EBC31001F007012DF028F8BD
:105C8000003818BF012008BD014B1B689869F3E775
:105C9000A84E020802461F2030B1012383409342E0
:105CA00002D00138C0B2F7E7704708B5B3F0FEFC88
:105CB00008BD08B5B3F002FD08BD72B6704762B604
:105CC0007047000008B5FFF7F8FF064B1B7813B9C3
:105CD000FFF7F5FF08BD2BF039F9024B00221A70CF
:105CE000F6E700BF54B5000838B5354828F0A8FAE3
:105CF000344B1B68834203D9334A536801335360E2
:105D0000304B1860304A13685268C01842F10002E4
:105D1000530143EAD0634101091A63EB02035B02BA
:105D200043EAD1534902091842EB030C4FEA8C1E97
:105D30004EEA916E8B015B1A6EEB0C0E1B1842EB58
:105D40000E02224991F800C0CCF12004ACF12001F0
:105D500023FA0CF002FA04F4204322FA01F108437A
:105D600022FA0CF1ACF12005CCF1200401FA0CFE72
:105D700000FA05F54EEA050E20FA04F44EEA040E88
:105D800000FA0CFCB3EB0C0362EB0E02104C25681E
:105D90005B19656842EB05022360626048F201040A
:105DA000A34272F1000409D3013041F10001084C13
:105DB000B3F5004342F1FF322360626038BD00BF9B
:105DC00038B5000830B5000828B5000834B500081B
:105DD00020B5000838B504460D46FFF785FF231AA5
:105DE00065EB0102A042A9411CD211490878A0F13B
:105DF0002005C0F1200402FA00F103FA05F5294359
:105E000023FA04F4214383400A4818180A4A4FF041
:105E1000000341F10001B2F055F90146074828F0AE
:105E200009FA38BD01210648FEF758FBF9E700BF23
:105E300034B500083F420F0040420F0038B500085B
:105E400005F0DBDA0FB430B5A3B026AC54F8045B30
:105E5000684640F007FD019423462A46802102A8A7
:105E6000B2F0E8FF02AA00990348B2F059FE23B04D
:105E7000BDE8304004B0704730DD0B1010B584B081
:105E800000231E4A01211E4840F05CFC1D4B1B787C
:105E9000042B2DD81C4C204628F07EF90023072225
:105EA0001946204628F0DFF900221849204628F03C
:105EB000CAF9012307220021204628F0D4F94FF423
:105EC0000040FFF7E7FE124B187001222021114815
:105ED00040F0B4FB00230293062201924FF480624B
:105EE00000920D4A0D490E4840F016FA04B010BD5C
:105EF00003490C48FFF7A6FFCCE700BFC55C0010C4
:105F000058B500082823000838B50008B56400100B
:105F100034B500084CB5000874DD0B10295F001083
:105F200050B500083CDD0B1000B583B000238DF8A0
:105F3000073014E0204B1B78012B10D91F48FFF7C6
:105F400081FF0CE01E4840F0F1FB40F043FA03B043
:105F50005DF804FB40F6B8311A4840F029FC0023F4
:105F60004FF0FF320DF10701154840F0A3FB014649
:105F70000028DFD19DF80710FF29E3D02029E9D0C0
:105F8000402907D00C4B1B78002BE8D00E48FFF7B8
:105F900059FFE4E700238DF806300DF106010948AA
:105FA00040F04CFC0028DAD19DF80630002BD6D00A
:105FB000044840F02BFCD2E72823000880DD0B10BA
:105FC0004CB5000858B50008A4DD0B1010B5FFF75C
:105FD00015FB00B910BD0446FFF716FB90F8201022
:105FE00049B1012908D0074B1B79002BF2D0064894
:105FF000FFF728FFEEE700242146807FFFF7EAFD48
:10600000E8E700BF28230008C8DD0B1010B5FFF734
:10601000F5FA00B910BD0446FFF7F6FA90F8201023
:1060200051B1012907D0074B1B79002BF2D006484C
:10603000FFF708FFEEE700242146807FFFF7CAFD47
:10604000E8E700BF28230008F0DD0B1070B58AB028
:10605000002304930593069307930893FFF7D4FA5C
:106060008B4B1B7813B100200AB070BD0446884DDD
:10607000C42200212846B5F0EBF80022012105F1E9
:10608000AC0040F05FFA0022012105F1B00040F0C1
:1060900059FA012105F1B40040F0F6F9012105F1AA
:1060A000BC0040F0F1F9637F012B62D0637F012BCC
:1060B00076D0637F012B03D1A07FFF2840F08D8035
:1060C000012302221946207F26F0F6FF0146002810
:1060D00040F09E800121207FFFF77CFD4FF4FA7095
:1060E00040F0CCFB2369049363690593237E8DF80C
:1060F000183000200790089021796279E379A5791A
:1061000004AE02960190009562482BF0C5FD014651
:10611000002840F0868009AA4FF4E1315D482BF059
:10612000F9FA0146002840F085805B4B1B79042B6F
:1061300000F28980637E43B10122114655482BF05D
:106140008DFB0146002840F08380524D00225349C8
:1061500028462BF031FC01230722A42128462BF0EE
:106160003FFC4D4B1B79042B7ED94D48FFF76AFE4F
:106170007AE0E07FFF2899D027F0CEF800231A4676
:106180001946E07F26F098FF014600288ED0424B4A
:106190001B790BB9C72067E74248FFF753FEF9E7C1
:1061A000A37FFF2B85D0E07FFF2882D094F82110B9
:1061B000012909D83C4926F0C5FF01230722032104
:1061C000E07F26F0E5FF74E7334B1B790BB9C8205D
:1061D0004AE73648FFF736FEF9E727F09DF8002337
:1061E00006220121A07F26F067FF014638B9002171
:1061F000A07FFFF7EFFC642040F040FB60E7264BF8
:106200001B790BB9C6202FE72948FFF71BFEF9E7DA
:10621000214B1B790BB9C52026E72648FFF712FE54
:10622000F9E71D4B1B790BB9B4201DE72248FFF796
:1062300009FEF9E7184B1B790BB9BC2014E71F487E
:10624000FFF700FEF9E709991D48FFF7FBFD71E72D
:10625000114B1B790BB9BD2006E71A48FFF7F2FD79
:10626000F9E70A2040F00AFBE079FFF7FBFC002881
:10627000F7D1074B01221A70074B1B79042B01D869
:106280000020F1E61048FFF7DDFD0020ECE600BF3E
:106290005CB5000860B5000828230008415C0010C8
:1062A00064DF0B1018DE0B103423000848DE0B10DF
:1062B00074DE0B10A4DE0B10D0DE0B10F0DE0B1022
:1062C00018DF0B1038DF0B1080DF0B1030B583B0F8
:1062D0000446154D01AA014628462BF01BFA15F875
:1062E000043C3BB1A8B9114B1B79042B0BD80020FF
:1062F00003B030BD0D4B1B790BB9B720F8E70C4844
:10630000FFF7A0FDF9E7019A21460A48FFF79AFD39
:10631000EDE7064B1B790BB9BC20E9E701460648BF
:10632000FFF790FDF8E700BF60B5000828230008DC
:1063300094DF0B10BCDF0B10ECDF0B1030B585B019
:10634000FFF762F92F4B1B78BBB304462E4D002399
:106350000722A42128462BF043FB002211462846A1
:106360002BF02AFB28462BF08FF9637F012B2DD0D1
:10637000A07FFF283FD1E07FFF283FD1234D284653
:1063800040F0D4F805F1080040F0D0F8A5F108007D
:1063900040F048F9281F40F045F90021207FFFF721
:1063A00019FC207F26F0B8FFC4220021A5F1B4001B
:1063B000B4F04EFF002005B030BD154B1B790BB972
:1063C000B720F8E71348FFF73DFDF9E7A37FFF2B60
:1063D000CED0E07FFF28CBD001230722002126F07A
:1063E000D7FE002300930193029303936946E07F55
:1063F00026F0A8FEBCE726F08FFFBCE726F08CFF56
:10640000BCE700BF5CB5000860B5000810B6000826
:10641000282300080CE00B1008B503460722802152
:1064200001482BF0DDFA08BD60B5000800B583B067
:106430008DF807000A4B5B68C3F30803003B18BFE5
:10644000012300220DF10701064840F00DF918B9AB
:10645000002003B05DF804FB01BEC120F9E700BFD6
:1064600000ED00E04CB5000808B5FFF726FC074B2F
:106470001B782BB14020FFF7D9FFFFF720FC08BDA8
:106480002AF050FD014B01221A70F3E754B50008C1
:1064900008B5FFF712FC064B1B782BB12020FFF745
:1064A000C5FFFFF70CFC08BDFFF709FCFBE700BFC9
:1064B00054B5000808B5FFF7D7FF01210248FEF7E1
:1064C0000DF8FFF7E5FF08BD05F0DBDA10B50C4667
:1064D000FFF79AF8012C02D0022C0AD010BD90F8D8
:1064E0002130012B02D0FFF7D3FFF7E7FFF7BCFF06
