:020000041000EA
:10000000002000081B0100100D0000007D01001001
:1000100000000000000000000000000000000000E0
:100020000000000000000000000000007901001046
:1000300000000000000000007901001079010010AC
:100040007901001079010010790100107901001088
:100050007901001079010010790100107901001078
:100060007901001079010010790100107901001068
:100070007901001079010010790100107901001058
:100080000448054B10B5834203D0044B002B00D02D
:10009000984710BD780300087803000800000000AE
:1000A00006480749091A8B10C90FC91810B549101D
:1000B00003D0044B002B00D0984710BD78030008F4
:1000C000780300080000000010B5074C2378002BCF
:1000D00009D1FFF7D5FF054B002B02D0044800E003
:1000E00000BF0123237010BDB00300080000000012
:1000F00094150010054B10B5002B03D0044905489A
:1001000000E000BFFFF7CCFF10BDC04600000000BC
:10011000B4030008941500107047FFF7FDFF72B696
:100120000F4C104DAC4209DA21686268A368043BA9
:1001300002DBC858D050FAE70C34F3E70A490B4AFF
:100140000020521A02DD043A8850FCDC08480949B4
:100150000860BFF34F8F00F06FF800F01DF8FEE766
:10016000A0150010B8150010B0030008C80500085D
:100170000000000808ED00E0FEE7FEE700B50420FF
:100180007146084202D0EFF3098002E0EFF30880E5
:10019000043000F0BBFDFEE710B562B6034800F086
:1001A000C3F8002000F0BAFEFBE7C04600200010B4
:1001B00010B5002000F090FA10BD704770B5002017
:1001C00000F0EEFC041E28D0144B186000F064FB15
:1001D000411C200000F080FF114B0400186000F06B
:1001E0004DFB411C200000F077FF04000D4B013C4B
:1001F00018600D49200000F06FFFFA210B4D01300F
:1002000028708900200000F067FF094D0130286048
:10021000002000F0C5FC074B186070BD8800000886
:100220008C0000088000000840420F009400000885
:10023000900000088400000810B5204800F0ACF8D9
:10024000B022E02130201E4CD200A35889005B0070
:100250005B08A35063588343635080235B04A3501F
:10026000184B194AE250A02204339201E250FF22B7
:10027000164BE25000F014FFC02201215200A35897
:100280008B43A350FFF799FFFFF798FF104B032014
:100290001A681300BA33198807234B43126A802166
:1002A0009B180022DA605A600A4A00F05FFA0A4896
:1002B00000F022F9094800F05BF910BDD4140010D9
:1002C0000000264084050000010002008C050000AB
:1002D0004C05000878030008CC030008A0140010A7
:1002E0009023034A5B01D058032318407047C0464F
:1002F0000000204010B5902400F047F8074B64013F
:100300001959074A1140074A0A431A5110225968DD
:100310001142FCD000F03DF810BDC0460000204066
:10032000FCFF00000100FA05F8B590260E4C76019E
:10033000070000F02AF8A3590500DB439B0701D111
:10034000FFF7D8FF80239B00E750A259074B1A40C4
:10035000074B1343A351102362681A42FCD02800B4
:1003600000F017F8F8BDC04600002040FCFF000078
:100370000300FA05000000000230800803D00130BD
:100380000238FCD1C046C0467047EFF3108072B609
:10039000704780F310887047014B18607047C04663
:1003A0004C050008044B1B681A00BA3212881B6AFD
:1003B0005043C0187047C0464C050008A02300B544
:1003C0001B06984226D015D8802825D00AD8102898
:1003D00024D0402824D000280BD0154809E0A420C0
:1003E000C00306E08022134B520090421CD098427A
:1003F000F3D100BD104B984218D0104BC018042800
:10040000EBD800F05FFEECEA0F0305000C48F0E7C4
:100410000C48EEE70020ECE70B48EAE70B48E8E77A
:100420000B48E6E70B48E4E71800E2E7A020D7E72F
:10043000FF00520006005200090000A0FFFFFF0F5E
:10044000020052000300520005005200010050005B
:10045000020050000100520010B50020FFF7A2FF7B
:100460000A4B1C682300BC331B68C0180368002BB0
:100470000ADB074B1868FFF7A1FF012263689A6047
:100480009A68002AFCD110BD0248FCE74C05000820
:100490005005000802005000064B1B68BC331B6867
:1004A000C3181B68002B03DA89B241600020704733
:1004B0000148FCE74C05000801008A000368002B96
:1004C00004DA89B2C2608160002070470048FCE70E
:1004D00001008A00064B1B68BC331B68C3181B68ED
:1004E000002B03DAC36800200B6070470148FCE76B
:1004F0004C05000801008A00024B1A68002A00D14E
:100500001860704764050008F0B52C24154E44436C
:1005100030681F000019FF241E0A26402740124C95
:100520001B0C256807602C6A46608360BA352D88ED
:100530006F433F190761370080377F01E7190B4D83
:1005400076014761A4191F043B436419236000230B
:100550008361059BC2610162002B01D01B888381EE
:10056000F0BDC046640500084C05000808100000F6
:10057000F0B50400236987B0026841680393A3685B
:1005800004AD1732C0682B806A80039BA26A059174
:100590000095E16A266A676AFFF7B6FF00213B0013
:1005A0000A0030000091FFF7AFFF2800216B00F038
:1005B00077FB0022AB5E002B06DB1F2213401E3AA6
:1005C0009A401300014A136007B0F0BD00E100E05B
:1005D000F0B585B003931B4B16001C682C235843C1
:1005E0004B4320180769E418002F27D0A569002D78
:1005F00026D13B68002B23DA134B1B6834331B785E
:100600000193436801996068029300F0EBFD0122B9
:100610008A40336812049BB2134333600123FE60A7
:10062000A361039B01996362029800F0DBFD012343
:100630008B409BB2BB60280005B0F0BD034DFAE7CC
:10064000034DF8E7640500084C05000804028A0021
:1006500007028A0073B5002642690400D568019636
:100660002B0CB34221D01B0413601368194B006993
:100670001B68BC331B68C3181B68B34215DA01A999
:10068000FFF728FFB0420CD10198E26903681E0C05
:10069000DBB29A4205D9226A9B009B58002B00D0FE
:1006A000984731002069FFF7F7FEADB2002D09D061
:1006B00063691D6000251B68636AAB4205D09847DB
:1006C0006562A56163691B6873BDA36A002BF8D0DE
:1006D0009847F6E74C0500082C2310B54343034A1E
:1006E0001068C018FFF7B6FF10BDC04664050008CB
:1006F0001A4B70B51A680C00130033331B78834211
:100700002AD9002928D00D681F212B000B400D424B
:1007100022D11100BA310988126A48431900104DDC
:100720008018286022685209934210D30021FFF7F5
:10073000B3FE002122002868FFF7C0FE011E04D18D
:100740002868FFF7A9FE002800D0064870BD62683F
:100750009E00B1500133E5E70348F7E74C05000878
:100760006805000801018A0003018A000B0010B52A
:10077000002A0DD1002914D10B4A0C4C11680A0033
:10078000BA321288096A424352182260180010BD1A
:10079000002906D006490B604A60FFF7A9FF030055
:1007A000F4E7044BF2E7C0464C0500086805000872
:1007B0008803000803018A00F7B51B4F04003B685B
:1007C0000E00002B2BD0DB681A68824229D9002545
:1007D0005B680193A94202D1FFF7D7FD0500386895
:1007E0000368002B19DA1F23012223409A40640971
:1007F000019BA4001C1921680A420CD0914321607E
:1008000000240021FFF748FE002E02D12800FFF748
:10081000C0FD2000FEBD054CF3E7054CF4E7034C9A
:10082000F7E7044CF5E7C0466805000802018800B8
:100830000301880004018A000C4B1B68002B11D0B7
:10084000DB681A6882420FD959681F234209184091
:100850001E3B8340920050581840431E9841044B61
:10086000C01870470348FCE70348FAE7680500082A
:10087000000188000201880004018A00054B1B6802
:100880001A0088321B6812689B181868000AC0B2E8
:100890007047C0464C050008044B1B681A0088329C
:1008A0001B6812689B181868000E70474C050008FA
:1008B000034BE0308000C0588006800F7047C04670
:1008C00000002640024B18694007C00F7047C04621
:1008D00000002740A6220549D2008B580220DB43A6
:1008E0009B0702D00123885818407047000026401B
:1008F00010B5FFF7EFFF0023022801D1014B1B6861
:10090000180010BD70050008084A83009B18D0220B
:100910009200985807221040042806D1C022920065
:100920009B581F22FC30134018437047000026409C
:1009300010B5FFF7E9FF88235B0098421CD00BD865
:10094000012813D0022814D0431E9841104B404276
:100950001840104BC01810BD1223FF33984210D01E
:100960001423FF33984210D00020F4E70A4B186894
:10097000F1E7FFF7BDFFEEE7084A094BD058C00F7B
:1009800001E0FFF79FFFC003E5E7044A054BF5E7E9
:1009900000EE85FF00127A006C050008000026407A
:1009A0000C0500003C050000B023154ADB00D358BD
:1009B00010B59903DB01DB0F890BC371114B01608B
:1009C000D3580F24D904DB01DB0D0381B123DB00F5
:1009D000D358C90C81801900214081721909214026
:1009E000C172D9029B009B0F8373074BC90CD3586C
:1009F00081815A05DB01520FDB0D8271038210BD2C
:100A000000002640840500008C0500008030034B68
:100A1000FF308000C058C00F7047C046000026401D
:100A20000F4B421E1B683F331B78934216D9803010
:100A30007F220C4BFF308000C3581F201A400A70E1
:100A40001A0A02404A701A0C02408A701A01C24007
:100A500000209B009B0FCA700B7170470248FCE797
:100A60004C0500080000264001004A00F0B589B09E
:100A700003AD2800FFF798FFB0230026164ADB00DD
:100A8000D358B34224DAAB7B022B21D0AC88B442DA
:100A90001ED03000ED79039FFFF74AFF220033009C
:100AA00031000190681C00F0C3FB0C00050033000E
:100AB0003A003100019800F0BBFBE6076A083243B8
:100AC0006308801859412A00230000F091FB0600BA
:100AD000300009B0F0BDC04600002640F7B5234BFA
:100AE00006001B683F331B78002B08D000283BD042
:100AF000834204D36946FFF793FF041E01D000260A
:100B000032E03000FFF782FF2300002805D06B465B
:100B10001C79023C23005A1E93416A461778547888
:100B20009578002BEBD0002CE9D0002DE7D03000D9
:100B3000FFF7FEFE002306002A002000190000F047
:100B400077FB00230C0005003A003000190000F08C
:100B50006FFBE6076A0832436308801859412A0090
:100B6000230000F045FB06003000FEBD4C050008E8
:100B700010B5041E04D1FFF779FF002806D008E065
:100B8000064B1B683F331B78834203D22000FFF7DC
:100B9000CFFE10BDFFF7A2FFEFE7C0464C050008EF
:100BA00070B50500FFF784FEE035074BAD0004008B
:100BB000E8580F231840FFF7DBFF0123A3405B0831
:100BC0001818E04070BDC0460000264030B5FF2533
:100BD00003242A000440E400A24089012940D243B2
:100BE000A14083B200280ADBC0240B4B80088000A0
:100BF000C018A400035913400B43035130BD0F200C
:100C00000340083B05489B089B001B18D86902401D
:100C10000A43DA61F2E7C04600E100E000ED00E0DF
:100C2000144B30B51B6807241A002C3212781F2A87
:100C300015D882081500A5432C1E0FD1033420407F
:100C4000A04081401B68920020339B180A00FF21BE
:100C500081401C68624011406140196030BD1A68D3
:100C6000802320401B06034380208001091889004F
:100C70008B50F3E74C050008064B10B59A68064CFC
:100C800010308300A24202D19858995010BD034AF7
:100C9000D058FBE700ED00E0000000080000001065
:100CA000F7B504000E00002801D1144C17E0002312
:100CB000C55E134B4188134F0193002D11DB2800B3
:100CC000FFF7AEFF61682800FFF780FFBB68019A5D
:100CD0000024934203D131002800FFF7CDFF20000C
:100CE000FEBD08B26168FFF771FFBB68019A9342CD
:100CF000DBD131002800FFF7BFFFD6E70100560027
:100D00000000000800ED00E0FEE7000002680A4B6A
:100D100010B51A6042685A6082689A60C268DA60E8
:100D200002691A6142695A6182699A61C269DA612B
:100D3000FFF7EAFF10BDC04690030008B0235B0533
:100D40005A782120002A01D05878C0B27047B023C9
:100D50005B059A89002A02D0988980B2704780206A
:100D60004000FBE7254B73B586000D00F4580429BD
:100D700001D0012925D100200EE0A3682B420AD121
:100D8000E36829001A685B6868460193009223684B
:100D900098471B4B1C606469002C0AD0194B984281
:100DA000EBD1012DE9D1164A174B126815489A511B
:100DB00076BD012DFCD1134B9842F4D0124B9C51BF
:100DC000F6E7022914D026006469002CFBD100202C
:100DD000002EEDD0B3682B4208D1F36829001A68C1
:100DE0005B68684601930092336898473669EFE77D
:100DF000034B1B68181EDBD01E69E8E7B40500082A
:100E0000B0050008FF0042009C0500081A4B1B6853
:100E1000190088311A6809685118096801621900B7
:100E20008C3109685218126842621A0046321278F0
:100E3000002A1FD09A68E0321268D2061AD5F22230
:100E4000DB68D2019A580260F022D2019A584260BF
:100E50000A4A9A5882600A4A9A58C260094A9A58BD
:100E60000261094A9A584261084A9A588261084ABE
:100E70009B58C3617047C0464C05000804780000C9
:100E8000087800000C78000010780000147800004A
:100E9000187800001A4B1B681900883109681A6815
:100EA0005218016A116019008C3109681A685218C9
:100EB000416A11601A0046321278002A1ED09A68E0
:100EC000E0321268D20619D5F0224168DB68D201FF
:100ED000995081680B4A9950C1680B4A9950016931
:100EE0000A4A995041690A4A99508169094A9950B8
:100EF000C169094A99500168E83299507047C04663
:100F00004C05000804780000087800000C78000008
:100F1000107800001478000018780000F7B505007C
:100F2000FFF70CFF564F01907B68002B00D06FE05D
:100F3000FFF72BFA7B680090002B00D07CE0514B30
:100F400007271C682300BA331B885F43236AFB18FA
:100F50001A68002AFCDADB68DA001ED51B0F4A4843
:100F60001E07FFF753FF22008832126823684749A3
:100F70009B181A6801980A40212862D1902000012C
:100F800002431A6022008C32126823689B181A6888
:100F90000A40104318603C4B3343802292051343B0
:100FA000226A0024BF18FB607C607B68FFF7CFFEDD
:100FB0008023344F5B00984246D1280000F068FA45
:100FC0003F6807223B00BA331E883B6A5643F3183A
:100FD0001A68002AFCDADD68EB0003D52801000955
:100FE000FFF758FF00222A4B00981D403B6AF31878
:100FF000DD605A60FFF7CDF9002C10D1204B5B6803
:10100000002B03D008210120FFF7ACFE2000FEBD1D
:1010100001210800FFF7A6FE041E00D188E7184B47
:101020005B68002B03D002210120FFF79BFE194BC8
:101030009C42EBD0184CE9E704210120FFF792FE17
:101040007DE7802040009BE73B681A00BC32196AAC
:10105000126852181168002910DBBA331B889B18DC
:101060001B68002B0ADB04230C4A11690B43136134
:10107000012D01D030BFA3E720BFA1E7054C9FE7BA
:10108000B40500084C05000874050008FF00FFFFC8
:10109000FFFFFFDF05004200FF00420000ED00E01F
:1010A000C0228020064952008B58C0059B009B0837
:1010B00003438B50802388581B0603438B50704793
:1010C0000000264002B4714649084900095649000B
:1010D0008E4402BC7047C046002243088B4274D342
:1010E00003098B425FD3030A8B4244D3030B8B4229
:1010F00028D3030C8B420DD3FF22090212BA030C32
:101100008B4202D31212090265D0030B8B4219D312
:1011100000E0090AC30B8B4201D3CB03C01A524132
:10112000830B8B4201D38B03C01A5241430B8B427A
:1011300001D34B03C01A5241030B8B4201D30B0363
:10114000C01A5241C30A8B4201D3CB02C01A52418A
:10115000830A8B4201D38B02C01A5241430A8B424D
:1011600001D34B02C01A5241030A8B4201D30B0236
:10117000C01A5241CDD2C3098B4201D3CB01C01A50
:10118000524183098B4201D38B01C01A524143095A
:101190008B4201D34B01C01A524103098B4201D348
:1011A0000B01C01A5241C3088B4201D3CB00C01AB5
:1011B000524183088B4201D38B00C01A524143082D
:1011C0008B4201D34B00C01A5241411A00D2014652
:1011D000524110467047FFE701B5002000F006F8C5
:1011E00002BDC0460029F7D076E770477047C04679
:1011F000002B11D1002A0FD1002900D1002802D0E4
:101200000021C943080007B4024802A14018029017
:1012100003BDC046D9FFFFFF03B4684601B502987D
:1012200000F034F8019B9E4602B00CBC7047C046EB
:10123000F0B5CE469946030C9C46130447461B0C5A
:101240001D000E0061460404240C80B50700100C3C
:101250004B436543414360432C0CC01820188C4617
:10126000834203D980235B029846C44449467943AC
:101270005643030C2D042D0C8919634400044019B6
:10128000C918C0BCB946B046F0BDC046F0B5574617
:101290004E464546DE46E0B504000D0092469946AE
:1012A00083B08B4230D82DD04946504600F0D8F854
:1012B00029000600200000F0D3F8331A9846203B9E
:1012C00034D49B4653465A46934042461F005346E9
:1012D00093401E00AF423BD8AF4200D179E05B465D
:1012E000A41BBD41002B00DA76E00022002300920F
:1012F000019301235A4693400193012342469340B0
:10130000009329E08242CFD900220023009201936A
:101310000C9B002B01D01C605D600098019903B00C
:10132000F0BCBB46B246A946A046F0BD42469B462D
:1013300020239B1A5246DA40414613004A468A400F
:10134000170042461F43534693401E00AF42C3D985
:1013500000220023009201934346002BD8D0FB07C4
:1013600072081A4346467B080EE0AB4201D1A24206
:101370000CD8A41A9D41012024196D410021013E81
:1013800024184D41002E06D0AB42EED9013E24195F
:101390006D41002EF8D1009801995B460019694112
:1013A000002B24DB2B005A464446D3402A00E2405F
:1013B0001C005B461500002B2ADB26009E403300F4
:1013C00026004746BE403200801A994100900191A4
:1013D0009EE7A342BCD882E74246202300219B1A05
:1013E0000022009101920122DA40019285E74246F3
:1013F00020239B1A2A0046469A402300F340444685
:1014000013432A00E2401C005B461500002BD4DA8F
:1014100042462F002023260097409B1ADE403B00C7
:101420003343CDE71C2101231B04984201D3000C58
:1014300010391B0A984201D3000A08391B09984247
:1014400001D30009043902A2105C40187047C0465D
:10145000040302020101010100000000000000007D
:1014600010B5002903D1FFF7DDFF203002E00800AE
:10147000FFF7D8FF10BDC046F8B5C046F8BC08BCA1
:101480009E467047F8B5C046F8BC08BC9E467047FB
:1014900001B40248844601BC604700BF61020008F5
:1014A0000300000001000000010000000000000037
:1014B00005036000040000000100000000000000BF
:1014C0000100000006046000080000002C05000870
:1014D000B101001000002040000024400000004046
:1014E00000000000000023400000304000003140B8
:1014F00000009F40000022400000104000009D407E
:101500002020202020101010101D1D8017007500B5
:10151000FF03060206003604102000007FC0000012
:1015200000040000000000000019324B647D000040
:10153000000000804000080B100000000000FF01C8
:101540002002001F00800004FF0810180010001483
:101550000018001C4044484C5000000008100000D7
:101560000800000004000000041000000012000049
:10157000042100000021000000160000401140027C
:10158000C41300138013A01340138813A813200062
:101590001C00000000000000F4FCFF7F01000000C0
:1015A000000000100000000880000000C0150010BE
:1015B00080000008F8020000B003000818020000D4
:1015C00000093D0000093D0000127A0000093D00BD
:1015D000A00F000004000000F5000010C90000107A
:1015E00080B230B5C400002820D0114B1868030029
:1015F000BA331A8807235343026A9A1811680029DC
:10160000FCDA3E210B4A062511600B4A0B4911609A
:10161000A3210B4AC90055500A495450006A545836
:101620001B18002058605358002BFCDA30BDC04610
:101630004C05000804012640080126401E1F00003A
:10164000000026401C05000010B54378FF2B11D187
:1016500000F01AF90400032000F0F6F80121C36835
:101660005B681A680A431A601A680A42FCD12000B3
:1016700000F0DAF810BDF7B507000020019100F086
:10168000E3F83E4C050023681A005033BC3216685C
:101690001B788619002B59D000F0DEF80090032843
:1016A0001AD000F0F1F8364A364B0400D358002B1C
:1016B0003CDA01212800344A00F0D6F8002835D160
:1016C0000198FFF78DFF002F3ED03368002BFCDB25
:1016D00000F0EAF805002AE0062000F0B5F82368DB
:1016E000BC331B68C0180368002B02DA274D2800A2
:1016F000FEBD002000F0D0F8254B9842F6D0002324
:10170000244A19000120126800F096F8041EEDD159
:10171000002000F0C1F81E4A1F4B904203D09C42AB
:10172000E4D00134F4E79C42BBD1DFE7174D009BC6
:10173000032B05D10121002000F09EF80028F9D1EB
:10174000200000F071F8D2E7144DF0E700F09CF8AB
:10175000012104000C4A280000F086F8002808D176
:10176000002F08D03368002BFCDB00F09DF805004B
:10177000E6E7064DE4E7094DE2E7C0464C05000800
:10178000000026401C05000050050008050052001E
:101790000101880060050008F049020001005000C6
:1017A000184BF7B51B6818495A6804230C69234382
:1017B0000B61012824D030BF1300FC331B69002BC0
:1017C0001DD1A324114B12481249E40007681E5989
:1017D0000D680195104D056006251D513E240C60D5
:1017E0000E4C3E351D511D59002DFCDA0C4CFC32BF
:1017F0001461A322D20007609E50019B0B60F7BDCD
:1018000020BFD9E74C05000800ED00E000002640AD
:1018100008012640040126401E1F00001C05000090
:10182000AAAAAAAA0000000001B40248844601BC8A
:10183000604700BF9303001001B40248844601BC16
:10184000604700BFD105001001B40248844601BCC6
:10185000604700BFA503001001B40248844601BCE4
:10186000604700BFE102001001B40248844601BC99
:10187000604700BFBD04001001B40248844601BCAB
:10188000604700BFB907001001B40248844601BC9C
:10189000604700BF8B03001001B40248844601BCBE
:1018A000604700BF3908001001B40248844601BCFB
:1018B000604700BF59040010000000000000000055
:1018C0000000000000000000000000000000000018
:1020000000F80F08712300100D000000E5230010F8
:10201000E5230010E5230010E52300100000000078
:10202000000000000000000000000000E12300109C
:10203000E123001000000000E1230010E123001064
:10204000E1230010E1230010E1230010E123001040
:10205000E1230010E1230010E1230010E123001030
:10206000E1230010E1230010E1230010E123001020
:10207000E1230010E1230010E1230010E123001010
:1022E0000348044B834202D0034B03B118477047A5
:1022F000702B0008702B0008000000000548064BFA
:102300001B1AD90F01EBA301491002D0034B03B1F3
:1023100018477047702B0008702B00080000000061
:1023200010B5064C237843B9FFF7DAFF044B13B11D
:102330000448AFF300800123237010BD5C2C00081B
:1023400000000000D8C9001008B5054B1BB10549B5
:102350000548AFF30080BDE80840FFF7CFBF00BFDE
:1023600000000000602C0008D8C9001070477047BA
:10237000FFF7FCFF72B6144C144DAC4209DA216829
:102380006268A368043BA2BFC858D050FAE70C3477
:10239000F3E70F490F4A00209142BCBF41F8040BFC
:1023A000FAE70D480D490860BFF34F8F00F084F83D
:1023B00000F068F8FFF7DBFF09F04AFC00F0BAFC18
:1023C00009F06AFCFEE70000E4C90010FCC9001037
:1023D0005C2C0008E44300080020000808ED00E041
:1023E000FEE7FEE700B504207146084202D0EFF395
:1023F000098002E0EFF30880043007F04BFBFEE7B2
:1024000008B5012004F0D2FB08BD704710B50020CC
:1024100007F02EFA00B910BD0446124B186006F002
:1024200031FC0130B4FBF0F00F4B186006F042FCB9
:102430000130B4FBF0F40D4B1C60013C0C4BA3FBD2
:1024400004239B0C01330B4A13700B4BA3FB043486
:10245000A4090134094B1C60002007F009FA084B5D
:102460001860D8E7E8220008EC220008E022000803
:1024700083DE1B43F4220008D34D6210F0220008D3
:10248000E422000808B5094803F036FFFFF7BDFF56
:10249000FFF7BCFF00221146032004F0E3FB0448D1
:1024A00004F026FA034804F085FA08BDF4C80010C9
:1024B000782C0008F4BC0010EFF3108172B6074AC4
:1024C000D2F8883043F47003C2F88830BFF34F8FDE
:1024D000BFF36F8F81F31088704700BF00ED00E0FD
:1024E00008B500F0CBF800F00FF800F0BDF800F0F0
:1024F00047F800F04DF808BD08B500F0BDF900F050
:102500002DF800F05FF808BD08B50F21012006F096
:10251000BFFA00220F21012006F02CF90F21012023
:1025200006F074FA0021084606F0B2FA00221146BD
:10253000104606F01FF90021084606F067FA072149
:10254000002006F0A5FA00220721104606F012F935
:102550000721002006F05AFA08BD000008B505481A
:1025600001F08AFA044801F087FA044801F084FA7D
:1025700008BD00BF30BD001028BD00102CBD0010EC
:1025800008B5002211462F2006F004FA08BD00000D
:1025900010B5084C084A0421204604F0C3F8074A45
:1025A0000621204604F0BEF8054A0721204604F023
:1025B000B9F810BD00033140D0BD001098BD001027
:1025C00060BD001008B5184801F056FA174801F030
:1025D00053FA174801F050FA164801F04DFA164820
:1025E00001F04AFA154801F047FA154801F044FA9B
:1025F000144801F041FA144801F03EFA134801F082
:102600003BFA134801F038FA124801F035FA124843
:1026100001F032FA114801F02FFA114801F02CFABA
:10262000104801F029FA08BD08BE00100CBE0010C9
:1026300048BD001004BE0010CCBD001094BD0010B9
:1026400034BD001038BD00103CBD001040BD00106E
:1026500044BD00104CBD001050BD001054BD001012
:1026600058BD00105CBD0010024B33229A601A6105
:10267000704700BF00203040FEE7000030B583B057
:1026800007220021322006F085F99621002007F06C
:1026900053FA07F0E3F9C0B96F4BD3F8004F04F0D9
:1026A0003F0407F0CBF930B1012007F0BDF96B4BC7
:1026B0009B6C002B26DB684BC3F8004F06F0E0FB59
:1026C00006F0D4FB012006F0EFFB012007F044FDEB
:1026D00007F0EAFC07F0C4FD07F0AEFD06F0CCFC05
:1026E0000021084606F06AFB002006F0D5FA01201A
:1026F00006F0BAFA002006F047FA594B1B6893F827
:102700003F4006E00620FFF7B7FF204606F0F0FD49
:10271000013C002CF9D10021012006F0F9FB00203A
:1027200006F03AFB00287BD00021084606F0F0FBBB
:102730000021084606F010FB4A4D00240094234671
:1027400022462146284603F00DFF009423462246E8
:102750000121284603F006FF434806F069FB0028E4
:102760006AD1012006F070FA002006F095FA0020E8
:1027700006F07AFA002006F007FA0021012006F0A0
:10278000C7FB0021084606F0C3FB0021022006F02B
:10279000BFFB0021032006F0BBFB0021042006F054
:1027A000B7FB0021052006F0B3FB304806F07EFCA5
:1027B000002844D12E4806F029FD002842D10021EE
:1027C000084606F0C9FA0021084606F0F7FA29493A
:1027D000012006F0B3FDC0BB42F21071012006F0EB
:1027E0003BFEA8BB06F026FA002006F0F7F9002011
:1027F00006F00AFA06F014FA0021084607F090FDE8
:10280000012006F0DBF906F031FB012006F04CFB5D
:102810006421002007F090F9FFF7F8FD03B030BD08
:1028200006F0A4FB40F2111398427FF47DAF012122
:10283000002006F091FA77E70520FFF71DFF04203E
:10284000FFF71AFF0420FFF717FF0320FFF714FF1D
:102850000320FFF711FF00BF00F0274000002740D2
:10286000BC4100080000314040420F0010BE001083
:10287000400D03003CBE001008B5094801F0FCF80B
:10288000084801F0F9F8084801F0F6F8074801F0A7
:10289000F3F8074801F0F0F8064801F0EDF808BD3C
:1028A00024BE001028BE00102CBE001030BE001048
:1028B00034BE001038BE001008B5044807F0BEFA58
:1028C00008B1002008BD0248FCE700BFF82200085C
:1028D0000000020610B501F0CDF8044638B154B13D
:1028E000FFF7FEFDFFF708FE5CB1204610BD02F0C9
:1028F0004FFA0446F3E740F6E441002002F090FA74
:10290000EEE7FFF7D9FF0446EFE708B500F0D4F98A
:10291000002008BDA8B108B503686BB11978CB08D1
:1029200077290AD8074A1268906900EBC310012280
:1029300001F0070103F06EFE08BD024B1B689869A9
:10294000F5E77047BC410008A8B108B503686BB152
:102950001978CB0877290AD8074A1268906900EBE2
:10296000C310002201F0070103F054FE08BD024B22
:102970001B689869F5E77047BC410008074B1B6866
:1029800043B9064B1A6801321A601B68012B03D049
:10299000012070470120704700207047002E00087A
:1029A000014B00221A607047002E000810B5044643
:1029B0008368406898476068FFF7F2FF10BD000029
:1029C00008B50368186801F065FC0121024B18681E
:1029D000FFF7ECFF08BD00BF082E000808B511F492
:1029E000801F0BD111F4802F0DD111F4002F09D0CD
:1029F0000021084B1868FFF7D9FF03E0054B186862
:102A0000FFF7DEFF08BD0021024B1868FFF7CEFF7D
:102A1000F8E700BF082E000830B583B000238DF81A
:102A20000030ADF80230164B0193164B1B781BB1EA
:102A30000024A0B203B030BD054600684279017998
:102A4000006801F055FB04460028F2D12B68694666
:102A5000186801F0C3FB04460028EAD12B68002265
:102A60000949186801F040FC2868012303224FF44B
:102A7000E011006801F04CFC024B01221A70D8E70B
:102A8000801A0600042E0008DD290010F0B583B07E
:102A900004460F461546FFF771FF38B1A3680221BF
:102AA000606898470226304603B0F0BD06460B4BDF
:102AB0001C60236818680023019300932B463A4654
:102AC000217B01F0A5FB0028EDD0A36801216068FF
:102AD00098472046FFF764FF0126E4E7082E000828
:102AE000F0B583B004460F461546FFF747FF38B1EF
:102AF000A3680221606898470226304603B0F0BD03
:102B000006460B4B1C60236818680195009700234C
:102B10001A46217B01F07CFB0028EED0A36801213E
:102B2000606898472046FFF73BFF0126E5E700BFB6
:102B3000082E0008F8B504460D4603681F68FFF725
:102B40001DFF88B90646B5F5C87F01D94FF4C87591
:102B500000234FF47A7205FB02F20121384601F09E
:102B600061FE10B9012600E00226A36813B13146C8
:102B700060689847022E01D13046F8BD2046FFF725
:102B80000FFFF9E710B5074C204602F0CDFC2046B8
:102B900002F0D5FC044B5B6913B1034A10689847F7
:102BA00010BD00BFE02E0008C82E000810B584B08C
:102BB00000248DF800408DF801408DF8024003EBB1
:102BC00083035B0001930294039441610260054C0E
:102BD0006946204602F0C0FC204602F08DFC04B09D
:102BE00010BD00BFE02E000808B5037A03B108BD90
:102BF000012303724FF47A73FFF7D8FFF7E7000061
:102C000030B587B000228DF808208DF809208DF8A6
:102C10000A204FF47A73039304920592FF2111481E
:102C200002F040FC08B107B030BD02A90D4802F027
:102C300093FC0028F7D10C490A4802F09FFB0028BA
:102C4000F1D1084C04F1080500220849284602F099
:102C500017FA01230093042303222946204602F099
:102C60004FFAE0E7E02E000880969800852B0010D0
:102C700038B504460D46FFF7C3FF2CB125B12A46EF
:102C800021460248FFF7B0FF004838BDC82E0008B3
:102C900008B5044A136801331360034802F04FFC7F
:102CA00008BD00BF182F00081C2F0008014B186832
:102CB000704700BF182F000830B587B0194B0FCBF5
:102CC00006AC04E90F000022FF21174802F0EAFBDE
:102CD00010B1012007B030BD02A9134802F03CFC3E
:102CE00008B10120F6E711490F4802F047FB08B18F
:102CF0000120EFE70C4C04F1080500220C4928469E
:102D000002F0BEF90122009206232946204602F075
:102D1000F7F9204602F0F0FB08B10120DAE70020C5
:102D2000D8E700BF44BE00101C2F00088096980012
:102D3000912C001000B583B0FFF7CCFD00B101BEAF
:102D400062B64FF4E1330093FF231A46282129206D
:102D500008F070FD00B101BE014800F089F8FBE702
:102D60002C230008C9B2014B1970704734230008A6
:102D700070B582B006460D46002409E000220DF130
:102D80000701064803F088F89DF8073033550134F1
:102D9000AC42F3DB002002B070BD00BF2842000847
:102DA00070B506460D46002404E0315D034803F08B
:102DB00099F80134AC42F8DB002070BD28420008CD
:102DC0004140CBB201F00F0183EA01135A0082EABD
:102DD000131241EA0211C90081EA131181EA10209D
:102DE00080B2704770B506460D460020044604E0E8
:102DF000315DFFF7E5FF0134A4B2AC42F8D370BDFA
:102E000038B5044600210C4808F0BCFC054620609B
:102E100000210846FFF72CFF2860084B01221A709A
:102E2000206808F0C5FC28B9044B1B78002BFBD1A7
:102E3000002038BD0120FCE7652D00103423000878
:102E400010B582B0094C4FF0010C84F800C0049C0E
:102E5000009408F0CBFC30B9044B1B78002BFBD15D
:102E6000002002B010BD0120FBE700BF34230008A2
:102E700070B584B0594B0393594B1B78032B00F268
:102E8000AA80DFE803F0020E5F965648FFF7B8FF0E
:102E900018B1534B03221A709DE0514B01221A7056
:102EA00099E006215048FFF763FF18B14C4B03220D
:102EB0001A7090E004224C4903A808F0B1FE18B142
:102EC000474B03221A7086E047480379447944EA65
:102ED0000324A11C0630FFF74BFF80B9A31D424815
:102EE000C35CE21D855C45EA0325A11D89B2FFF79D
:102EF00079FFA84207D03A4B03221A706BE0384B97
:102F000003221A7067E0384908794A79374B40F252
:102F1000CE741C800093364B42EA002206313148C1
:102F20000068FFF78DFF18B12D4B03221A7052E095
:102F300040F2CE7200212C4808F082FE284B02227B
:102F40001A7048E0284CBE232370EF236370DE2301
:102F5000A370AD23E370254B1D882B0A2371657187
:102F60002A462349A01D08F0ABFEAE1DB1B2204693
:102F7000FFF738FFC0F30723A355EB1DE05405F11D
:102F800008012046FFF70CFF18B1154B03221A70F9
:102F900021E040F2CE720021134808F051FE134B9D
:102FA0001A880021124808F04BFE0D4B01221A70BE
:102FB00011E00D48BE230370EF234370DE238370BE
:102FC000AD23C370FF23037143710621FFF7E8FEB1
:102FD000034B01221A7004B070BD00BFBEEFDEAD1E
:102FE000FA3E0008283700082C370008542F000844
:102FF000582F0008000000000230800803D0013084
:103000000238FCD100BF00BF7047EFF3108072B6EA
:10301000704780F31088704701BE0148704700BFB9
:1030200002020204024B0B60092313600020704768
:103030007C23000808B5407806F01AFC08BD0000A3
:1030400038B5054614468A4294BF002301238342C3
:1030500009D080F001038A422CBF002101218B425C
:1030600001D04DB138BD07F019F8054BA3FB043171
:10307000890C06F061FDF4E7FFF7C8F9F2E700BF3D
:1030800083DE1B432DE9F04104460A78A2F10D03CB
:10309000DBB2012B04D90F2A2FD14E78013600E084
:1030A0004E78002005F0AAFE0746002005F074FEC9
:1030B00006F0BEFB20FA07F8304606F0B9FB20FA0E
:1030C00007F763786BB1F1B2607805F045FE05460D
:1030D00063789BB958B93A4641460020FFF7B0FFE4
:1030E0000CE03A4641460120FFF7AAFFEBE74246D3
:1030F00039460020FFF7A4FF00E0024D2846BDE856
:10310000F08100BF01020204F8B505460139072924
:1031100035D8DFE801F004263406343434240026A0
:1031200000E00226002005F069FE0746002005F0B9
:1031300033FE06F07DFB20FA07F720FA06F46B78E1
:103140008BB13146687805F039FE06466B78BBB91D
:1031500078B9224639460020FFF772FF10E00326B7
:10316000E0E70126DEE7224639460120FFF768FF47
:10317000E7E73A4621460020FFF762FF00E0014EF4
:103180003046F8BD0002020408B519B1407805F0D8
:103190009DFD08BD407805F0C3FDFAE708B540780D
:1031A00005F0ACFD08BD00002DE9F84304460E46CD
:1031B0001546DDF82080DDF8249001279F404FEA76
:1031C000520C1CEB00004FF0000341F1000108F02D
:1031D000A9FBC9F80000B84201D9C9F80070B8F1DC
:1031E000000F1AD098F80070D9F80020002320466C
:1031F000314608F097FB02462946384602F0B6FFF2
:103200000028B8BF4042B8F1000F08D0D8F8043009
:10321000834206D30020BDE8F8830020F3E70020B6
:10322000F9E70148F7E700BF0002020408B590F88B
:1032300000C01CF0020F06D14A1E41780CF00300BA
:1032400005F098FA08BD00234A1E41780CF00300EF
:1032500005F0F4FAF6E770B584B004460D4616465C
:1032600006F016FB0146237813F0020F0ED013F080
:10327000010F24D01D2303AA019200962A4648017B
:10328000C90EFFF791FFE0B104B070BD13F0010F5C
:1032900013D0102303AA019200962A460846002163
:1032A000FFF782FF0028EFD12078039A013A617876
:1032B00000F0030005F05EFAE6E70823EAE71523CD
:1032C000D9E7039B5A09207803F01F03013A61787C
:1032D00000F0030005F0B2FAD6E708B503784178AC
:1032E00003F0030006F0EDFA08BD08B531B103782C
:1032F000417803F0030005F089FB08BD03784178AD
:1033000003F0030005F0C4FBF7E708B50378417844
:1033100003F0030005F0EEFB08BD00000048704715
:103320007CC600102DE9F04182B007460D4690465C
:10333000084602F049FFC6B2002401E00134E4B2BD
:10334000B44213D205238DF804308DF805508DF862
:10335000064001A800F090FB03460028EED13D7026
:103360007C700122BA70C7F8048000E0024B184656
:1033700002B0BDE8F08100BF020D020430B583B099
:103380000C46054678B184B105238DF804302378C6
:103390008DF8053063788DF8063001A800F06CFBDD
:1033A00028B103B030BD01BEEDE701BEECE72268F5
:1033B00063682A606B600123AB70F2E708B50346CF
:1033C00048B11A78122A08D0032A0AD95A68126812
:1033D0001846904708BD01BEF3E71846FFF7DEFE2A
:1033E000F8E71846FFF791FFF4E710B5034648B138
:1033F0001878122808D003280AD958684468184653
:10340000A04710BD01BEF3E71846FFF7BDFEF8E781
:103410001846FFF76AFFF4E710B5044668B1204686
:10342000FFF7CCFF98B12378122B08D0032B0AD9D1
:1034300063689B68204698470AE001BEEFE7204694
:10344000FFF7F8FD04E02046FFF747FF00E000200B
:1034500010BD10B5034648B11878122808D00328CB
:103460000AD95868C4681846A04710BD01BEF3E7E2
:103470001846FFF7D1FDF8E71846FFF7ECFEF4E732
:1034800008B5034648B11A78122A08D0032A0AD987
:103490005A6812691846904708BD01BEF3E71846FE
:1034A000FFF732FEF8E71846FFF7C0FEF4E710B565
:1034B00082B0044690B1A37803B901BE05238DF80C
:1034C000043023788DF8053063788DF8063001A834
:1034D00000F016FB0023A37002B010BD01BEEAE7A6
:1034E00008B5034648B11A78082A08D0092A00D03E
:1034F00001BE184600F0B0F908BD01BEF3E718465A
:1035000000F0AEF8F8E708B5034648B11878082887
:1035100008D0092800D001BE184600F0E3F908BD24
:1035200001BEF3E7184600F0D7F8F8E708B5034600
:1035300048B11A78082A08D0092A00D001BE1846D6
:1035400000F0F0F908BD01BEF3E7184600F0F4F80A
:10355000F8E710B50446B8B12046FFF7C1FF00B147
:1035600001BE02212046FFF7E1FF00B101BEB4F821
:10357000781059B92378082B10D02378092B11D053
:1035800094F87A3093B110BD01BEE5E702222046DF
:10359000FFF7B9FF0028EDD001BEEBE7204600F0B1
:1035A00021F8EAE7204600F009F9E9E7204600F0B3
:1035B000A7FAE8E70023032B06D8054A52F8232090
:1035C00022B90133DBB2F6E70020704701207047D3
:1035D000FC3E00088000C0B20844C0B20230C0B255
:1035E0007047000010B50446443002F0D9FEA178BF
:1035F000164802F0DFFE63789B00DBB2A27813442A
:10360000DBB203F134010B4601F01F015B0901221B
:103610008A4020330E4941F82320BFF34F8FBFF378
:103620006F8F62789200D2B2A3781344DBB2094A5A
:10363000002142F82310FFF7BDFF00B110BD06487E
:1036400001F09AFB054B00221A70F7E700002A40B0
:1036500000E100E0FC3E0008A02300080C3F000849
:10366000054B9B68DBB2817801228A401A4214BF65
:1036700001200020704700BF00002A4038B5022911
:1036800022D0082920D0012914D001BE19E000233E
:103690001D430134E4B2032C0FD875B90C4B53F819
:1036A00024000028F3D0FFF7DBFF08B10123EFE788
:1036B0000023EDE700242546EDE785F00105054BE5
:1036C0001D70044B187838BD024B00221A70F8E7C1
:1036D000FC3E00080C3F0008022A27D810B50C4613
:1036E0008378032B00D901BE114910331B02CA583D
:1036F00022F00042CA50436C23F0C003436443F0FD
:10370000800343648378032B00D901BE084910333A
:103710001B02CA5842F00042CA5081784078FFF735
:1037200059FF0146204600F025FF10BD01487047B3
:1037300000002A400106020402291ED88378032BC8
:1037400000D901BE0E4910331B02CA5822F00042B4
:10375000CA50436C23F03003436443F030034364A6
:103760008378032B00D901BE054910331B02CA58C8
:1037700042F00042CA50002070470248704700BF24
:1037800000002A40010602040023392B06D8054A0E
:1037900052F8232022B90133DBB2F6E7002070474C
:1037A00001207047103F0008C0EBC00300EB83000E
:1037B00051FA80F0C0B20630C0B2704710B504466E
:1037C000443002F09FFD63784BBB1D48A17802F0A6
:1037D000A5FD627812B9A3781C2B22D9012A22D028
:1037E00001BE40F2FF3303F01F015B0901228A4052
:1037F0002033144941F82320BFF34F8FBFF36F8F5D
:103800006378C3EBC30203EB8203A27813440E4A2E
:10381000002142F82310FFF7B7FF48B110BD0B4855
:10382000D4E73833DFE7A3781C2BD9D85533DAE750
:10383000074801F0A1FA074B00221A70EEE700BF1B
:103840000000284000E100E0103F0008000029408F
:10385000B0230008F83F000843786BB9074B084ACB
:103860001268B2F85E100B448178B2F8602002FB57
:1038700001335868C00F7047024BF0E70000284042
:10388000BC4100080000294038B5022922D008298F
:1038900020D0012914D001BE19E000231D430134BA
:1038A000E4B2392C0FD875B90C4B53F8240000281A
:1038B000F3D0FFF7D1FF08B10123EFE70023EDE7D5
:1038C00000242546EDE785F00105054B1D70044BEE
:1038D000187838BD024B00221A70F8E7103F000834
:1038E000F83F0008022A19D838B504460D46B0F84A
:1038F000783003B901BE636C23F0C003636443F006
:1039000080036364A1786078FFF74EFF0146284684
:1039100000F030FE08B9A4F8780038BD00487047C0
:1039200001060204022908D8436C23F030034364E3
:1039300043F030034364002070470148704700BFE4
:103940000106020470B504280DD00D46114602464A
:103950003C4C34F810E0441C1D2C07D8E4B2394E1E
:1039600036F8144004E00D250520F0E740F231144C
:103970004FF0010C0CFA02FC334A0CEA02023AB98D
:10398000AE44A3F800E01B88A34258D2002070BDCB
:10399000C21E182A32D8DFE802F00D313431310F5F
:1039A00025312931313131312B312D313131313125
:1039B000312F2700254A00E0254A1C80002AE2D04A
:1039C0000338182836D8DFE800F01E353835351EA4
:1039D0002F353135353535351E351E3535353535CF
:1039E00035331E001B4AE8E71B4AE6E71B4AE4E7BB
:1039F0001B4AE2E71B4AE0E71B4ADEE701BE002262
:103A0000DBE71A4AD9E70126B542BCD232F81500E5
:103A1000704411FA80F11980691CB142B3DA32F8AE
:103A200011407444A4B2AEE70226EDE71026EBE79E
:103A30000226E9E701BE0026E6E71A26E4E70C487D
:103A4000A5E700BF2CC70010280B0A0CBCC600104D
:103A5000F4C60010F8C6001028C70010FCC60010FD
:103A60001CC7001020C7001024C70010C0C60010DB
:103A7000000D020400207047F0B583B00446002713
:103A8000FFF7C3FA06460DF10603A27861782078A5
:103A9000FFF758FF054668B9BDF80630C3F3C70203
:103AA00003F007031449895C012202FA03F3194267
:103AB00018BF174605B9EFB92DB13046FFF7A9FA7F
:103AC000284603B0F0BD0DF10603A2786178207896
:103AD000FFF738FF05460028EFD1BDF80630C3F3E5
:103AE000C70103F00703044801229A40435C1343D3
:103AF0004354E2E7014DE0E7FC3F0008010D0204FA
:103B000030B583B00446FFF780FA05460DF1060391
:103B1000A27861782078FFF715FF014668B9BDF8F3
:103B20000630C3F3C70003F00702074C012393409C
:103B3000DB435BB2225C1340235401B101BE284633
:103B4000FFF767FA03B030BDFC3F00082DE9F04FE6
:103B500085B080460F46924601935D4B33F81020A6
:103B6000431C1D2B12D8DBB2594931F813900123A5
:103B700003FA08F3DFF884B103EA0B0BA9EB02099F
:103B80001FFA89F900252E462C4617E040F231191C
:103B9000EDE70123BAF1000F08D031462046019B22
:103BA00098479AF8001000F0EAFC0346BBB9BBF155
:103BB000000F26D10134E4B20135ADB24D4580F09D
:103BC0008180002FE5D0314620460E9B9847014664
:103BD000388800F0D4FC03460028E7D0DAE78DF8F7
:103BE0000C808DF80D408DF80E6003A8FFF744FFA0
:103BF00003460028DBD10F9A82F80080547096703B
:103C000061E0A8F10303182B30D8DFE803F00D2F93
:103C1000322F2F0F232F272F2F2F2F2F292F2B2FEF
:103C20002F2F2F2F2F2D25002A4A00E02A4AA8F1F6
:103C30000303182B32D8DFE803F01E313431311E74
:103C40002B312D31313131311E311E313131313194
:103C5000312F1E00214AEAE7214AE8E7214AE6E738
:103C6000214AE4E7214AE2E7214AE0E701BE0022D7
:103C7000DDE7204ADBE70121631C08468B4204DABA
:103C800032F813106B1C99420DDD0136F6B293E742
:103C90000221F1E71021EFE70221EDE701BE00214B
:103CA000EAE71A21E8E70134E4B2631C984207DD31
:103CB00032F8131032F814309942F4D000267BE722
:103CC000002679E70C4B184605B0BDE8F08F00BF21
:103CD0002CC70010BCC60010F4C60010F8C60010B7
:103CE00028C70010FCC600101CC7001020C7001019
:103CF00024C70010C0C60010020D0204280B0A0CD5
:103D000000B583B00191002100910B460A46FFF7F0
:103D10001DFF03B05DF804FB2DE9F04782B00646B5
:103D20008846174699461E230371FF230372C37109
:103D300000230375534B1D68FF2906D1FF2F0BD1BC
:103D4000002D00F0978000240FE015224E494046D8
:103D500000F04AFE0540F1E715224C49384600F0D4
:103D600043FE0540ECE70134E4B225FA04FC1CF004
:103D7000010FF8D017238DF804308DF8054000238B
:103D80008DF8063001AB15223F49404600F0EAFDB0
:103D9000054601AB15223D49384600F0E3FD824659
:103DA000002D69D0002869D02A7803789A4223D060
:103DB0000023002B64D017238DF80030204600F03C
:103DC000D7FC8DF8010000238DF802306846FFF71C
:103DD00053FE0446C0B16CB344B9B9F1000F32D000
:103DE00006F10C0399E8030083E80300002C37D0A8
:103DF000204602B0BDE8F0876A7843789A4201D045
:103E00000023D6E70123D4E79DF8050000F0B0FCBD
:103E10001F4B53F820303360019BB3801B0CB371F0
:103E20000C21284602F02DF904460028D3D186F84B
:103E30000780D0E70C21504602F023F90446002801
:103E4000CAD13772C8E701231A46311D06F10C00AA
:103E500002F0D8F90446B0FA80F35B093375C5E780
:103E600000230C4A0121304600F0DCFC0028BFD1C1
:103E7000094CBDE7094CBBE7084CB9E7074CB7E76D
:103E8000064CB5E7BCC70010A8BE001054BE001019
:103E9000C0C70010A0860100010902040009020445
:103EA00070B504460368CBB10023A4F88A3084F8C7
:103EB0008C30C4F89030C4F89430C4F89830C4F80A
:103EC0009C30224652F8180B03F068FB05466079D7
:103ED00000F04EFC06461DB1284670BD01BEE3E76A
:103EE000144A2146607900F0B7FD2268136843F058
:103EF000004313600023C4F8A030C4F8A430C4F811
:103F0000A830C4F8AC30C4F8843084F888300A4B48
:103F100033F91640094A0321204600F085FB002CA6
:103F2000DADB04F01F02640901239340044A42F8DB
:103F30002430D1E7A13F001004C80010453F001015
:103F400000E100E070B5154D2E6800F057FC044606
:103F50002860054655F8180B294604F03EF8B4F8D9
:103F60008A3013B90D4B1E6070BD2946206803F0DE
:103F7000B7FD10F4803FF5D1B4F88A30032B03D09D
:103F80000023A4F88A30EDE70123A4F88A30214603
:103F900051F8640B2A4603F0A5FDE3E7244000082E
:103FA00000B583B00B46114650F8182B00920190D3
:103FB000022B05D0042B03D0082B0AD0012005E0EA
:103FC000684603F0D9FBB0FA80F0400903B05DF811
:103FD00004FB684603F032FCB0FA80F04009F5E7D4
:103FE00038B50446C2B20821054802F030F805464B
:103FF000220C0521034802F02AF8284338BD00BFEF
:104000007CC700109CC7001038B50A4B1D68D5F856
:104010008440FFF7E5FF14EA00010AD0012385F888
:104020008C30D5F8A030D5F8A4009847002385F847
:104030008C3038BD2440000830B583B0044690B1C0
:10404000206840B104F1180103F08AFB206803F0F6
:1040500061FB0023236023791E2B06D194F8B03036
:104060009BB303B030BD01BEEAE7607900F080FB8E
:10407000054600221146607900F0EEFC1A4B33F938
:104080001530002B0CDB03F01F015B0901228A4075
:104090002033164941F82320BFF34F8FBFF36F8FB2
:1040A00094F8B03013B11E232371D7E717238DF88E
:1040B0000430607900F05CFB8DF80500A3798DF881
:1040C000063001A8FFF71CFDEDE7E01D01F0B4FF8D
:1040D00004F1080001F0B0FF237D002BC1D004F1F2
:1040E0000C00FFF7E4F9BCE704C8001000E100E0B1
:1040F000F8B50D4616461F46044688B1002184F8DF
:10410000B010B422204607F09BFD3B4632462946BC
:104110002046FFF701FE054620B14DB92846F8BDFF
:1041200001BEEBE704492046FFF7BAFE0546F4E777
:104130002046FFF781FFF1E768C70010F0B587B0B0
:104140000C46074660B36CB374B33E4656F8180B82
:10415000314603F005FB0DF1040C1E4D0FCDACE80C
:104160000F002B68CCF800302378FBB101238DF8C9
:104170000430A3788DF8073023783BB1637A8DF84B
:1041800009308DF80A30237A8DF80830324601A9BB
:10419000386803F003FA054650B1284607B0F0BD71
:1041A00001BED0E701BECFE701BECEE70223DEE7C6
:1041B000237862680121384600F034FB28B13A6860
:1041C000136843F000431360E7E7386803F0A2FA8E
:1041D000014DE2E768C700100109020400B585B08F
:1041E000024688B191B101AB03C983E80300FE2107
:1041F0008DF80C1000218DF80D1019461046FFF7B0
:104200009DFF05B05DF804FB01BEEBE701BEEAE7E8
:104210002DE9F04104460F4690461D46079E00F0EA
:1042200015FC58BBF9B284F8641084F87410069B2E
:10423000A366E666C4F87880E567B4F88A30FBB90F
:104240007DB166B10323A4F88A30214651F8740B7E
:1042500004F1180203F024FD0020BDE8F0810223E0
:10426000F1E77EB10123A4F88A30214651F8640BAE
:1042700004F1180203F036FC2846EEE70248ECE7AA
:104280000248EAE70248E8E7031A020404090204C4
:104290000309020438B5B0F88A30FBB10546012B9A
:1042A00011D0014651F8180B03F090FD42F2107442
:1042B0002B6A13F4803F0CD05CB1012005F0B4FBF5
:1042C000013CA4B2F4E7014651F8180B03F0ACFC32
:1042D000ECE72CB10020A5F88A0000E0002038BDF2
:1042E0000048FCE70609020470B504460E46154670
:1042F000FEF78BFEC4F8A060C4F8A450FEF789FE58
:10430000024BE3650023C4F8843070BD09400010FF
:10431000F8B505460E4614461F46407900F028FAC7
:1043200097B1D5F884303343C5F884300D4B33F959
:104330001030002B0FDB6401E4B203F1604303F59E
:10434000614383F80043F8BDD5F8843023EA0603BF
:10435000C5F88430EAE703F00F036401E4B2024ACF
:10436000D454F0E704C8001014ED00E00246002326
:10437000184603B1704702B118460133DBB2F8E7C3
:1043800010B50446FFF7F2FF204610BD002001E003
:104390000130C0B2102805D8044B1B5C002BF7D0AD
:1043A00040B270474FF0FF30704700BF90C0001020
:1043B00038B504460D46FFF7E9FF114B1B5D83B18D
:1043C000104B1A689368B2F870100B44201A103022
:1043D000B2F8722002FB00F000EB8501C858C0B2B1
:1043E00038BD084B1A689368B2F870100B44B2F8E5
:1043F000722002FB04F404EB8501C858EFE700BF0C
:1044000090C00010BC4100082DE9F84304461E4648
:104410009DF820809DF82470224B1B5CC3B1411A8B
:10442000CCB22046FFF7ACFF46EA00262046FFF755
:104430009DFF46EA004040F0804040F4805027B1A4
:104440004246002106F0AAF823E006F0F5F820E045
:104450001546FFF795FF4FEA002945EA002520465B
:10446000FFF784FF45EA004549EA060949EA0049A1
:1044700049F080417FB90C4B19688B68B1F8702006
:104480001A44B1F8723003FB04F404EB86030020F5
:104490009850BDE8F88343460022284606F022F8EB
:1044A000F7E700BF90C00010BC4100082DE9F047BD
:1044B00082B00C469046C0F3470600F00107FFF7B4
:1044C00065FF8146244B1D5D1B57002B04DB234BEE
:1044D00013F804A0002416E005F07F0555FA80F5D6
:1044E000EDB2F4E7B8F1010F14BF002301230193EB
:1044F00000975346E2B25FFA89F12846FFF784FF3E
:1045000022E00134A4B22A46154B33F81530A342F9
:1045100019D9144B53F825301B5DB342F1D1124B1E
:104520009B5C1BB11FFA8AF3A34210D1B8F1020FB2
:1045300004D051462846FFF73BFF50B9B8F1000FB1
:10454000D0D1002000E0094802B0BDE8F08707485C
:10455000FAE70748F8E700BF24C000109CC5001028
:1045600008C600103823000890C00010010C020497
:10457000000C020408B50222FFF798FF08BD08B539
:104580000022FFF793FFB0FA80F0400908BD000059
:1045900070B582B00D468378772B16D8DA081349A8
:1045A00009688E6906EBC216C27803F00704009210
:1045B00001232A462146304601F0D4FF0A2D08D0B7
:1045C0000B2D0CD0002002B070BD084A126896690D
:1045D000EAE701222146304602F01CF8F2E7002209
:1045E0002146304602F016F8ECE700BFBC41000857
:1045F00010B582B00146772810D8C308094A12685E
:10460000906900EBC310002400940123082201F0FC
:10461000070101F0A7FF204602B010BD014B1B6847
:104620009869F0E7BC41000800B583B0ADF8000020
:1046300001911146684605F0A7F903B05DF804FB47
:1046400038B50346084850F82340084850F823502E
:1046500044B12DB1002318460BB92046A84738BDF8
:104660000123F8E70123F6E7604000082C4000082A
:104670002DE9F04385B005460F4606781C4850F8F2
:10468000041B039101AC03C884E803006AB306F07D
:10469000030691462BBB4FF00008404605B0BDE82D
:1046A000F08301AA49462846FEF7D3FE804600283B
:1046B000F3D02846FEF7FBFE0134E4B2032CECD81D
:1046C00004F110036B4413F8042CB242F4D3E8D97C
:1046D00001233946284601F095FD80460028EBD19C
:1046E000DFE70024DFF80C80E8E7DFF80880D4E794
:1046F000B0C70010002302042DE9F04105468846AA
:10470000084601F01AFD06460024012718E002229F
:1047100029463046FFF794FF0136F6B2B442F6D888
:10472000B8F1020F1BD0B8F1080F18D0B8F1010F83
:1047300018D1BFB10D4B01221A7013E00134E4B25D
:104740000C2CEDD8324629462046FFF779FF074664
:104750000028F3D1B8F1010FF0D10026DEE7034BBA
:1047600000221A703846BDE8F08100BF28400008DA
:10477000024600200C2806D8044B1B5C934203D051
:104780000130C0B2F6E7FF20704700BFF4C7001049
:1047900008B5123820282CD8DFE800F0212B2B2B6D
:1047A0002B2B2B2B2B2B2B2B2B2B2B2B2B2B2B2B59
:1047B0002B112E1317191B1D1F232527290000203D
:1047C00000E00220FFF7D4FF08BD0320FAE7042031
:1047D000F8E70520F6E70620F4E70720F2E70820CF
:1047E000F0E70920EEE70A20ECE70B20EAE70C20CF
:1047F000E8E701BEFF20E5E70120E3E708B5EFF3B6
:104800000580103800B240F2FF33984205D0FFF720
:10481000BFFF034B53F8200008BD0020FCE700BF9A
:10482000604000082DE9F04F83B0044615461E464F
:104830000B46F9B1D0F800B0FBB194F805A004F133
:104840000C07EBB194F81480002D71D03C4B9D42C5
:1048500019D836B3DFF8F49043464A46211D38464E
:10486000FFF706FF0190002861D1B9F1000F24D1B4
:104870004D465DE0D0F800B0DEE794F805A0DEE735
:1048800094F81480E0E72F4B9D4203D866B1DFF81F
:10489000C090E1E72C4B9D4209D85EB1DFF8B4909F
:1048A000DAE7DFF8B490D7E7DFF8B090D4E74FF05D
:1048B0000009D1E7DFF8A890CEE7217B627B01F009
:1048C0000301504604F066F80446A8BBB8F1000F97
:1048D0000BD1019B93BB06B33846FEF79DFD014605
:1048E000584602F0D7FF054622E00022114638461E
:1048F000FEF77BFD019048B1019B002BE9D100221E
:1049000001213846FEF771FD0190E2E70022494699
:104910003846FEF79EFD0190EEE73846FEF77CFD37
:1049200002462946584602F0F5FF054600E00025FC
:10493000284603B0BDE8F08F019DF9E72546F7E76B
:10494000A0860100801A060040420F0000127A0083
:1049500020BCBE0080F0FA0280841E0020B38100DB
:10496000002D31012DE9F04383B080460E461746F5
:104970009946002416E099F802206B789A4201D0FB
:10498000002325E0012323E017238DF80430735C16
:104990008DF805306B788DF8063001A8FFF76CF8BC
:1049A000C8B10134BC421AD2A10006EB840595F8C7
:1049B00002C0C445F5D1B9F1000FE5D099F8003037
:1049C000172BE1D199F80120735C9A42D3D00023D0
:1049D000002BE6D004E001A8FFF792F800E00025E4
:1049E000284603B0BDE8F0832DE9F04782B0804649
:1049F0000E4617460024A24600E00134BC4221D2F4
:104A00004FEA840906EB8405AB784345F5D116F8E7
:104A10002400FFF7ADFE17238DF804308DF8050054
:104A20006B788DF8063001A8FFF726F80028E4D14E
:104A300001A8FFF765F816F80920012393404AEA18
:104A4000030ADAE7504602B0BDE8F087014B187858
:104A5000704700BF2840000838B50C461546FFF7E0
:104A600087FE124B43F82040114B43F8205000239F
:104A70001A4601E00133DBB20C2B08D80B4850F882
:104A800023000028F6D0012A07D00132F2E72AB924
:104A900004B101BE074800F06FF938BD012AFCD10E
:104AA000002CFAD0034800F05BF9F6E760400008FC
:104AB0002C400008C02300082DE9F0410446884638
:104AC00016461F4604E0012388F80030E3B1E4688D
:104AD00040F28975AC4217D02568002DF7D094F8C4
:104AE00004C036EA0C0CF2D1637937EA0303EED046
:104AF000A26839463046A8470028E4D1012F01D0EA
:104B00000123E1E70023DFE72046BDE8F08170B52F
:104B100004460D46164600E0E468AC4210D0236817
:104B2000002BF9D094F804C036EA0C0CF4D1627969
:104B300012F0020FF0D1A268022130469847EBE74D
:104B400070BD38B505460C46FEF75FFAE36813B151
:104B5000FEF75FFA38BD2B68E3602C60F8E738B5E4
:104B600004460D46FEF751FA01E003F10C042368F8
:104B700040F28972934205D0AB42F6D1EB682360D4
:104B80000023EB60FEF745FA38BD00002DE9F04147
:104B900082B00D4601F0DDFA044601238DF807309E
:104BA000022808D0082806D0102804D01A4B1E6806
:104BB0001A4B1F6803E0184B1F68184B1E682346EA
:104BC0002A460DF107013846FFF776FF80469DF82B
:104BD000073063B930469DF807300BB9012C0ED071
:104BE0009DF80730B3B1002002B0BDE8F081234644
:104BF0002A460DF107013046FFF75EFFEBE72A4634
:104C000001463046FFF783FF2A4641463846FFF704
:104C10007EFFE5E70248E7E7D4230008D023000839
:104C2000FF00420038B50C4620212046FFF7AEFFBA
:104C30000546042C01D0284638BD002004F018FE9B
:104C4000034BA3FB0031890C012004F075FFF2E750
:104C500083DE1B4338B50C4610212046FFF796FF34
:104C60000546082C01D0284638BD002004F000FE7F
:104C7000034BA3FB0031890C002004F05DFFF2E739
:104C800083DE1B4308B508460821FFF77FFF08BDF8
:104C900010B50446FFF77AFF042C02D0082C17D079
:104CA00010BD4FF0E0231B6913F0010F04D00E4B31
:104CB0001B7813B1012300E000230C4A1370002B72
:104CC000EED04FF0E022136923F001031361E7E710
:104CD000064B1B78002BE3D04FF0E022136943F022
:104CE00001031361DCE700BF964000083041000873
:104CF00008B50846012902D1044B1B881BB90221C3
:104D0000FFF7C6FF08BD0248FCE700BF944000085B
:104D1000FF00420008B508460121FFF7B9FF08BDB2
:104D200038B584468E4615460C4C0FCCCCF80000A6
:104D3000CCF80410CCF80820CCF80C3007CCCCF818
:104D40001000CCF81410CCF81820CCF800508CF8D7
:104D500004E0604605F072F838BD00BF20C80010BE
:104D600008B5014618B10348FFF7EBFE08BD01BEC8
:104D7000F9E700BFD423000808B5014618B103487D
:104D8000FFF7EDFE08BD01BEF9E700BFD423000820
:104D900008B505F049FA38B9164A00211648FFF758
:104DA000BFFF20B9154808BD05F092F8F4E7144A92
:104DB00001211448FFF7B4FF08B91048F3E7124A7D
:104DC00002211248FFF7ACFF08B90C48EBE7104A84
:104DD00003211048FFF7A4FF08B90848E3E70E4A8B
:104DE00004210E48FFF79CFF08B10020DBE70348D1
:104DF000D9E700BF154D001010410008011A020448
:104E0000F14C0010A0400008854C0010BC40000888
:104E1000554C0010F4400008254C0010D840000804
:104E2000024600B101BE024B43F82210704700BF9A
:104E30002C41000808B504F0DBFD002008BD00008F
:104E400000231F2B06D8054A52F8232022B901332C
:104E5000DBB2F6E7002070470120704734410008BC
:104E600070B40139072900F29080DFE801F0850471
:104E70008E2F8E8E8E5E464B00221A70012028E007
:104E8000002353700131C9B2424B03EB00131B7B6B
:104E90008B4211D93F4B03EB00135B7B0B443E4A23
:104EA00052F82320002AEDD001238B402E681E42A9
:104EB000E6D001235370E5E70134E4B2012C07D8B2
:104EC00020462301334AD5580021DDE70024F5E7C9
:104ED000012070BC70470133DBB22E4A02EB011295
:104EE000127B9A4210D92B4A02EB0112527B1A44D0
:104EF000294D55F82220002AEDD05278002AEAD018
:104F000001229A401043E6E700B1A0600CF1010CC9
:104F10005FFA8CFCBCF1010F0AD861464FEA0C1312
:104F20001C4AD45800231846D7E74FF0000CF1E78D
:104F3000174B00221A700120CBE70132D2B2154B79
:104F400003EB00131B7B934213D9124B03EB0013AB
:104F50005B7B1344104951F82330002BEDD0596886
:104F60009B7A043301EB83135B68002BE5DA0020A6
:104F7000AFE70130C0B200E00020012801D80022D4
:104F8000DDE70120024B1870A3E701BE0120A0E776
:104F9000B44100083CC8001034410008EFF305821A
:104FA000103A1FFA82FC12B2002301E00133DBB297
:104FB000012B11D81A4901EB0311897B8A42F5DBD9
:104FC000174800EB0310007B08448242EEDA5FFAD8
:104FD0008CF2521AD2B200E00022012B01D901BE9C
:104FE000704770B50E49180101EB03130C585B7B39
:104FF0001A440C4B53F82250AB7A04EB8313D3F8CA
:105000003C6126B1EB6913B13146286A9847AB7A07
:1050100004EB8314C4F83061D4F8303170BD00BFA4
:105020003CC8001034410008014B1878704700BF9D
:10503000B441000810B50446002306E003F1140251
:10504000002124F812100133DBB2042BF6D9FFF74C
:10505000F7FE50B1627A074B03EB02135B7BA27A37
:105060001344054A42F8234010BD0448FFF778FE78
:10507000F0E700BF3CC8001034410008D823000806
:105080002DE9F0410546884617464378184E06EB51
:1050900003135C7B83781C44E4B2FDF7B6FF154B29
:1050A00053F82430C3F81C801F62FDF7B2FF6B7801
:1050B00006EB0316B47BAB78E5186A090E4B53F880
:1050C000223005F01F02D34013F0010F0DD12C4602
:1050D0000A4A03212846FFF7A7FA05F01F056409CD
:1050E0000123AB40044A42F82430BDE8F08100BF00
:1050F0003CC800103441000800E100E09D4F001062
:10510000F0B49DF81060456891F802C005EB8C146E
:10511000D4F838413EB122EA040705EB8C15C5F8F6
:105120003071D5F8305140688D78AEB1144300EB42
:105130008512C2F838414878094A02EB0012927B86
:1051400089780A445B01DBB202F1604202F56142F8
:1051500082F80033F0BC704724EA0204E7E700BF9E
:105160003CC8001010B94731C8B27047012800D0C0
:1051700001BE5531C8B2704770B504460E4615469B
:10518000407AA27A042D00F28480DFE805F003263D
:105190003D546B00636803EB821CDCF82031C3F3E1
:1051A0000343DCF8201121F47021CCF82011616850
:1051B00001EB8212D2F8241141F44071C2F824119B
:1051C000023BD9B2FFF7CEFF01463046FFF7D2F9D6
:1051D00010B9143524F8150070BD636803EB821C08
:1051E000DCF82031C3F30333DCF8201121F47041E3
:1051F000CCF82011616801EB8212D2F8241141F041
:10520000C001C2F82411DBE7636803EB821CDCF801
:105210002031C3F30323DCF8201121F47061CCF8B2
:105220002011616801EB8212D2F8241141F03001A3
:10523000C2F82411C4E7636803EB821CDCF8203158
:10524000C3F30313DCF8201121F0F001CCF8201196
:10525000616801EB8212D2F8241141F00C01C2F80E
:105260002411ADE7636803EB821CDCF8203103F006
:105270000F03DCF8201121F00F01CCF82011616838
:1052800001EB8212D2F8241141F00301C2F824117B
:1052900096E70148A0E700BF0022020438B50546A2
:1052A00038B36A7A314B03EB02139B7BAA7A9918C5
:1052B0000B4601F01F015B0901228A4020332C4973
:1052C00041F82320BFF34F8FBFF36F8F6B68002B24
:1052D00035D06A7A254B03EB02135B7BAA7A134421
:1052E000244A002142F82310FFF7AAFD18B1002339
:1052F00007E001BED5E72048FFF73EFDF7E70133A1
:10530000DBB2042BFBD9002401E00134E4B2042C0D
:105310000AD804F1140335F813100029F5D02246F9
:105320002846FFF729FFF0E76A68A97A01238B4036
:1053300053602B7833B100236B601E232B722B7DBF
:105340002BB938BD05F10800FEF7DAFBF3E7287B3F
:10535000697B00F0030003F09BFB00B101BE05F187
:105360000C00FEF7A4F800232B75EAE73CC80010F8
:1053700000E100E034410008D8230008F0B583B014
:1053800004460E46037D53B10025154B93E80300F8
:1053900002AB03E9030025B1284603B0F0BD114D6F
:1053A000F3E704F10C07002211463846FEF71DF81A
:1053B00008B10D4DF0E76A4631463846FEF749F828
:1053C00008B1094DE8E7002201213846FEF70DF843
:1053D00008B1054DE0E73846FEF71EF8A061DBE7AF
:1053E0005CC80010031D0204011D0204F8B5044648
:1053F0000E4600F10801437A27481D0100EB031314
:10540000405960601879A37A1844C7B2D2B104F148
:105410000C03D2E9000183E803001846FDF7FCFF06
:10542000A061217B627B01F00301384603F0B2FAF0
:1054300038BB3246A17A606804F096FF054615B382
:105440002846F8BD01231A4604F10C0000F0DAFEEC
:10545000054610B1002DF2D1EBE7012323750F496A
:105460002046FFF78BFF05460028F3D1217B627BA6
:1054700001F00301384603F08DFA0028EAD0084D08
:10548000DDE7074DDBE72046FFF7D4FD6268A17A30
:1054900001238B409360D3E73CC8001040420F00CB
:1054A000011D020470B51446064620B1FF2904D040
:1054B0000F4D284670BD01BEF8E738220021304666
:1054C00006F0BEFB31461E2301F8083F1A20FEF706
:1054D00017FC054628B1002DEBD03046FFF7DEFE65
:1054E000E7E7224603493046FFF780FF0546F2E72B
:1054F000001D020464C8001010B5044668B1FFF72F
:1055000093FD60B96168A27A012303FA02F28A600E
:105510006268A17A8B40936110BD01BEEFE701483C
:10552000FAE700BF031A0204034630B15A68997AB9
:1055300001238B4053600020704701BEF6E702460E
:1055400040B15368917A526B03EB8113C3F8082181
:105550000020704701BEF4E770B594B004460D46D4
:10556000CB6843634C22204901A806F0A9FB6B6875
:105570000193AB6806932B7883F001030393AB7818
:1055800053B1002305936B78012B07D0022B07D072
:1055900043B301BE002304E00223F3E7012300E04C
:1055A000032304936068A17A00EB8113D3F8386178
:1055B00001AA04F06BFF01AAA17A606804F0D4FE8E
:1055C00005466268A17A01238B4093606368A27AE2
:1055D00003EB8213C3F838612046FFF7B0FF28467B
:1055E00014B070BD0023DCE764C80010012803D0AC
:1055F000022803D103207047022070470020704723
:105600000138032809D8DFE800F0020B0406022065
:105610007047062070470820704701BE022070477F
:1056200004207047814206D9091A642303FB01F163
:10563000B1FBF0F07047411A642303FB01F1B1FBA9
:10564000F0F070472DE9F04F87B005460E4617463B
:1056500098469DF840901E23037100234373FF2357
:10566000C37103724372837299421BD0FF2F1DD006
:10567000FF2E02D1FF2F00F0F280FDF7C6FC83461B
:10568000784BD3F800A0FF2E15D1FF2F1BD1B8F116
:10569000FF0F20D1B9F1FF0F25D1BAF1000F2AD0A9
:1056A00000242FE09945E1D06F4CACE0B8F1FF0F3A
:1056B000DED06D4CA7E013226C493046FFF794F919
:1056C0000AEA000AE1E7132269493846FFF78CF934
:1056D0000AEA000ADBE7122266494046FFF784F92E
:1056E0000AEA000AD6E7122263494846FFF77CF926
:1056F0000AEA000AD1E75846FDF78BFC5A4C82E0D3
:105700000134E4B22AFA04F313F0010FF8D017239E
:105710008DF814308DF8154000238DF8163005AB48
:10572000132252493046FFF71DF9019005AB1322B1
:105730004F493846FFF716F9029005AB12224D4942
:105740004046FFF70FF9824605AB12224A49484608
:10575000FFF708F90390FF2E01D0019B73B1FF2FD3
:1057600001D0029B53B1B8F1FF0F02D0BAF1000F84
:1057700004D0B9F1FF0F02D0039B03B901BE172378
:105780008DF810302046FEF7F3FF8DF8110000234E
:105790008DF8123004A8FEF76FF904465846FDF75D
:1057A00038FC84BB059BAB801B0CAB71FF2E2ED14C
:1057B0000CB9FF2F34D164B9BAF1000F09D0082118
:1057C000504600F05EFC044618B90123EB7285F8E0
:1057D00009805CB9039B4BB10621184600F051FCCF
:1057E000044618B901232B7385F80A9054B9119B0C
:1057F000FBB100236B7305F11003119A92E80300CB
:1058000083E8030014B3204607B0BDE8F08F0621FB
:10581000019800F036FC04460028C9D12E72C7E773
:105820000821029800F02DFC04460028C3D1EF7136
:10583000C1E701231A46291D05F1100000F0E2FC22
:105840000446B0FA80F35B096B73DBE7297C6A7C62
:1058500001F00301687903F09DF80446D3E7024C98
:10586000D1E700BFBCC70010001F0204D8BF001062
:105870008CBF0010FCBE001044BF0010F8B5314DC5
:105880002E68FEF7BBFF2860002859D00446014669
:1058900051F8180BD0F88C5FD0F8CC7F02F0CEFE18
:1058A00015F0200F09D023682022C3F8802FD3F8E9
:1058B000803FE36C0BB11046984715F0400F09D0BC
:1058C00023684022C3F8802FD3F8803FE36C0BB1EC
:1058D0002020984715F0010F04D0E36C13B14FF46A
:1058E0008070984715F4007F13D023684FF400723E
:1058F000C3F8802FD3F8803F2268D2F8883F43F462
:10590000007123F4EE6323F0030303B101BEC2F878
:10591000881F17F0400F09D023684022C3F8C02F1A
:10592000D3F8C03FE36C0BB11020984717F0010F7C
:1059300004D0E36C13B14FF400709847014B1E6024
:10594000F8BD00BFB841000838B50C46154603F055
:105950009FFF05FB04F4B0FBF4F038BD2DE9F843DC
:1059600080460E460824FF27A14601E00134E4B238
:10597000102C15D806FB04F503F08AFF00EB550147
:105980002246B1FBF5F14046FFF7DEFF0146304607
:10599000FFF748FEC0B28742E8D90746A146E5E7CF
:1059A0004846BDE8F883000070B504464079FEF72C
:1059B000DFFE0546184B53F82000214641F8540BF2
:1059C00004F1180202F0E2FB064608B1304670BD51
:1059D0000023C4F89C30C4F8A030C4F894300F4BB6
:1059E00033F915500E4A03212846FEF71DFE002DFF
:1059F00007DB05F01F026D0901239340094A42F8B5
:105A00002530094A21466079FFF726F82268136895
:105A100043F000431360D9E7C0C7001004C800106A
:105A20007D58001000E100E00D5C001010B582B060
:105A30000446F0B1206840B104F1180102F056FDAF
:105A4000206802F02FFD0023236023791E2B12D142
:105A500094F8A430002B3DD094F8AC303BB994F8C6
:105A6000B0301E2B4DD194F82C311E2B51D102B0E9
:105A700010BD01BEDEE76079FEF77AFE294B33F9EF
:105A80001030002B0CDB03F01F015B0901228A4060
:105A90002033254941F82320BFF34F8FBFF36F8F89
:105AA000002211466079FEF7D7FF94F8A43013B1B5
:105AB0001E232371CCE717238DF804306079FEF79D
:105AC00057FE8DF80500A3798DF8063001A8FEF782
:105AD00017F8EDE7E01D00F0AFFA04F1080000F060
:105AE000ABFA04F10A0000F0A7FA04F1090000F093
:105AF000A3FA637B002BAFD004F11000FDF7D7FCB5
:105B0000AAE704F1B000FDF724FD1E2384F8B030AD
:105B1000A9E704F59670FDF71CFD1E2384F82C31CF
:105B2000A5E700BF04C8001000E100E02DE9F04740
:105B300004460D461646D0F8A8308B4201D0C4F872
:105B4000A810637B13B93048BDE8F08727460021D1
:105B500057F8100B02F0CAFC002211463846FDF738
:105B600044FC28B12268136843F000431360EBE75C
:105B700004F1040929464846FFF7F0FE8046A06577
:105B800005FB00F503F084FE00EB5500B0FBF5F5D6
:105B900029463846FDF774FC824638BB4246294602
:105BA0004846FFF7D1FE06B1306000220121384699
:105BB000FDF71BFC94F8703023B34FF48033E26D93
:105BC000082A01D84FF4006A43EA0A0308F1FF38B3
:105BD00008F00F0843EA0803226843F000731360DB
:105BE0002268136843F000431360ADE700220121EF
:105BF0003846FDF7FAFB2268136843F00043136050
:105C00005046A1E75346DAE7061F02042DE9F047A4
:105C100004461546037AFF2B0DD0DA08772B05D8FA
:105C20009C480068806900EBC21806E0994A126837
:105C3000D2F8188001E04FF00008A27AFF2A0ED0B7
:105C4000207B18B3D008772A05D8924E3668B769FA
:105C500007EBC01704E08F480068876900E0002761
:105C600003F0070602F00709102911D020290FD0F0
:105C7000013D072D00F2FB80DFE815F07E00E1001A
:105C8000F9000001F900F900F900E1000027E7E759
:105C9000012D08D04FF0000A082D45D0042D56D014
:105CA0005046BDE8F087264656F8180B314602F0FC
:105CB000C3FC10F0010F02D04FF0000AECE73146B0
:105CC000206802F0B7FCD4F8B43110F0010F0CBF1B
:105CD0004FF0010A4FF0000A002B14BF4FF0000AEA
:105CE0000AF0010AD4F8B031002B14BF4FF0000ABB
:105CF0000AF0010ABAF1000FCED02168D1F80832BB
:105D0000C3F30803D1F80822C2F3C032D34208D14A
:105D1000D1F80833C3F30803002BBDD04FF0000ABD
:105D2000BAE74FF0000AB7E70022D4F8A8102046DF
:105D3000FFF7FCFE47B194F899204946384600F039
:105D4000DBFB4FF0010AA9E74FF0010AA6E7002F9D
:105D500000F091804946384600F03EFC84F89900F6
:105D60004946384600F063FC00224946384600F0B8
:105D7000C3FB4FF0010A93E7254655F8180B294657
:105D800002F05AFC10F0010F02D04FF0000A87E732
:105D90002946206802F04EFCD4F8B43110F0010F0F
:105DA0000CBF4FF0010A4FF0000A002B14BF4FF058
:105DB000000A0AF0010AD4F8B031002B14BF4FF0EA
:105DC000000A0AF0010ABAF1000F3FF469AF216836
:105DD000D1F80832C3F30803D1F80822C2F3C03265
:105DE000D3424ED1D1F80833C3F30803002B4BD173
:105DF000B8F1000F0ED03146404600F0EDFB84F8BC
:105E000098003146404600F012FC002231464046E0
:105E100000F072FB77B14946384600F0DDFB84F8AC
:105E200099004946384600F002FC002249463846AF
:105E300000F062FB2946206802F058FB30E7226838
:105E4000136843F000431360B8F1000F05D094F8D5
:105E500098203146404600F04FFBC7B194F8992096
:105E60004946384600F048FB4FF0010A18E701BEEA
:105E70004FF0000A14E74FF0010A11E74FF0010A52
:105E80000EE74FF0000A0BE74FF0000A08E74FF06B
:105E9000010A05E7BC410008F8B506460F4615465D
:105EA000FEF7D4FDA8B93368D3F840332C4602E09E
:105EB0003368D3F84033B3F1FF3F07D1002DF7D05B
:105EC0004CB10120FEF7B6FF013CF1E73B7000202A
:105ED000F8BD0248FCE70248FAE700BF031A0204D3
:105EE000021F020438B504460D46FEF7AFFD28B187
:105EF000044806E02946206800F081FF0028F9D018
:105F0000002038BD031A020408B5034628B131B198
:105F100093F8AC0028B9064808BD01BEF7E701BEFA
:105F2000F6E753F8180B02F0EDFA0020F4E700BF93
:105F3000041F02042DE9F04182B00D4616461F46AB
:105F4000DDF828800446002863D04FF4DE7200217B
:105F5000204605F075FE012384F8AC301E2384F83A
:105F6000B03084F82C314FF4E133C4F8A830099BE9
:105F700001939DF8203000933B4632462946204647
:105F8000FFF760FB054640BB04F1540C294D0FCDD3
:105F9000ACE80F000FCDACE80F000FCDACE80F0060
:105FA00095E80F008CE80F00E37A84F87430B8F1BC
:105FB000000F0ED0D8F80030E36598F80400FFF722
:105FC0001FFB84F8610098F80800FFF70FFB84F8C6
:105FD00062002046FFF7E8FC0546ADB9B8F1000FB6
:105FE00007D0D8F80C1021B1D8F810202046FFF7C0
:105FF0008BFF637B7BB923681B6813F4006F12D09F
:1060000080235B08C4F8B8317DB9284602B0BDE8EA
:10601000F08101BE99E70022D4F8A8102046FFF7CE
:1060200085FD0546E7E74023EBE72046FFF7FEFC4A
:10603000EBE700BFB0C8001010B504460078FF2899
:1060400000D110BD00F051F8FF232370F9E730B5FF
:1060500005460123002001E00133DBB21C468B42E0
:106060000CD203F1FF3E4FF0010C0CFA0EFC1CEABF
:10607000020FF1D055F824402043EDE700B928681D
:1060800030BD70B584B004460D4683780B228DF880
:106090000020DA088DF8012003F007038DF80230A4
:1060A000009BADF80C301B0C8DF80E30039BADF847
:1060B00008301B0C8DF80A30029BADF804301B0C25
:1060C0008DF8063001A8FDF7D7FC064610B1304622
:1060D00004B070BD29462046FEF75AFA064600284D
:1060E000F5D001A8FDF70CFDF1E710B584B004462A
:1060F000FEF77EFA00B101BE0B238DF80030E308F5
:106100008DF8013004F007048DF80240009BADF8D3
:106110000C301B0C8DF80E30039BADF808301B0CB7
:106120008DF80A30029BADF804301B0C8DF8063058
:1061300001A8FDF7E5FC04B010BD431E072B05D8F0
:10614000DFE803F0060604060404040601BE01208D
:106150007047431E072B05D8DFE803F00606040648
:106160000404040601BE01207047000038B5012870
:1061700007D002280CD010B101BE002000E0881A20
:1061800038BD8A1A0F4B03FB02F292FBF1F0F7E7DE
:1061900000238A1A63EB030E90184EEB0E0C801846
:1061A0004EEB0C0C4FEA4C1444EAD0644501401904
:1061B0004CEB040C80180A464EEB0C0105F062FB18
:1061C000DEE700BF40420F00122817D8DFE800F0DA
:1061D0000A180C0E16161616161616161612161085
:1061E00016161400082070470420704701207047DD
:1061F0000220704706207047062070470120704734
:10620000102070472DE9F04383B0044616461F4620
:106210000B4691B119780539182943D8DFE801F008
:106220003A4242424242420F424242424242420FBC
:106230001C42422A42424242230001BEEAE7274B67
:1062400093E8030002AB03E9030069462046FDF72B
:1062500095F803B0BDE8F083214B93E8030002AB4F
:1062600003E90300F1E71F4B93E8030002AB03E9E6
:106270000300EAE75B7833B91B4B93E8030002ABFA
:1062800003E90300E1E7164B93E8030002AB03E9DF
:106290000300DAE701BE1548DBE74FF001090EE025
:1062A00001BE0EE00025A9461148032DD1D8114B9F
:1062B00013F805804645F0D0B9F1000F0CD0002C42
:1062C000EED0FDF72BF8024641462046FDF72AF8AE
:1062D0000028BED0002FBCD00135E6E734C6001040
:1062E0003CC6001044C600104CC600100202020456
:1062F000020D0204F0C80010014B1860704700BF87
:10630000BC410008034638B100221A605A609A6006
:10631000DA601A615A61704701BEF5E730B41E4B6E
:1063200098422FD01D4B1B6893F836308B428CBFA0
:106330000023012303B101BE184D2B68B3F85E2082
:106340000244B3F8603001FB03F30024D4502B68FF
:10635000B3F85E200244B3F8605001FB052294605C
:10636000B3F85E200244B3F8605001FB0522D4600C
:10637000B3F85E201044B3F8603001FB03018C6178
:1063800030BC7047054B1B6893F835308B428CBF8F
:1063900000230123CEE700BF00002840BC410008D5
:1063A0000023036043608360C360036143618361D2
:1063B000C3617047032900D901BE01F11002120226
:1063C0000023835000EB012000F58152136041F25D
:1063D0008802835070470000B0F1204F3CD018D89D
:1063E00080283BD007D9B0F5807F3FD0244B98421E
:1063F00009D024487047102832D0402801D12248C3
:10640000704700282ED170474FF4A40070471D48F4
:1064100070471E4B98422BD02DD31D4B98422CD841
:10642000B0F1704F12D900F1805001380428EED835
:1064300001A353F820F000BF096400100F6400109E
:106440006964001051640010556400100D487047D5
:106450001048704710487047002070470F48704739
:106460000F487047074870470E4870470448704708
