:020000041000EA
:1000000000200008EB0000100D0000004D01001062
:1000100000000000000000000000000000000000E0
:100020000000000000000000000000004901001076
:10003000000000000000000049010010490100100C
:100040004901001049010010490100104901001048
:100050004901001049010010490100104901001038
:100060004901001049010010490100104901001028
:100070004901001049010010490100104901001018
:1000800010B5064C2378002B07D1054B002B02D06E
:10009000044800E000BF0123237010BDB003000836
:1000A0000000000014150010044B10B5002B03D005
:1000B0000349044800E000BF10BDC0460000000036
:1000C000B4030008141500100230800803D001307A
:1000D0000238FCD1C046C0467047EFF3108072B6BC
:1000E000704780F3108870477047FFF7FDFF72B6C6
:1000F0000F4C104DAC4209DA21686268A368043BDA
:1001000002DBC858D050FAE70C34F3E70A490B4A2F
:100110000020521A02DD043A8850FCDC08480949E4
:100120000860BFF34F8F00F0FFFE00F0AFFEFEE768
:100130002015001038150010B0030008C80500088D
:100140000000000808ED00E0FEE7FEE700B504202F
:100150007146084202D0EFF3098001E0EFF3088016
:10016000043000F093FCFEE7014B18607047C04676
:10017000C4050008044B1B681A00BA3212881B6AB7
:100180005043C0187047C046C40500081D4B984234
:100190000FD010D840282FD005D8002830D01028F4
:1001A00028D019481EE0802828D080235B00984280
:1001B000F7D1144816E0154B984214D008D8A02364
:1001C0001B0698421CD0124B9842EAD1A0200BE0AB
:1001D000104B98420AD0104B984209D00F4B9842CE
:1001E000DFD10F487047A420C003FBE70D48F9E7B3
:1001F0000D48F7E70D48F5E70D48F3E70D48F1E73F
:100200000020EFE706005200FF005200010000F05E
:10021000090000A0040000F0050000F0030000F059
:100220000100520002005200030052000100500081
:10023000020050000500520010B50020FFF79AFFA1
:100240000A4B1C682300BC331B68C0180368002BD2
:100250000ADB074B1868FFF799FF012263689A6071
:100260009A68002AFCD110BD0248FCE7C4050008CA
:10027000CC03000802005000064B1B68BC331B680F
:10028000C3181B68002B03DA89B241600020704755
:100290000148FCE7C405000801008A000368002B40
:1002A00004DA89B2C2608160002070470048FCE730
:1002B00001008A00064B1B68BC331B68C3181B680F
:1002C000002B03DAC36800200B6070470148FCE78D
:1002D000C405000801008A00024B1A68002A00D1F8
:1002E00018607047E0030008F0B52C246043154CFB
:1002F0001F0024681D0A2018FF2425402740124CA7
:100300001B0C26680760346A45608360BA363688FD
:1003100077433F1907612F0080376D017F01E7198F
:1003200064190A4D47611F043B436419236000238D
:100330008361059BC2610162002B01D01B88838110
:10034000F0BDC046E0030008C40500080810000026
:10035000F0B5836885B002AD2B80154B02681B6831
:10036000066A1B8F476A9B186B8043680095826AF8
:10037000C16A040003930369C068FFF7B5FF002159
:100380003B000A0000913000FFF7AEFF216B280010
:1003900000F030FB0022AB5E002B06DB1F22134077
:1003A0001E3A9A401300034A136005B0F0BDC046E0
:1003B000C405000800E100E0F7B52C25134C6843A4
:1003C000266869433418256901937118002D19D0E6
:1003D0008869002818D12E68002E15DA6768012474
:1003E00026004B689E40B44613689EB263461B04C9
:1003F0001E431660EA608C61BC40019BA4B24B6254
:10040000AC60FEBD0248FCE70248FAE7E0030008E2
:1004100004028A0007028A0073B5002642690400BC
:10042000D56801962B0CB34221D01B0413601368CE
:10043000194B00691B68BC331B68C3181B68B342A7
:1004400015DA01A9FFF736FFB0420CD10198E26935
:1004500003681E0CDBB29A4205D9226A9B009B58A6
:10046000002B00D0984731002069FFF705FFADB29F
:10047000002D09D063691D6000251B68636AAB42CB
:1004800005D098476562A56163691B6873BDA36A5F
:10049000002BF8D09847F6E7C40500082C2310B5C8
:1004A0004343034A1068C018FFF7B6FF10BDC046AB
:1004B000E0030008F8B5194B0F001B681A0033322F
:1004C0001278824227D9002925D01F250A681540B5
:1004D00021D11900BA310C88114E60431C6AD20830
:1004E000041929007868346000F07EFF290020009C
:1004F000FFF7C2FE3A0029003068FFF7CFFE041E66
:1005000007D101003068FFF7B7FE03002000002B81
:1005100000D00448F8BD0448FCE7C046C405000804
:10052000E403000801018A0003018A0010B5002AD3
:100530000DD1002914D10B4B1A681300BA331B8854
:100540005843136AC018084B1860080010BD0029F2
:1005500006D0064B196019005A60FFF7ABFFF5E7AC
:100560000348F3E7C4050008E40300087803000823
:1005700003018A00F7B5184F04003B680191DE685B
:100580003368834226D90025A94202D1FFF7A5FD91
:10059000050038680368002B1ADA1F220123224065
:1005A000934064097268A4001419226813420DD0A4
:1005B0009A43226000240021FFF75EFE019B002B7E
:1005C00002D12800FFF78DFD2000FEBD034CF2E7AD
:1005D000034CF3E7034CF7E7E4030008020188004B
:1005E0000301880004018A000A4B1B68DB681A6853
:1005F00082420DD959681F23420918401E3B83408F
:10060000920050581840431E9841034BC018704741
:100610000248FCE7E40300080001880004018A00A6
:10062000054B1B681A0088321B6812689B181868F3
:10063000000AC0B27047C046C4050008044B1B68DE
:100640001A0088321B6812689B181868000E7047E1
:10065000C4050008024B18694007C00F7047C04628
:1006600000002740A6220549D2008B580220DB4318
:100670009B0702D00123885818407047000026408D
:1006800010B5FFF7EFFF0023022801D1014B1B68D3
:10069000180010BDEC030008094A83009B18D02203
:1006A0009200985807221040042807D1C0229200D7
:1006B00098581F2303408020400018437047C046CD
:1006C0000000264010B5FFF7E7FF02281CD005D830
:1006D000002824D0012814D0002014E01223FF3376
:1006E000984214D01423FF33984215D0033B98420C
:1006F000F2D10C4A0C4BD358002BEDDA80200002CB
:1007000001E00A4B186810BDFFF7BAFFFBE7FFF7DF
:10071000A1FF0028E0D0F1E7024A054BEBE70548CE
:10072000F1E7C046000026400C050000E803000881
:100730003C05000000127A00B023154ADB00D358B4
:1007400010B59903DB01DB0F890BC371114B0160FD
:10075000D3580F24D904DB01DB0D0381B123DB0067
:10076000D358C90C81801900214081721909214098
:10077000C172D9029B009B0F8373074BC90CD358DE
:1007800081815A05DB01520FDB0D8271038210BD9E
:1007900000002640840500008C05000010B5104BB9
:1007A000421E1B683F331B78934216D97F221F24B9
:1007B0008030FF300B4B8000C3581A400A701A0C6F
:1007C0002240180A8A701A012040E2404870002036
:1007D0009B009B0FCA700B7110BD0348FCE7C0461D
:1007E000C40500080000264001004A00F0B589B0A9
:1007F00003AC14220021200000F0F6FD2000FFF7DA
:100800009BFFB0231A4ADB00D25800239A4203DA36
:10081000A37B023B5A1E9341E57900266A1E95414F
:100820000135B34221D0A488B4421ED0039B3000CE
:100830000193FFF747FF2A00330007003100200033
:1008400000F0BCFC0C0005003300019A31003800B8
:1008500000F0B4FCE6076A08324363088018594187
:100860002A00230000F08AFC0600300009B0F0BD29
:1008700000002640F0B50026244B85B01B68070019
:100880003F331B78B3423ED0B0423CD083423AD390
:100890000522310002A800F0A7FD02A93800FFF7E9
:1008A0007DFF3B008033FF33194A9B009B58B342C6
:1008B00029DA02AB1B79022B25D002AB5C78B4425B
:1008C00021D09D78B5421ED01B7838000193FFF7E8
:1008D000F9FE2A00330007003100200000F06EFC12
:1008E0000C0005003300019A3100380000F066FC6E
:1008F000E6076A0832436308801859412A0023003A
:1009000000F03CFC0600300005B0F0BDC405000856
:100910000000264010B5041E04D1FFF767FF002831
:1009200006D008E0064B1B683F331B78834203D296
:100930002000FFF7C7FE10BDFFF79CFFEFE7C046A2
:10094000C4050008E02210B50124094B8000920084
:10095000C018835880589B069B0F9C400F2318405B
:10096000FFF7D8FF63081818210000F07BFB10BDCB
:1009700000002640144B30B51A68072413002C33AE
:100980001B781F2B15D883081D00A5432C1E0FD1E3
:1009900003342040A040814012689B002032D318CD
:1009A0000A00FF2181401C686240114061401960CB
:1009B00030BD802320401B06184380239B01126812
:1009C000C91889008850F3E7C4050008064B9A68E7
:1009D0000300064810339B00824202D19858995078
:1009E0007047034AD058FBE700ED00E00000000824
:1009F00000000010F8B506000D0000283AD00023D2
:100A0000C05E002828DB7188FFF7B4FF0024FF22B6
:100A1000032794460023F05E716883B21F40FF00F5
:100A20006646BA4089013140D243B940002815DBFF
:100A3000114E83089B009B19C026B6009F593A406F
:100A4000114399510D4B9A680D4B9A4202D12900DE
:100A5000FFF7BCFF2000F8BD0A4CD8E70F26334053
:100A6000083B064E9B089B009B19DE6932401143F0
:100A7000D961E7E7034CEDE700E100E000ED00E0BD
:100A80000000000801005600FEE7000002680A4B63
:100A900010B51A6042685A6082689A60C268DA606B
:100AA00002691A6142695A6182699A61C269DA61AE
:100AB000FFF7EAFF10BDC04690030008B0235B05B6
:100AC0005A782120002A01D05878C0B27047B0234C
:100AD0005B059A89002A02D0988980B270478020ED
:100AE0004000FBE77FB5274B86000D00F458042932
:100AF00001D0012927D100200FE0A3682B420BD1A0
:100B0000E36829001A685B6802920193039302A8C4
:100B1000236898471C4B1C606469002C0BD01B4B4E
:100B20009842EAD1012DE8D1174B18481A68184BA2
:100B30009A5104B070BD012DFBD1144B9842F3D0F3
:100B4000134B9C51F5E7022906D10F4B1B68181E69
:100B5000EFD01C6903E01C006369002BFBD100206F
:100B6000002CE6D0A3682B4209D1E36829001A685B
:100B70005B6802920193039302A823689847246953
:100B8000EEE7C046300400082C040008FF004200D5
:100B9000180400081A4B1B68190088311A68096884
:100BA00051180968016219008C31096852181268DD
:100BB00042621A0046321278002A1FD09A68E03248
:100BC0001268D2061AD5F222DB68D2019A58026066
:100BD000F022D2019A5842600A4A9A5882600A4A20
:100BE0009A58C260094A9A580261094A9A58426161
:100BF000084A9A588261084A9B58C3617047C046A8
:100C0000C405000804780000087800000C78000093
:100C10001078000014780000187800001A4B1B6848
:100C20001A008832196812688A18016A11601A005D
:100C30008C32196812688A18416A11601A004632AB
:100C40001278002A1ED09A68E0321268D20619D5AE
:100C5000F0224168DB68D201995081680B4A9950B3
:100C6000C1680B4A995001690A4A995041690A4A78
:100C700099508169094A9950C169094A9950016896
:100C8000E83299507047C046C40500080478000057
:100C9000087800000C78000010780000147800003C
:100CA00018780000F7B50700FFF708FF664D06004B
:100CB0006B68002B00D07DE0FFF70FFA6B680090A7
:100CC000002B00D089E0614C22681300BA331988E8
:100CD00007234B43126A9B181A68002AFCDADB6868
:100CE000DA0021D51B0F1B0759480193FFF752FF6C
:100CF0005849212E00D075E02268902013008833D7
:100D00001C68136800011C1923680B40034323600F
:100D100013008C3312681B68D3181A6811400843FB
:100D200018604B4B019A13438022484E920531685C
:100D300013430A00BA321088072200244243096A8A
:100D40005218D36054605368FFF7C1FE80235B00E4
:100D500098425DD1380000F05BFB32681300BA3373
:100D6000198807234B43126A9B181A68002AFCDA79
:100D7000DF68FB0003D538010009FFF74FFF364B52
:100D800032681F401300BA33198807234B43126A95
:100D900000989B180022DF605A60FFF7A2F9002C30
:100DA0000FD16B68002B03D008210120FFF79AFEBA
:100DB0002000FEBD01210800FFF794FE041E00D1B3
:100DC0007AE76B68002B03D002210120FFF78AFE2F
:100DD000224B9C42ECD0224CEAE704210120FFF791
:100DE00081FE70E720688022030088331C68036856
:100DF00052001C1923680B401343236003008C33FB
:100E000000681B68C318186801400A431A6088E725
:100E100033681A00BC32196A126852181168002926
:100E200010DBBA331B889A181368002B0ADB0423E3
:100E30000C4A11690B431361012F01D030BF8CE7BD
:100E400020BF8AE7054C88E730040008C405000885
:100E5000F0030008FF00FFFFFFFFFFDF0500420077
:100E6000FF00420000ED00E0C02280200649520051
:100E70008B58C0059B009B0803438B5080238858E8
:100E80001B0603438B5070470000264010B562B626
:100E9000034800F0C1F80020FFF704FFFBE7C0465D
:100EA0000020001010B50020FFF7F8FA10BD7047C1
:100EB00010B50020FFF746FD041E25D0134B186027
:100EC000FFF7BCFB411C200000F0CCF8104B0400E5
:100ED0001860FFF7A5FB411C200000F0C3F80D4B84
:100EE000441E18600C49200000F0BCF8FA210B4B9E
:100EF000013018708900200000F0B4F8084B013070
:100F00001860084BC003186010BDC046840000087C
:100F1000880000088000000840420F00940000088C
:100F2000900000088C00000810B52048FFF71CF95D
:100F3000B022E02130201E4CD200A35889005B0073
:100F40005B08A35063588343635080235B04A35022
:100F5000184B194AE250A02204339201E250FF22BA
:100F6000164BE250FFF780FFC02201215200A35828
:100F70008B43A350FFF79BFFFFF79AFF104B032013
:100F80001A681300BA33198807234B43126A802169
:100F90009B180022DA605A600A4AFFF7C7FA0A482B
:100FA000FFF79AF90948FFF7D3F910BD2014001094
:100FB0000000264084050000010002008C050000AE
:100FC000C40500088003000844040008E014001071
:100FD0009023034A5B01D058032318407047C04652
:100FE0000000204010B59024FFF777F8074B64010C
:100FF0001A5907491140074A0A431A5110225968E1
:101000001142FCD0FFF76DF810BDC0460000204033
:10101000FCFF00000100FA05F8B590250E4C6D01AB
:101020000700FFF75AF863590600DB439B0701D11D
:10103000FFF7D8FF80239B00E7506359074A1A4007
:10104000074B13436351102362681A42FCD03000EF
:10105000FFF747F8F8BDC04600002040FCFF000045
:101060000300FA05002243088B4274D303098B4224
:101070005FD3030A8B4244D3030B8B4228D3030C68
:101080008B420DD3FF22090212BA030C8B4202D30A
:101090001212090265D0030B8B4219D300E0090A32
:1010A000C30B8B4201D3CB03C01A5241830B8B423B
:1010B00001D38B03C01A5241430B8B4201D34B0324
:1010C000C01A5241030B8B4201D30B03C01A524189
:1010D000C30A8B4201D3CB02C01A5241830A8B420E
:1010E00001D38B02C01A5241430A8B4201D34B02F7
:1010F000C01A5241030A8B4201D30B02C01A52415B
:10110000CDD2C3098B4201D3CB01C01A524183090E
:101110008B4201D38B01C01A524143098B4201D348
:101120004B01C01A524103098B4201D30B01C01A73
:101130005241C3088B4201D3CB00C01A52418308ED
:101140008B4201D38B00C01A524143088B4201D31A
:101150004B00C01A5241411A00D20146524110467A
:101160007047FFE701B5002000F006F802BDC04659
:101170000029F7D076E770477047C046002B11D1A1
:10118000002A0FD1002900D1002802D00021C94334
:10119000081C07B4024802A14018029003BDC046D3
:1011A000D9FFFFFF03B4684601B5029800F030F89C
:1011B000019B9E4602B00CBC7047C046F0B5CE46BF
:1011C000474615042D0C2E0080B50704140C3F0C67
:1011D0009946030C7E435D43674363437F19340C98
:1011E000E4199C46A54203D980235B029846C44477
:1011F0004B4643435143250C36046544360C2404C6
:10120000A4195B19591820000CBC90469946F0BDF2
:10121000F0B54F464646D646C0B5040082B00D0034
:10122000914698468B422FD82CD04146484600F034
:10123000CFF829000600200000F0CAF8331A9C46B7
:10124000203B9A4600D576E04B46524693401F001D
:101250004B46624693401E00AF4228D825D05346E5
:10126000A41BBD41002B00DA7BE00022002300928A
:101270000193012352469340019301236246934018
:10128000009318E08242D0D90022002300920193FB
:101290000A9B002B01D01C605D600098019902B090
:1012A0001CBC90469946A246F0BDA342D7D9002265
:1012B0000023009201936346002BE9D0FB07984678
:1012C000414672080A437B0866460EE0AB4201D1F4
:1012D000A2420CD8A41A9D41012024196D4100217D
:1012E000013E24184D41002E06D0AB42EED9013EFE
:1012F00024196D41002EF8D1009801995346001928
:101300006941002B23DB2B005246D3402A00644660
:10131000E2401C0053461500002B2DDB26005746EB
:10132000BE40330026006746BE403200801A994115
:1013300000900191ACE7624620239B1A4A46DA40AE
:101340006146130042468A4017001F4380E7624609
:1013500020239B1A2A0066469A402300F340134339
:10136000D4E76246202300219B1A002200910192BB
:101370000122DA40019280E72023624626009B1A70
:10138000DE402F00B0466646B74046463B0033433A
:10139000C8E7C0461C2101231B04984201D3000C5E
:1013A00010391B0A984201D3000A08391B099842D8
:1013B00001D30009043902A2105C40187047C046EE
:1013C000040302020101010100000000000000000E
:1013D00010B5002903D1FFF7DDFF203002E0081C23
:1013E000FFF7D8FF10BDC04603001218934200D18A
:1013F000704719700133F9E7F8B5C046F8BC08BC6E
:101400009E467047F8B5C046F8BC08BC9E4670477B
:1014100001B40248844601BC604700BF6102000875
:1014200000002040000024400000004000000000B8
:1014300000002340000030400000314000009F4089
:10144000000022400000104000009D40202020208D
:1014500020101010101D1D8017007500FF030602DC
:1014600006003604102000007FC0000000040000C9
:10147000000000000019324B647D00000000008075
:101480004000080B100000000000FF012002001FB8
:1014900000800004FF081018001000140018001C41
:1014A0004044484C500000000810000008000000B4
:1014B00004000000041000000012000004210000DD
:1014C000002100000016000040114002C413001368
:1014D0008013A01340138813A81320001C000000E1
:1014E00003000000010000000100000000000000F7
:1014F000050360000400000001000000000000007F
:10150000010000000604600008000000A4050008B7
:10151000A50E001000000000F8FCFF7F0100000095
:1015200000000010000000088000000040150010BE
:1015300080000008F8020000B00300081802000054
:1015400000093D0000127A0000093D000000D007AC
:10155000A00F000004000000A9000010810000108E
:1015600080B230B5C00020D0104B07221C68230089
:10157000BA331B885A43236AD31819680029FCDA46
:101580003E210B4B062519600A4B0B491960A3211C
:101590000A4BC9005D500A4958505858206A121821
:1015A000002050605A58002AFCDA30BDC4050008FB
:1015B00004012640080126401E1F000000002640AE
:1015C0001C05000010B54378FF2B11D100F0ECF89A
:1015D0000400032000F0F8F8C3685A68012311687A
:1015E0001943116011681942FCD1200000F00CF978
:1015F00010BDF7B500900020019100F0E5F83F4DD7
:1016000006002B681A005033BC3214681B7804198A
:10161000002B5AD000F0E0F8070003281BD000F0A0
:10162000C3F8374A374B0500D358002B3EDA364A09
:101630000121300000F0F0F8002837D10198FFF7C1
:101640008FFF009B002B3ED02368002BFCDB00F0BB
:10165000B3F804002BE0062000F0B6F82B68BC338A
:101660001B68C0180368002B02DA284C2000FEBD5E
:10167000002000F0B9F8264B9842F6D00023254A06
:1016800019001268012000F0B7F80025A842ECD13B
:10169000002000F0A9F81E4A1F4B904203D09D4243
:1016A000E3D00135F4E79D42B9D1DEE7174C032FB3
:1016B00005D10121002000F0B7F80028F9D1280059
:1016C00000F0A2F8D2E7154CF1E700F06DF80E4AF1
:1016D00005000121300000F09FF8002809D1009B8F
:1016E000002B08D02368002BFCDB00F065F8040019
:1016F000E5E7064CE3E7094CE1E7C046C40500080E
:10170000000026401C050000CC0300080500520024
:1017100001018800DC030008F049020001005000CC
:10172000184BF7B51B68184A5C68042311690B4312
:101730001361012824D030BF2300FC331B69002B28
:101740001DD1A320114B1249124AC0000F681E5828
:1017500015680195104D0D6006251D503E20106046
:101760000E483E351D501D58002DFCDA0C48FC3447
:1017700020610F60A321C9005E50019B1360F7BD7B
:1017800020BFD9E7C405000800ED00E000002640B6
:1017900008012640040126401E1F00001C05000011
:1017A000AAAAAAAA0000000001B40248844601BC0B
:1017B000604700BFDB00001001B40248844601BC52
:1017C000604700BF3902001001B40248844601BCE2
:1017D000604700BF7501001001B40248844601BC97
:1017E000604700BFD10F001001B40248844601BC1D
:1017F000604700BFE905001001B40248844601BCFF
:10180000604700BFB903001001B40248844601BC20
:10181000604700BFE300001001B40248844601BCE9
:10182000604700BF9D02001001B40248844601BC1D
:10183000604700BF750500100000000000000000B8
:101840000000000000000000000000000000000098
:1020000000F80F08693000100D000000DD300010EE
:10201000DD300010DD300010DD3000100000000069
:1020200000000000000000000000000071670010C8
:10203000D930001000000000116800101167001076
:10204000D9300010D9300010D9300010D93000102C
:10205000D9300010D9300010D9300010D93000101C
:10206000D9300010D9300010D9300010D93000100C
:10207000D9300010D9300010D9300010D9300010FC
:1022E00010B5054C237833B9044B13B10448AFF350
:1022F00000800123237010BDFC31000800000000A5
:10230000FC550E1008B5034B1BB103490348AFF34E
:10231000008008BD0000000000320008FC550E10CF
:1023200000B589B012485CF0CDF800204BF02AFCD3
:1023300000F0A6FC02A800F0E9FB02AA15210D4856
:102340005CF0C0F800F04EF80B485CF041F90B4827
:102350005CF03EF90A485CF03BF90023019302224D
:1023600000924FF400620749074805F076FBFEE74C
:10237000603106106C31061080310610C031061035
:10238000EC31061030320610F127001008B54BF082
:1023900069FD08BD10B582B00F4B06221A6001F02E
:1023A00095F800B101BE62B64FF4E1322C212D2028
:1023B0004BF094FF002401940223009323464FF432
:1023C00040520649064805F048FB05F0DBFB01BE1C
:1023D000204602B010BD00BF18320008443206107B
:1023E0002123001038B5094D094C2A4621464EF2EA
:1023F000E00000F0D3FA214606485CF063F8064B93
:102400001B68DC612A881A6238BD00BFE022000820
:102410001C3200084C3206104C23000810B584B062
:1024200039F0AAFE50BB1D4A136843F00403136041
:102430004FF4007004F00CFB194B186018B3174AE6
:10244000136843F008031360164B029300230193B3
:10245000154B0093154B164A12684FF4007139F072
:10246000E5FE0446A8B90D4A136843F01003136053
:1024700010485CF0ADF8204604B010BD04460E488C
:102480005CF0A6F8F7E70D485CF0A2F84FF0FF34D7
:10249000F1E70B485CF09CF8EDE700BFD836000888
:1024A000D0360008CC3600087D270010E422000852
:1024B0004C230008B0360610643606108C36061021
:1024C000DC36061030B5A5B04FF010FA18B1002573
:1024D000284625B030BD7822002106A85AF0B0FC6D
:1024E000284A06AB07CA03C31A70274B07CBCDF89F
:1024F0003900CDF83D10CDF84120244B1F9306A99B
:1025000023485BF0DFFF00242546772C32D801A951
:1025100006A84EF0D7FF054668B1C4F1770341F233
:10252000883201461B485BF0CDFF41F2883005F050
:10253000BFFC0134E9E706A917485BF0C3FF174A5F
:10254000136843F0020313609DF80430042B09D094
:10255000062BBDD102A80EF0D1FD014610485BF05C
:10256000B1FFB5E702A80CF0E9FE01460D485BF0AB
:10257000A9FFADE70C485CF02BF80A210B485BF093
:10258000A1FFA5E7FC36061008370610040040003E
:10259000143706109C37061034370610D83600085A
:1025A0008037061064370610FC3706102C380610EA
:1025B00010B5044603F043FC0346064A18212046A2
:1025C0005CF03CF9002801DB002010BD4FF0FF302B
:1025D000FBE700BF6438061070B588B002AC344D1C
:1025E0000FCD0FC42B6823800022CDF81A20ADF840
:1025F0001E20304B3049996030491961042199817E
:102600009A8202A8FFF7D4FF054688B9294E02AC8A
:10261000346020465CF0D1F981B2B180284B1A6851
:1026200000929B88224627485BF04CFF2C4617E01F
:1026300025485BF0CDFF2FE01E49244B186839F088
:102640001DFF054600B3C4F195034FF4FA6201463D
:102650001F485BF037FF4FF4FA6005F029FC0134A6
:10266000952C1CD84FF042F90028E5D119485BF0B1
:10267000AFFF194A136823F002031360FFF722FF2C
:1026800005460028D8D007E014485BF0A1FF124AA5
:10269000136843F020031360284608B070BD10484B
:1026A0005BF096FF05210F485BF00CFFF4E700BFDD
:1026B000343C0610EC2200087C380610BCAB061037
:1026C000E422000884380610C0380610CC36000812
:1026D0007439061004390610D8360008543906102B
:1026E000C8390610F439061008B51F4B1B6813F0E3
:1026F000200F19D11C4B1B6813F0100F1CD11A4B63
:102700001B6813F0080F1CD1174B1B6813F0040F44
:102710001CD1154B1B6813F0020F1AD1124B1B680A
:1027200013F0010F1DD108BD10485BF051FF104B95
:1027300018683AF05DFADDE70D4B18683AF090FA48
:10274000DDE70C4B186804F093F9DDE73AF0DCFAAA
:10275000DFE74EF059FE0028E0D107485BF038FF74
:10276000DCE74FF0F3F9DEE7D8360008283A061028
:10277000CC360008D0360008503A061084B000B5B8
:1027800083B005A880E80E009DF81430D3B1012B6A
:1027900021D1134A136823F02003136011485BF022
:1027A00017FF02238DF8073000234FF0FF320DF1A1
:1027B00007010D48006804F00EFB03B05DF804EB60
:1027C00004B07047064A136843F04003136007A83B
:1027D00000F008FCF1E705485BF0FAFEEDE700BF0A
:1027E000D8360008703A0610D4360008A03A061011
:1027F00010B586B000228DF808200121032004F0D6
:102800008CFA504B186002A84EF094FC08BB4E4A5C
:10281000136843F0010313604C485BF0D9FEFFF7E7
:1028200051FEC8B9FFF7FAFDB0B9FFF7D5FE98B968
:10283000474B01930223009300234FF480624549E4
:10284000454805F00AF901281DD044485BF0C0FE58
:1028500002E043485BF0BCFE42485BF0B9FE3C4BF3
:10286000186808B105F02EF93F4B186808B105F05B
:1028700029F9FFF739FF3D485BF0AAFE002005F07B
:1028800021F906B010BD4FF4FA6005F011FB364B8C
:1028900001930223009300234FF4806234493548AA
:1028A00005F0DBF801281FD033485BF091FED3E739
:1028B00032485BF08DFEFFF78FFE0028CCD100245C
:1028C0008DF8144023464FF0FF3205A92C480068CC
:1028D00004F081FA8DF80C4023464FF0FF3203A933
:1028E0002848006804F077FA4FF0FF320DF1170125
:1028F000144B186804F04AFC0128F5D19DF81730F4
:10290000022BF1D101238DF80C3000234FF0FF3260
:1029100003A91C48006804F05EFA1B4B18683AF0E3
:1029200067F94EF0E3FF0028C2D1074A136823F08D
:102930000203136015485BF04BFEFFF7C3FD002850
:10294000B6D089E7D4360008D8360008003B061018
:1029500018370008283B0610652F0010383B06107A
:10296000CC3A0610D83B0610F8360008083C061092
:10297000603B0610052E0010703B0610B83B061099
:102980001C370008FC360008CC360008943B0610C3
:10299000014B1980704700BFDC3600082DE9F04379
:1029A000ADF6C40D04460D4616460020CDF8BC0811
:1029B0004FF48063ADF80A3002464B494AF05EFF9F
:1029C0000746002837D0494B01221A800DF10A032F
:1029D000009303AB002221464AF0C6FF88BB434B5D
:1029E0001B889BB2012BFAD0404B1C881FFA84F83D
:1029F000B8F1000F2BD19DF80C30C02B2DD04346E1
:102A0000BDF80A20D21A009203AA13440DF6BC02A4
:102A10004FF496610DF20C401BF0E0FD344C0FCCEE
:102A200028606960AA60EB6007CC28616961AA61CF
:102A30004FF01C0927E02F4A2F49304848F08EFB01
:102A400049E02C4A2C492E4848F088FB43E0294AAB
:102A500029492C4848F082FB3DE00923D0E7402477
:102A600022460DF20C43194405EB09005AF0C0F957
:102A700009EB04039BB244441FFA84F80A22EA5487
:102A800001331FFA83F94146DDF8BC48A04508D25E
:102A900008F14003A342E2D3A4B2A4EB0804A4B219
:102AA000DEE705EB090C184C0FCC45F80900CCF813
:102AB0000410CCF80820CCF80C3003CCCCF8100073
:102AC000CCF814102288A378ACF818208CF81A30AF
:102AD00009F11B03338017B138464AF0F7FE0DF6B3
:102AE000C40DBDE8F08300BF91290010DC3600085A
:102AF000D83C06104C3C0610543C06106C3C0610AA
:102B00008C3C0610B83C0610143E061070B58AB016
:102B10001B23ADF80A30002835D005460022214994
:102B200010464AF0ABFE064620B31F4B01221A8026
:102B30000DF10A03009303AB00224EF2C2014AF0EA
:102B400013FF10BB184B1B889BB2012BFAD0164BFE
:102B50001B889BB2FBB90024092C10DC04F1330361
:102B60006B4413F81C2C114928465BF09BFE023580
:102B70000134F1E70E4A0F490F4848F0EFFA16B159
:102B800030464AF0A3FE0AB070BD094A09490B4815
:102B900048F0E4FAF3E7064A0649094848F0DEFA45
:102BA000EDE700BF91290010DC360008F83C061064
:102BB0004C3C0610543C06106C3C06108C3C061035
:102BC000B83C0610F0B583B006460C461546002208
:102BD0001C4910464AF052FE0746D8B11A4B012252
:102BE0001A80019500940023402231464AF00BFFE1
:102BF000D8B9154B1B889BB2012BFAD0124B1B88FE
:102C00009BB2C3B1114A1249124848F0A7FA0E4BC1
:102C10001B8804E00D4A0E490F4848F09FFA17B18F
:102C200038464AF053FE03B0F0BD084A08490B4845
:102C300048F094FAF3E7054A0549094848F08EFA46
:102C4000EDE700BF91290010DC3600084C3C06106F
:102C5000543C0610303D06106C3C0610003D06103A
:102C6000503D061000B583B00F238DF804300122CB
:102C700001A94EF2C400FFF7A5FF03B05DF804FB05
:102C800010B54AF0D4FE1D4A1D491E4848F066FAA8
:102C900000221D4910464AF0F1FD0446A8B11B4B25
:102CA00001221A8000214AF026FEC0B9174B1B886A
:102CB0009BB2012BFAD0154B1B889BB2ABB10F4ACC
:102CC0000F49134848F04AFA04E00C4A0C491148ED
:102CD00048F044FA14B120464AF0F8FD10BD074A06
:102CE00007490D4848F03AFAF4E7FFF7BBFF034AFB
:102CF00003490A4848F032FAECE700BF4C3C0610A2
:102D0000543C0610743D061091290010DC36000872
:102D1000C43D06106C3C0610903D0610E83D0610C0
:102D200010B501230222002104203BF065F80022A7
:102D30000E4904203BF0A6F80123052202210420BD
:102D40003BF0B8F80A4C2046FFF7E0FE2146094860
:102D50005BF00DFE0346084A50601B211181074AB3
:102D6000074908485BF0AEFB10BD00BF892D00107D
:102D7000E03600085023000870230008303E06109B
:102D8000583E0610803E061000B585B00023039320
:102D900002238DF804300F4B1B68BBB90E4B029316
:102DA000002303AA01A90D48006804F011F9039B50
:102DB0004BB14FF0E0234FF08052C3F8042DBFF326
:102DC0004F8FBFF36F8F05B05DF804FB044B029388
:102DD000E6E700BF84230008303E0610FC360008FA
:102DE000583E061008B50022114604203BF04AF870
:102DF00000230522022104203BF05CF804203BF074
:102E000033F908BD30B585B0FFF78AFF00220821ED
:102E1000032003F082FF1E4B186001E0FFF7E2FF82
:102E20004FF0FF3202A91A4B186804F0AFF90128DD
:102E3000F6D19DF80830012BF0D0022B04D0002BE6
:102E4000EED1FFF76DFFEBE7039D124CE5602846DE
:102E50005BF0B3FD2061626829460F485BF032FBEE
:102E600021460E4B186839F0F7FB01460028D7D0F1
:102E70000B485BF027FB01238DF8073000234FF050
:102E8000FF320DF107010748006803F0A4FFC7E710
:102E9000FC36000870230008C83E0610CC36000837
:102EA000FC3E0610D436000830B583B01C4C2046DA
:102EB000FFF72CFE21461B485BF059FD1A4B58606A
:102EC0001B221A810024254604E04FF47A7004F096
:102ED000EFFF0134022C0ED801221349134B18685E
:102EE00039F0A6FC05460028EFD10F4B5A68198926
:102EF0000F485BF0E7FA0DB903B030BD0322294655
:102F00000C485BF0DFFA00238DF807304FF0FF32FA
:102F10000DF107010848006803F05DFFECE700BF12
:102F20000037000888230008A8230008CC360008D2
:102F3000343F0610703F0610D436000808B5012251
:102F40000549064B186839F081FD00B908BD0146F6
:102F500003485BF0B7FAF9E7A8230008CC3600086D
:102F6000B03F061000B583B0012302221946592054
:102F70003AF042FFFFF798FF00220221012003F000
:102F8000CCFE154B186001E0FFF7D8FF4FF0FF3281
:102F900001A9114B186804F0F9F80128F6D19DF841
:102FA0000430012BF0D0022B04D0002BEED1FFF720
:102FB0007BFFEBE79DF80520084B1B689869003AFA
:102FC00018BF0122012100F5B0603FF0EFF89DF835
:102FD0000520034B1A60D9E71C370008242E01088E
:102FE0008423000830B585B0C56804690195009454
:102FF00090F900304268018915485BF063FA0223BA
:103000008DF80C30252C14D0252C1DD122462946B4
:1030100010485BF0DAFCB8B901238DF80D300023BD
:103020004FF0FF3203A90C48006803F0D4FE05B04E
:1030300030BD2246294609485BF0C7FC0028E3D191
:1030400000238DF80D30EAE705485BF0C1FAEEE7A2
:10305000E83F0610303E06101C370008583E0610A8
:103060006440061070477047FFF7FCFF72B6144CBF
:10307000144DAC4209DA21686268A368043BA2BF20
:10308000C858D050FAE70C34F3E70F490F4A002034
:103090009142BCBF41F8040BFAE70D480D490860A6
:1030A000BFF34F8F00F0ECF900F0D0F903F07EF998
:1030B00059F042FDFFF76EF959F0F8FCFEE7000009
:1030C00008560E1020560E10FC310008C8400108AA
:1030D0000020000808ED00E0FEE7FEE700B5042050
:1030E0007146084202D0EFF3098001E0EFF3088057
:1030F000043045F0E3FBFEE70230800803D00130E6
:103100000238FCD100BF00BF7047EFF3108072B6E9
:10311000704780F31088704708B500F03DF800F064
:1031200001F808BD10B5124C124A002120463FF0AC
:10313000E1F811483BF0A0F8104A012120463FF089
:10314000D9F80F483BF098F804F540740D4A062171
:1031500020463FF0CFF80C483BF08EF80B4A072191
:1031600020463FF0C7F80A483BF086F810BD00BF84
:10317000000031401041061044410610484106103D
:103180007C410610D84006100C410610A0400610E5
:10319000D4400610FEE7000030B583B09621002031
:1031A00045F0DEFB45F06EFBC0B97A4BD3F8004F1B
:1031B00004F03F0445F056FB30B1012045F048FBD8
:1031C000754B9B6C002B24DB724BC3F8004F44F013
:1031D0008FFA44F07BFA012044F09EFA012046F079
:1031E00015F946F0BBF846F095F946F07FF9002155
:1031F000084644F0C9F9002044F034F9012044F0B5
:1032000019F9002044F02CF8644B1B6893F83F40F8
:1032100006E00620FFF7BEFF204644F097FE013C83
:10322000002CF9D10021012044F0F0FA002044F0F4
:1032300099F9002800F0928044F09CFB0021084698
:1032400044F0E4FA0021084644F06CF9544D00249F
:10325000009423462246214628463EF045FF00942E
:1032600023462246012128463EF03EFF012044F03D
:103270001DFA4C4844F0F8F900287BD1012044F0B5
:10328000C1F8002044F0EEF8002044F0D3F800200C
:1032900043F0E6FF0021012044F0B8FA002108467F
:1032A00044F0B4FA0021022044F0B0FA00210320D7
:1032B00044F0ACFA0021042044F0A8FA00210520D3
:1032C00044F0A4FA384844F06FFB002855D1374841
:1032D00044F0CAFD002853D10021084644F022F9E9
:1032E0000021084644F050F93149012044F054FED1
:1032F000002848D142F21071012044F075FF0028E7
:1033000044D10021022044F00DF90021022044F0B4
:103310003BF9022044F0C0F8002044F00BF844F0E0
:10332000D5F9012044F0F8F96421002045F018FB9C
:1033300000F052F81F483AF09FFF1F483AF09CFFF8
:103340001E483AF099FF1E483AF096FF1D483AF0A1
:1033500093FF1D483AF090FF03B030BD44F084FA6B
:1033600040F2111398427FF467AF0121002044F02E
:10337000D9F861E70520FFF70DFF0420FFF70AFFEA
:103380000420FFF707FF0320FFF704FF0320FFF7E8
:1033900001FF00BF00F0274000002740242E010855
:1033A0000000314040420F0080410610400D0300F4
:1033B000AC41061094410610984106109C4106103D
:1033C000A0410610A4410610A841061008B501202E
:1033D0003FF0D4F908BD704710B5002045F01EF944
:1033E00000B910BD0446114B186044F031F80130AB
:1033F000B4FBF0F00E4B186044F042F80130B4FB1F
:10340000F0F40C4B1C60013C0B4BA3FB04239B0C06
:1034100001330A4A13700A4BA3FB04239B090133AF
:10342000084A1360DB03084A1360DAE7B823000890
:10343000BC230008B423000883DE1B43C823000814
:10344000D34D6210C4230008C023000808B5094802
:103450003EF01CFBFFF7BFFFFFF7BEFF0022114647
:1034600003203FF0E1F904483FF03EF803483FF005
:1034700093F808BDC40D071020370008B4410610AA
:1034800008B5FFF742FE074AD2F8883043F47003CC
:10349000C2F88830BFF34F8FBFF36F8FFFF739FE4D
:1034A00008BD00BF00ED00E008B5044845F0DAFBB8
:1034B00008B1002008BD0248FCE700BFCC2300088B
:1034C0000000020600487047A838000810B584B014
:1034D0003AF0D0FE044638B154B1FFF71DFE6CB18E
:1034E00084B1204604B010BD3DF00AFC0446F3E769
:1034F00040F6E44100203DF095FCEEE7FFF7D4FFF5
:103500000446EDE713230293122301931123009342
:1035100010231522142102483CF0BCFD0446E0E7CC
:10352000A8380008034B0360034B0B608023136033
:10353000704700BF303F000830390008034B03607C
:10354000034B0B604FF48073136070472C400008EE
:10355000303B000830B583B00546002301931F4B74
:103560001B68C3B11D4B1B689BB1FFF7CEFD044622
:1035700004F0AAFE50B14FF47A7005FB00F0184930
:10358000A1FB00318D09B0F57A7F0ED22046FFF7FE
:10359000C0FD03B030BD13483BF01EFC18B90F4B03
:1035A000104A1A60DEE701BEDCE7012301AA2946C2
:1035B0000A4800683DF0D8FB0028E7D1019BAB42E8
:1035C00000D901BE019B4FF47A7000FB03F304485D
:1035D000A0FB0330800904F03FFBD7E7183900084F
:1035E000D34D62101C39000808B505F053FB036881
:1035F0000BB14068984708BD2DE9F04784B00C9D99
:10360000002843D00F4690461C468146B5F5967F6C
:103610003ED313B113F0070F3ED184B3002606F555
:10362000847003F015FA8246002837D025F007058C
:10363000AD083CB3564403220021012003F06DFB8A
:10364000C6F8FC0000B3184BC6F80031C6F804A158
:1036500016F0070F00D001BE029601949DF8343099
:1036600000930E9B2A464146384604F0B5F9C9F846
:103670000000864214D0A8B101BE002009E025F068
:103680000706CCE70446D5E701BEDCE7074800E0C3
:10369000064804B0BDE8F0870548FAE70548F8E7B2
:1036A0000020F6E70020F4E701EFCDAB05000E06A1
:1036B00006000E0601000E0610B504F029FE0446B1
:1036C000D0F80021074B9A4204D001BE204604F0F6
:1036D000BBFCFBE700231A461946D0F8FC0003F0B8
:1036E0007AFBF3E701EFCDABE0B110B5044600681B
:1036F00004F0E8F9246804F0A1FAD4F800210A4B98
:103700009A4203D004F058FB002010BD0023C4F8F7
:103710000031D4F8FC0003F069FFD4F8040103F091
:10372000A7F9EFE70148704701EFCDAB05000E06A2
:10373000A8B110B504460368D3F80011094A9142B4
:1037400003D000200023236010BD4FF0FF31D3F8D9
:10375000FC0003F0CAFD2046FFF7C6FFF2E702486F
:10376000704700BF01EFCDAB05000E0680B110B56C
:103770000446017131B1042003F0FEFB206028B142
:10378000002010BD012003F0F7FBF7E70148F8E740
:103790000148704701000E0605000E06B0B108B5DD
:1037A0004FF47A7202FB01F1094AA2FB0121890957
:1037B00002792AB1006803F069FE28B1002008BD33
:1037C000006803F092FDF8E70248F8E70248704706
:1037D000D34D621000000E0605000E0688B108B534
:1037E00003792BB1006803F0D2FB40B1002008BD83
:1037F00000231A461946006803F0EDFAF5E702487F
:10380000F5E70248704700BF02000E0605000E06ED
:1038100028B108B5006803F0E9FE002008BD0148A2
:10382000704700BF05000E0660B110B50B4611468B
:103830000446184603F0AFFA206008B1002010BD1E
:103840000148FCE70148704701000E0605000E061E
:1038500000B583B000230193D8B1034602B1D1B9BA
:103860004FF47A7000FB01F10E48A0FB01018909B9
:103870004AB101AA0021186803F029FE68B10020AE
:1038800003B05DF804FB186803F02FFD38B1002089
:10389000F6E70548F4E70448F2E70448F0E7034890
:1038A000EEE700BFD34D621005000E0600000E06C5
:1038B00000B583B000230193F0B181B101A9006884
:1038C00003F0FDFB019B83B14FF0E0234FF08052EA
:1038D000C3F8042DBFF34F8FBFF36F8F05E00023B4
:1038E0001A461946006803F076FA18B1002003B0B2
:1038F0005DF804FB0148FAE70148F8E702000E060C
:1039000005000E0628B108B5006803F06FFE002020
:1039100008BD0148704700BF05000E0668B110B52C
:103920000B46114604460022184603F0F6F92060C3
:1039300008B1002010BD0248FCE70248704700BFF4
:1039400001000E0605000E06C8B1D1B108B53BB1A5
:1039500000231A46006803F03BFB70B1002008BD4D
:103960004FF47A7303FB02F2074BA3FB02320023EE
:103970009209006803F02FFAEFE70448EFE70448E4
:1039800070470348704700BFD34D621002000E0617
:1039900005000E06B8B1C1B108B533B10022006808
:1039A00003F095FD68B1002008BD4FF47A7303FB66
:1039B00002F2074BA3FB02329209006803F0E6FB18
:1039C000F0E70448F0E7044870470348704700BF39
:1039D000D34D621002000E0605000E0628B108B590
:1039E000006803F003FE002008BD0148704700BFD7
:1039F00005000E0630B32DE9F04182B014461D4695
:103A000007460AB3B1B94FF00108082059F0D0F9C0
:103A10000646D8B1046045600D4B0093034642460C
:103A200001210C4804F06EFF386030B1002002B074
:103A3000BDE8F0814FF00008E7E7304659F0C0F9E3
:103A40000548F4E7054870470448F0E70248EEE708
:103A5000E9350010BCAB061001000E0605000E068D
:103A600018B310B582B004464FF47A7202FB01F12C
:103A70000F4AA2FB0132002300939209042100683F
:103A800004F05CFF012803D068B1002002B010BD33
:103A9000246804F0DBF8024600230093012120464D
:103AA00004F04CFFF0E70348F0E70348704700BF1D
:103AB000D34D621002000E0605000E0678B100B567
:103AC00083B00022009213460321006804F036FF01
:103AD00018B1002003B05DF804FB0248FAE7024881
:103AE000704700BF02000E0605000E0658B110B563
:103AF0000C4651B1006805F0B2F8003818BF01203B
:103B00002070002010BD024870470148FAE700BF4E
:103B100005000E06B0B130B583B00546006805F06B
:103B2000B9F804460022009213460521286804F0E3
:103B300005FF10B9044803B030BD204659F040F9E4
:103B40000020F8E70148704702000E0605000E0647
:103B500030B110B5044604F079F82060002010BDA3
:103B60000048704705000E0608B54FF47A7303FB52
:103B700000F0044BA3FB0030800904F099F9002009
:103B800008BD00BFD34D621010B582B004460023BB
:103B90004FF0FF3269462046FFF7FCFE0028F6D1C1
:103BA000009B13B101989847F1E7FFF785FD02B03C
:103BB00010BD000070B584B004460E4601B100B9D6
:103BC00001BEB36813B1736803B901BE002323605B
:103BD0006360A360E360316901B9102108222046C7
:103BE000FFF79CFE054680B90123237304F108000A
:103BF000F2686AB102943378019373680093B368F2
:103C00000749FFF7F9FC054620B9284604B070BD06
:103C1000044AEFE7002323732046FFF7DFFEF4E7B3
:103C2000893B0010E841061070B582B00446FFF7EA
:103C30006CFA0546237B002B3ED0012B13D00026C7
:103C4000237B042B29D1237BBBB32846FFF761FAE2
:103C50002046FFF7C3FE064690BBFFF756FA05461F
:103C60000023237329E003232373FFF752FA002272
:103C700000920192EFF305839B1A18BF0123694656
:103C80002046FFF761FE06460028D9D0FFF73DFA2F
:103C900001232373FFF73DFA12E02846FFF739FAB4
:103CA00004F10800FFF744FD064648B9FFF72DFA76
:103CB000054604232373C6E700262846FFF729FAA2
:103CC000304602B070BD000070B582B00D46164699
:103CD000044640B34DB3FFF718FA237B013BDBB238
:103CE000012B24D863680133636002232373FFF739
:103CF00010FA00950196EFF30583003B18BF0123EE
:103D0000002269462046FFF71FFE0546FFF7FDF932
:103D10006368013B63600BB901232373FFF7F9F973
:103D2000284602B070BD01BED4E701BED3E7FFF75D
:103D3000F0F9014DF4E700BF20000E06401A70476D
:103D40000238032803D8DFE800F00A040608002040
:103D500070475020704762207047702070474020A5
:103D6000704720B129B132B13BB10020704701202A
:103D7000704701207047012070470120704748B10B
:103D800051B10B7803B14AB10B694BB1CB684BB160
:103D900000207047012070470120704701207047C4
:103DA00000207047012070472DE9F04768B10F46A9
:103DB00015460646836E7BB1426DA2B1D1B19847DC
:103DC00080464FF00009CA462FE0264B264A40F2B3
:103DD0005E21264858F06EFD254B234A40F25F21B4
:103DE000224858F067FD234B1F4A4FF418711F48B3
:103DF00058F060FD204B1C4A40F261211B4858F0EE
:103E000059FD1E4B184A40F27E21184858F052FDC9
:103E1000B36E98474146FFF791FF092805D94FF047
:103E2000010902E04FF00109A2469DB1B9F1000F6E
:103E300010D1736D2A463946B06D9847041EF1DBE8
:103E4000E6DDB36E98478046AC42DAD82D1BA2441B
:103E50002744EAE7BAF1000F01DDC6F8708050464A
:103E6000BDE8F087F4410610FC4406100842061035
:103E7000704206108C420610B8420610C842061066
:103E80002DE9F04F83B0A8B10D468046036E8B42FA
:103E900017D3D0F868B0BBF1000F19D0D0F850A0FC
:103EA000BAF1000F1BD0C66D06B3D84701900027AA
:103EB000B94633E0244B254A40F2D621244858F035
:103EC000F9FC244B214A40F2D721214858F0F2FC5A
:103ED000214B1E4A4FF436711D4858F0EBFC1F4B26
:103EE0001A4A40F2D9211A4858F0E4FC1C4B174AF0
:103EF00040F2DA21164858F0DDFC1A4B134A40F222
:103F0000FA21134858F0D6FCD8470199FFF716FF5D
:103F1000092803D9012701E00127A14685B17FB90E
:103F20002A463146D8F85800D047041EF4DBEBDDB2
:103F3000D8470190AC42E0D82D1BA1442644EDE7C0
:103F4000484603B0BDE8F08FF4410610C0440610A7
:103F500008420610F0420610704206101C4306107C
:103F600048430610704306102DE9F84F68B10E461D
:103F700093468046D0F868A0BAF1000F0CD0046ECA
:103F8000D047814600273D4614E0164B164A40F2C2
:103F90002231164858F08EFC154B134A40F223315B
:103FA000124858F087FC21464046FFF769FF8442DB
:103FB00008D00127B5420ED26FB9731BA342F2D2CB
:103FC0001C46F0E70544D0474946FFF7B7FE584581
:103FD000F0D30127EEE7B54202D00420BDE8F88F08
:103FE0000720FBE7F4410610CC44061008420610F7
:103FF0007042061010B584B004AC04E90E0058B14C
:10400000C26D82B1039C026E944213D9069A214676
:10401000FFF7AAFF04B010BD0B4B0C4A40F25F3112
:104020000B4858F047FC0B4B084A4FF458710848AE
:1040300058F040FC2146FFF723FF844201D00420C2
:10404000E8E70020E6E700BFF4410610DC44061074
:10405000084206104843061050280FD062280FD09F
:1040600040280FD0702801D10320704708B5064BB7
:10407000064A40F2C121064858F01CFC0120704756
:1040800002207047002070479843061080440610B5
:104090000842061070B5A0B10C4615460646B9B1E7
:1040A000EAB1C16D11B323690BB1E3682BB32A46A2
:1040B0003046FFF779FE85422FDC226922BB0020C3
:1040C00070BD184B184A40F27951184858F0F2FB6D
:1040D000174B154A40F27A51144858F0EBFB154B38
:1040E000114A40F27B51114858F0E4FB124B0E4A42
:1040F00040F27C510D4858F0DDFB104B0A4A40F26B
:104100007D510A4858F0D6FBE1683046FFF74CFE77
:104110002369834203DC0020D2E70320D0E7032099
:10412000CEE700BFF44106107045061008420610A5
:10413000C0430610D843061048430610E843061053
:104140002DE9F04F83B068B10F4693469846064676
:104150007BB1D0F868A0BAF1000F11D0D0478146EA
:1041600000251FE02E4B2F4A4FF4B7612E4858F020
:10417000A1FB2E4B2B4A40F2B9512B4858F09AFB29
:104180002B4B284A40F2BA51274858F093FBD047AE
:104190004946FFF7D3FDB84234BF00200120072C69
:1041A0000FD170B94246B16D306D01F0DEFA0446B0
:1041B000002FECD1012D94BF002001200135ADB2BC
:1041C000EDE7ACB9D0474946FFF7B8FD874206D9BD
:1041D0003F1A98F80030202B03D0052409E000276F
:1041E000F7E7009798E80E003046FFF703FF044614
:1041F00054B12CB9BBF1000F02D00C9B1B786BB9EA
:10420000204603B0BDE8F08FF36DC8F804300C9A77
:104210000021404601F05DFA0446EAE70524EFE795
:10422000F4410610EC44061008420610344406100F
:1042300070420610F0B585B000238DF80F3048B1FC
:104240000D4606461046FFF77BFD044648B920465A
:1042500005B0F0BD144B154A40F2B131144858F086
:1042600029FBFFF7F9FE07462A46214606F15C00C6
:1042700001F0B0F908B10324E9E70422F16D3046FA
:10428000FFF792FD042801D00324E0E7012386F81C
:1042900074300DF10F03009300233A46294630464F
:1042A00001F05BFD0446D2E7F44106109844061085
:1042B0000842061030B583B0002301938DF8033017
:1042C00048B10546F9B10DF1030201A901F097FDCE
:1042D0000146002413E0134B134A4FF4C661134800
:1042E00058F0E8FA9DF803202846FFF7A3FF04469C
:1042F0000DF1030201A9284601F081FD014669B1D3
:10430000002CEFD00AE028242246002158F098FD26
:1043100022460021281958F093FD0024204603B0BE
:1043200030BD00BFF4410610A84406100842061034
:10433000F0B587B000238DF8173020B30C46054642
:1043400041B3C76E6FB30878FFF786FE06460022BA
:1043500005A9204601F0BDF950B390B9BDF814305D
:10436000ADF808308DF810000023039302AA21460F
:104370002846B8479DF81720BDF814102846FFF7C7
:1043800059FF07B0F0BD104B104A40F28141104870
:1043900058F090FA0F4B0D4A40F282410C4858F009
:1043A00089FA0D4B094A40F28341094858F082FAD4
:1043B0000DF11703009301233246BDF8141028466F
:1043C00001F0CBFCC9E700BFF44106100845061018
:1043D00008420610344406104C440610F0B585B06F
:1043E0000023ADF80E30A8B10C4615460646C1B103
:1043F000C76EEFB10B78B02B27D034D8702B04D018
:1044000021D8502B01D0622B19D121463046FFF71D
:104410008FFF26E0284B294A4FF49961284858F02D
:1044200049FA284B254A40F2C941254858F042FA3A
:10443000254B224A40F2CA41214858F03BFA402B12
:10444000E3D005200DE0902B0AD100220DF10E01E2
:10445000204601F03EF9F0B106281AD000231BE0F7
:10446000052005B0F0BDD02B0AD100220DF10E01C0
:10447000204601F02EF9034620B925B9012302E0B8
:104480000520EEE7002338B935B1002286F87C20FC
:1044900002E0012300E00123002BE2D0BDF80E3042
:1044A000ADF800308DF80800002501956A462146D8
:1044B0003046B8472846D4E7F44106101C4506109C
:1044C00008420610344406104C440610F0B585B07E
:1044D0001D4600230393029360B10C46164607461F
:1044E00079B1ADB102AA03A9204600F0FBFFB0B13B
:1044F00005B0F0BD0E4B0F4A4FF4CB610E4858F09B
:10450000D9F90E4B0B4A40F259610B4858F0D2F9D9
:104510000B4B084A40F25A61074858F0CBF9009516
:1045200007F15C03039A3146204600F0F6FFDFE70F
:10453000F44106107C45061008420610C0430610E0
:104540006C44061070B58CB000238DF82F30ADF898
:104550002C3030B30D46064651B3C36E7BB306AA6A
:104560000BA9284601F09BF8044678B3B4B90022A1
:10457000BDF82C30ADF80C3006AB04938DF8144028
:1045800022B9F36E03AA2946304698479DF82F209A
:10459000BDF82C103046FFF74DFE044620460CB007
:1045A00070BD184B184A40F20F41184858F082F974
:1045B000174B154A4FF48261144858F07BF9154B9C
:1045C000114A40F21141114858F074F90DF12F03CE
:1045D00000939DF818300122BDF82C10304601F0F0
:1045E00065FB60B1092801D00446BFE79DF81810AB
:1045F000012001F048FB8DF82F000122B8E70446A6
:10460000B4E700BFF441061030450610084206101A
:10461000344406104C44061028B3F8B50C46164630
:104620001D46074609B3069B0BB312B31DB30B68B7
:104630001BB34B681BB38022002158F001FC07F12B
:10464000500394E8070083E80700BE66FD6607F1A3
:104650005C03069A92E8030083E803000123A7F8AD
:104660006430002002E0012070470120F8BD0120E5
:10467000FCE70120FAE70120F8E70120F6E7012036
:10468000F4E72DE9F04389B00D4690469946109E17
:10469000002407940694039404940594074648B1B3
:1046A000E1B1EEB106AB07AA4146284600F032FE62
:1046B000044600E00124ACB1ECB134B374B34CB99E
:1046C000012387F866306B88A7F87630002387F8D7
:1046D0007C30BB67204609B0BDE8F0830124EAE7DF
:1046E0000124E8E707F15C03079A4146284600F0F9
:1046F00047FE0446E0E7069AF96D3846FFF754FB9B
:10470000069B8342D9DD0324D8E7009603AB2A78C1
:1047100049463846FFF714FD0446CFE7317838465E
:10472000FFF7C8FD0446CAE72DE9F04184B005460D
:104730000E4617469846002403940294FFF711FB97
:10474000044628B164B1B4B1204604B0BDE8F0819C
:1047500002AB03AA3946304600F038FE0446F1E7C2
:1047600005F15C030093039B42463946304600F056
:1047700044FE0446E7E7029AE96D2846FFF714FB7A
:10478000029B8342E0DD0324DEE770B584B005467A
:104790000C461646002303938DF80B30FFF7EFFA13
:1047A00068B108B922788AB920B9039A2146284607
:1047B000FFF770FC08B9237893B904B070BD03AB60
:1047C000324621462846FFF781FEEAE73146284671
:1047D00001F044FA0928E7D1A378002BE5D1E3E7FB
:1047E0000DF10B02009200223146284601F05EFADC
:1047F000E3E730B583B000230193054640B101A83B
:1048000000F030FF04462CB154B1204603B030BD57
:104810000124F8E705F15C0000F02BFF0446F3E704
:10482000019AE96D2846FFF7BFFA019B834205DC38
:104830002B6FAB67012385F87C30E6E70324E4E7C0
:1048400070B5E8B10546836E0BB398470646B5F8D8
:1048500076404FF47A7303FB04F41CB3296FFFF71F
:104860006DFAA04220D995F87C30BBB1A96F3046D3
:10487000FFF764FA41F28833984217D8002012E01B
:104880000B4B0C4A40F2E7310B4858F013F80B4B36
:10489000084A4FF47A71084858F00CF82846FFF798
:1048A000A8FF00E0002070BD0020FCE70A20FAE726
:1048B000F4410610484506100842061070420610E2
:1048C000F0B587B008B30E4617460546C36D1BB357
:1048D00003AA816D006D00F048FF0446072822D02E
:1048E00050B36CB9EB6D04939DF80C3003F0F003FA
:1048F000302B2AD03A4603A92846FFF76FFD04461D
:10490000072C28D0204607B0F0BD144B144A40F2C3
:104910000E51144857F0CEFF134B114A40F20F517D
:10492000104857F0C7FF1FB90028E9D00446D8E760
:104930002846FFF785FFF7E7009606AB13E90E0060
:104940002846FFF757FB0446CBE703A92846FFF7A5
:10495000F9FD0446D4E70024D4E700BFF441061073
:104960005845061008420610484306102DE9F0414C
:1049700084B005460E4617469846002403940294D8
:10498000FFF7EFF9044628B164B1B4B1204604B092
:10499000BDE8F08102AB03AA3946304600F05FFD66
:1049A0000446F1E705F15C030093039B4246394658
:1049B000304600F06BFD0446E7E7029AE96D2846B1
:1049C000FFF7F2F9029B8342E0DD0324DEE730B516
:1049D00083B000230193054660B101A800F025FED5
:1049E00004464CB174B114B9002385F866302046F2
:1049F00003B030BD0124F4E705F15C0000F01CFEBB
:104A00000446EFE7019AE96D2846FFF7CDF9019BCF
:104A10008342E8DD0324EAE72DE9F0410F4606462C
:104A2000F0B1836E03B3C26D12B398478046002580
:104A300086F874503C4600E03C1A75B901222146C4
:104A40003046FFF73DFF05460028F6D1B36E984784
:104A50004146FFF773F98742EED82846BDE8F0815A
:104A60004FF000080125E5E74FF000080125E1E7D8
:104A70004FF000080125DDE7034668B1B0F8640097
:104A80004FF6FF72904203D0421CA3F86420704797
:104A90000122A3F86420704700207047B0B103469C
:104AA000B1B1BAB10078902801D0012070475868A0
:104AB00090B110B49C68022C10D9023008609B6839
:104AC000023B136000205DF8044B704701207047E3
:104AD0000120704701207047012070470120F2E754
:104AE0007F2807D9B0F5804F06D3B0F5001F05D257
:104AF0000320704701207047022070470420704750
:104B00002DE9F04182B007460E4600248DF807409B
:104B1000A046012512E09DF8073003F07F0305FB56
:104B20000344ED0108F1010801E04FF08054B4F1B5
:104B3000805F10D09DF90730002B0CDAB5F5001F0F
:104B4000F3D801220DF107013046B8470128E2D021
:104B50004FF08054EBE7B4F1805F06D02046FFF7BA
:104B6000BFFF804501D04FF08054204602B0BDE821
:104B7000F08100F0F003602B22D006D9B02B28D0B2
:104B800014D9D02B1AD000207047402B1DD003D948
:104B9000502B09D000207047202B18D0302B01D08B
:104BA000002070470120704701207047702B12D001
:104BB000902B01D0002070470120704701207047E2
:104BC00010F0020F09D1002070470120704701202A
:104BD000704701207047012070470120704719B9C4
:104BE000824206D8084670470232824203D800202B
:104BF0007047052070470520704738B5049D7DB18A
:104C00001C4678B12B687BB181B18AB12046FFF791
:104C100067FF031901336A689A420BD3002000E052
:104C2000012038BD0120FCE70120FAE70120F8E768
:104C30000120F6E70220F4E708B560B90A4B0B4AF9
:104C400040F2D9110A4857F035FE42F0800200F8D0
:104C5000012B7F2B06D901F07F020B46C9097F2B60
:104C6000F5D9F2E708BD00BF84460610EC490610EE
:104C70009C4606102DE9F04190469DF8182050B151
:104C80001F46864671B1B8F1000F12D0C3B102259C
:104C9000002006461DE0214B214A40F2F531214813
:104CA00057F008FE204B1E4A40F2F6311D4857F0DF
:104CB00001FE1E4B1A4A40F2F7311A4857F0FAFD2E
:104CC0001B4B174A4FF47E71164857F0F3FD01262F
:104CD0000130884211D200EB400C0EEB8C0CBCF87A
:104CE000084063199D1C02B9DD1C002CEFD0DCF8D4
:104CF0000430002BECD10126EAE7B5F1805F09D240
:104D00004EB9C8F800502846FFF7EAFE01300544C6
:104D10003D6000E001263046BDE8F0810C470610FA
:104D2000BC4906109C46061028470610404706104E
:104D30005C4706102DE9F041E8B10F4616460346E0
:104D400001B332B30289901C197801B1101D174CC0
:104D5000241AD3F81080A04522D808EB0005284675
:104D6000FFF7BEFE241AA0451DD83D60013028443F
:104D70003060012015E00E4B0E4A40F21E210E4815
:104D800057F098FD0D4B0B4A40F21F210A4857F08F
:104D900091FD0B4B074A4FF40871074857F08AFD05
:104DA0000020BDE8F0810020FBE700BFFEFFFF0F01
:104DB000C0430610AC4A06109C4606104047061039
:104DC0005C47061008B581B10B4610F0040F13D0F4
:104DD00010F0020F19D102220A7000F001025A707D
:104DE000C0F3C0009870002008BD094B094A40F28A
:104DF0004B31094857F05EFD10F0020F02D001223E
:104E00000A70EAE700220A70E7E70520ECE700BF36
:104E1000C04306106C4A06109C460610F8B50028E0
:104E200030D00F4614460646002932D0002A37D02B
:104E30004568002D3BD00078114600F00F00FFF7C9
:104E4000C1FF20B903222178B068FFF7C8FE48B936
:104E50002B786A7842EA0322228102322178B068F4
:104E6000FFF7BDFE50BB023565602389EA18217843
:104E700029B3E95C537843EA01233B800232F3B95A
:104E800005202AE0154B164A4FF49B61154857F050
:104E900011FD154B124A40F2D941124857F00AFD54
:104EA000124B0F4A40F2DA410E4857F003FD104B07
:104EB0000B4A40F2DB410B4857F0FCFC002260B982
:104EC000B36821895B1A023B2361217809B1023B57
:104ED0002361236903B90022E260F8BD344406105F
:104EE000804A06109C46061070470610C043061004
:104EF0008447061010B586B08646EC46094C0FCCA8
:104F0000ACE80F0094E803008CE80300BEF1050F45
:104F100001D806B010BD044B044A40F28B3104485E
:104F200057F0C8FC78490610AC470610444A0610F2
:104F30009C46061010B538B169B142688368022BEF
:104F400010D00524204610BD154B164A40F2A13161
:104F5000154857F0AFFC154B124A40F2A2311248E7
:104F600057F0A8FC137833F0010001D00524E9E7DD
:104F700013F0010F05D001230B7053781BB10524EA
:104F8000E0E700230B705478052C01D90524D9E7FC
:104F90002046FFF7AFFF002CD4D00624D2E700BF95
:104FA000C0470610584A06109C460610D447061003
:104FB00008B521B184468E46002318460AE00A4B04
:104FC0000A4A40F241410A4857F074FC802A08D14D
:104FD00006200133634505D21EF80320022AF5D8C6
:104FE000F7E7052008BD00BFEC4706101C4A061075
:104FF0009C46061008B538B1034661B180685B680D
:1050000002280FD8052008BD0C4B0D4A40F27A410A
:105010000C4857F04FFC0C4B094A40F27B410948C1
:1050200057F048FC93F800C05A7842EA0C220A80F4
:10503000991C0238FFF7BCFFE5E700BF04480610E3
:10504000304A06109C4606101448061008B518B1E0
:10505000836843B9002008BD044B054A40F256510D
:10506000044857F027FC0520F5E700BF304806103C
:10507000A84906109C46061008B528B159B18268A7
:10508000022A0FD0052008BD0C4B0D4A40F23351C7
:105090000C4857F00FFC0C4B094A40F234510948B8
:1050A00057F008FC42681078537843EA00230B80DD
:1050B0000BB10020E7E70520E5E700BF44480610F4
:1050C000904906109C4606101448061038B558B191
:1050D0001446120A02704470851C19B122462846F3
:1050E00057F086FE281938BD034B044A40F2FD11E3
:1050F000034857F0DFFB00BF84460610DC4906106A
:105100009C46061070B5002850D00E4611461D462C
:105110000446002B51D01868002855D0102300F801
:10512000013BFFF789FD04223249FFF7CFFF04233B
:105130000370237803B10223E2680AB143F08003CD
:1051400062690AB143F04003002E4AD043F00402E2
:10515000317801293FD0022940D0737813B142F051
:105160002002D2B2427063881B0A8370A378C37096
:10517000228961680430FFF7A9FF3EB13289716866
:10518000FFF7A4FF328AF168FFF7A0FFE16811B1D1
:10519000228AFFF79BFF616911B1228BFFF796FF0F
:1051A0002B68C01A6B6898421DD870BD124B134A09
:1051B00040F26E51124857F07DFB124B0F4A40F2FD
:1051C0006F510F4857F076FB0F4B0C4A4FF4AE610E
:1051D0000B4857F06FFB43F00C02BEE743F014029C
:1051E000BBE71A46BEE7094B044A4FF4BB610448CB
:1051F00057F060FBA448061054480610044A0610F5
:105200009C4606106C48061084480610AC480610F0
:105210002DE9F0419DF81880002836D017461E462B
:105220000546002B38D0186800283CD02B780BB1ED
:10523000002A3FD0AA780AB1002B42D0012B47D0D8
:10524000022B47D030236C780CB143F001030AB134
:1052500043F0080300F8013BFFF7EEFC2A89696878
:10526000FFF734FF04462B781BB13B0A03704770ED
:1052700002342A6912B1B8F1000F2DD13068241A16
:1052800073689C422FD8BDE8F0811A4B1A4A40F24D
:1052900072211A4857F00EFB194B174A40F273213E
:1052A000164857F007FB174B134A4FF41D7113486C
:1052B00057F000FB144B104A40F276210F4857F08C
:1052C000F9FA124B0C4A4FF41E710C4857F0F2FADF
:1052D0003223B8E73423B6E7E968204657F088FD63
:1052E0002B691C44CAE70A4B034A40F2C121034818
:1052F00057F0E0FAC0430610944A06109C46061088
:105300006C48061084480610F4480610344906100C
:10531000AC48061040B370B515461C4603462AB388
:1053200034B3068936B3406830B319B10869B0F5B3
:10533000803F23D20C3621B10A8909690A443244DC
:10534000161DDA6812B11A8A3244961C5A6912B1D3
:105350001A8B3244961C3046FFF7C2FB01303044B2
:105360002E602060002002E001207047012070BD07
:105370000120FCE70120FAE70120F8E70120F6E729
:10538000E0B1F8B50E4615461C460746C3B11B688A
:10539000C3B109B14B68BBB12846FFF7A1FB284454
:1053A00001306368834201D202200AE023462A4684
:1053B00031463846FFF7A6FE002002E00120704784
:1053C0000120F8BD0120FCE70120FAE778B184460E
:1053D0007AB183B109B90120704700B583B00020CC
:1053E00000906046FFF746FC03B05DF804FB012027
:1053F000704701207047012070472DE9F04383B0CA
:1054000004460D46904699460A9F0097FFF7F5FB24
:10541000064618B1304603B0BDE8F08338688223F1
:1054200000F8013B4946FFF707FC4FEA18230370D9
:1054300080F80180023000270EE007EB47034FEAB7
:10544000830804EB83031A895968FFF73FFE14F8B9
:10545000083000F8013B0137AF42EED3DAE778B10C
:1054600084467AB183B109B90120704700B583B091
:10547000012000906046FFF7FDFB03B05DF804FBE0
:105480000120704701207047012070472DE9F0434B
:1054900083B006460D46904699460A9C0094FFF755
:1054A000ACFB074618B1384603B0BDE8F08320686E
:1054B000A22300F8013B4946FFF7BEFB4FEA182341
:1054C000037080F801800230002408E004EB4403FC
:1054D00006EB83031A895968FFF7F8FD0134AC42E3
:1054E000F4D3E0E778B108B5034671B17AB140680A
:1054F00078B1188908B9012008E01846FFF71AFCAE
:1055000048B1002002E001207047012008BD0120C1
:10551000FCE70120FAE70120F8E72DE9F04383B02A
:1055200004460F461646984613B348B30A9B5BB32E
:10553000D8F8003063B3436873B3038983B3037847
:1055400003B189B3236803F0FF13B3F5803F2FD075
:105550003046FFF7C5FA00EB06092369A9EB0309FA
:1055600009F10109D8F804304B4531D3002502E098
:105570004FF000090125FDB1284603B0BDE8F083D6
:105580004FF000090125F6E74FF000090125F2E789
:105590004FF000090125EEE74FF000090125EAE789
:1055A0004FF000090125E6E74FF000090125E2E789
:1055B0004FF000090125DEE70023009343463A46F9
:1055C00031462046FFF724FE0A9BC3F80090D3E73C
:1055D0000225D1E7F8B103460068F0B110B45C6869
:1055E000032C1CD9FAB162290AD005D8402907D06A
:1055F000502905D0012013E0702901D001200FE0CF
:1056000001701968022048701968100A88701B68B8
:10561000DA70002004E0012070470120704702206A
:105620005DF8044B70470120FAE718B102220260CE
:105630000020704701207047034668B102686AB1D4
:105640004268012A0CD9002058B91A68E02111706B
:105650001B6800225A7070470120F5E70120F3E72C
:105660000220704718B1022202600020704701201A
:105670007047034668B102686AB14268012A0CD9D2
:10568000002058B91A68C02111701B6800225A7096
:1056900070470120F5E70120F3E70220704780B151
:1056A00008B5034679B182B1007800F0F0003028E7
:1056B00001D0012008BD586848B11846FFF7AEFB7D
:1056C000F8E7012070470120F4E70120F2E701200C
:1056D000F0E7002847D008B5844669B19AB1DCF8F4
:1056E0000430B3B19CF80030902B38D028D8202B50
:1056F00030D014D2052008BD0378202BEED0D02B5B
:10570000ECD00120F7E79CF80030202BE7D10120F6
:10571000F1E79CF80030D02BE4D00120EBE7622BBE
:1057200008D003D9702B05D00520E4E7402B01D029
:10573000502B03D16046FFF79FFCDCE70520DAE73A
:10574000B02BF7D0D02B03D16046FFF77FFCD2E718
:105750000520D0E711466046FFF7ECFBCBE760463B
:10576000FFF748FCC7E70120704732B370B5044625
:105770000D461646012231462846A0470346012819
:1057800007D00020012800D0ABB1012800D00420B0
:1057900070BD3078FFF7EDF908B90520F8E7294624
:1057A0002046FFF7ADF9B060B0F1805F01D0002076
:1057B000EEE70520ECE70720EAE7002301200128B7
:1057C00000D023B1012801D0042070477047072082
:1057D000704707282AD8DFE800F0040F2929292973
:1057E0001F24012A01D000207047881EC0B2012862
:1057F0008CBF002001207047012B03D0022B06D064
:1058000000207047062914BF002001207047072997
:1058100014BF002001207047062914BF002001207A
:105820007047072914BF00200120704700207047EF
:105830000238072836D8DFE800F0040929190424C3
:105840000E2E0A2914BF002001207047082914BF1A
:10585000002001207047052906D0082902D0002128
:10586000084670470121FBE70121F9E70A2906D024
:10587000052902D00021084670470121FBE70121DC
:10588000F9E7042914BF002001207047092914BF3B
:105890000020012070470939C9B201298CBF0020BE
:1058A000012070470020704702280BD003D903283D
:1058B00003D000207047012808D8012914BF002018
:1058C00001207047B1FA81F040097047002070470D
:1058D00038B518B102460A20002317E0134B144ACA
:1058E00040F2C511134856F0E5FF0A280DD002EB2F
:1058F000800522F820409CF80240AC709CF80340E0
:10590000EC70002422F80E40013001338B420BD2A0
:105910004FEA830E02EB830C32F82340002CE4D1D3
:105920000A28F2D11846F0E738BD00BFC84A061071
:10593000544C0610D84A06102DE9F84372B10546BA
:105940000F469946904683B101F18043013B30F800
:1059500023308BB97A1E3B46002614E0184B194AB7
:105960004FF4F971184856F0A5FF184B154A40F24C
:10597000F311154856F09EFFFFF7AAFFEAE74445EA
:105980001AD00126013A002A07DB35F82240002C04
:10599000F5D1002EF6D11346F4E70220BB4209D21E
:1059A00005EB830225F8238082F802909DF82030D1
:1059B000D3700020BDE8F8833B460920EEE700BF26
:1059C000444B0610644C0610D84A0610684B06106B
:1059D00038B5049D6AB184469646002028708842F6
:1059E00012D20CEB80043CF82020724508D0013024
:1059F000F5E7064B064A4FF4D671064856F05AFFB3
:105A0000A2781A70E3782B7038BD00BF444B0610A3
:105A1000444C0610D84A061008B520B153B10023F3
:105A200020F8213008BD054B054A40F22F210548DA
:105A300056F040FF00EB8101CA70F3E7C84A061038
:105A4000204C0610D84A06102DE9F04782B09DF888
:105A500028509DF82C709DF8306090B18946904692
:105A60001C468246A2B1D5B12B4622463146384665
:105A7000FFF7AFFE58B3012C18D0B7421FD100205A
:105A800026E0154B154A4FF43971154856F012FFB0
:105A9000144B124A40F2E521114856F00BFF124B0D
:105AA0000E4A40F2E6210E4856F004FF00962B46BF
:105AB00042460A210AF12800FFF73EFF08E00023D2
:105AC000324649465046FFF7A7FF002000E0082075
:105AD00002B0BDE8F08700BF784B0610304C0610CE
:105AE000D84A0610444B0610684B06102DE9F043C7
:105AF00083B09DF8284090B10F4690461D468146E0
:105B00000A2C15D0042C11D000231E46214628460D
:105B1000FFF78EFE08B3AC420CD100201EE0114B03
:105B2000114A40F2A721114856F0C4FE0123ECE7C8
:105B30000123EAE73346224639464846FFF76CFF21
:105B4000042C01D0002009E00423009302234246E4
:105B50000A214846FFF7F0FE00E0082003B0BDE848
:105B6000F08300BFC84A0610104C0610D84A061031
:105B700010B5D0B10446F9B12AB340F2D22319428C
:105B800028D021F4347333F002032AD11368092B8F
:105B900033D804EB830C9CF803E0012000FA0EF0EC
:105BA000884325D001331360F0E7154B154A40F2C6
:105BB0004721154856F07EFE144B124A4FF41271DD
:105BC000114856F077FE124B0E4A40F249210E481A
:105BD00056F070FE0F4B0B4A40F253210A4856F024
:105BE00069FE0D4B074A4FF41571074856F062FEE7
:105BF000BCF800000133136000E0002010BD00BFBE
:105C0000784B0610044C0610D84A0610904B06102C
:105C1000A44B0610B44B0610DC4B0610022A14BF2E
:105C200000230123032803D8DFE800F0040A0D1045
:105C300000200CE0012A14BF002301230A2006E003
:105C400041B9082003E039B9092000E00A2003B96E
:105C5000002070470420FAE70520F8E710B582B06D
:105C6000044610465AB149B15CB101230093134672
:105C70000A460A212046FFF75FFE00E0012002B03D
:105C800010BD0120FBE7012906D0022907D009B188
:105C9000002070470A20704720B90620704718B9C5
:105CA0000720704702207047032070472DE9F0431A
:105CB00087B00E4615461C4600238DF817308DF828
:105CC0001630814610B30E9B43B32CB94FF00A082F
:105CD00083F8008020461CE021B31AB14FF00A0877
:105CE000002016E00DF1170300930DF116030A468C
:105CF0000A21FFF76DFE80460A2817D09DF816305E
:105D0000A34201D0012004E0284602E04FF00A0837
:105D1000012004B160B107B0BDE8F0834FF00A087C
:105D20000120F6E74FF00A080120F2E70120F0E732
:105D300021462846FFF7A7FF074602909DF8173037
:105D4000019300942B46324641464846FFF77CFEBD
:105D50000028E0D10E9B1F70DDE72DE9F04184B0F3
:105D600004460F4615461E464FF000088DF80F807A
:105D700019461046FFF798FD8DF80E809CB10A9BDE
:105D8000D3B1F7B1032D21D800B928340DF10F0399
:105D900000930DF10E033A460A212046FFF718FE44
:105DA0008046052002E001204FF00A08B8F1090FF3
:105DB00011D904B0BDE8F0810A9C01204FF00A0817
:105DC000F4E7012000244FF00A08EFE70120002447
:105DD0004FF00A08EAE79DF80E2031462846FFF703
:105DE0001DFF054600909DF80F303A46414620467B
:105DF000FFF77CFE0028DCD10A9B1D70D9E760B15B
:105E000010B5144659B162B10A464FF40471FFF758
:105E1000AFFE38B10423237004E000207047002057
:105E200000E0002010BD30B108B531B10A46C221F2
:105E3000FFF79EFE08BD002070470020FAE700B57E
:105E400083B00023019301A8FDF782FE18B90198E1
:105E500003B05DF804FB00200190F9E708B5FDF7F9
:105E600083FE08BD2DE9F04385B0054688461746F8
:105E7000994611F003042FD0B8B12868384B1B683D
:105E800093F82D301F2B12D8364903AB00932023F3
:105E90000A463BF0E9FF00B101BEC4F1040422460A
:105EA00003A9404656F0B2FF16E001BEE5E72D49D2
:105EB00003AB009320230A463CF016F8EBE701BE43
:105EC00011E0284903AB009320230A463CF00CF86C
:105ED00017E0039B33600434FB1EA34215D908EB83
:105EE0000406002DEBD028681D4B1B6893F82D305D
:105EF0001F2BE6D81B4903AB009320230A463BF037
:105F0000B3FF0028E5D001BEE3E7BC4205D3C9F8E2
:105F10000040002005B0BDE8F083BDB12868104BFB
:105F20001B6893F82D301F2B12D80E4903AB00933A
:105F300020230A463BF098FF00B101BE3A1B03A99B
:105F400008EB040056F062FF3C46E0E701BEE5E7DF
:105F5000044903AB009320230A463BF0C5FFEBE75F
:105F6000242E0108B71DC10470B584B005460E4645
:105F700014460023039301A83AF063FF68B903AB0A
:105F80003246294601A8FFF76DFF039B236001A855
:105F90003AF062FF002004B070BD4FF0FF30FAE726
:105FA00010B582B0002400940CE0BDF80430BDF8B8
:105FB000062002FB03F3094CA4FB0324E40D084A6A
:105FC00002FB14343CB96A4604210DEB0100FFF7D3
:105FD000CBFF0028E9D0204602B010BD3F96BFD6C7
:105FE0007F96980010B5044600230360FFF727FF53
:105FF00058F0F6FAFFF7D4FF054BA3FB002323F07C
:10600000030202EB9303C31A0133636010BD00BFA8
:10601000CDCCCCCCF8B110B504460368032B16D810
:10602000FFF7BEFF6368B0FBF3F203FB1200FFF75C
:1060300015FF23680133236063683F2B03D85B009F
:106040006360002006E080236360002002E0FFF729
:10605000C9FF012010BD0120704708B50B680BB1C6
:1060600048689847002008BD08B548F089FD08BD7C
:1060700008B549F005FD08BD2DE9F04188B0984606
:1060800000238DF81F30002800F0C8800D4616460A
:106090000446002900F0C4800293039304930593FF
:1060A0000693036080F83030C36143608360C3604F
:1060B00003614361836102AA0421286849F012FC4C
:1060C0000746A8B187B194F83030002B40F0A0808B
:1060D000E06918B149F012FF0023E361206818B1AC
:1060E00049F038FC00232360384608B0BDE8F08151
:1060F000AB88A38002AF0FCFA060E1602261636133
:106100003868A061002E60D0306910B17169002933
:1061100037D1F06930B1316A21B1726A12B1B36A14
:10612000002B47D1234603220121022048F0EAFD3B
:1061300007460028C6D1E3694BB1042200920D2224
:106140000321206848F04EFE07460028BAD10123FB
:1061500000930DF11F0310220321206848F042FE36
:1061600007460028AED1B368002B38D0F268013A58
:1061700000920E220321206848F034FE074670B3D7
:10618000A0E7013949F024FE074600289AD10123EF
:1061900084F83030337E1BB902238DF81F30B8E706
:1061A000012B03D001238DF81F30B2E700238DF8B7
:1061B0001F30AEE704F11C070097013B013949F09D
:1061C00043FE07460028ADD07CE723460122114656
:1061D000022048F097FD074600287FF473AF039B29
:1061E000E36004232372AB88A380B8F1000F05D0CD
:1061F000D8F800302362D8F8043063620E9B002B7D
:106200003FF460AF1B68A3620E9B5B68E36259E7D3
:1062100049F0D4FD002384F8303059E7014F63E79B
:10622000004F61E702002A0810B586B00391029280
:10623000002844D00446014651F8040B182249F0C6
:1062400041F9034610B1184606B010BD042300936F
:1062500002AB00220121206848F0C4FD034600285B
:10626000F1D10423009303AB01221146206848F0CA
:10627000B9FD03460028E6D1226A7AB1114B049396
:1062800004F1200305930823009304AB09220121A4
:10629000206848F0A7FD03460028D4D1A26A002A4E
:1062A000D1D0084B049304F12803059308220092EF
:1062B00004AB0121206848F095FD0346C3E7024B7B
:1062C000C1E700BF5B60001002002A0828B108B5D2
:1062D0000021006849F0A4F908BD0148704700BFDB
:1062E00002002A08A8B110B50446C06918B149F0E7
:1062F00005FE68B9E06194F8303023B149F05EFDE5
:1063000030B984F83000206849F024FB0023236072
:1063100010BD0148704700BF02002A0800B585B0D3
:106320004FF0FF330393A0B1B1B103AB009300234F
:10633000006849F067FA28B1094A904206D04FF048
:10634000FF330393039805B05DF804FB0023039328
:10635000F8E74FF0FF30F6E74FF0FF30F3E700BF0C
:106360000B002A0800B585B04FF0FF330393A0B1AE
:10637000B1B103AB00930023006849F0D7F928B10D
:10638000094A904206D04FF0FF330393039805B0BB
:106390005DF804FB00230393F8E74FF0FF30F6E7C6
:1063A0004FF0FF30F3E700BF0B002A0870470000F2
:1063B0000346084A1068084A121A9A4203D3034453
:1063C000044A13607047054B0C221A604FF0FF30EF
:1063D000704700BFE823000800E80F089C40010850
:1063E00008B501F02BFC08BD08B501F0E5FC08BDBF
:1063F00008B501F023FC08BD08B501F0DDFC08BDBF
:1064000008B501F01BFC08BD08B501F0D5FC08BDBE
:1064100030B58DB0044600220023CDE90023FFF7FC
:10642000EFFF1F4B1B6893B103A91D4B186838F091
:1064300001FE054608B3FFF7E7FF25BB1CB1DDE908
:106440000023C4E90023DDE900010DB030BD15488B
:1064500038F090FD054600B101BE15B1002DEAD11E
:10646000E2E7104D0E4B1D60684656F089FB014671
:10647000284638F03BFE0546F0E703A856F0C0FD7D
:10648000CDE90001D7E72CB14FF0FF324FF0FF33D9
:10649000C4E900234FF0FF304FF0FF31D5E700BFD4
:1064A000284100082C4100080CB42DE9F04F89B0B8
:1064B0004F4B1B78002B00F08C8004460D460528BE
:1064C00000D900244A4BD3F81C34002B00F0838001
:1064D000474B23441B7B002B7FD0AB42C0F0848012
:1064E000434BD3F82034002B6AD007A898470646C0
